:020000040800F2
:1000000000040020D9020008DB020008DB0200081F
:10001000DB020008DB020008DB020008DB0200084C
:10002000DB020008DB020008DB02000831BB00082D
:10003000DB020008DB020008C10B0108DB0200083C
:10004000DB020008DB020008915D0008215E000869
:10005000DB020008DB020008C109010811410008A9
:1000600081410008F141000861420008A1460008F2
:10007000F14600084147000891470008E1470008A1
:100080003148000881480008DB020008DB02000854
:10009000DB020008DB020008DB020008D142000896
:1000A000DB020008DB020008DB020008DB020008BC
:1000B000916E0008DB020008DB0200081156000800
:1000C00041560008DB020008DB02000801110108AC
:1000D000DB020008DB02000891730008C17300080E
:1000E000B10A0108815E0008DB020008DB0200089B
:1000F000DB020008DB020008DB020008D148000830
:10010000DB0200086167000821710008DB020008BB
:10011000DB020008DB020008DB020008DB0200084B
:100120002149000871490008C1490008114A000826
:10013000614A0008DB020008DB020008DB0200085D
:10014000DB020008DB020008DB020008DB0200081B
:10015000B14A0008014B0008514B0008F173000838
:10016000DB020008DB020008DB020008DB020008FB
:10017000DB020008DB020008DB020008DB020008EB
:10018000DB020008DB020008DB020008DB020008DB
:10019000DB020008DB020008DB020008DB020008CB
:1001A000DB020008DB020008DB020008DB020008BB
:1001B000DB020008DB020008DB020008DB020008AB
:1001C000DB020008DB020008DB020008DB0200089B
:1001D000DB020008DB020008DB020008DB0200088B
:1002000072B6274880F30888264880F30988264874
:100210004EF60851CEF200010860022080F31488E7
:10022000BFF36F8F00F07CF800F02AF94FF05530E3
:100230001E491B4A91423CBF41F8040BFAE71C4996
:10024000184A91423CBF41F8040BFAE719491A4A8F
:100250001A4B9A423EBF51F8040B42F8040BF8E7E0
:1002600000201749174A91423CBF41F8040BFAE7B6
:1002700000F076F800F064F8134C144DAC4203DA49
:1002800054F8041B8847F9E712F0E2FA104C114DBC
:10029000AC4203DA54F8041B8847F9E700F058B879
:1002A00000040020001A00200000000800000020C8
:1002B00000040020F4660108001A00201420002029
:1002C0001820002094000120E0010008E00100084F
:1002D000E0010008E001000892E700F000F8FEE706
:1002E0002DE9F04FC1F80CD0C3689D46BDE8F08FF2
:1002F00007F066FB08F054FE002383F311882846BC
:10030000A047002008F0FCFA08F042FE07F040FB8E
:1003100008F08EF807F054FB08F042FE00DFFEE71D
:10032000704700BFAFF30080AFF30080AFF30080F1
:10033000704700BFAFF30080AFF30080AFF30080E1
:10034000704700BFAFF30080AFF30080AFF30080D1
:10035000FEE700BFAFF30080AFF30080AFF3008093
:100360000B4A11E050F8041B43F8041B91689942B2
:10037000F8D802E0002143F8041BD1689942F9D86B
:100380001032044B9A4202D210685368EEE770476D
:10039000A4430108244401080000000000000000FC
:1003A0004B6843608B688360CB68C3600B694361B3
:1003B0004B6903628B6943620B680360704700BF3F
:1003C00010B5214B1A6940F2FF110A431A611A69EC
:1003D00022F4FF7222F001021A611A691A6B0A43B1
:1003E0001A631A6D0A431A651B6D184C214618488A
:1003F000FFF7D6FF04F11C011648FFF7D1FF04F107
:1004000038011548FFF7CCFF04F154011348FFF7FA
:10041000C7FF04F170011248FFF7C2FF04F18C011D
:100420001048FFF7BDFF04F1A8010F48FFF7B8FF20
:1004300004F1C4010D48FFF7B3FF04F1E0010C48DB
:10044000FFF7AEFF10BD00BF003802402444010892
:10045000000002400004024000080240000C02407C
:10046000001002400014024000180240001C02402C
:1004700000200240AFF30080AFF30080AFF30080B4
:1004800008B5FFF79DFF04F07BF808BDAFF30080CF
:100490000279D31EDBB2012B0AD9062A08D0072A1B
:1004A00006D0054B1869C0F3C020044B1870704784
:1004B000024B1878704700BF000802401820002047
:1004C00000207047AFF30080AFF30080AFF30080EF
:1004D000704700BF000000000000000000000000A6
:1004E00008B504F015F804F01BFD01F051FB01F014
:1004F000FFFC02F00DFE02F06BFC02F049FF01F080
:100500005FFF03F0EDFAFFF7E3FF00F001F808BD2D
:1005100008B506F0EDFC08BDAFF30080AFF3008036
:1005200010B504464FF08043DB6813F0020F07D18B
:100530004FF080435C6300221A610222DA6010BD32
:10054000014807F095F8F3E720450108AFF3008074
:100550004FF080430022DA60704700BFAFF30080A5
:1005600010B504464FF08043DB6813F0020F03D050
:100570004FF080435C6310BD014807F079F8F7E75E
:1005800030450108AFF30080AFF30080AFF3008087
:1005900008B54FF08043DB6813F0020F03D04FF033
:1005A0008043586B08BD024807F062F8F7E700BFC8
:1005B0003C450108000000000000000000000000B1
:1005C0002DE9F041884615461E46069F044610B1A7
:1005D0000AB1012B02D80D4807F04AF82460646084
:1005E00084F808800022E26065612561043607FB1B
:1005F0000651A161E66127626562A262E262079B21
:100600002363089B6363BDE8F08100BF4845010890
:1006100010B5044607F05CFA0023E360626A626189
:100620002261A362E3626FF00101204608F0D0FB73
:1006300010BD00BFAFF30080AFF30080AFF30080C8
:1006400010B5044607F044FA20696369984203D064
:10065000002333B9043010BDE368002BF9D0012327
:10066000F7E70020F7E700BFAFF30080AFF30080AB
:1006700038B504460D4607F02BFA1DB1E369043B7B
:10068000AB4202D2124806F0F3FF226963699A4234
:1006900014D00023BBB923691D60E3680133E36014
:1006A000E269236913442361A269934201D3636A17
:1006B00023610021204608F06BFB38BDE368002B66
:1006C000E8D00123E6E7024806F0D2FFE3E700BFE7
:1006D00058450108AFF30080AFF30080AFF300800E
:1006E000D0B5044616461F4607F00AFAE3684BB930
:1006F000237AABB932463B46204608F031FB00284E
:10070000F4DA08E0E3683BB16269131DA362126882
:100710001344E3620020D0BD034806F0A9FFF3E7CD
:100720006FF00100F7E700BF6C450108AFF30080F0
:10073000D0B5044616461F46202383F3118808F0DF
:1007400027FC07F025F932463B462046FFF7C8FF55
:10075000044607F035F908F023FC094B1A689A4261
:1007600004D09B6999689368994204D3002383F36A
:1007700011882046D0BD034806F07AFFF6E700BF97
:10078000684F002088450108AFF30080AFF3008078
:1007900010B5044607F0B4F9E36893B1E368013B90
:1007A000E360E269636913446361A269934201D320
:1007B000636A63610023A362236B0BB120469847F1
:1007C00010BD024806F054FFE8E700BF9445010859
:1007D00010B50446202383F3118808F0D9FB07F0F5
:1007E000D7F82046FFF7D4FF07F0EAF808F0D8FB67
:1007F000084B1A689A4204D09B6999689368994299
:1008000003D3002383F3118810BD034806F030FFA3
:10081000F7E700BF684F002088450108AFF300806C
:10082000F8B5044616461F46202383F3118808F0C6
:10083000AFFB07F0ADF8A36AC3B1A36A13F8015B7D
:10084000A362E26A93422ED207F0BAF808F0A8FB3E
:10085000194B1A689A4204D09B6999689368994227
:1008600025D3002383F311882846F8BD32463B4642
:100870002046FFF735FF05460028DED007F0A0F838
:1008800008F08EFB0C4B1A689A4204D09B69996859
:100890009368994203D3002383F31188E4E7074860
:1008A00006F0E6FEF7E72046FFF772FFCCE70348C5
:1008B00006F0DEFED5E700BF684F0020884501083E
:1008C0002DE9F04104460F46904642B1202383F3C0
:1008D000118808F05DFB07F05BF8002647E03B4815
:1008E00006F0C6FEF2E7DDE906232046FFF7F8FE34
:1008F00000283FD007F064F808F052FB344B1A6828
:100900009A4204D09B6999689368994205D3002361
:1009100083F311883046BDE8F0812E4806F0A8FE2A
:10092000F5E72A46384612F04BFF2F44A36A2B44C2
:10093000A3622E44A26AE36A9A423ED207F040F8CC
:1009400008F02EFB224B1A689A4204D09B699968E2
:100950009368994235D3002383F311884645D9D251
:10096000202383F3118808F013FB07F011F8A36A22
:10097000002BB8D0E36AA16A5B1AA8EB06059D427A
:1009800000D31D46402DCCD90B463A464031D3F812
:1009900000E0D3F804C09D68D868C2F800E0C2F84F
:1009A00004C09560D060103310328B42EFD14037D5
:1009B000A36A4033A3624036BCE72046FFF7E8FE57
:1009C000BCE7044806F054FEC5E700BFAC4501088B
:1009D000684F002088450108AFF30080AFF3008026
:1009E0002DE9F041884615461E46069F044610B183
:1009F0000AB1012B02D80D4806F03AFE246064606B
:100A000084F80880E76065612561043607FB0652BB
:100A1000A261E661276265620023A362E362079B2D
:100A20002363089B6363BDE8F08100BFBC450108F8
:100A300010B5044607F04CF8236AE360636A63610B
:100A400023610023A362E3626FF00101204608F0F6
:100A5000BFF910BDAFF30080AFF30080AFF30080AB
:100A600038B504460D4607F033F8226963699A42A7
:100A700006D000224AB91B682B606069043038BD7B
:100A8000E268002AF6D00122F4E70020F7E700BF71
:100A900010B5044607F01CF8226963699A4212D027
:100AA0000023ABB9E3680133E360E269636913448F
:100AB0006361A269934201D3636A636100212046A6
:100AC00008F066F910BDE368002BEAD00123E8E7DF
:100AD000014806F0CDFDE5E7CC450108AFF3008005
:100AE000D0B5044616461F4607F00AF8E3684BB92E
:100AF000237AABB932463B46204608F031F900284C
:100B0000F4DA08E0E3683BB123691A1DA262E269E6
:100B10001344E3620020D0BD034806F0A9FDF3E7CB
:100B20006FF00100F7E700BFE4450108AFF3008074
:100B3000D0B5044616461F46202383F3118808F0DB
:100B400027FA06F025FF32463B462046FFF7C8FF4E
:100B5000044606F035FF08F023FA094B1A689A425A
:100B600004D09B6999689368994204D3002383F366
:100B700011882046D0BD034806F07AFDF6E700BF95
:100B8000684F002088450108AFF30080AFF3008074
:100B900038B504460D4606F0B3FF1DB1E369043BCA
:100BA000AB4202D20E4806F063FDE368A3B12369AD
:100BB0001D60E368013BE360E2692369134423613C
:100BC000A269934201D3636A23610023A362236B6A
:100BD0000BB12046984738BD014806F049FDE6E7CD
:100BE00000460108AFF30080AFF30080AFF3008050
:100BF00038B504460D46202383F3118808F0C8F960
:100C000006F0C6FE29462046FFF7C2FF06F0D8FED2
:100C100008F0C6F9084B1A689A4204D09B69996893
:100C20009368994203D3002383F3118838BD0348A6
:100C300006F01EFDF7E700BF684F00208845010859
:100C40002DE9F0410446884616461F46202383F3CB
:100C5000118808F09DF906F09BFEA36AE3B1A36A30
:100C600083F80080A36A0133A362E26A934230D220
:100C700006F0A6FE08F094F91B4B1A689A4204D0BD
:100C80009B6999689368994229D3002080F3118861
:100C900005462846BDE8F08132463B462046FFF730
:100CA0001FFF05460028DAD006F08AFE08F078F922
:100CB0000D4B1A689A4204D09B69996893689942CF
:100CC00003D3002383F31188E3E7084806F0D0FC40
:100CD000F7E7E16904392046FFF75AFFC8E7034800
:100CE00006F0C6FCD1E700BF684F00208845010828
:100CF0002DE9F04104460F46904642B1202383F38C
:100D0000118808F045F906F043FE002647E03C480C
:100D100006F0AEFCF2E7DDE906232046FFF7E0FE31
:100D200000283FD006F04CFE08F03AF9354B1A681F
:100D30009A4204D09B6999689368994205D300232D
:100D400083F311883046BDE8F0812F4806F090FC0F
:100D5000F5E72A46394612F033FD2F44A36A2B44A7
:100D6000A3622E44A26AE36A9A423ED206F028FEAB
:100D700008F016F9234B1A689A4204D09B699968C7
:100D80009368994237D3002383F311884645D9D21B
:100D9000202383F3118808F0FBF806F0F9FDA36A1D
:100DA000002BB8D0E36AA06A1B1AA8EB06059D4287
:100DB00000D31D46402DCCD93B4607F14002D3F865
:100DC00000E0D3F804C09D68D968C0F800E0C0F81E
:100DD00004C08560C160103310309342EFD14037BA
:100DE000A36A4033A3624036BCE7E1690439204678
:100DF000FFF7CEFEBAE7044806F03AFCC3E700BFAF
:100E000014460108684F002088450108AFF30080B0
:100E100010B5044606F05CFE226963699A4217D059
:100E2000002318469BB1A36ABBB19B1A043B16D0A2
:100E30001360E368013BE360E269236913442361C3
:100E4000A269934201D3636A23610023A36210BDA8
:100E5000E368002BE5D00123E3E70020F7E700205B
:100E6000F5E700BFAFF30080AFF30080AFF3008081
:100E700010B50446202383F3118808F089F806F0A2
:100E800087FDA16A19B12369C91A043910D106F086
:100E900097FD08F085F80A4B1A689A4204D09B69BE
:100EA00099689368994207D3002383F3118810BD92
:100EB0002046FFF76DFEEAE7024806F0D9FBF3E7AC
:100EC000684F002088450108000000000000000075
:100ED0002DE9F04104460F461546B2B1A368AB4276
:100EE00000D2A5682669A169761AB54211D3B54228
:100EF00017D82A46384612F063FCE368A361A3685A
:100F00005B1BA3602846BDE8F0810D4806F0B0FBEE
:100F1000E4E72A46384612F053FCA3692B44A36148
:100F2000EDE73246384612F04BFCA5EB0608424688
:100F3000E168B81912F044FCE2684244A261DEE7BD
:100F400024460108AFF30080AFF30080AFF30080C8
:100F50002DE9F04104460F461546B2B1A368AB42F5
:100F600000D2A56826696069361AB54211D3B54228
:100F700017D82A46394612F023FCE3686361A36858
:100F80005B1BA3602846BDE8F0810D4806F070FBAE
:100F9000E4E72A46394612F013FC63692B44636187
:100FA000EDE73246394612F00BFCA5EB0608424647
:100FB000B919E06812F004FCE26842446261DEE7BD
:100FC0002C460108AFF30080AFF30080AFF3008040
:100FD00010B40060406000248460C16081614161A0
:100FE0000A440261C361019B036210BC704700BFE9
:100FF00010B5044606F06CFDE368A361636100234D
:10100000A3606FF00101204607F0E2FE10BD00BFB3
:1010100038B504460D4606F05BFD6369A26993424C
:1010200013D00022B2B9A2680132A2605A1C6261D8
:101030001D70626923699A4201D3E36863610021EC
:10104000204607F0A5FE002038BDA268002AE9D09E
:101050000122E7E74FF0FF30F6E700BFAFF3008073
:1010600038B5044606F034FDA3688BB1A368013B94
:10107000A360A269531CA36115782269934201D32E
:10108000E368A361E3690BB120469847284638BD61
:101090004FF0FF30FBE700BFAFF30080AFF30080FD
:1010A000F8B5044616461F46202383F3118807F03F
:1010B0006FFF06F06DFCA368DBB932463B46204665
:1010C00007F04EFE051EF6DA06F07AFC07F068FF20
:1010D0001B4B1A689A4204D09B699968936899429D
:1010E00003D3002383F3118823E0164806F0C0FAE7
:1010F000F7E7A368013BA360A269531CA3611578BD
:101100002269934201D3E368A361E3690BB12046EE
:10111000984706F055FC07F043FF094B1A689A42BE
:1011200004D09B6999689368994204D3002383F3A0
:1011300011882846F8BD034806F09AFAF6E700BF82
:10114000684F002038460108AFF30080AFF30080FD
:10115000F8B504460E461746C56906F0B9FC3A468E
:1011600031462046FFF7B4FE064610B10DB12046C9
:10117000A8473046F8BD00BFAFF30080AFF3008052
:101180002DE9F84307460D46D0F81C80914642B140
:10119000202383F3118807F0FBFE06F0F9FB4C4691
:1011A0002CE0274806F064FAF2E7DDE90823384628
:1011B00007F0D6FD10B306F003FC07F0F1FE214B5B
:1011C0001A689A4204D09B6999689368994232D30D
:1011D000002383F31188A9EB0400BDE8F8831A48C3
:1011E00006F046FA002383F31188A41B354420231C
:1011F00083F3118807F0CCFE06F0CAFB002CDAD08E
:10120000224629463846FFF763FE06460028CCD022
:10121000B8F1000F01D03846C04706F0D1FB07F007
:10122000BFFE084B1A689A42DCD09B6999689368A4
:101230009942D7D2D3E7044806F01AFAC8E700BFAC
:1012400044460108684F002038460108AFF300808B
:10125000006040608260C160816141611144016150
:10126000C361009B03627047AFF30080AFF300805F
:1012700010B5044606F02CFCE268A26162612369A5
:101280009B1AA3606FF00101204607F0A1FD10BD7D
:1012900038B504460D4606F01BFCA36893B1A3685D
:1012A000013BA36063695A1C62611D706269236916
:1012B0009A4201D3E3686361E36933B120469847FA
:1012C000002038BD4FF0FF30FBE70020F9E700BFFA
:1012D0002DE9F0410446884616461F46202383F335
:1012E000118807F055FE06F053FBA368DBB93246C0
:1012F0003B46204607F034FD051EF6DA06F060FB9B
:1013000007F04EFE1C4B1A689A4204D09B699968FC
:101310009368994203D3002383F3118825E017488B
:1013200006F0A6F9F7E7A368013BA36063695A1CBE
:10133000626183F80080626923699A4201D3E3689D
:101340006361E3690BB12046984706F039FB07F06B
:1013500027FE094B1A689A4204D09B6999689368E2
:10136000994205D3002585F311882846BDE8F08110
:10137000024806F07DF9F5E7684F0020384601087D
:1013800038B5044606F0A4FB6269A3699A4212D0FC
:101390000022AAB9A2680132A2605A1CA2611D787B
:1013A00023699A4201D3E368A3610021204607F034
:1013B000EFFC284638BDA268002AEAD00122E8E7FF
:1013C0004FF0FF30F6E700BFAFF30080AFF30080CF
:1013D000F8B504460E461746C56906F079FB3A464D
:1013E00031462046FFF7B4FD064610B10DB1204648
:1013F000A8473046F8BD00BFAFF30080AFF30080D0
:101400002DE9F84307460D46D0F81C80914642B1BD
:10141000202383F3118807F0BBFD06F0B9FA4C4690
:101420002CE0274806F024F9F2E7DDE908233846E6
:1014300007F096FC10B306F0C3FA07F0B1FD214B9C
:101440001A689A4204D09B6999689368994232D38A
:10145000002383F31188A9EB0400BDE8F8831A4840
:1014600006F006F9002383F31188A41B35442023DA
:1014700083F3118807F08CFD06F08AFA002CDAD08D
:10148000224629463846FFF763FD06460028CCD0A1
:10149000B8F1000F01D03846C04706F091FA07F0C6
:1014A0007FFD084B1A689A42DCD09B699968936863
:1014B0009942D7D2D3E7044806F0DAF8C8E700BF6C
:1014C00054460108684F002038460108000000001B
:1014D00070B505460C461646914202D38B1A1F2B57
:1014E00002D9104806F0C4F8730906F01F06620915
:1014F00004F01F040134012000FA04F4013C93427B
:1015000004D355F823002040F04070BD55F8233037
:10151000F34055F822002040C6F12006B0401843A1
:10152000F3E700BF64460108AFF30080AFF300802B
:1015300070B5054648B17E227F212846FFF7C8FFD7
:1015400038B101281DD000201AE0124806F090F8AA
:10155000F1E73E2249212846FFF7BAFF04462F2231
:1015600031212846FFF7B4FF064650225321284672
:10157000FFF7AEFF01340236B440093804FA00F038
:1015800070BD302245212846FFF7A2FF01308002BE
:10159000F6E700BF78460108AFF30080AFF30080A4
:1015A00010B5044670B194F8D70094F8D6301B04F7
:1015B00003EB006394F8D50003EB002394F8D40008
:1015C000184410BD014806F053F8ECE78C460108BA
:1015D00038B50D460446002854D0002952D00834AE
:1015E000012207212046FFF773FF28750C221321E3
:1015F0002046FFF76DFF80B200F5FA60688208228E
:101600000B212046FFF764FF287478227F212046B3
:10161000FFF75EFF2870682277212046FFF758FF0A
:101620006880402247212046FFF752FF2872482257
:101630004F212046FFF74CFFE871502257212046EA
:10164000FFF746FFA87158225F212046FFF740FFB1
:101650006871602267212046FFF73AFF28713C221B
:101660003F212046FFF734FF687238223B21204695
:10167000FFF72EFFA872182237212046FFF728FF18
:10168000E86038BD014805F0F3FFA8E7A44601086B
:1016900038B50D46044600285AD0002958D00834E1
:1016A000012207212046FFF713FF287508220B218E
:1016B0002046FFF70DFF80B200F2CD7068820C2249
:1016C0000F212046FFF704FF287478227F2120464F
:1016D000FFF7FEFE2870682277212046FFF7F8FE0C
:1016E000688038223F212046FFF7F2FE68724022D0
:1016F00047212046FFF7ECFE287248224F21204662
:10170000FFF7E6FEE871502257212046FFF7E0FE82
:10171000A87158225F212046FFF7DAFE6871602227
:1017200067212046FFF7D4FE287134223721204656
:10173000FFF7CEFEA872302233212046FFF7C8FE05
:10174000E87210222F212046FFF7C2FEE86038BD64
:10175000014805F08DFFA2E7BC460108AFF3008009
:1017600038B50D460446002800F0C480002900F07A
:10177000C18018343E2249212046FFF7A9FEE881A6
:101780002F2231212046FFF7A3FE287554225F2126
:101790002046FFF79DFEE8800E2211462046FFF707
:1017A00097FEE877012207212046FFF791FE85F892
:1017B00024007E227F212046FFF78AFE28704C22DB
:1017C00011462046FFF784FE28730822092120468F
:1017D000FFF77EFE85F82300252229212046FFF70A
:1017E00077FEA8752A222E212046FFF771FE687524
:1017F0000A220B212046FFF76BFE85F822000F22FC
:1018000011462046FFF764FEA87768226F21204624
:10181000FFF75EFEE8700D2211462046FFF758FEE6
:1018200085F820001A221C212046FFF751FEA876D9
:10183000502253212046FFF74BFE28724F221146BB
:101840002046FFF745FE68724D2211462046FFF7FD
:101850003FFEE8727A227D212046FFF739FE68704C
:10186000702277212046FFF733FEA8700C22114624
:101870002046FFF72DFE85F82100602267212046D3
:10188000FFF726FE287138223A212046FFF720FE76
:1018900068743B223D212046FFF71AFE287432224D
:1018A00034212046FFF714FEE87435223721204604
:1018B000FFF70EFEA8741F2211462046FFF708FE10
:1018C0002876202224212046FFF702FEE875162202
:1018D00019212046FFF7FCFDE87615221146204627
:1018E000FFF7F6FD28774E2211462046FFF7F0FD60
:1018F000A87238BD014805F0BBFE3AE7D44601089E
:1019000038B50D460446002800F0988018343E2271
:1019100049212046FFF7DCFDA8812F2231212046F6
:10192000FFF7D6FDA87454225F212046FFF7D0FDB3
:10193000A8800E2211462046FFF7CAFDE876012254
:1019400007212046FFF7C4FDE8777E227F2120464D
:10195000FFF7BEFD28704C2211462046FFF7B8FD68
:10196000A8722E2211462046FFF7B2FDE874272206
:101970002D212046FFF7ACFD28750A220B212046B9
:10198000FFF7A6FDA8770F2211462046FFF7A0FD1E
:10199000A87668226F212046FFF79AFDA8700D22D5
:1019A00011462046FFF794FD28771A221C21204675
:1019B000FFF78EFDE875502253212046FFF788FD82
:1019C000A8714F2211462046FFF782FDE8714D2293
:1019D00011462046FFF77CFD687270227721204671
:1019E000FFF776FD68700C2211462046FFF770FD68
:1019F0006877602267212046FFF76AFDE8701F22A2
:101A000011462046FFF764FDA875202226212046B6
:101A1000FFF75EFD68750C2219212046FFF758FD7F
:101A20002876152211462046FFF752FD68764E2291
:101A300011462046FFF74CFD287238BD014805F0DD
:101A400017FE63E7EC460108AFF30080AFF30080B8
:101A500038B50D460446002800F092801834302234
:101A600045212046FFF734FDE8600122072120468A
:101A7000FFF72EFD287754225F212046FFF728FD2F
:101A8000A8800E2211462046FFF722FD28767E22EE
:101A90007F212046FFF71CFD28704C22114620466E
:101AA000FFF716FDA8722E2211462046FFF710FD03
:101AB00028740A220B212046FFF70AFDE8760F2240
:101AC00011462046FFF704FDE87568226F21204685
:101AD000FFF7FEFCA8700D2211462046FFF7F8FC28
:101AE00068761A221C212046FFF7F2FC2875502246
:101AF00053212046FFF7ECFCA8714F2211462046E7
:101B0000FFF7E6FCE8714D2211462046FFF7E0FCA6
:101B1000687227222D212046FFF7DAFC68747022B4
:101B200077212046FFF7D4FC68700C22114620462E
:101B3000FFF7CEFCA876602267212046FFF7C8FC9D
:101B4000E8701F2211462046FFF7C2FCE8742022ED
:101B500026212046FFF7BCFCA8740C221921204640
:101B6000FFF7B6FC6875152211462046FFF7B0FC5A
:101B7000A8754E2211462046FFF7AAFC287238BDF0
:101B8000014805F075FD69E7044701080000000001
:101B900008B505F0DDF908BDAFF30080AFF30080B4
:101BA0000123037000234360704700BFAFF3008040
:101BB00038B50D46044630B329B3202383F311888A
:101BC00007F0E6F905F0E4FE2378013BDBB2012BD8
:101BD00002D9114805F04CFD6560204605F0C8F9B2
:101BE0000223237005F0ECFE07F0DAF90B4B1A68BC
:101BF0009A4204D09B6999689368994207D300235D
:101C000083F3118838BD044805F032FDD5E7044858
:101C100005F02EFDF3E700BF1C470108684F0020C8
:101C200028470108AFF30080AFF30080AFF30080D6
:101C300010B5044630B3202383F3118807F0A8F9C8
:101C400005F0A6FE2378013BDBB2012B02D9114837
:101C500005F00EFD204605F0DBF90023636001234B
:101C6000237005F0ADFE07F09BF90B4B1A689A4202
:101C700004D09B6999689368994207D3002383F342
:101C8000118810BD034805F0F3FCD4E7034805F0C4
:101C9000EFFCF3E734470108684F002028470108AC
:101CA00038B50C46054600B3202383F3118807F0AE
:101CB0006FF905F06DFE2B78032B02D00F4805F06D
:101CC000D7FCEB68013CDC6205F07AFE07F068F9AE
:101CD0000B4B1A689A4204D09B69996893689942A1
:101CE00007D3002383F3118838BD044805F0C0FCF6
:101CF000DAE7044805F0BCFCF3E700BF3C47010805
:101D0000684F002028470108AFF30080AFF3008040
:101D100038B504460D4605F0DBFE64B12378022B8E
:101D200002D0074805F0A4FC03232370294620466F
:101D300005F096F938BD024805F09AFCEEE700BFC1
:101D400050470108AFF30080AFF30080AFF300808D
:101D500038B504460D46202383F3118807F018F99F
:101D600005F016FE29462046FFF7D2FF05F028FEB3
:101D700007F016F9084B1A689A4204D09B699968D3
:101D80009368994203D3002383F3118838BD034835
:101D900005F06EFCF7E700BF684F002028470108F8
:101DA00038B504460D4605F093FE7CB163685B6868
:101DB00083B12378022B02D0084805F059FC042394
:101DC00023702946204605F04BF938BD034805F03D
:101DD0004FFCEBE7014805F04BFCEAE764470108DC
:101DE00038B504460D46202383F3118807F0D0F858
:101DF00005F0CEFD29462046FFF7D2FF05F0E0FDB5
:101E000007F0CEF8084B1A689A4204D09B6999688B
:101E10009368994203D3002383F3118838BD0348A4
:101E200005F026FCF7E700BF684F002028470108AF
:101E300010B5044605F04CFE54B12378023BDBB2EA
:101E4000022B09D802232370204605F021F910BD8A
:101E5000034805F00DFCF0E7014805F009FCF1E747
:101E600078470108AFF30080AFF30080AFF3008044
:101E700010B50446202383F3118807F089F805F094
:101E800087FD2046FFF7D4FF05F09AFD07F088F89C
:101E9000084B1A689A4204D09B69996893689942E2
:101EA00003D3002383F3118810BD034805F0E0FB42
:101EB000F7E700BF684F002028470108AFF3008014
:101EC00038B504460D460378022B02D0054805F0CC
:101ED000CFFB042323702946204605F0E9F80223AE
:101EE000237038BD88470108000000000000000092
:101EF00008B503F0CDFB08BDAFF30080AFF3008061
:101F000008B501230370002343600C3007F048FB41
:101F100008BD00BFAFF30080AFF30080AFF30080D7
:101F200038B50D46044640B339B32278531EDBB2B0
:101F3000012B04D9052A02D0144805F099FB20236F
:101F400083F3118807F024F805F022FD6560204630
:101F500003F0AEFB0223237005F032FD07F020F8FA
:101F60000B4B1A689A4204D09B699968936899420E
:101F700007D3002383F3118838BD044805F078FBAC
:101F8000D3E7044805F074FBF3E700BF9847010866
:101F9000684F0020A4470108AFF30080AFF3008032
:101FA00010B5044640B3202383F3118806F0F0FFF8
:101FB00005F0EEFC2278531EDBB2012B04D9052A72
:101FC00002D0114805F054FB204603F0E9FB002342
:101FD00063600123237005F0F3FC06F0E1FF0B4B77
:101FE0001A689A4204D09B6999689368994207D30A
:101FF000002383F3118810BD034805F039FBD2E7B5
:10200000034805F035FBF3E7B0470108684F0020AF
:10201000A4470108AFF30080AFF30080AFF3008066
:1020200010B5044608B1A06810BD024805F020FBB9
:10203000F9E700BFB8470108AFF30080AFF30080B5
:102040002DE9F04F85B08B4692461F460E9E0F9DA0
:10205000DDE91089044630B12BB122B105B116B1CA
:1020600058EA090302D1204805F002FB2378022B2D
:102070002ED1202383F3118806F08AFF05F088FC17
:102080000023A36003232370CDE902890195009604
:102090003B4652465946204603F04AFC0546B0F1FD
:1020A000FF3F19D00223237005F08AFC06F078FF69
:1020B0000E4B1A689A4204D09B69996893689942BA
:1020C0000DD3002383F31188284605B0BDE8F08FB7
:1020D000054805F0CDFACCE705232370E4E7044872
:1020E00005F0C6FAEDE700BFC8470108684F0020B9
:1020F000A4470108AFF30080AFF30080AFF3008086
:102100002DE9F04383B00D4691469846DDE90A6714
:10211000044628B121B11BB112B156EA070302D11E
:102120001E4805F0A5FA2378022B2CD1202383F337
:10213000118806F02DFF05F02BFC0023A36004237B
:102140002370CDE9006743464A462946204603F0FE
:1021500057FB0546B0F1FF3F19D00223237005F06D
:102160002FFC06F01DFF0E4B1A689A4204D09B69A3
:102170009968936899420DD3002383F31188284608
:1021800003B0BDE8F083054805F072FACEE70523F9
:102190002370E4E7034805F06BFAEDE7E447010834
:1021A000684F0020A4470108AFF30080AFF3008020
:1021B00010B5044620B104F10C0007F081FA10BDFF
:1021C000014805F055FAF6E7FC470108AFF3008037
:1021D00010B5044620B104F10C0007F0E1FA10BD7F
:1021E000014805F045FAF6E70C4801080000000038
:1021F00010B5044610B183680F2B02D9044805F0CE
:1022000037FA23681B69A068C3406068184010BD96
:102210001C480108AFF30080AFF30080AFF30080EB
:1022200038B50D46044610B183680F2B02D9084813
:1022300005F01EFA616821EA0503A26802F11000A8
:1022400083402940914019432368996138BD00BFFC
:1022500028480108AFF30080AFF30080AFF300809F
:1022600038B50D46044610B183680F2B02D90548D6
:1022700005F0FEF96168A3682A469940206802F0DB
:102280005FFE38BD34480108AFF30080AFF3008033
:10229000024800EB01118A60CB607047884500203E
:1022A00000F00F00024B03EB00108160C26070472A
:1022B00088450020AFF30080AFF30080AFF30080CB
:1022C00008B5034800EB011006F04AFD08BD00BF49
:1022D00088450020AFF30080AFF30080AFF30080AB
:1022E000F8B504460D4616461F46202383F3118891
:1022F00006F04EFE05F04CFB32463B462946204692
:10230000FFF7DEFF044605F05BFB06F049FE094BD4
:102310001A689A4204D09B6999689368994204D3D9
:10232000002383F311882046F8BD034805F0A0F987
:10233000F6E700BF684F002044480108AFF3008073
:1023400008B500F00F00034901EB001006F008FD8E
:1023500008BD00BF88450020AFF30080AFF30080C8
:10236000D0B5044616461F46202383F3118806F095
:102370000FFE05F00DFB32463B462046FFF7E0FF1F
:10238000044605F01DFB06F00BFE094B1A689A4245
:1023900004D09B6999689368994204D3002383F31E
:1023A00011882046D0BD034805F062F9F6E700BF6A
:1023B000684F0020444801080000000000000000B1
:1023C00008B503F095FD08BDAFF30080AFF30080C2
:1023D000014B0360704700BF101A0020AFF300806C
:1023E00038B50C46054628B121B12146284603F0F0
:1023F000BFFD38BD014805F03BF9F6E7504801083C
:1024000038B50C46054628B121B12146284603F0CF
:10241000DFFD38BD014805F02BF9F6E75C480108FF
:1024200070B50C461646054608B1012902D9044884
:1024300005F01EF932462146284603F001FE70BD24
:1024400068480108AFF30080AFF30080AFF300806D
:1024500070B50C461546064608B1012908D906484C
:1024600005F006F92A462146304603F039FE70BDD4
:10247000002AF7D1F3E700BF74480108AFF30080EA
:1024800038B50D46044620B12946204603F038FEF3
:1024900038BD024805F0ECF8F6E700BF80480108B7
:1024A00030B4037850334B61437803F00F03013BA2
:1024B0000B61837803F01F03CB604378C3F30013F1
:1024C0000B6243785B09013B8B614368C3F31A03DA
:1024D000174C84FB0354A411164D85FB03531B15A5
:1024E0008B60154B83FB04532344DB124FF461656F
:1024F00005FB1343114C84FB0354E518DC17C4EBB4
:1025000065144C60C4EB0414A5005D1B0D6062B142
:1025100011464268C2F31A02054BA3FB02039B0952
:102520004FF47A7000FB13230B6030BC704700BF80
:10253000D34D621059BE904AC5B3A291898888884C
:1025400030B44469503C147004690134537864F326
:1025500003035370C468937864F30403937084692D
:102560000134537864F347135370036AB3F1FF3FA8
:1025700018D0547863F30414547083684468C4EB2F
:102580000414A5004FF4616404FB03530068034482
:102590004FF47A7000FB0311536861F31A03536020
:1025A00030BC704753786FF304135370E5E700BFF6
:1025B00070B44268C2F31A021D4BA3FB02329209A7
:1025C0001C4BA3FB0213DC0A4FF4616101FB1421D5
:1025D000194BA3FB01235B09C3EB0315AA008A1A5D
:1025E000817801F01F01457805F00F0615F0100FF6
:1025F00002D00134182C0DD05B0143EA520343EAA8
:10260000C42343EA014343EA4653007843EA406067
:1026100070BC70470131751E084C2C4494F8404042
:102620008C4203D2013601210024E5E70024E3E7D0
:10263000D34D6210C5B3A29189888888504801089B
:10264000C0EBC070430003F10C02885C19444B7B63
:1026500043EA0020704700BFAFF30080AFF3008073
:102660008A7BCB7B1B0243EA02430A7C1343800034
:10267000C34003F00F030F2B01D00020704701204F
:10268000704700BFAFF30080AFF30080AFF300806E
:10269000F8B507460C4616461D46BF2908D8072D33
:1026A0000AD8200440EA076040EA06202843F8BD23
:1026B000034804F0DDFFF2E7014804F0D9FFF0E73A
:1026C0009C480108AFF30080AFF30080AFF30080B7
:1026D000C36A1B6800220A70CBB130B583B00D46C7
:1026E000044613460122B9210320FFF7D1FF01ABB5
:1026F00002460621204604F04BF928B9054B019A01
:1027000013400BB901232B70002003B030BD002013
:10271000704700BF08E0FFFDAFF30080AFF300801B
:1027200070B505460E4614460F2A0AD8B1000F2090
:102730008840C04320F07F408C40204340EAC57071
:1027400070BD024804F094FFF0E700BFB0480108F4
:1027500038B50C46054628B121B12B79052B05D09B
:10276000012038BD054804F083FFF6E7AB6A6360DB
:102770004FF4007323600020F3E700BFC448010852
:1027800030B583B0044601AB4FF4D572082104F094
:10279000FFF8D0B901232363019BC3F30323012B6B
:1027A00003D00125284603B030BD01AB00223721FC
:1027B000204604F0EDF805460028F3D10E4B019AAF
:1027C0001340002BEED00125ECE701AB00223721AE
:1027D000204604F0DDF8054618B9074B019A13406E
:1027E0001BB1022323630025DCE7002121630A4695
:1027F000204604F09DF8D5E708E0FFFDAFF3008028
:1028000030B583B00546002401AB0F4A01212846AC
:1028100004F09EF8024690B9019B002B08DB0134BE
:10282000632C0FD84FF47A70002106F029F9EBE7FA
:1028300013F0804F03D02B6B43F010032B63104633
:1028400003B030BD0122FAE70080FFC0AFF3008083
:1028500070B582B00546036B03F00F03012B21D046
:10286000184E002401AB00223721284604F090F8CE
:10287000034610BB144B019A1340EBB901AB32462F
:102880002921284604F064F80346B0B9019A002AC9
:102890000ADB0134632C13D84FF47A70002106F060
:1028A000EFF8DFE7094EDCE712F0804F05D02A6B26
:1028B00042F010022A6300E00123184602B070BD06
:1028C0000123FAE70000108008E0FFFD0080FF50C0
:1028D00070B592B006460D4600230B707E227F2114
:1028E0001830FEF7F5FD20B900242C70204612B0F8
:1028F00070BD002300930623402202A9304604F055
:1029000087F904460028F1D102A9FFF799FE10F0DB
:10291000020FEBD0012200211046FFF701FF0090CB
:102920000623402202A9304604F072F9044600282A
:10293000DCD102A9FFF794FE10B100232B70D5E77C
:1029400001222A700446D1E7AFF30080AFF3008084
:1029500008B5036B03F00F03022B02D0FFF7B8FF9B
:1029600008BDFFF7B5FEFBE7C36A1B791BB3012B5C
:1029700024D110B582B00446012103F0C1FF01ABA0
:10298000A26B3721204604F003F8034680B90D4BB3
:10299000019A1340A3B901AB02220621204603F09D
:1029A000F7FF034620B9074A01990A4002B1012303
:1029B000184602B010BD0023184670470123FBE7FC
:1029C0000123F5E708E0FFFD30B583B0044600239E
:1029D0001A46B7210320FFF75BFEE36A1B79012B40
:1029E00007D005464BB3022B1FD0154804F040FE1C
:1029F00006E000230122B7210320FFF749FE054628
:102A0000E36A1979204603F07BFF01AB2A460621D1
:102A1000204603F0BDFF034620B90A4A01990A4047
:102A200002B10123184603B030BD00230222B721B2
:102A30000320FFF72DFE0546E2E70023F2E700BF83
:102A4000D048010808E0FFFDAFF30080AFF300803D
:102A500030B585B000238DF80B30044660B3237980
:102A6000022B01D0052B2BD103232371204603F029
:102A70001FFF00221146204603F05AFF2046FFF7B1
:102A80007FFE80B9236B03F00F03022B1CD020467E
:102A9000FFF7DEFE38B904F10803002202212046C8
:102AA00004F08EF8B0B1204603F022FF0223237118
:102AB0000125284605B030BD414804F0D9FDCEE7D8
:102AC0003F4804F0D5FDCFE72046FFF799FE0028E8
:102AD000E9D1E0E704F1380300220321204603F0A6
:102AE00057FF0028DFD104F118052B46A26B0921FE
:102AF000204604F065F80028D5D103ABA26B07216E
:102B0000204603F045FF0028CDD10DF10B012046F2
:102B1000FFF71EFF0028C6D19DF80B10204603F0DA
:102B2000DFFE236B03F00F03022B1FD02846FEF7B6
:102B3000FFFCA06203AB4FF400721021204603F0AB
:102B400027FF05460028AED11E4B039A1340002BE9
:102B5000A9D1236B03F00F03012B27D9022BA2D19C
:102B60002046FFF731FF00289DD125E07E227F21FE
:102B70002846FEF7ADFC012813D9E36A1D68002D35
:102B800091D00023009308234FF400722946204679
:102B900004F03EF8002886D12846FEF701FDA06229
:102BA000C8E72846FEF7C4FCA062C3E72046FFF74B
:102BB000DBFE00287FF477AF0523237179E700BFA0
:102BC000E448010808E0FFFDAFF30080AFF30080A8
:102BD000F8B50E4617461D46044608B102B113B9B2
:102BE0000F4804F045FD2379052B0AD1AB19013BB1
:102BF000A26A934209D9636B43F0800363630120A7
:102C0000F8BD074804F034FDF0E7062323712B4696
:102C10003A463146204604F0D3F805232371EFE706
:102C2000F0480108AFF30080AFF30080AFF30080FD
:102C3000F8B50E4617461D46044608B102B113B951
:102C40000F4804F015FD2379052B0AD1AB19013B80
:102C5000A26A934209D9636B43F080036363012046
:102C6000F8BD074804F004FDF0E7072323712B4665
:102C70003A463146204604F0D3F805232371EFE7A6
:102C8000F8480108AFF30080AFF30080AFF3008095
:102C900010B5044620B12379052B05D0012010BDC5
:102CA000054804F0E5FCF6E708232371204604F00C
:102CB000E7F805232371F2E704490108AFF3008028
:102CC00010B582B0044601ABA26B0D21204603F083
:102CD0005FFE014690B9019B0A4A1A405AB9C3F3F4
:102CE0004323042B0AD008D3072B06D864200021E5
:102CF00005F0C6FEE7E7012100E00121084602B029
:102D000010BD00BF08E0FFFDAFF30080AFF300800F
:102D100038B5044660B3202383F3118806F038F9F0
:102D200004F036FE2379022B01D0052B24D1237920
:102D3000022B25D00423237104F042FE06F030F963
:102D40001F4B1A689A4204D09B699968936899420C
:102D50002BD3002383F311882046FFF7B1FF0546EC
:102D600038BB204603F0C4FD02232371284638BD3A
:102D7000144804F07DFCCEE7124804F079FCD6E755
:102D800004F01EFE06F00CF90D4B1A689A4204D0AE
:102D90009B6999689368994203D3002585F311884C
:102DA000E4E7094804F064FCF7E7074804F060FC36
:102DB000CFE7204603F09CFD02232371D6E700BF36
:102DC000684F00200C4901081C490108AFF300803E
:102DD00008B503F0F5FC08BDAFF30080AFF3008049
:102DE000044B03600123037100234363C3628362C6
:102DF000704700BF28490108AFF30080AFF300809F
:102E000038B50D46044628B3202383F3118806F015
:102E1000BFF804F0BDFD2379013BDBB2012B02D9E1
:102E2000104804F025FCE562204603F0E1FC022393
:102E3000237104F0C5FD06F0B3F80B4B1A689A42F3
:102E400004D09B6999689368994207D3002383F360
:102E5000118838BD034804F00BFCD5E7034804F0A3
:102E600007FCF3E74C490108684F00201C490108A2
:102E700010B5044630B3202383F3118806F088F898
:102E800004F086FD2379013BDBB2012B02D9114806
:102E900004F0EEFB204603F0EBFC0023E362012389
:102EA000237104F08DFD06F07BF80B4B1A689A42F3
:102EB00004D09B6999689368994207D3002383F3F0
:102EC000118810BD034804F0D3FBD4E7034804F095
:102ED000CFFBF3E758490108684F00201C4901085F
:102EE00038B5044608B32379052B02D0134804F003
:102EF000BFFB202383F3118806F04AF804F048FD55
:102F0000656B0023636304F05BFD06F049F80C4B2E
:102F10001A689A4204D09B6999689368994208D3C9
:102F2000002383F31188284638BD044804F0A0FB31
:102F3000D9E7044804F09CFBF2E700BF60490108B0
:102F4000684F00201C490108AFF30080AFF30080F8
:102F500070B582B00D4616460446A0B12379052B04
:102F600015D107232371236B13F0100F01D06D02CD
:102F700076022046FFF7A4FE68B1052323710123E2
:102F8000184602B070BD1C4804F072FBE6E71A4810
:102F900004F06EFBE5E701AB2A462021204603F052
:102FA000F7FC0028E9D1154B019A1340002BE4D11E
:102FB00001AB32462121204603F0EAFC0028DCD197
:102FC0000E4B019A1340002BD7D101AB00222621D2
:102FD000204603F0DDFC0028CFD1084B019A1340B6
:102FE000002BCAD12046FFF76BFE03460028C4D150
:102FF00005222271C4E700BF7849010808E0FFFDFF
:1030000038B50C46154638B154B1012C0BD155B129
:10301000064804F02DFB06E0044804F029FBF3E722
:10302000024804F025FB002038BD00BF8449010898
:1030300030B583B0DDE90645CDE900450C30FEF73B
:103040009FF803B030BD00BFAFF30080AFF3008046
:1030500030B583B04FF0FF344FF0FF35CDE9004578
:103060000C30FEF78DF803B030BD00BFAFF3008029
:1030700030B583B0DDE90645CDE900453030FEF7D7
:10308000BFF903B030BD00BFAFF30080AFF30080E5
:1030900030B583B04FF0FF344FF0FF35CDE9004538
:1030A0003030FEF7ADF903B030BD00BFAFF30080A4
:1030B00008B50C30FDF7F4FF08BD00BFAFF300808A
:1030C00008B54FF0FF324FF0FF330C30FDF7E8FF4B
:1030D00008BD00BFAFF30080AFF30080AFF3008006
:1030E00008B53030FEF7F4F808BD00BFAFF300803C
:1030F00008B54FF0FF324FF0FF333030FEF7E8F8FD
:1031000008BD00BFAFF30080AFF30080AFF30080D5
:1031100008B504F085F908BDAFF30080AFF3008077
:1031200030B583B00446154603460D4A43F8042BD8
:1031300043600123037200900B464FF4807200F14C
:1031400054010C30FDF744FF00942B464FF480727D
:1031500004F5AA7104F13000FEF77AF803B030BD2F
:103160008C490108AFF30080AFF30080AFF300801B
:1031700038B50D46044628B3202383F3118805F0A3
:1031800007FF04F005FC237A013BDBB2012B02D9D7
:10319000104804F06DFA2946204604F071F9022324
:1031A000237204F00DFC05F0FBFE0B4B1A689A42EB
:1031B00004D09B6999689368994207D3002383F3ED
:1031C000118838BD034804F053FAD5E7034804F0EA
:1031D0004FFAF3E7B4490108684F0020BC490108E1
:1031E00010B5044670B3202383F3118805F0D0FE98
:1031F00004F0CEFB237A013BDBB2012B02D9154848
:1032000004F036FA204604F08BF90123237204F10E
:103210003000FEF72DF804F10C00FDF7E9FE05F093
:10322000EFF804F0CDFB05F0BBFE0B4B1A689A4299
:1032300004D09B6999689368994207D3002383F36C
:10324000118810BD034804F013FACCE7034804F0DA
:103250000FFAF3E7C8490108684F0020BC4901088C
:1032600038B504460D4604F033FC4CB163695BB1DC
:10327000294604F10C00FDF7CBFE002809DB38BD20
:10328000074804F0F5F9F1E70421601806F010FE94
:10329000EEE74FF48061201D06F00AFEEFE700BF65
:1032A000D0490108AFF30080AFF30080AFF3008096
:1032B00038B5044604F00CFC3CB104F13000FEF7D4
:1032C0005FF8051E05DB284638BD044804F0D0F938
:1032D000F3E70821201D06F0EBFDF4E7E0490108C3
:1032E00010B50446202383F3118805F051FE04F045
:1032F0004FFBA46BB4FA84F4640904F061FB05F09D
:103300004FFE094B1A689A4204D09B6999689368EA
:10331000994204D3002383F31188204610BD03484B
:1033200004F0A6F9F6E700BF684F0020BC49010889
:1033300010B50446202383F3118805F029FE04F01C
:1033400027FB6469B4FA84F4640904F039FB05F0DE
:1033500027FE094B1A689A4204D09B6999689368C2
:10336000994204D3002383F31188204610BD0348FB
:1033700004F07EF9F6E700BF684F0020BC49010861
:1033800008B5FFF73DFE08BD00000000000000008A
:1033900008B502F09DFF08BDAFF30080AFF30080D9
:1033A00008B5012303700023436083600C3006F0EE
:1033B000F7F808BDAFF30080AFF30080AFF30080F3
:1033C00038B50D46044630B329B3202383F3118862
:1033D00005F0DEFD04F0DCFA2378013BDBB2012BC3
:1033E00002D9114804F044F96560204602F088FFD4
:1033F0000223237004F0E4FA05F0D2FD0B4B1A68A7
:103400009A4204D09B6999689368994207D3002334
:1034100083F3118838BD044804F02AF9D5E704483D
:1034200004F026F9F3E700BFF0490108684F0020D7
:10343000FC490108AFF30080AFF30080AFF30080D8
:1034400010B5044630B3202383F3118805F0A0FDA6
:1034500004F09EFA2378013BDBB2012B02D911481C
:1034600004F006F9204602F0D3FF00236360012335
:10347000237004F0A5FA05F093FD0B4B1A689A42ED
:1034800004D09B6999689368994207D3002383F31A
:10349000118810BD034804F0EBF8D4E7034804F0AA
:1034A000E7F8F3E7084A0108684F0020FC490108E3
:1034B00010B5044620B3202383F3118805F068FD7E
:1034C00004F066FA2378022B02D0114804F0D0F8F9
:1034D0006268D16801238B4092689BB2538304F0E9
:1034E0006FFA05F05DFD0B4B1A689A4204D09B6998
:1034F00099689368994207D3002383F3118810BD1C
:10350000034804F0B5F8D6E7034804F0B1F8F3E750
:10351000104A0108684F0020FC490108AFF3008001
:1035200010B5044620B3202383F3118805F030FD45
:1035300004F02EFA2378022B02D0114804F098F8F8
:103540006268D16801238B4092689BB2138304F0B8
:1035500037FA05F025FD0B4B1A689A4204D09B6997
:1035600099689368994207D3002383F3118810BDAB
:10357000034804F07DF8D6E7034804F079F8F3E750
:103580001C4A0108684F0020FC490108AFF3008085
:1035900038B50D46044600B111B9154804F068F875
:1035A000202383F3118805F0F3FC04F0F1F923786C
:1035B000022B02D00E4804F05BF803232370294647
:1035C000204602F055FF04F0FBF905F0E9FC094B39
:1035D0001A689A4204D09B6999689368994203D308
:1035E000002383F3118838BD034804F041F8F7E75E
:1035F000284A0108684F0020FC490108AFF3008009
:10360000F8B50D4617461E46044610B109B103B180
:1036100012B9164804F02CF8202383F3118805F022
:10362000B7FC04F0B5F92378022B02D00F4804F060
:103630001FF80323237033463A462946204602F0FA
:103640004FFF04F0BDF905F0ABFC094B1A689A4234
:1036500004D09B6999689368994203D3002383F34C
:103660001188F8BD034804F003F8F7E7384A010869
:10367000684F0020FC490108AFF30080AFF30080E1
:1036800070B50D461646044608B101B112B9164888
:1036900003F0EEFF202383F3118805F079FC04F09A
:1036A00077F92378022B02D00F4803F0E1FF0323C0
:1036B000237032462946204602F04AFF04F080F982
:1036C00005F06EFC094B1A689A4204D09B69996810
:1036D0009368994203D3002383F3118870BD044893
:1036E00003F0C6FFF7E700BF4C4A0108684F00200F
:1036F000FC490108AFF30080AFF30080AFF3008016
:1037000070B50D461646044608B101B112B9164807
:1037100003F0AEFF202383F3118805F039FC04F099
:1037200037F92378022B02D00F4803F0A1FF0323BF
:10373000237032462946204602F042FF04F040F949
:1037400005F02EFC094B1A689A4204D09B699968CF
:103750009368994203D3002383F3118870BD044812
:1037600003F086FFF7E700BF5C4A0108684F0020BE
:10377000FC490108AFF30080AFF30080AFF3008095
:1037800010B5044604F0A4F994B12378033BDBB2EE
:10379000012B02D9084803F06BFF204602F048FFD6
:1037A0002046022300F8083B002105F081FA10BDF5
:1037B000014803F05DFFE8E76C4A0108AFF30080C1
:1037C00010B50446202383F3118805F0E1FB04F0D3
:1037D000DFF82378023BDBB2012B13D82378032BCD
:1037E00014D004F0EDF805F0DBFB0D4B1A689A429B
:1037F00004D09B699968936899420DD3002383F3A1
:10380000118810BD074803F033FFE7E72046FFF7B4
:10381000B7FF04F0F5FDE4E7034803F029FFEDE707
:10382000684F0020784A0108FC490108AFF3008086
:1038300038B50D46044600B111B91E4803F018FF13
:1038400063681B7813B115F0010F2BD1202383F38C
:10385000118805F09DFB04F09BF82378022B02D021
:10386000144803F005FF032323702946204602F085
:10387000FFFD4FF0FF324FF0FF3304F1080005F079
:10388000F7F904F09DF805F08BFB0B4B1A689A4290
:1038900004D09B6999689368994207D3002383F306
:1038A000118838BD034803F0E3FECFE7034803F077
:1038B000DFFEF3E7844A0108684F0020FC49010855
:1038C000F8B50D4617461E46044610B109B103B1BE
:1038D00012B91F4803F0CCFE63681B7813B115F0D2
:1038E000010F2DD1202383F3118805F051FB04F043
:1038F0004FF82378022B02D0154803F0B9FE0323BA
:10390000237033463A462946204602F0E9FD4FF03F
:10391000FF324FF0FF3304F1080005F0A9F904F07D
:103920004FF805F03DFB0B4B1A689A4204D09B6997
:1039300099689368994207D3002383F31188F8BDEF
:10394000034803F095FECDE7034803F091FEF3E74B
:10395000904A0108684F0020FC490108AFF300803D
:1039600070B50D461646044608B101B112B91F489C
:1039700003F07EFE63681B7813B115F0010F2CD1A4
:10398000202383F3118805F003FB04F001F823786A
:10399000022B02D0154803F06BFE0323237032463E
:1039A0002946204602F0D4FD4FF0FF324FF0FF339E
:1039B00004F1080005F05CF904F002F805F0F0FAF3
:1039C0000B4B1A689A4204D09B6999689368994294
:1039D00007D3002383F3118870BD044803F048FE29
:1039E000CEE7044803F044FEF3E700BF9C4A010819
:1039F000684F0020FC490108AFF30080AFF300805E
:103A000070B50D461646044608B101B112B91F48FB
:103A100003F02EFE63681B7813B115F0010F2CD153
:103A2000202383F3118805F0B3FA03F0B1FF237864
:103A3000022B02D0154803F01BFE032323703246ED
:103A40002946204602F0BCFD4FF0FF324FF0FF3315
:103A500004F1080005F00CF903F0B2FF05F0A0FA3C
:103A60000B4B1A689A4204D09B69996893689942F3
:103A700007D3002383F3118870BD044803F0F8FDD9
:103A8000CEE7044803F0F4FDF3E700BFA44A0108C1
:103A9000684F0020FC490108AFF30080AFF30080BD
:103AA00010B5044620B104F10C0005F009FE10BD6C
:103AB000014803F0DDFDF6E7B04A0108AFF30080EE
:103AC00010B5044620B104F10C0005F069FE10BDEC
:103AD000014803F0CDFDF6E7C04A010800000000F0
:103AE000704700BF00000000000000000000000060
:103AF000002313B1002210467047044A52F82320D5
:103B000011788142F7D00133DBB2F2E7001A0020CE
:103B100070B50C461646054618B111B10AB1536886
:103B200013B9154803F0A4FD2A6873689A4213D0AC
:103B3000626823689A4213D9A289A3689A4213D271
:103B40006268A3689A4213D873682B60EC60002304
:103B50006B60AB60284670BD074803F089FDE7E75E
:103B6000054803F085FDE7E7034803F081FDE7E73B
:103B7000014803F07DFDE7E7D04A0108AFF300807C
:103B800000B583B003689B6801220DF107019847D7
:103B90009DF8070003B05DF804FB00BFAFF30080A1
:103BA00000B583B003689B6802220DF106019847B7
:103BB000BDF8060003B05DF804FB00BFAFF3008062
:103BC00000B583B003689B6804220DEB020198479F
:103BD000019803B05DF804FBAFF30080AFF3008001
:103BE00010B582B002AB03F8011D026854680122CF
:103BF0001946A04702B010BDAFF30080AFF30080BC
:103C000010B582B002AB23F8021D0268546802228C
:103C10001946A04702B010BDAFF30080AFF300809B
:103C200010B582B002AB43F8041D02685468042248
:103C30001946A04702B010BDAFF30080AFF300807B
:103C400010B5044618B103680BB1C36813B9044832
:103C500003F00EFDE36858681B68C01A10BD00BF72
:103C6000E04A0108AFF30080AFF30080AFF30080BB
:103C700010B5044618B103680BB1A06810BD024826
:103C800003F0F6FCF9E700BFF04A0108AFF300804B
:103C900038B50D46044640B1036833B12046FFF7FE
:103CA000CFFFA84205D2A06038BD034803F0E0FC76
:103CB000F4E72846F7E700BF044B0108AFF30080A4
:103CC00010B5044638B103682BB100206060A060D5
:103CD0002060E06010BD024803F0CAFCF5E700BFB9
:103CE000104B0108AFF30080AFF30080AFF300800A
:103CF00010B5044618B103680BB1606810BD0248E6
:103D000003F0B6FCF9E700BF1C4B0108AFF30080DD
:103D100000207047AFF30080AFF30080AFF3008066
:103D200000207047000000000000000000000000BC
:103D300038B5114442F2107301FB0331C909094B34
:103D4000A3FB013109090A314FF47A7200230648B6
:103D500040F2E7340025E0FB0145204629460FF0FC
:103D6000AFFB38BD598B4F01A0860100AFF3008037
:103D700070B505460C46FFF77BFF06192846FFF78E
:103D80005FFF864201D8204670BD2846FFF758FFE6
:103D900004462846FFF76CFF241AF4E7AFF30080CF
:103DA0002DE9F04184B004460D4617461E461A46DA
:103DB00002214069FFF7BCFF8046A368B34202D3EB
:103DC0007219934202D2124803F052FC23682B442A
:103DD000E269C3F3072313702268E36915445D7039
:103DE0006069FEF7E5F9218BCDF808800023039385
:103DF000019600970223E2696069FEF721F9054602
:103E00006069FEF7E5F9284604B0BDE8F08100BF1F
:103E10002C4B0108AFF30080AFF30080AFF30080BC
:103E2000F8B50E461446054620B1036813B12CB907
:103E30002046F8BD0F4803F01BFCF8E72146284652
:103E4000FFF796FF04460028F2D0EF682846FFF7F8
:103E50000FFF2346324601463846FFF7A1FF08B15F
:103E60000024E5E72846FFF703FF01192846FFF77E
:103E70000FFFDDE7384B0108AFF30080AFF30080A0
:103E80002DE9F04385B004460D4691461E469F1C21
:103E9000002239464069FFF74BFF8046A368B342D2
:103EA00002D37219934202D21D4803F0E1FB23684A
:103EB0002B44A289B3FBF2F13344013BB3FBF2F391
:103EC000994202D0164803F0D3FB23682B44E269E1
:103ED000C3F3072313702268E36915445D70E0693A
:103EE0003246494602300FF06BFC6069FEF760F91C
:103EF000218B0025CDF808800395019500953B4660
:103F0000E2696069FEF79CF806466069FEF760F9B1
:103F10002069294604F0B4FD304605B0BDE8F083C1
:103F2000404B0108AFF30080AFF30080AFF3008097
:103F30002DE9F04104460F469846154672B1E668F1
:103F40002046FFF795FE2B463A4601463046FFF7DE
:103F500097FF064630B13046BDE8F081084803F0CF
:103F600087FBECE7D8F800302B44C8F80030204637
:103F7000FFF77EFE41192046FFF78AFEEBE700BF00
:103F8000504B0108AFF30080AFF30080AFF3008027
:103F90002DE9F04782B00E461446002301930546F2
:103FA00030B1036823B13CB9204602B0BDE8F087C8
:103FB0002B4803F05DFBF6E721462846FFF7D8FEC5
:103FC00004460028F0D0EB68B3F80C801F68284640
:103FD000FFF74EFE3844C146B0FBF8FAEB681F68A5
:103FE0002846FFF745FE3B182344013BB3FBF8F39B
:103FF0009A451FD00AFB08882846FFF739FEA8EB30
:104000000008EB681868A8EB000801AB424631468F
:104010002846FFF78DFFA8B94644019BE21A914557
:1040200014D201AB4A4631462846FFF781FF58B902
:104030004E44F2E701AB224631462846FFF778FFAF
:10404000019CB1E7019CAFE7019CADE70AB91C46B2
:10405000AAE701AB31462846FFF76AFF019CA3E7B8
:10406000604B01080000000000000000000000009C
:104070000901C9B2074A131883F8001300F01F01A1
:10408000400901238B4000F1600142F8213042F8E1
:104090002030704700E100E0AFF30080AFF3008014
:1040A00000F01F03420901219940044B203243F8DC
:1040B00022100344002283F80023704700E100E04F
:1040C00038B504460D460B2807D82D01EDB204F192
:1040D000604000F56D40057638BD024803F0C8FA2F
:1040E000F3E700BF904B0108AFF30080AFF300800F
:1040F00000F01F024009012393406030014A42F85A
:104100002030704700E100E00000000000000000E7
:1041100008B504F015FF164803F06AFD03F098FC9B
:10412000144A5369116801F002010B405361BBB19D
:10413000114B9B6913B1104AD0699847202383F330
:10414000118804F035FF03F053FC00210B4804F004
:104150003FFE03F065FC04F033FF002383F3118876
:1041600003F096FC024803F06BFD07F0F1FC08BD7C
:10417000B04B0108003C01408845002098450020D4
:1041800008B504F0DDFE164803F032FD03F060FCD4
:10419000144A5369116801F004010B405361BBB12B
:1041A000114B9B6A13B1104AD06A9847202383F3BE
:1041B000118804F0FDFE03F01BFC00210B4804F005
:1041C00007FE03F02DFC04F0FBFE002383F31188AF
:1041D00003F05EFC024803F033FD07F0B9FC08BDB4
:1041E000BC4B0108003C014088450020A845002048
:1041F00008B504F0A5FE164803F0FAFC03F028FC0D
:10420000144A5369116801F008010B405361BBB1B6
:10421000114B9B6B13B1104AD06B9847202383F34B
:10422000118804F0C5FE03F0E3FB00210B4804F005
:10423000CFFD03F0F5FB04F0C3FE002383F31188E8
:1042400003F026FC024803F0FBFC07F081FC08BDEC
:10425000C84B0108003C014088450020B8450020BB
:1042600008B504F06DFE164803F0C2FC03F0F0FB45
:10427000144A5369116801F010010B405361BBB13E
:10428000114B9B6C13B1104AD06C9847202383F3D9
:10429000118804F08DFE03F0ABFB00210B4804F005
:1042A00097FD03F0BDFB04F08BFE002383F3118820
:1042B00003F0EEFB024803F0C3FC07F049FC08BD25
:1042C000D44B0108003C014088450020C84500202F
:1042D00010B504F035FE4F4803F08AFC03F0B8FB3C
:1042E0004D4B5C691A6802F4787214405C6114F0FA
:1042F000200F17D0494B9B6D13B1484AD06D98479A
:10430000202383F3118804F053FE03F071FB002196
:10431000434804F05DFD03F083FB04F051FE0023ED
:1043200083F3118814F0400F17D03C4B9B6E13B1F0
:104330003A4AD06E9847202383F3118804F038FE60
:1043400003F056FB0021374804F042FD03F068FB00
:1043500004F036FE002383F3118814F0800F17D089
:104360002E4B9B6F13B12D4AD06F9847202383F3B8
:10437000118804F01DFE03F03BFB00212A4804F0E5
:1043800027FD03F04DFB04F01BFE002383F311888F
:1043900014F4807F19D0214BD3F888301BB11F4A09
:1043A000D2F88C009847202383F3118804F000FE94
:1043B00003F01EFB00211D4804F00AFD03F030FB52
:1043C00004F0FEFD002383F3118814F4007F19D05C
:1043D000124BD3F898301BB1104AD2F89C00984782
:1043E000202383F3118804F0E3FD03F001FB002197
:1043F0000F4804F0EDFC03F013FB04F0E1FD002393
:1044000083F3118803F044FB024803F019FC07F022
:104410009FFB10BDE04B0108003C01408845002097
:10442000D8450020E8450020F84500200846002037
:1044300018460020AFF30080AFF30080AFF3008098
:1044400008B500210620FFF713FE06210720FFF71D
:104450000FFE06210820FFF70BFE06210920FFF7BB
:1044600007FE06210A20FFF703FE06211720FFF7AB
:10447000FFFD01212820FFF7FBFD08BDAFF3008001
:1044800008B50620FFF70CFE0720FFF709FE0820FD
:10449000FFF706FE0920FFF703FE0A20FFF700FEE4
:1044A0001720FFF7FDFD2820FFF7FAFD08BD00BF2C
:1044B000124A136843F480731360114B1B6F03F4AB
:1044C0004073B3F5007F05D00D4B4FF480321A676F
:1044D00000221A670A4B1B6F13F4004F08D1084BD8
:1044E0001A6F42F400721A671A6F42F400421A6798
:1044F000024A536823F40073536070470070004011
:1045000000380240AFF30080AFF30080AFF30080CB
:1045100008B5194B1A696FEAC2526FEAD2521A6192
:104520001A69C2F308021A611A695A694FF0FF301A
:1045300058615A69002159615A691A6A62F08052B9
:104540001A621A6A02F080521A621A6A5A6A586229
:104550005A6A59625A6A1A6C42F080521A641A6E88
:1045600042F080521A661B6EFFF7A2FF00F018FBA4
:10457000FFF766FF08BD00BF00380240AFF30080C0
:104580003B4B4FF080521A643A4A4FF4404111605D
:104590001A6842F001021A60354B1B6813F0020FD3
:1045A000FAD0334A936823F003039360304B9B683F
:1045B00013F00C0FFAD12E4B1A6802F0F9021A60B0
:1045C00000229A601A6842F480321A60284B1B68F5
:1045D00013F4003FFAD0264A536F43F001035367A8
:1045E000234B5B6F13F0020FFAD0214B224A5A6023
:1045F0001A6842F080721A601E4B5B6813F4804F99
:10460000FAD01B4B1B6813F0007FFAD0184B1B4AE3
:104610009A601B4B1A681B4B9A421FD01A4B40F2F0
:1046200005721A60184B1B6803F00F03052BF9D1B4
:104630000F4A936843F0020393600D4B9B6803F0AD
:104640000C03082BF9D10A4B5A6C42F480425A648D
:104650005A6E42F480425A665B6E70470B4B1A6882
:104660000B4B9A42DAD1084B40F205121A60D9E797
:1046700000380240007000400C5440070094883815
:10468000002004E011640020003C024000ED00E046
:1046900041C20F41000000000000000000000000C7
:1046A00008B504F04DFC0C4803F0A2FA03F0D0F971
:1046B0000A4B196801F03D019960094B5B6813B121
:1046C000074A9068984703F0E3F9034803F0B8FA03
:1046D00007F03EFA08BD00BFEC4B01080060024045
:1046E0001C200020AFF30080AFF30080AFF3008008
:1046F00008B504F025FC0D4803F07AFA03F0A8F998
:104700000B4B1968890901F03D018A019A60094B38
:10471000DB6813B1074A1069984703F0B9F90348F9
:1047200003F08EFA07F014FA08BD00BFF84B010839
:10473000006002401C200020AFF30080AFF3008037
:1047400008B504F0FDFB0D4803F052FA03F080F9C0
:104750000B4B1968090C01F03D010A049A60094BE2
:104760005B6913B1074A9069984703F091F90348D0
:1047700003F066FA07F0ECF908BD00BF044C01082D
:10478000006002401C200020AFF30080AFF30080E7
:1047900008B504F0D5FB0D4803F02AFA03F058F9E8
:1047A0000B4B1968890D01F03D018A059A60094B90
:1047B000DB6913B1074A106A984703F069F90348A7
:1047C00003F03EFA07F0C4F908BD00BF104C010821
:1047D000006002401C200020AFF30080AFF3008097
:1047E00008B504F0ADFB0C4803F002FA03F030F911
:1047F0000A4B596801F03D01D960094B5B6A13B15E
:10480000074A906A984703F043F9034803F018FAFF
:1048100007F09EF908BD00BF1C4C01080060024073
:104820001C200020AFF30080AFF30080AFF30080C6
:1048300008B504F085FB0D4803F0DAF903F008F938
:104840000B4B5968890901F03D018A01DA60094B77
:10485000DB6A13B1074A106B984703F019F9034854
:1048600003F0EEF907F074F908BD00BF284C010809
:10487000006002401C200020AFF30080AFF30080F6
:1048800008B504F05DFB0D4803F0B2F903F0E0F861
:104890000B4B5968090C01F03D010A04DA60094B21
:1048A0005B6B13B1074A906B984703F0F1F803482C
:1048B00003F0C6F907F04CF908BD00BF344C0108FD
:1048C000006002401C200020AFF30080AFF30080A6
:1048D00008B504F035FB0D4803F08AF903F0B8F889
:1048E0000B4B5968890D01F03D018A05DA60094BCF
:1048F000DB6B13B1074A106C984703F0C9F8034803
:1049000003F09EF907F024F908BD00BF404C0108F0
:10491000006002401C200020AFF30080AFF3008055
:1049200008B504F00DFB0C4803F062F903F090F8B1
:104930000A4B196801F03D019960094B5B6C13B19A
:10494000074A906C984703F0A3F8034803F078F9FE
:1049500007F0FEF808BD00BF4C4C0108006402409F
:104960001C200020AFF30080AFF30080AFF3008085
:1049700008B504F0E5FA0D4803F03AF903F068F8D9
:104980000B4B1968890901F03D018A019A60094BB6
:10499000DB6C13B1074A106D984703F079F80348B0
:1049A00003F04EF907F0D4F808BD00BF584C0108D9
:1049B000006402401C200020AFF30080AFF30080B1
:1049C00008B504F0BDFA0D4803F012F903F040F801
:1049D0000B4B1968090C01F03D010A049A60094B60
:1049E0005B6D13B1074A906D984703F051F8034887
:1049F00003F026F907F0ACF808BD00BF644C0108CD
:104A0000006402401C200020AFF30080AFF3008060
:104A100008B504F095FA0D4803F0EAF803F018F829
:104A20000B4B1968890D01F03D018A059A60094B0D
:104A3000DB6D13B1074A106E984703F029F803485D
:104A400003F0FEF807F084F808BD00BF704C0108C1
:104A5000006402401C200020AFF30080AFF3008010
:104A600008B504F06DFA0C4803F0C2F802F0F0FF4C
:104A70000A4B596801F03D01D960094B5B6E13B1D7
:104A8000074A906E984703F003F8034803F0D8F8FC
:104A900007F05EF808BD00BF7C4C010800640240CE
:104AA0001C200020AFF30080AFF30080AFF3008044
:104AB00008B504F045FA0D4803F09AF802F0C8FF73
:104AC0000B4B5968890901F03D018A01DA60094BF5
:104AD000DB6E13B1074A106F984702F0D9FF034805
:104AE00003F0AEF807F034F808BD00BF884C0108A9
:104AF000006402401C200020AFF30080AFF3008070
:104B000008B504F01DFA0D4803F072F802F0A0FF9A
:104B10000B4B5968090C01F03D010A04DA60094B9E
:104B20005B6F13B1074A906F984702F0B1FF0348DB
:104B300003F086F807F00CF808BD00BF944C01089C
:104B4000006402401C200020AFF30080AFF300801F
:104B500008B504F0F5F90D4803F04AF802F078FFC3
:104B60000B4B5968890D01F03D018A05DA60094B4C
:104B7000DB6F1BB1074AD2F88000984702F088FF2C
:104B8000024803F05DF806F0E3FF08BDA04C010801
:104B9000006402401C200020AFF30080AFF30080CF
:104BA00000230E4A13600DE003EB430291000C4A10
:104BB0000A44D2F8C02000211160084A02EBC30267
:104BC000516001330F2BEFD9064A4FF0FF3393604A
:104BD000D36002F580629360D36070471C20002090
:104BE000EC4B010800600240AFF30080AFF300809F
:104BF000F8B504460E4615461F4602F069FF0F2C15
:104C000005D82346A34207D900242046F8BD3048E2
:104C100002F02EFD0024F8E701229A402D49096890
:104C2000114201D00133EDE703EB4304A0002A4C0D
:104C30000444284800EBC30CCCF80450CCF80870AE
:104C40001143016012F0FF0F09D02449086B40F4B2
:104C500000100863086D40F400100865096D12F437
:104C60007F4F09D01D4A116B41F480011163116D12
:104C700041F480011165126D03EB43029100184A63
:104C80000A44D2F8C0100A6822F01F020A600A68BB
:104C900012F0010FFBD1580018448700104A3A4423
:104CA00092F8C970D2F8C4003D22BA4002600022D6
:104CB0000A6021224A61002DA7D003EB43039A002A
:104CC000074B1344314693F8CB00FFF7D1F99CE72B
:104CD0006C4D01081C200020AC4C0108003802403B
:104CE000EC4B0108AFF30080AFF30080AFF300801E
:104CF000F8B504460D4616461F46202383F3118857
:104D000004F046F902F044FE3B463246294620466E
:104D1000FFF76EFF044602F053FE04F041F9094B21
:104D20001A689A4204D09B6999689368994204D39F
:104D3000002383F311882046F8BD034802F098FC55
:104D4000F6E700BF684F00207C4D0108AFF30080FC
:104D500010B5044600282DD01A4B1A68A17A0123F9
:104D60008B401A422AD0E07AFFF79AF9A27A0123FF
:104D700003FA02F213490B6823EA02030B6013F0F3
:104D8000FF0F09D1104A116B21F400111163116D4D
:104D900021F400111165126D13F47F4F09D10A4BF4
:104DA0001A6B22F480021A631A6D22F480021A65CB
:104DB0001B6D10BD054802F05BFCCDE7034802F017
:104DC00057FCD0E71C20002000380240884D010825
:104DD00010B50446202383F3118804F0D9F802F0BB
:104DE000D7FD2046FFF7B4FF02F0EAFD04F0D8F843
:104DF000084B1A689A4204D09B6999689368994253
:104E000003D3002383F3118810BD034802F030FC64
:104E1000F7E700BF684F00207C4D0108000000004C
:104E200011F0030F19D011F0010F26D01D4A93681D
:104E30000343936011F0020F25D01A4AD36803434D
:104E4000D36011F0040F24D0164B5A6802435A6005
:104E50001A6822EA000018607047124B1968C243B2
:104E60001140196059681140596099681140996062
:104E7000D9680A40DA60586170470A4A936823EAA1
:104E800000039360D6E7074AD36823EA0003D360A0
:104E9000D7E7044B1A6802431A605A6822EA0000F6
:104EA00058607047003C0140AFF30080AFF30080D2
:104EB00038B50D4600F01F0301249C40162807D882
:104EC00035F0070308D129462046FFF7A9FF38BD72
:104ED000034802F0CDFBF3E7014802F0C9FBF2E71B
:104EE000984D0108AFF30080AFF30080AFF300806E
:104EF00010B500F01F0301249C40162802D8034B74
:104F00005C6110BD024802F0B3FBF8E7003C0140D1
:104F1000A84D010800000000000000000000000093
:104F2000002208E010010549431843505B6000214E
:104F30009960D96001320F2AF4D970478845002062
:104F40002DE9F04F02F00309C2F3800CC2F3C10750
:104F5000C2F34116C2F3C3124D46002417E0072CDA
:104F600054D8D0F820A02AEA0E0E4EEA0808C0F85D
:104F70002080D0F800E003EA0E032B4303604908C9
:104F800054D04FEA4C0CBF00B600AD00013411F014
:104F9000010FF4D004F0070E4FEA8E0E02FA0EF85D
:104FA000012303FA04FA04FA03F34FF0030B0BFA9C
:104FB00003FB0F2303FA0EFE436823EA0A0343EAC6
:104FC0000C034360D0F808A06FEA0B030AEA030A57
:104FD0004AEA070AC0F808A0D0F80CA003EA0A0AB7
:104FE0004AEA060AC0F80CA0B9F1020FB7D0D0F80F
:104FF00000A003EA0A032B430360072C0FD8036ABF
:1050000023EA0E0E4EEA08030362B8E7D0F824A0A4
:105010002AEA0E0E4EEA0808C0F82480A9E7436A7F
:1050200023EA0E0E4EEA08034362A8E7BDE8F08FBC
:10503000F8B507460C46164601258D40204B9B6867
:105040002B4203D11E4BDB682B4202D01D4802F0DD
:105050000FFBA20804F00304A4000F2303FA04F1D9
:10506000C7F383271848023250F8223023EA01039D
:1050700007FA04F41C4340F8224016F0010F14D044
:105080000F4A93682B43936016F0020F13D10C4A1A
:10509000D36823EA0503D360094B1A682A431A60D0
:1050A0005A6822EA05055D60F8BD054A936823EA5F
:1050B00005039360E8E7024AD3682B43D360EBE72C
:1050C000003C0140B84D010800380140AFF30080BA
:1050D000F8B51B4B9E68DF6801248C4046EA070345
:1050E000234227D00D46890805F003039A00C0F338
:1050F00083208B1C134951F82330D34003F00F0356
:10510000984218D10E4B1968E24311401960596852
:105110001140596016409E603A40DA605C610A496D
:1051200001EB05156FF00101284603F051FE002345
:10513000AB60EB60F8BD054802F09AFAE2E700BF09
:10514000003C01400038014088450020D04D010856
:10515000436B4FF400421A6000221A605A605A6191
:10516000036B1A68136823F01F031360036B1A683C
:10517000126812F0010FF9D1597A5A683D238B4019
:105180001360C36A1A68136823F01F031360C36AAD
:105190001A68126812F0010FF9D1597A5A683D2342
:1051A0008B401360704700BFAFF30080AFF3008007
:1051B000416B43681A780B689BB2022A09D0032A14
:1051C0000DD0012A01D00B60704723F00A039BB277
:1051D000F9E723F008039BB243F00203F3E743F03F
:1051E0000A03F0E7AFF30080AFF30080AFF3008075
:1051F00070B5446BA369656945EA034323F07F43B7
:10520000404A93422FD0B3F1031F18D33E4A934232
:1052100041D00232934249D03C4A934203D1038C9D
:10522000C3F34703236115F00A0F00D0A36915F4F7
:10523000807F03D0636923F48073636170BDB3F131
:10524000011F02D0013A9342EDD1038C1A0A08D013
:1052500002F0060203F00103134343F0F00323615D
:10526000E1E72361DFE7636823F400736360C36AE7
:105270001A68136843F001031360636843F48053B2
:105280006360C36A1B685B68012BCCD8236823F476
:1052900080632360C7E7636823F400736360036B74
:1052A0001A68136843F001031360BCE72369C36AFB
:1052B0001B685B6843B1038C43F0010303842368DC
:1052C00043F4A0632360B9E70646636823F40073E0
:1052D0006360236843F400732360202383F3118801
:1052E00003F066FE02F084FB002106F11C0003F0CF
:1052F000DFFC02F095FB03F063FE002383F31188CB
:1053000091E700BF020003008200070008000300CD
:1053100010B5036B1A68136823F01F031360036B47
:105320001A68126812F0010FF9D15C7A5A683D23AD
:10533000A3401360C36A1A68136823F01F03136045
:10534000C36A1A68126812F0010FF9D15C7A5A68C0
:105350003D23A34013600023836011F4807F06D0B7
:1053600001238360426B536923F48073536111F40A
:10537000007F03D0836843F00203836011F4806FE1
:105380000DD0426B536823F400735360426B136873
:1053900043F400731360836843F00403836011F4E3
:1053A000006F03D0836843F00803836011F4804FDB
:1053B00003D0836843F02003836011F4805F03D03F
:1053C000836843F01003836011F4004F02D18368B7
:1053D0002BB910BD836843F040038360F7E70446B0
:1053E000202383F3118803F0E3FD02F001FB6FF04B
:1053F000010104F11C0003F05BFC02F011FB03F05F
:10540000DFFD002383F31188E3E700BFAFF30080E3
:1054100038B50446456B11F00C0F15D1236B1A6893
:10542000136823F01F031360236B1A68126812F0CD
:10543000010FF9D1597A5A683D238B4013606B688C
:1054400043F400736B6038BD014802F011F9E5E7E1
:10545000A85B0108AFF30080AFF30080AFF30080DA
:1054600038B50446456B11F00C0F30D1E36A1A6869
:10547000136823F01F031360E36A1A68126812F0BE
:10548000010FF9D1597A5A683D238B4013606B683C
:1054900023F480536B602B6823F480632B602B68AC
:1054A00043F400732B60202383F3118803F080FD05
:1054B00002F09EFA002104F11C0003F0F9FB02F057
:1054C000AFFA03F07DFD002383F3118838BD024855
:1054D00002F0CEF8CAE700BFA85B0108AFF3008076
:1054E000F8B5456B43685C681E7A20B1002C02DD7C
:1054F000414B9C4202DD414802F0BAF86B6823F050
:105500003F031B041B0C6B606B6843F02A036B604A
:105510003B4B9C4223DC012E15D16600394AB2FB7D
:10552000F6F306FB132393B9364CB4FBF6F4A4B29E
:10553000032C10D9C4F30B062B232B62B4F5805F28
:1055400053D2EE61F8BD2D4802F092F8E5E72B4802
:1055500002F08EF8E8E7294802F08AF8EAE7264BDD
:105560009C4246DCB31EDBB2012B0ED8022E10D0BB
:10557000032E25D040F6FF740027C4F30B063E43EC
:1055800046F400460D232B62D8E71C4802F070F861
:10559000ECE704EB44041B4AB2FBF4F304FB1323D3
:1055A00053B9184BB3FBF4F4A4B20027002CE4D198
:1055B000124802F05DF8E0E7104802F059F8F0E711
:1055C00004EB840404EB84060E4AB2FBF6F306FBFC
:1055D000132333B90B4CB4FBF6F4A4B24FF4804759
:1055E000E4E7064802F044F8F4E7044802F040F823
:1055F000A7E70026A5E700BF801A0600EC4D0108CA
:10560000A086010080DE8002AFF30080AFF300804F
:1056100010B503F095FC084C204602F0E9FA02F0C0
:1056200017FA0648FFF7E4FD02F032FA204602F0CE
:1056300007FB06F08DFA10BD004E010888460020D9
:1056400070B50E4D6B6B5C69A4B203F079FC0C4E27
:10565000304602F0CDFA02F0FBF904F45F436A6BC6
:10566000DB43536121462846FFF752FE02F010FA51
:10567000304602F0E5FA06F06BFA70BD884600206D
:105680000C4E0108AFF30080AFF30080AFF3008051
:1056900010B5054C2046FCF733FC0023E361034AB8
:1056A0006263E362236310BD88460020005400401B
:1056B00038B50446456B0378012B1AD005F1100369
:1056C000E26A12689360226B126893604FF40043A1
:1056D0002B6000232B604FF410636B602046FFF7B4
:1056E000FFFE2046FFF764FD2B6843F001032B60AB
:1056F00038BD40F25643836240F216434362224B68
:105700009842DBD1214B1A6A42F400121A621A6ADB
:1057100022F400121A621B6A03461D4A052100206A
:10572000FFF766FAE06230B323461A4A05210620E5
:10573000FFF75EFA206310B3144B1A6C42F40012A8
:105740001A641A6E42F400121A661B6E05211F209D
:10575000FEF78EFC05212020FEF78AFC636A43F0E9
:10576000007343F400336362A36A43F0007343F4AD
:105770000033A362A2E7084801F07AFFD4E70648A5
:1057800001F076FFD8E700BF8846002000380240CD
:105790006154000811540008184E0108AFF300804E
:1057A0000378012B21D010B50446FFF7D1FC206B04
:1057B000FFF7CEFAE06AFFF7CBFA00232363E36238
:1057C0000A4B9C4200D010BD1F20FEF769FC202030
:1057D000FEF766FC064B1A6C22F400121A641A6E6D
:1057E00022F400121A661B6EEDE77047884600200F
:1057F00000380240AFF30080AFF30080AFF30080C9
:10580000F8B5054617461E46446B002383604900E1
:1058100041F00101018402F0D3F803F0C1FB404BD9
:105820001A689A4204D09B6999689368994210D388
:10583000002383F31188EB6A1B686A6A1A60EB6ABB
:105840001B68DF60EB6A1B685E604FF080435E6A36
:105850001BE0344801F00CFFEAE7EB6A1A681368B2
:1058600023F01F031360EB6A1A68126812F0010F2D
:10587000F9D1597A5A683D238B4013604FF0FF31BC
:105880000846F8BD002383F31188202383F3118891
:1058900003F07EFB02F07CF8A36913F0020F03D142
:1058A000236813F4007F18D04FF080435B6A9B1B82
:1058B00041F287329342D0D802F082F803F070FBB5
:1058C000174B1A689A42DDD09B6999689368994290
:1058D000D8D2144801F0CCFED4E7636843F40073D7
:1058E0006360236843F4A0632360DDE9062305F1C8
:1058F0001C0003F0BDF901460028C1D0EB6A1A680C
:10590000136823F01F031360EB6A1A68126812F021
:10591000010FF9D1587A5A683D2383401360AFE7ED
:10592000684F0020284E0108AFF30080AFF30080DD
:10593000F8B5044617461E46456B002383604900B0
:10594000018402F03DF803F02BFB574B1A689A4292
:1059500004D09B699968936899421CD3002383F310
:105960001188236B1B68A26A1A60236B1B68DF60B7
:10597000236B1B685E60E36A1B68626A1A60E36AF5
:105980001B68069ADA60E36A1B68079A5A604FF050
:1059900080435E6A2CE0454801F06AFEDEE7236B37
:1059A0001A68136823F01F031360236B1A681268C8
:1059B00012F0010FF9D1597A5A683D238B401360D8
:1059C000E36A1A68136823F01F031360E36A1A6816
:1059D000126812F0010FF9D1597A5A683D238B40B1
:1059E00013604FF0FF310846F8BD002383F31188A0
:1059F000202383F3118803F0CBFA01F0C9FFAB69D0
:105A000013F0020F03D12B6813F4007F18D04FF06E
:105A100080435B6A9B1B41F287329342BFD801F0FF
:105A2000CFFF03F0BDFA204B1A689A42DDD09B6984
:105A3000996893689942D8D21C4801F019FED4E7BE
:105A40006B6843F400736B602B6843F480732B60C6
:105A5000DDE9082304F11C0003F00AF901460028DF
:105A6000C1D0236B1A68136823F01F031360236BE4
:105A70001A68126812F0010FF9D1587A5A683D235A
:105A800083401360E36A1A68136823F01F031360EE
:105A9000E36A1A68126812F0010FF9D1587A5A684D
:105AA0003D23834013609EE7684F0020284E010885
:105AB000054B5A68D36843F08003D360D36813F072
:105AC000400FFBD0704700BFC0460020AFF30080FE
:105AD00010B4C0F30152C0F30344114B03FB04F3B1
:105AE000104C04FB0233C0F302320F4C04FB0232B1
:105AF000C0F303234EF6602404FB0322C0F3021319
