:020000040800F2
:1000000000040020D9020008DB020008DB0200081F
:10001000DB020008DB020008DB020008DB0200084C
:10002000DB020008DB020008DB020008C1BB00089D
:10003000DB020008DB02000801530108DB020008B4
:10004000DB020008DB020008915D0008215E000869
:10005000DB020008DB020008015101081141000821
:1000600081410008F141000861420008A1460008F2
:10007000F14600084147000891470008E1470008A1
:100080003148000881480008DB020008DB02000854
:10009000DB020008DB020008DB020008D142000896
:1000A000DB020008DB020008DB020008DB020008BC
:1000B000216F0008DB020008DB020008115600086F
:1000C00041560008DB020008DB0200084158010825
:1000D000DB020008DB0200082174000851740008EC
:1000E000F1510108815E0008DB020008DB02000814
:1000F000DB020008DB020008DB020008D148000830
:10010000DB020008F1670008B1710008DB0200089B
:10011000DB020008DB020008DB020008DB0200084B
:100120002149000871490008C1490008114A000826
:10013000614A0008DB020008DB020008DB0200085D
:10014000DB020008DB020008DB020008DB0200081B
:10015000B14A0008014B0008514B000881740008A7
:10016000DB020008DB020008DB020008DB020008FB
:10017000DB020008DB020008DB020008DB020008EB
:10018000DB020008DB020008DB020008DB020008DB
:10019000DB020008DB020008DB020008DB020008CB
:1001A000DB020008DB020008DB020008DB020008BB
:1001B000DB020008DB020008DB020008DB020008AB
:1001C000DB020008DB020008DB020008DB0200089B
:1001D000DB020008DB020008DB020008DB0200088B
:1002000072B6274880F30888264880F30988264874
:100210004EF60851CEF200010860022080F31488E7
:10022000BFF36F8F00F07CF800F02AF94FF05530E3
:100230001E491B4A91423CBF41F8040BFAE71C4996
:10024000184A91423CBF41F8040BFAE719491A4A8F
:100250001A4B9A423EBF51F8040B42F8040BF8E7E0
:1002600000201749174A91423CBF41F8040BFAE7B6
:1002700000F076F800F064F8134C144DAC4203DA49
:1002800054F8041B8847F9E716F082FE104C114D14
:10029000AC4203DA54F8041B8847F9E700F058B879
:1002A00000040020001A00200000000800000020C8
:1002B00000040020B8B10108001A00201C20002012
:1002C000202000200C030120E0010008E0010008CC
:1002D000E0010008E001000892E700F000F8FEE706
:1002E0002DE9F04FC1F80CD0C3689D46BDE8F08FF2
:1002F00007F0AEFB08F09CFE002383F3118828462C
:10030000A047002008F044FB08F08AFE07F088FBB5
:1003100008F0D6F807F09CFB08F08AFE00DFFEE745
:10032000704700BFAFF30080AFF30080AFF30080F1
:10033000704700BFAFF30080AFF30080AFF30080E1
:10034000704700BFAFF30080AFF30080AFF30080D1
:10035000FEE700BFAFF30080AFF30080AFF3008093
:100360000B4A11E050F8041B43F8041B91689942B2
:10037000F8D802E0002143F8041BD1689942F9D86B
:100380001032044B9A4202D210685368EEE770476D
:10039000888B0108088C01080000000000000000A4
:1003A0004B6843608B688360CB68C3600B694361B3
:1003B0004B6903628B6943620B680360704700BF3F
:1003C00010B5214B1A6940F2FF110A431A611A69EC
:1003D00022F4FF7222F001021A611A691A6B0A43B1
:1003E0001A631A6D0A431A651B6D184C214618488A
:1003F000FFF7D6FF04F11C011648FFF7D1FF04F107
:1004000038011548FFF7CCFF04F154011348FFF7FA
:10041000C7FF04F170011248FFF7C2FF04F18C011D
:100420001048FFF7BDFF04F1A8010F48FFF7B8FF20
:1004300004F1C4010D48FFF7B3FF04F1E0010C48DB
:10044000FFF7AEFF10BD00BF00380240088C010866
:10045000000002400004024000080240000C02407C
:10046000001002400014024000180240001C02402C
:1004700000200240AFF30080AFF30080AFF30080B4
:1004800008B5FFF79DFF04F07BF808BDAFF30080CF
:100490000279D31EDBB2012B0AD9062A08D0072A1B
:1004A00006D0054B1869C0F3C020044B1870704784
:1004B000024B1878704700BF00080240202000203F
:1004C00000207047AFF30080AFF30080AFF30080EF
:1004D000704700BF000000000000000000000000A6
:1004E00008B504F015F804F01BFD01F051FB01F014
:1004F000FFFC02F00DFE02F06BFC02F049FF01F080
:100500005FFF03F0EDFAFFF7E3FF00F001F808BD2D
:1005100008B506F035FD08BDAFF30080AFF30080ED
:1005200010B504464FF08043DB6813F0020F07D18B
:100530004FF080435C6300221A610222DA6010BD32
:10054000014807F0DDF8F3E7048D0108AFF3008000
:100550004FF080430022DA60704700BFAFF30080A5
:1005600010B504464FF08043DB6813F0020F03D050
:100570004FF080435C6310BD014807F0C1F8F7E716
:10058000148D0108AFF30080AFF30080AFF300805B
:1005900008B54FF08043DB6813F0020F03D04FF033
:1005A0008043586B08BD024807F0AAF8F7E700BF80
:1005B000208D010800000000000000000000000085
:1005C0002DE9F041884615461E46069F044610B1A7
:1005D0000AB1012B02D80D4807F092F8246064603C
:1005E00084F808800022E26065612561043607FB1B
:1005F0000651A161E66127626562A262E262079B21
:100600002363089B6363BDE8F08100BF2C8D010864
:1006100010B5044607F0A4FA0023E360626A626141
:100620002261A362E3626FF00101204608F018FC2A
:1006300010BD00BFAFF30080AFF30080AFF30080C8
:1006400010B5044607F08CFA20696369984203D01C
:10065000002333B9043010BDE368002BF9D0012327
:10066000F7E70020F7E700BFAFF30080AFF30080AB
:1006700038B504460D4607F073FA1DB1E369043B33
:10068000AB4202D2124807F03BF8226963699A42F2
:1006900014D00023BBB923691D60E3680133E36014
:1006A000E269236913442361A269934201D3636A17
:1006B00023610021204608F0B3FB38BDE368002B1E
:1006C000E8D00123E6E7024807F01AF8E3E700BFA5
:1006D0003C8D0108AFF30080AFF30080AFF30080E2
:1006E000D0B5044616461F4607F052FAE3684BB9E8
:1006F000237AABB932463B46204608F079FB002806
:10070000F4DA08E0E3683BB16269131DA362126882
:100710001344E3620020D0BD034806F0F1FFF3E785
:100720006FF00100F7E700BF508D0108AFF30080C4
:10073000D0B5044616461F46202383F3118808F0DF
:100740006FFC07F06DF932463B462046FFF7C8FFC5
:10075000044607F07DF908F06BFC094B1A689A42D1
:1007600004D09B6999689368994204D3002383F36A
:1007700011882046D0BD034806F0C2FFF6E700BF4F
:10078000F85000206C8D0108AFF30080AFF30080BB
:1007900010B5044607F0FCF9E36893B1E368013B48
:1007A000E360E269636913446361A269934201D320
:1007B000636A63610023A362236B0BB120469847F1
:1007C00010BD024806F09CFFE8E700BF788D0108E5
:1007D00010B50446202383F3118808F021FC07F0AC
:1007E0001FF92046FFF7D4FF07F032F908F020FC8C
:1007F000084B1A689A4204D09B6999689368994299
:1008000003D3002383F3118810BD034806F078FF5B
:10081000F7E700BFF85000206C8D0108AFF30080AF
:10082000F8B5044616461F46202383F3118808F0C6
:10083000F7FB07F0F5F8A36AC3B1A36A13F8015BED
:10084000A362E26A93422ED207F002F908F0F0FBAD
:10085000194B1A689A4204D09B6999689368994227
:1008600025D3002383F311882846F8BD32463B4642
:100870002046FFF735FF05460028DED007F0E8F8F0
:1008800008F0D6FB0C4B1A689A4204D09B69996811
:100890009368994203D3002383F31188E4E7074860
:1008A00006F02EFFF7E72046FFF772FFCCE703487C
:1008B00006F026FFD5E700BFF85000206C8D010838
:1008C0002DE9F04104460F46904642B1202383F3C0
:1008D000118808F0A5FB07F0A3F8002647E03B4885
:1008E00006F00EFFF2E7DDE906232046FFF7F8FEEB
:1008F00000283FD007F0ACF808F09AFB344B1A6898
:100900009A4204D09B6999689368994205D3002361
:1009100083F311883046BDE8F0812E4806F0F0FEE2
:10092000F5E72A46384617F01BFB2F44A36A2B44F1
:10093000A3622E44A26AE36A9A423ED207F088F884
:1009400008F076FB224B1A689A4204D09B6999689A
:100950009368994235D3002383F311884645D9D251
:10096000202383F3118808F05BFB07F059F8A36A92
:10097000002BB8D0E36AA16A5B1AA8EB06059D427A
:1009800000D31D46402DCCD90B463A464031D3F812
:1009900000E0D3F804C09D68D868C2F800E0C2F84F
:1009A00004C09560D060103310328B42EFD14037D5
:1009B000A36A4033A3624036BCE72046FFF7E8FE57
:1009C000BCE7044806F09CFEC5E700BF908D010817
:1009D000F85000206C8D0108AFF30080AFF3008069
:1009E0002DE9F041884615461E46069F044610B183
:1009F0000AB1012B02D80D4806F082FE2460646023
:100A000084F80880E76065612561043607FB0652BB
:100A1000A261E661276265620023A362E362079B2D
:100A20002363089B6363BDE8F08100BFA08D0108CC
:100A300010B5044607F094F8236AE360636A6361C3
:100A400023610023A362E3626FF00101204608F0F6
:100A500007FA10BDAFF30080AFF30080AFF3008062
:100A600038B504460D4607F07BF8226963699A425F
:100A700006D000224AB91B682B606069043038BD7B
:100A8000E268002AF6D00122F4E70020F7E700BF71
:100A900010B5044607F064F8226963699A4212D0DF
:100AA0000023ABB9E3680133E360E269636913448F
:100AB0006361A269934201D3636A636100212046A6
:100AC00008F0AEF910BDE368002BEAD00123E8E797
:100AD000014806F015FEE5E7B08D0108AFF3008090
:100AE000D0B5044616461F4607F052F8E3684BB9E6
:100AF000237AABB932463B46204608F079F9002804
:100B0000F4DA08E0E3683BB123691A1DA262E269E6
:100B10001344E3620020D0BD034806F0F1FDF3E783
:100B20006FF00100F7E700BFC88D0108AFF3008048
:100B3000D0B5044616461F46202383F3118808F0DB
:100B40006FFA06F06DFF32463B462046FFF7C8FFBE
:100B5000044606F07DFF08F06BFA094B1A689A42CA
:100B600004D09B6999689368994204D3002383F366
:100B700011882046D0BD034806F0C2FDF6E700BF4D
:100B8000F85000206C8D0108AFF30080AFF30080B7
:100B900038B504460D4606F0FBFF1DB1E369043B82
:100BA000AB4202D20E4806F0ABFDE368A3B1236965
:100BB0001D60E368013BE360E2692369134423613C
:100BC000A269934201D3636A23610023A362236B6A
:100BD0000BB12046984738BD014806F091FDE6E785
:100BE000E48D0108AFF30080AFF30080AFF3008025
:100BF00038B504460D46202383F3118808F010FA17
:100C000006F00EFF29462046FFF7C2FF06F020FF40
:100C100008F00EFA084B1A689A4204D09B6999684A
:100C20009368994203D3002383F3118838BD0348A6
:100C300006F066FDF7E700BFF85000206C8D010854
:100C40002DE9F0410446884616461F46202383F3CB
:100C5000118808F0E5F906F0E3FEA36AE3B1A36AA0
:100C600083F80080A36A0133A362E26A934230D220
:100C700006F0EEFE08F0DCF91B4B1A689A4204D02D
:100C80009B6999689368994229D3002080F3118861
:100C900005462846BDE8F08132463B462046FFF730
:100CA0001FFF05460028DAD006F0D2FE08F0C0F992
:100CB0000D4B1A689A4204D09B69996893689942CF
:100CC00003D3002383F31188E3E7084806F018FDF7
:100CD000F7E7E16904392046FFF75AFFC8E7034800
:100CE00006F00EFDD1E700BFF85000206C8D010822
:100CF0002DE9F04104460F46904642B1202383F38C
:100D0000118808F08DF906F08BFE002647E03C487C
:100D100006F0F6FCF2E7DDE906232046FFF7E0FEE9
:100D200000283FD006F094FE08F082F9354B1A688F
:100D30009A4204D09B6999689368994205D300232D
:100D400083F311883046BDE8F0812F4806F0D8FCC7
:100D5000F5E72A46394617F003F92F44A36A2B44D6
:100D6000A3622E44A26AE36A9A423ED206F070FE63
:100D700008F05EF9234B1A689A4204D09B6999687F
:100D80009368994237D3002383F311884645D9D21B
:100D9000202383F3118808F043F906F041FEA36A8B
:100DA000002BB8D0E36AA06A1B1AA8EB06059D4287
:100DB00000D31D46402DCCD93B4607F14002D3F865
:100DC00000E0D3F804C09D68D968C0F800E0C0F81E
:100DD00004C08560C160103310309342EFD14037BA
:100DE000A36A4033A3624036BCE7E1690439204678
:100DF000FFF7CEFEBAE7044806F082FCC3E700BF67
:100E0000F88D0108F85000206C8D0108AFF30080C8
:100E100010B5044606F0A4FE226963699A4217D011
:100E2000002318469BB1A36ABBB19B1A043B16D0A2
:100E30001360E368013BE360E269236913442361C3
:100E4000A269934201D3636A23610023A36210BDA8
:100E5000E368002BE5D00123E3E70020F7E700205B
:100E6000F5E700BFAFF30080AFF30080AFF3008081
:100E700010B50446202383F3118808F0D1F806F05A
:100E8000CFFDA16A19B12369C91A043910D106F03E
:100E9000DFFD08F0CDF80A4B1A689A4204D09B692E
:100EA00099689368994207D3002383F3118810BD92
:100EB0002046FFF76DFEEAE7024806F021FCF3E763
:100EC000F85000206C8D01080000000000000000B8
:100ED0002DE9F04104460F461546B2B1A368AB4276
:100EE00000D2A5682669A169761AB54211D3B54228
:100EF00017D82A46384617F033F8E368A361A36889
:100F00005B1BA3602846BDE8F0810D4806F0F8FBA6
:100F1000E4E72A46384617F023F8A3692B44A36177
:100F2000EDE73246384617F01BF8A5EB06084246B7
:100F3000E168B81917F014F8E2684244A261DEE7EC
:100F4000088E0108AFF30080AFF30080AFF300809C
:100F50002DE9F04104460F461546B2B1A368AB42F5
:100F600000D2A56826696069361AB54211D3B54228
:100F700017D82A46394616F0F3FFE3686361A36881
:100F80005B1BA3602846BDE8F0810D4806F0B8FB66
:100F9000E4E72A46394616F0E3FF63692B446361B0
:100FA000EDE73246394616F0DBFFA5EB0608424670
:100FB000B919E06816F0D4FFE26842446261DEE7E6
:100FC000108E0108AFF30080AFF30080AFF3008014
:100FD00010B40060406000248460C16081614161A0
:100FE0000A440261C361019B036210BC704700BFE9
:100FF00010B5044606F0B4FDE368A3616361002305
:10100000A3606FF00101204607F02AFF10BD00BF6A
:1010100038B504460D4606F0A3FD6369A269934204
:1010200013D00022B2B9A2680132A2605A1C6261D8
:101030001D70626923699A4201D3E36863610021EC
:10104000204607F0EDFE002038BDA268002AE9D056
:101050000122E7E74FF0FF30F6E700BFAFF3008073
:1010600038B5044606F07CFDA3688BB1A368013B4C
:10107000A360A269531CA36115782269934201D32E
:10108000E368A361E3690BB120469847284638BD61
:101090004FF0FF30FBE700BFAFF30080AFF30080FD
:1010A000F8B5044616461F46202383F3118807F03F
:1010B000B7FF06F0B5FCA368DBB932463B462046D5
:1010C00007F096FE051EF6DA06F0C2FC07F0B0FF48
:1010D0001B4B1A689A4204D09B699968936899429D
:1010E00003D3002383F3118823E0164806F008FB9E
:1010F000F7E7A368013BA360A269531CA3611578BD
:101100002269934201D3E368A361E3690BB12046EE
:10111000984706F09DFC07F08BFF094B1A689A422E
:1011200004D09B6999689368994204D3002383F3A0
:1011300011882846F8BD034806F0E2FAF6E700BF3A
:10114000F85000201C8E0108AFF30080AFF3008040
:10115000F8B504460E461746C56906F001FD3A4645
:1011600031462046FFF7B4FE064610B10DB12046C9
:10117000A8473046F8BD00BFAFF30080AFF3008052
:101180002DE9F84307460D46D0F81C80914642B140
:10119000202383F3118807F043FF06F041FC4C46FF
:1011A0002CE0274806F0ACFAF2E7DDE908233846E0
:1011B00007F01EFE10B306F04BFC07F039FF214B81
:1011C0001A689A4204D09B6999689368994232D30D
:1011D000002383F31188A9EB0400BDE8F8831A48C3
:1011E00006F08EFA002383F31188A41B35442023D4
:1011F00083F3118807F014FF06F012FC002CDAD0FC
:10120000224629463846FFF763FE06460028CCD022
:10121000B8F1000F01D03846C04706F019FC07F0BE
:1012200007FF084B1A689A42DCD09B69996893685B
:101230009942D7D2D3E7044806F062FAC8E700BF64
:10124000288E0108F85000201C8E0108AFF30080A2
:10125000006040608260C160816141611144016150
:10126000C361009B03627047AFF30080AFF300805F
:1012700010B5044606F074FCE268A261626123695D
:101280009B1AA3606FF00101204607F0E9FD10BD35
:1012900038B504460D4606F063FCA36893B1A36815
:1012A000013BA36063695A1C62611D706269236916
:1012B0009A4201D3E3686361E36933B120469847FA
:1012C000002038BD4FF0FF30FBE70020F9E700BFFA
:1012D0002DE9F0410446884616461F46202383F335
:1012E000118807F09DFE06F09BFBA368DBB9324630
:1012F0003B46204607F07CFD051EF6DA06F0A8FB0B
:1013000007F096FE1C4B1A689A4204D09B699968B4
:101310009368994203D3002383F3118825E017488B
:1013200006F0EEF9F7E7A368013BA36063695A1C76
:10133000626183F80080626923699A4201D3E3689D
:101340006361E3690BB12046984706F081FB07F023
:101350006FFE094B1A689A4204D09B69996893689A
:10136000994205D3002585F311882846BDE8F08110
:10137000024806F0C5F9F5E7F85000201C8E010878
:1013800038B5044606F0ECFB6269A3699A4212D0B4
:101390000022AAB9A2680132A2605A1CA2611D787B
:1013A00023699A4201D3E368A3610021204607F034
:1013B00037FD284638BDA268002AEAD00122E8E7B6
:1013C0004FF0FF30F6E700BFAFF30080AFF30080CF
:1013D000F8B504460E461746C56906F0C1FB3A4605
:1013E00031462046FFF7B4FD064610B10DB1204648
:1013F000A8473046F8BD00BFAFF30080AFF30080D0
:101400002DE9F84307460D46D0F81C80914642B1BD
:10141000202383F3118807F003FE06F001FB4C46FE
:101420002CE0274806F06CF9F2E7DDE9082338469E
:1014300007F0DEFC10B306F00BFB07F0F9FD214BC3
:101440001A689A4204D09B6999689368994232D38A
:10145000002383F31188A9EB0400BDE8F8831A4840
:1014600006F04EF9002383F31188A41B3544202392
:1014700083F3118807F0D4FD06F0D2FA002CDAD0FD
:10148000224629463846FFF763FD06460028CCD0A1
:10149000B8F1000F01D03846C04706F0D9FA07F07E
:1014A000C7FD084B1A689A42DCD09B69996893681B
:1014B0009942D7D2D3E7044806F022F9C8E700BF23
:1014C000388E0108F85000201C8E01080000000032
:1014D00070B505460C461646914202D38B1A1F2B57
:1014E00002D9104806F00CF9730906F01F066209CC
:1014F00004F01F040134012000FA04F4013C93427B
:1015000004D355F823002040F04070BD55F8233037
:10151000F34055F822002040C6F12006B0401843A1
:10152000F3E700BF488E0108AFF30080AFF30080FF
:1015300070B5054648B17E227F212846FFF7C8FFD7
:1015400038B101281DD000201AE0124806F0D8F862
:10155000F1E73E2249212846FFF7BAFF04462F2231
:1015600031212846FFF7B4FF064650225321284672
:10157000FFF7AEFF01340236B440093804FA00F038
:1015800070BD302245212846FFF7A2FF01308002BE
:10159000F6E700BF5C8E0108AFF30080AFF3008078
:1015A00010B5044670B194F8D70094F8D6301B04F7
:1015B00003EB006394F8D50003EB002394F8D40008
:1015C000184410BD014806F09BF8ECE7708E010846
:1015D00038B50D460446002854D0002952D00834AE
:1015E000012207212046FFF773FF28750C221321E3
:1015F0002046FFF76DFF80B200F5FA60688208228E
:101600000B212046FFF764FF287478227F212046B3
:10161000FFF75EFF2870682277212046FFF758FF0A
:101620006880402247212046FFF752FF2872482257
:101630004F212046FFF74CFFE871502257212046EA
:10164000FFF746FFA87158225F212046FFF740FFB1
:101650006871602267212046FFF73AFF28713C221B
:101660003F212046FFF734FF687238223B21204695
:10167000FFF72EFFA872182237212046FFF728FF18
:10168000E86038BD014806F03BF8A8E7888E0108FD
:1016900038B50D46044600285AD0002958D00834E1
:1016A000012207212046FFF713FF287508220B218E
:1016B0002046FFF70DFF80B200F2CD7068820C2249
:1016C0000F212046FFF704FF287478227F2120464F
:1016D000FFF7FEFE2870682277212046FFF7F8FE0C
:1016E000688038223F212046FFF7F2FE68724022D0
:1016F00047212046FFF7ECFE287248224F21204662
:10170000FFF7E6FEE871502257212046FFF7E0FE82
:10171000A87158225F212046FFF7DAFE6871602227
:1017200067212046FFF7D4FE287134223721204656
:10173000FFF7CEFEA872302233212046FFF7C8FE05
:10174000E87210222F212046FFF7C2FEE86038BD64
:10175000014805F0D5FFA2E7A08E0108AFF3008095
:1017600038B50D460446002800F0C480002900F07A
:10177000C18018343E2249212046FFF7A9FEE881A6
:101780002F2231212046FFF7A3FE287554225F2126
:101790002046FFF79DFEE8800E2211462046FFF707
:1017A00097FEE877012207212046FFF791FE85F892
:1017B00024007E227F212046FFF78AFE28704C22DB
:1017C00011462046FFF784FE28730822092120468F
:1017D000FFF77EFE85F82300252229212046FFF70A
:1017E00077FEA8752A222E212046FFF771FE687524
:1017F0000A220B212046FFF76BFE85F822000F22FC
:1018000011462046FFF764FEA87768226F21204624
:10181000FFF75EFEE8700D2211462046FFF758FEE6
:1018200085F820001A221C212046FFF751FEA876D9
:10183000502253212046FFF74BFE28724F221146BB
:101840002046FFF745FE68724D2211462046FFF7FD
:101850003FFEE8727A227D212046FFF739FE68704C
:10186000702277212046FFF733FEA8700C22114624
:101870002046FFF72DFE85F82100602267212046D3
:10188000FFF726FE287138223A212046FFF720FE76
:1018900068743B223D212046FFF71AFE287432224D
:1018A00034212046FFF714FEE87435223721204604
:1018B000FFF70EFEA8741F2211462046FFF708FE10
:1018C0002876202224212046FFF702FEE875162202
:1018D00019212046FFF7FCFDE87615221146204627
:1018E000FFF7F6FD28774E2211462046FFF7F0FD60
:1018F000A87238BD014805F003FF3AE7B88E010829
:1019000038B50D460446002800F0988018343E2271
:1019100049212046FFF7DCFDA8812F2231212046F6
:10192000FFF7D6FDA87454225F212046FFF7D0FDB3
:10193000A8800E2211462046FFF7CAFDE876012254
:1019400007212046FFF7C4FDE8777E227F2120464D
:10195000FFF7BEFD28704C2211462046FFF7B8FD68
:10196000A8722E2211462046FFF7B2FDE874272206
:101970002D212046FFF7ACFD28750A220B212046B9
:10198000FFF7A6FDA8770F2211462046FFF7A0FD1E
:10199000A87668226F212046FFF79AFDA8700D22D5
:1019A00011462046FFF794FD28771A221C21204675
:1019B000FFF78EFDE875502253212046FFF788FD82
:1019C000A8714F2211462046FFF782FDE8714D2293
:1019D00011462046FFF77CFD687270227721204671
:1019E000FFF776FD68700C2211462046FFF770FD68
:1019F0006877602267212046FFF76AFDE8701F22A2
:101A000011462046FFF764FDA875202226212046B6
:101A1000FFF75EFD68750C2219212046FFF758FD7F
:101A20002876152211462046FFF752FD68764E2291
:101A300011462046FFF74CFD287238BD014805F0DD
:101A40005FFE63E7D08E0108AFF30080AFF3008044
:101A500038B50D460446002800F092801834302234
:101A600045212046FFF734FDE8600122072120468A
:101A7000FFF72EFD287754225F212046FFF728FD2F
:101A8000A8800E2211462046FFF722FD28767E22EE
:101A90007F212046FFF71CFD28704C22114620466E
:101AA000FFF716FDA8722E2211462046FFF710FD03
:101AB00028740A220B212046FFF70AFDE8760F2240
:101AC00011462046FFF704FDE87568226F21204685
:101AD000FFF7FEFCA8700D2211462046FFF7F8FC28
:101AE00068761A221C212046FFF7F2FC2875502246
:101AF00053212046FFF7ECFCA8714F2211462046E7
:101B0000FFF7E6FCE8714D2211462046FFF7E0FCA6
:101B1000687227222D212046FFF7DAFC68747022B4
:101B200077212046FFF7D4FC68700C22114620462E
:101B3000FFF7CEFCA876602267212046FFF7C8FC9D
:101B4000E8701F2211462046FFF7C2FCE8742022ED
:101B500026212046FFF7BCFCA8740C221921204640
:101B6000FFF7B6FC6875152211462046FFF7B0FC5A
:101B7000A8754E2211462046FFF7AAFC287238BDF0
:101B8000014805F0BDFD69E7E88E0108000000008E
:101B900008B505F025FA08BDAFF30080AFF300806B
:101BA0000123037000234360704700BFAFF3008040
:101BB00038B50D46044630B329B3202383F311888A
:101BC00007F02EFA05F02CFF2378013BDBB2012B46
:101BD00002D9114805F094FD6560204605F010FA21
:101BE0000223237005F034FF07F022FA0B4B1A682A
:101BF0009A4204D09B6999689368994207D300235D
:101C000083F3118838BD044805F07AFDD5E7044810
:101C100005F076FDF3E700BF008F0108F8500020C3
:101C20000C8F0108AFF30080AFF30080AFF30080AA
:101C300010B5044630B3202383F3118807F0F0F980
:101C400005F0EEFE2378013BDBB2012B02D91148EF
:101C500005F056FD204605F023FA002363600123BA
:101C6000237005F0F5FE07F0E3F90B4B1A689A4272
:101C700004D09B6999689368994207D3002383F342
:101C8000118810BD034805F03BFDD4E7034805F07B
:101C900037FDF3E7188F0108F85000200C8F01087A
:101CA00038B50C46054600B3202383F3118807F0AE
:101CB000B7F905F0B5FE2B78032B02D00F4805F0DD
:101CC0001FFDEB68013CDC6205F0C2FE07F0B0F9D5
:101CD0000B4B1A689A4204D09B69996893689942A1
:101CE00007D3002383F3118838BD044805F008FDAD
:101CF000DAE7044805F004FDF3E700BF208F010890
:101D0000F85000200C8F0108AFF30080AFF3008083
:101D100038B504460D4605F023FF64B12378022B45
:101D200002D0074805F0ECFC032323702946204627
:101D300005F0DEF938BD024805F0E2FCEEE700BF31
:101D4000348F0108AFF30080AFF30080AFF3008061
:101D500038B504460D46202383F3118807F060F957
:101D600005F05EFE29462046FFF7D2FF05F070FE23
:101D700007F05EF9084B1A689A4204D09B6999688B
:101D80009368994203D3002383F3118838BD034835
:101D900005F0B6FCF7E700BFF85000200C8F0108F3
:101DA00038B504460D4605F0DBFE7CB163685B6820
:101DB00083B12378022B02D0084805F0A1FC04234C
:101DC00023702946204605F093F938BD034805F0F5
:101DD00097FCEBE7014805F093FCEAE7488F010820
:101DE00038B504460D46202383F3118807F018F90F
:101DF00005F016FE29462046FFF7D2FF05F028FE23
:101E000007F016F9084B1A689A4204D09B69996842
:101E10009368994203D3002383F3118838BD0348A4
:101E200005F06EFCF7E700BFF85000200C8F0108AA
:101E300010B5044605F094FE54B12378023BDBB2A2
:101E4000022B09D802232370204605F069F910BD42
:101E5000034805F055FCF0E7014805F051FCF1E7B7
:101E60005C8F0108AFF30080AFF30080AFF3008018
:101E700010B50446202383F3118807F0D1F805F04C
:101E8000CFFD2046FFF7D4FF05F0E2FD07F0D0F8C4
:101E9000084B1A689A4204D09B69996893689942E2
:101EA00003D3002383F3118810BD034805F028FCF9
:101EB000F7E700BFF85000200C8F0108AFF3008057
:101EC00038B504460D460378022B02D0054805F0CC
:101ED00017FC042323702946204605F031F902231C
:101EE000237038BD6C8F0108000000000000000066
:101EF00008B503F0CDFB08BDAFF30080AFF3008061
:101F000008B501230370002343600C3007F090FBF9
:101F100008BD00BFAFF30080AFF30080AFF30080D7
:101F200038B50D46044640B339B32278531EDBB2B0
:101F3000012B04D9052A02D0144805F0E1FB202327
:101F400083F3118807F06CF805F06AFD65602046A0
:101F500003F0AEFB0223237005F07AFD07F068F86A
:101F60000B4B1A689A4204D09B699968936899420E
:101F700007D3002383F3118838BD044805F0C0FB64
:101F8000D3E7044805F0BCFBF3E700BF7C8F0108F2
:101F9000F8500020888F0108AFF30080AFF3008075
:101FA00010B5044640B3202383F3118807F038F8B6
:101FB00005F036FD2278531EDBB2012B04D9052A29
:101FC00002D0114805F09CFB204603F0E9FB0023FA
:101FD00063600123237005F03BFD07F029F80B4BEC
:101FE0001A689A4204D09B6999689368994207D30A
:101FF000002383F3118810BD034805F081FBD2E76D
:10200000034805F07DFBF3E7948F0108F8500020AA
:10201000888F0108AFF30080AFF30080AFF300803A
:1020200010B5044608B1A06810BD024805F068FB71
:10203000F9E700BF9C8F0108AFF30080AFF3008089
:102040002DE9F04F85B08B4692461F460E9E0F9DA0
:10205000DDE91089044630B12BB122B105B116B1CA
:1020600058EA090302D1204805F04AFB2378022BE5
:102070002ED1202383F3118806F0D2FF05F0D0FC87
:102080000023A36003232370CDE902890195009604
:102090003B4652465946204603F04AFC0546B0F1FD
:1020A000FF3F19D00223237005F0D2FC06F0C0FFD9
:1020B0000E4B1A689A4204D09B69996893689942BA
:1020C0000DD3002383F31188284605B0BDE8F08FB7
:1020D000054805F015FBCCE705232370E4E7044829
:1020E00005F00EFBEDE700BFAC8F0108F8500020B3
:1020F000888F0108AFF30080AFF30080AFF300805A
:102100002DE9F04383B00D4691469846DDE90A6714
:10211000044628B121B11BB112B156EA070302D11E
:102120001E4805F0EDFA2378022B2CD1202383F3EF
:10213000118806F075FF05F073FC0023A3600423EB
:102140002370CDE9006743464A462946204603F0FE
:1021500057FB0546B0F1FF3F19D00223237005F06D
:1021600077FC06F065FF0E4B1A689A4204D09B6913
:102170009968936899420DD3002383F31188284608
:1021800003B0BDE8F083054805F0BAFACEE70523B1
:102190002370E4E7034805F0B3FAEDE7C88F0108C0
:1021A000F8500020888F0108AFF30080AFF3008063
:1021B00010B5044620B104F10C0007F0C9FA10BDB7
:1021C000014805F09DFAF6E7E08F0108AFF30080C3
:1021D00010B5044620B104F10C0007F029FB10BD36
:1021E000014805F08DFAF6E7F08F010800000000C5
:1021F00010B5044610B183680F2B02D9044805F0CE
:102200007FFA23681B69A068C3406068184010BD4E
:1022100000900108AFF30080AFF30080AFF30080BF
:1022200038B50D46044610B183680F2B02D9084813
:1022300005F066FA616821EA0503A26802F1100060
:1022400083402940914019432368996138BD00BFFC
:102250000C900108AFF30080AFF30080AFF3008073
:1022600038B50D46044610B183680F2B02D90548D6
:1022700005F046FA6168A3682A469940206802F092
:102280005FFE38BD18900108AFF30080AFF3008007
:10229000024800EB01118A60CB607047E8460020DD
:1022A00000F00F00024B03EB00108160C26070472A
:1022B000E8460020AFF30080AFF30080AFF300806A
:1022C00008B5034800EB011006F092FD08BD00BF01
:1022D000E8460020AFF30080AFF30080AFF300804A
:1022E000F8B504460D4616461F46202383F3118891
:1022F00006F096FE05F094FB32463B462946204602
:10230000FFF7DEFF044605F0A3FB06F091FE094B44
:102310001A689A4204D09B6999689368994204D3D9
:10232000002383F311882046F8BD034805F0E8F93F
:10233000F6E700BFF850002028900108AFF30080B6
:1023400008B500F00F00034901EB001006F050FD46
:1023500008BD00BFE8460020AFF30080AFF3008067
:10236000D0B5044616461F46202383F3118806F095
:1023700057FE05F055FB32463B462046FFF7E0FF8F
:10238000044605F065FB06F053FE094B1A689A42B5
:1023900004D09B6999689368994204D3002383F31E
:1023A00011882046D0BD034805F0AAF9F6E700BF22
:1023B000F8500020289001080000000000000000F4
:1023C00008B503F095FD08BDAFF30080AFF30080C2
:1023D000014B0360704700BF101A0020AFF300806C
:1023E00038B50C46054628B121B12146284603F0F0
:1023F000BFFD38BD014805F083F9F6E734900108C8
:1024000038B50C46054628B121B12146284603F0CF
:10241000DFFD38BD014805F073F9F6E7409001088B
:1024200070B50C461646054608B1012902D9044884
:1024300005F066F932462146284603F001FE70BDDC
:102440004C900108AFF30080AFF30080AFF3008041
:1024500070B50C461546064608B1012908D906484C
:1024600005F04EF92A462146304603F039FE70BD8C
:10247000002AF7D1F3E700BF58900108AFF30080BE
:1024800038B50D46044620B12946204603F038FEF3
:1024900038BD024805F034F9F6E700BF6490010842
:1024A00030B4037850334B61437803F00F03013BA2
:1024B0000B61837803F01F03CB604378C3F30013F1
:1024C0000B6243785B09013B8B614368C3F31A03DA
:1024D000174C84FB0354A411164D85FB03531B15A5
:1024E0008B60154B83FB04532344DB124FF461656F
:1024F00005FB1343114C84FB0354E518DC17C4EBB4
:1025000065144C60C4EB0414A5005D1B0D6062B142
:1025100011464268C2F31A02054BA3FB02039B0952
:102520004FF47A7000FB13230B6030BC704700BF80
:10253000D34D621059BE904AC5B3A291898888884C
:1025400030B44469503C147004690134537864F326
:1025500003035370C468937864F30403937084692D
:102560000134537864F347135370036AB3F1FF3FA8
:1025700018D0547863F30414547083684468C4EB2F
:102580000414A5004FF4616404FB03530068034482
:102590004FF47A7000FB0311536861F31A03536020
:1025A00030BC704753786FF304135370E5E700BFF6
:1025B00070B44268C2F31A021D4BA3FB02329209A7
:1025C0001C4BA3FB0213DC0A4FF4616101FB1421D5
:1025D000194BA3FB01235B09C3EB0315AA008A1A5D
:1025E000817801F01F01457805F00F0615F0100FF6
:1025F00002D00134182C0DD05B0143EA520343EAA8
:10260000C42343EA014343EA4653007843EA406067
:1026100070BC70470131751E084C2C4494F8404042
:102620008C4203D2013601210024E5E70024E3E7D0
:10263000D34D6210C5B3A29189888888349001086F
:10264000C0EBC070430003F10C02885C19444B7B63
:1026500043EA0020704700BFAFF30080AFF3008073
:102660008A7BCB7B1B0243EA02430A7C1343800034
:10267000C34003F00F030F2B01D00020704701204F
:10268000704700BFAFF30080AFF30080AFF300806E
:10269000F8B507460C4616461D46BF2908D8072D33
:1026A0000AD8200440EA076040EA06202843F8BD23
:1026B000034805F025F8F2E7014805F021F8F0E7B6
:1026C00080900108AFF30080AFF30080AFF300808B
:1026D000C36A1B6800220A70CBB130B583B00D46C7
:1026E000044613460122B9210320FFF7D1FF01ABB5
:1026F00002460621204604F093F928B9054B019AB9
:1027000013400BB901232B70002003B030BD002013
:10271000704700BF08E0FFFDAFF30080AFF300801B
:1027200070B505460E4614460F2A0AD8B1000F2090
:102730008840C04320F07F408C40204340EAC57071
:1027400070BD024804F0DCFFF0E700BF9490010880
:1027500038B50C46054628B121B12B79052B05D09B
:10276000012038BD054804F0CBFFF6E7AB6A636093
:102770004FF4007323600020F3E700BFA890010826
:1027800030B583B0044601AB4FF4D572082104F094
:1027900047F9D0B901232363019BC3F30323012B22
:1027A00003D00125284603B030BD01AB00223721FC
:1027B000204604F035F905460028F3D10E4B019A66
:1027C0001340002BEED00125ECE701AB00223721AE
:1027D000204604F025F9054618B9074B019A134025
:1027E0001BB1022323630025DCE7002121630A4695
:1027F000204604F0E5F8D5E708E0FFFDAFF30080E0
:1028000030B583B00546002401AB0F4A01212846AC
:1028100004F0E6F8024690B9019B002B08DB013476
:10282000632C0FD84FF47A70002106F071F9EBE7B2
:1028300013F0804F03D02B6B43F010032B63104633
:1028400003B030BD0122FAE70080FFC0AFF3008083
:1028500070B582B00546036B03F00F03012B21D046
:10286000184E002401AB00223721284604F0D8F886
:10287000034610BB144B019A1340EBB901AB32462F
:102880002921284604F0ACF80346B0B9019A002A81
:102890000ADB0134632C13D84FF47A70002106F060
:1028A00037F9DFE7094EDCE712F0804F05D02A6BDD
:1028B00042F010022A6300E00123184602B070BD06
:1028C0000123FAE70000108008E0FFFD0080FF50C0
:1028D00070B592B006460D4600230B707E227F2114
:1028E0001830FEF7F5FD20B900242C70204612B0F8
:1028F00070BD002300930623402202A9304604F055
:10290000CFF904460028F1D102A9FFF799FE10F093
:10291000020FEBD0012200211046FFF701FF0090CB
:102920000623402202A9304604F0BAF904460028E2
:10293000DCD102A9FFF794FE10B100232B70D5E77C
:1029400001222A700446D1E7AFF30080AFF3008084
:1029500008B5036B03F00F03022B02D0FFF7B8FF9B
:1029600008BDFFF7B5FEFBE7C36A1B791BB3012B5C
:1029700024D110B582B00446012104F009F801AB5E
:10298000A26B3721204604F04BF8034680B90D4B6B
:10299000019A1340A3B901AB02220621204604F09C
:1029A0003FF8034620B9074A01990A4002B10123C2
:1029B000184602B010BD0023184670470123FBE7FC
:1029C0000123F5E708E0FFFD30B583B0044600239E
:1029D0001A46B7210320FFF75BFEE36A1B79012B40
:1029E00007D005464BB3022B1FD0154804F088FED4
:1029F00006E000230122B7210320FFF749FE054628
:102A0000E36A1979204603F0C3FF01AB2A46062189
:102A1000204604F005F8034620B90A4A01990A4005
:102A200002B10123184603B030BD00230222B721B2
:102A30000320FFF72DFE0546E2E70023F2E700BF83
:102A4000B490010808E0FFFDAFF30080AFF3008011
:102A500030B585B000238DF80B30044660B3237980
:102A6000022B01D0052B2BD103232371204603F029
:102A700067FF00221146204603F0A2FF2046FFF721
:102A80007FFE80B9236B03F00F03022B1CD020467E
:102A9000FFF7DEFE38B904F10803002202212046C8
:102AA00004F0D6F8B0B1204603F06AFF0223237188
:102AB0000125284605B030BD414804F021FECEE78F
:102AC0003F4804F01DFECFE72046FFF799FE00289F
:102AD000E9D1E0E704F1380300220321204603F0A6
:102AE0009FFF0028DFD104F118052B46A26B0921B6
:102AF000204604F0ADF80028D5D103ABA26B072126
:102B0000204603F08DFF0028CDD10DF10B012046AA
:102B1000FFF71EFF0028C6D19DF80B10204603F0DA
:102B200027FF236B03F00F03022B1FD02846FEF76D
:102B3000FFFCA06203AB4FF400721021204603F0AB
:102B40006FFF05460028AED11E4B039A1340002BA1
:102B5000A9D1236B03F00F03012B27D9022BA2D19C
:102B60002046FFF731FF00289DD125E07E227F21FE
:102B70002846FEF7ADFC012813D9E36A1D68002D35
:102B800091D00023009308234FF400722946204679
:102B900004F086F8002886D12846FEF701FDA062E1
:102BA000C8E72846FEF7C4FCA062C3E72046FFF74B
:102BB000DBFE00287FF477AF0523237179E700BFA0
:102BC000C890010808E0FFFDAFF30080AFF300807C
:102BD000F8B50E4617461D46044608B102B113B9B2
:102BE0000F4804F08DFD2379052B0AD1AB19013B69
:102BF000A26A934209D9636B43F0800363630120A7
:102C0000F8BD074804F07CFDF0E7062323712B464E
:102C10003A463146204604F01BF905232371EFE7BD
:102C2000D4900108AFF30080AFF30080AFF30080D1
:102C3000F8B50E4617461D46044608B102B113B951
:102C40000F4804F05DFD2379052B0AD1AB19013B38
:102C5000A26A934209D9636B43F080036363012046
:102C6000F8BD074804F04CFDF0E7072323712B461D
:102C70003A463146204604F01BF905232371EFE75D
:102C8000DC900108AFF30080AFF30080AFF3008069
:102C900010B5044620B12379052B05D0012010BDC5
:102CA000054804F02DFDF6E708232371204604F0C3
:102CB0002FF905232371F2E7E8900108AFF30080B4
:102CC00010B582B0044601ABA26B0D21204603F083
:102CD000A7FE014690B9019B0A4A1A405AB9C3F3AC
:102CE0004323042B0AD008D3072B06D864200021E5
:102CF00005F00EFFE7E7012100E00121084602B0E0
:102D000010BD00BF08E0FFFDAFF30080AFF300800F
:102D100038B5044660B3202383F3118806F080F9A8
:102D200004F07EFE2379022B01D0052B24D12379D8
:102D3000022B25D00423237104F08AFE06F078F9D3
:102D40001F4B1A689A4204D09B699968936899420C
:102D50002BD3002383F311882046FFF7B1FF0546EC
:102D600038BB204603F00CFE02232371284638BDF1
:102D7000144804F0C5FCCEE7124804F0C1FCD6E7C5
:102D800004F066FE06F054F90D4B1A689A4204D01E
:102D90009B6999689368994203D3002585F311884C
:102DA000E4E7094804F0ACFCF7E7074804F0A8FCA6
:102DB000CFE7204603F0E4FD02232371D6E700BFEE
:102DC000F8500020F090010800910108AFF3008056
:102DD00008B503F03DFD08BDAFF30080AFF3008000
:102DE000044B03600123037100234363C3628362C6
:102DF000704700BF0C910108AFF30080AFF3008073
:102E000038B50D46044628B3202383F3118806F015
:102E100007F904F005FE2379013BDBB2012B02D94F
:102E2000104804F06DFCE562204603F029FD022302
:102E3000237104F00DFE06F0FBF80B4B1A689A4262
:102E400004D09B6999689368994207D3002383F360
:102E5000118838BD034804F053FCD5E7034804F05B
:102E60004FFCF3E730910108F85000200091010871
:102E700010B5044630B3202383F3118806F0D0F850
:102E800004F0CEFD2379013BDBB2012B02D91148BE
:102E900004F036FC204603F033FD0023E3620123F7
:102EA000237104F0D5FD06F0C3F80B4B1A689A4263
:102EB00004D09B6999689368994207D3002383F3F0
:102EC000118810BD034804F01BFCD4E7034804F04C
:102ED00017FCF3E73C910108F8500020009101082D
:102EE00038B5044608B32379052B02D0134804F003
:102EF00007FC202383F3118806F092F804F090FD7C
:102F0000656B0023636304F0A3FD06F091F80C4B9E
:102F10001A689A4204D09B6999689368994208D3C9
:102F2000002383F31188284638BD044804F0E8FBE9
:102F3000D9E7044804F0E4FBF2E700BF449101083C
:102F4000F850002000910108AFF30080AFF300803B
:102F500070B582B00D4616460446A0B12379052B04
:102F600015D107232371236B13F0100F01D06D02CD
:102F700076022046FFF7A4FE68B1052323710123E2
:102F8000184602B070BD1C4804F0BAFBE6E71A48C8
:102F900004F0B6FBE5E701AB2A462021204603F00A
:102FA0003FFD0028E9D1154B019A1340002BE4D1D5
:102FB00001AB32462121204603F032FD0028DCD14E
:102FC0000E4B019A1340002BD7D101AB00222621D2
:102FD000204603F025FD0028CFD1084B019A13406D
:102FE000002BCAD12046FFF76BFE03460028C4D150
:102FF00005222271C4E700BF5C91010808E0FFFDD3
:1030000038B50C46154638B154B1012C0BD155B129
:10301000064804F075FB06E0044804F071FBF3E792
:10302000024804F06DFB002038BD00BF6891010824
:1030300030B583B0DDE90645CDE900450C30FEF73B
:103040009FF803B030BD00BFAFF30080AFF3008046
:1030500030B583B04FF0FF344FF0FF35CDE9004578
:103060000C30FEF78DF803B030BD00BFAFF3008029
:1030700030B583B0DDE90645CDE900453030FEF7D7
:10308000BFF903B030BD00BFAFF30080AFF30080E5
:1030900030B583B04FF0FF344FF0FF35CDE9004538
:1030A0003030FEF7ADF903B030BD00BFAFF30080A4
:1030B00008B50C30FDF7F4FF08BD00BFAFF300808A
:1030C00008B54FF0FF324FF0FF330C30FDF7E8FF4B
:1030D00008BD00BFAFF30080AFF30080AFF3008006
:1030E00008B53030FEF7F4F808BD00BFAFF300803C
:1030F00008B54FF0FF324FF0FF333030FEF7E8F8FD
:1031000008BD00BFAFF30080AFF30080AFF30080D5
:1031100008B504F0CDF908BDAFF30080AFF300802F
:1031200030B583B00446154603460D4A43F8042BD8
:1031300043600123037200900B464FF4807200F14C
:1031400054010C30FDF744FF00942B464FF480727D
:1031500004F5AA7104F13000FEF77AF803B030BD2F
:1031600070910108AFF30080AFF30080AFF30080EF
:1031700038B50D46044628B3202383F3118805F0A3
:103180004FFF04F04DFC237A013BDBB2012B02D947
:10319000104804F0B5FA2946204604F0B9F9022394
:1031A000237204F055FC05F043FF0B4B1A689A425A
:1031B00004D09B6999689368994207D3002383F3ED
:1031C000118838BD034804F09BFAD5E7034804F0A2
:1031D00097FAF3E798910108F8500020A0910108B0
:1031E00010B5044670B3202383F3118805F018FF4F
:1031F00004F016FC237A013BDBB2012B02D91548FF
:1032000004F07EFA204604F0D3F90123237204F17E
:103210003000FEF72DF804F10C00FDF7E9FE05F093
:1032200037F904F015FC05F003FF0B4B1A689A42BE
:1032300004D09B6999689368994207D3002383F36C
:10324000118810BD034804F05BFACCE7034804F092
:1032500057FAF3E7AC910108F8500020A09101085B
:1032600038B504460D4604F07BFC4CB163695BB194
:10327000294604F10C00FDF7CBFE002809DB38BD20
:10328000074804F03DFAF1E70421601806F058FE03
:10329000EEE74FF48061201D06F052FEEFE700BF1D
:1032A000B4910108AFF30080AFF30080AFF300806A
:1032B00038B5044604F054FC3CB104F13000FEF78C
:1032C0005FF8051E05DB284638BD044804F018FAEF
:1032D000F3E70821201D06F033FEF4E7C49101084E
:1032E00010B50446202383F3118805F099FE04F0FD
:1032F00097FBA46BB4FA84F4640904F0A9FB05F00D
:1033000097FE094B1A689A4204D09B6999689368A2
:10331000994204D3002383F31188204610BD03484B
:1033200004F0EEF9F6E700BFF8500020A091010884
:1033300010B50446202383F3118805F071FE04F0D4
:103340006FFB6469B4FA84F4640904F081FB05F04E
:103350006FFE094B1A689A4204D09B69996893687A
:10336000994204D3002383F31188204610BD0348FB
:1033700004F0C6F9F6E700BFF8500020A09101085C
:1033800008B5FFF73DFE08BD00000000000000008A
:1033900008B502F09DFF08BDAFF30080AFF30080D9
:1033A00008B5012303700023436083600C3006F0EE
:1033B0003FF908BDAFF30080AFF30080AFF30080AA
:1033C00038B50D46044630B329B3202383F3118862
:1033D00005F026FE04F024FB2378013BDBB2012B31
:1033E00002D9114804F08CF96560204602F098FF7C
:1033F0000223237004F02CFB05F01AFE0B4B1A6815
:103400009A4204D09B6999689368994207D3002334
:1034100083F3118838BD044804F072F9D5E70448F5
:1034200004F06EF9F3E700BFD4910108F8500020D2
:10343000E0910108AFF30080AFF30080AFF30080AC
:1034400010B5044630B3202383F3118805F0E8FD5E
:1034500004F0E6FA2378013BDBB2012B02D91148D4
:1034600004F04EF9204603F00BF8002363600123BB
:10347000237004F0EDFA05F0DBFD0B4B1A689A425D
:1034800004D09B6999689368994207D3002383F31A
:10349000118810BD034804F033F9D4E7034804F061
:1034A0002FF9F3E7EC910108F8500020E0910108B2
:1034B00010B5044620B3202383F3118805F0B0FD36
:1034C00004F0AEFA2378022B02D0114804F018F968
:1034D0006268D16801238B4092689BB2538304F0E9
:1034E000B7FA05F0A5FD0B4B1A689A4204D09B6908
:1034F00099689368994207D3002383F3118810BD1C
:10350000034804F0FDF8D6E7034804F0F9F8F3E7C0
:10351000F4910108F8500020E0910108AFF3008019
:1035200010B5044620B3202383F3118805F078FDFD
:1035300004F076FA2378022B02D0114804F0E0F868
:103540006268D16801238B4092689BB2138304F0B8
:103550007FFA05F06DFD0B4B1A689A4204D09B6907
:1035600099689368994207D3002383F3118810BDAB
:10357000034804F0C5F8D6E7034804F0C1F8F3E7C0
:1035800000920108F8500020E0910108AFF300809C
:1035900038B50D46044600B111B9154804F0B0F82D
:1035A000202383F3118805F03BFD04F039FA2378DA
:1035B000022B02D00E4804F0A3F8032323702946FF
:1035C000204602F09DFF04F043FA05F031FD094B5F
:1035D0001A689A4204D09B6999689368994203D308
:1035E000002383F3118838BD034804F089F8F7E716
:1035F0000C920108F8500020E0910108AFF3008020
:10360000F8B50D4617461E46044610B109B103B180
:1036100012B9164804F074F8202383F3118805F0DA
:10362000FFFC04F0FDF92378022B02D00F4804F0D0
:1036300067F80323237033463A462946204602F0B2
:1036400097FF04F005FA05F0F3FC094B1A689A425B
:1036500004D09B6999689368994203D3002383F34C
:103660001188F8BD034804F04BF8F7E71C920108F5
:10367000F8500020E0910108AFF30080AFF3008024
:1036800070B50D461646044608B101B112B9164888
:1036900004F036F8202383F3118805F0C1FC04F010
:1036A000BFF92378022B02D00F4804F029F8032336
:1036B000237032462946204602F092FF04F0C8F9F2
:1036C00005F0B6FC094B1A689A4204D09B699968C8
:1036D0009368994203D3002383F3118870BD044893
:1036E00004F00EF8F7E700BF30920108F850002010
:1036F000E0910108AFF30080AFF30080AFF30080EA
:1037000070B50D461646044608B101B112B9164807
:1037100003F0F6FF202383F3118805F081FC04F009
:103720007FF92378022B02D00F4803F0E9FF03232F
:10373000237032462946204602F08AFF04F088F9B9
:1037400005F076FC094B1A689A4204D09B69996887
:103750009368994203D3002383F3118870BD044812
:1037600003F0CEFFF7E700BF40920108F8500020B9
:10377000E0910108AFF30080AFF30080AFF3008069
:1037800010B5044604F0ECF994B12378033BDBB2A6
:10379000012B02D9084803F0B3FF204602F090FF46
:1037A0002046022300F8083B002105F0C9FA10BDAD
:1037B000014803F0A5FFE8E750920108AFF300804D
:1037C00010B50446202383F3118805F029FC04F08A
:1037D00027F92378023BDBB2012B13D82378032B84
:1037E00014D004F035F905F023FC0D4B1A689A4209
:1037F00004D09B699968936899420DD3002383F3A1
:10380000118810BD074803F07BFFE7E72046FFF76C
:10381000B7FF04F03DFEE4E7034803F071FFEDE776
:10382000F85000205C920108E0910108AFF300809D
:1038300038B50D46044600B111B91E4803F060FFCB
:1038400063681B7813B115F0010F2BD1202383F38C
:10385000118805F0E5FB04F0E3F82378022B02D091
:10386000144803F04DFF032323702946204602F03D
:1038700047FE4FF0FF324FF0FF3304F1080005F030
:103880003FFA04F0E5F805F0D3FB0B4B1A689A42B7
:1038900004D09B6999689368994207D3002383F306
:1038A000118838BD034803F02BFFCFE7034803F02E
:1038B00027FFF3E768920108F8500020E091010823
:1038C000F8B50D4617461E46044610B109B103B1BE
:1038D00012B91F4803F014FF63681B7813B115F089
:1038E000010F2DD1202383F3118805F099FB04F0FB
:1038F00097F82378022B02D0154803F001FF032329
:10390000237033463A462946204602F031FE4FF0F6
:10391000FF324FF0FF3304F1080005F0F1F904F035
:1039200097F805F085FB0B4B1A689A4204D09B6907
:1039300099689368994207D3002383F31188F8BDEF
:10394000034803F0DDFECDE7034803F0D9FEF3E7BB
:1039500074920108F8500020E0910108AFF3008054
:1039600070B50D461646044608B101B112B91F489C
:1039700003F0C6FE63681B7813B115F0010F2CD15C
:10398000202383F3118805F04BFB04F049F82378DA
:10399000022B02D0154803F0B3FE032323703246F6
:1039A0002946204602F01CFE4FF0FF324FF0FF3355
:1039B00004F1080005F0A4F904F04AF805F038FB1A
:1039C0000B4B1A689A4204D09B6999689368994294
:1039D00007D3002383F3118870BD044803F090FEE1
:1039E000CEE7044803F08CFEF3E700BF80920108A5
:1039F000F8500020E0910108AFF30080AFF30080A1
:103A000070B50D461646044608B101B112B91F48FB
:103A100003F076FE63681B7813B115F0010F2CD10B
:103A2000202383F3118805F0FBFA03F0F9FF2378D4
:103A3000022B02D0154803F063FE032323703246A5
:103A40002946204602F004FE4FF0FF324FF0FF33CC
:103A500004F1080005F054F903F0FAFF05F0E8FA64
:103A60000B4B1A689A4204D09B69996893689942F3
:103A700007D3002383F3118870BD044803F040FE90
:103A8000CEE7044803F03CFEF3E700BF889201084C
:103A9000F8500020E0910108AFF30080AFF3008000
:103AA00010B5044620B104F10C0005F051FE10BD24
:103AB000014803F025FEF6E794920108AFF3008079
:103AC00010B5044620B104F10C0005F0B1FE10BDA4
:103AD000014803F015FEF6E7A4920108000000007B
:103AE000704700BF00000000000000000000000060
:103AF000002313B1002210467047044A52F82320D5
:103B000011788142F7D00133DBB2F2E7001A0020CE
:103B100070B50C461646054618B111B10AB1536886
:103B200013B9154803F0ECFD2A6873689A4213D064
:103B3000626823689A4213D9A289A3689A4213D271
:103B40006268A3689A4213D873682B60EC60002304
:103B50006B60AB60284670BD074803F0D1FDE7E716
:103B6000054803F0CDFDE7E7034803F0C9FDE7E7AB
:103B7000014803F0C5FDE7E7B4920108AFF3008008
:103B800000B583B003689B6801220DF107019847D7
:103B90009DF8070003B05DF804FB00BFAFF30080A1
:103BA00000B583B003689B6802220DF106019847B7
:103BB000BDF8060003B05DF804FB00BFAFF3008062
:103BC00000B583B003689B6804220DEB020198479F
:103BD000019803B05DF804FBAFF30080AFF3008001
:103BE00010B582B002AB03F8011D026854680122CF
:103BF0001946A04702B010BDAFF30080AFF30080BC
:103C000010B582B002AB23F8021D0268546802228C
:103C10001946A04702B010BDAFF30080AFF300809B
:103C200010B582B002AB43F8041D02685468042248
:103C30001946A04702B010BDAFF30080AFF300807B
:103C400010B5044618B103680BB1C36813B9044832
:103C500003F056FDE36858681B68C01A10BD00BF2A
:103C6000C4920108AFF30080AFF30080AFF300808F
:103C700010B5044618B103680BB1A06810BD024826
:103C800003F03EFDF9E700BFD4920108AFF30080D6
:103C900038B50D46044640B1036833B12046FFF7FE
:103CA000CFFFA84205D2A06038BD034803F028FD2D
:103CB000F4E72846F7E700BFE8920108AFF3008079
:103CC00010B5044638B103682BB100206060A060D5
:103CD0002060E06010BD024803F012FDF5E700BF70
:103CE000F4920108AFF30080AFF30080AFF30080DF
:103CF00010B5044618B103680BB1606810BD0248E6
:103D000003F0FEFCF9E700BF00930108AFF3008069
:103D100000207047AFF30080AFF30080AFF3008066
:103D200000207047000000000000000000000000BC
:103D300038B5114442F2107301FB0331C909094B34
:103D4000A3FB013109090A314FF47A7200230648B6
:103D500040F2E7340025E0FB01452046294613F0F8
:103D60007FFF38BD598B4F01A0860100AFF3008063
:103D700070B505460C46FFF77BFF06192846FFF78E
:103D80005FFF864201D8204670BD2846FFF758FFE6
:103D900004462846FFF76CFF241AF4E7AFF30080CF
:103DA0002DE9F04184B004460D4617461E461A46DA
:103DB00002214069FFF7BCFF8046A368B34202D3EB
:103DC0007219934202D2124803F09AFC23682B44E2
:103DD000E269C3F3072313702268E36915445D7039
:103DE0006069FEF7E5F9218BCDF808800023039385
:103DF000019600970223E2696069FEF721F9054602
:103E00006069FEF7E5F9284604B0BDE8F08100BF1F
:103E100010930108AFF30080AFF30080AFF3008090
:103E2000F8B50E461446054620B1036813B12CB907
:103E30002046F8BD0F4803F063FCF8E7214628460A
:103E4000FFF796FF04460028F2D0EF682846FFF7F8
:103E50000FFF2346324601463846FFF7A1FF08B15F
:103E60000024E5E72846FFF703FF01192846FFF77E
:103E70000FFFDDE71C930108AFF30080AFF3008074
:103E80002DE9F04385B004460D4691461E469F1C21
:103E9000002239464069FFF74BFF8046A368B342D2
:103EA00002D37219934202D21D4803F029FC236801
:103EB0002B44A289B3FBF2F13344013BB3FBF2F391
:103EC000994202D0164803F01BFC23682B44E26998
:103ED000C3F3072313702268E36915445D70E0693A
:103EE00032464946023014F03BF86069FEF760F94B
:103EF000218B0025CDF808800395019500953B4660
:103F0000E2696069FEF79CF806466069FEF760F9B1
:103F10002069294604F0FCFD304605B0BDE8F08379
:103F200024930108AFF30080AFF30080AFF300806B
:103F30002DE9F04104460F469846154672B1E668F1
:103F40002046FFF795FE2B463A4601463046FFF7DE
:103F500097FF064630B13046BDE8F081084803F0CF
:103F6000CFFBECE7D8F800302B44C8F800302046EF
:103F7000FFF77EFE41192046FFF78AFEEBE700BF00
:103F800034930108AFF30080AFF30080AFF30080FB
:103F90002DE9F04782B00E461446002301930546F2
:103FA00030B1036823B13CB9204602B0BDE8F087C8
:103FB0002B4803F0A5FBF6E721462846FFF7D8FE7D
:103FC00004460028F0D0EB68B3F80C801F68284640
:103FD000FFF74EFE3844C146B0FBF8FAEB681F68A5
:103FE0002846FFF745FE3B182344013BB3FBF8F39B
:103FF0009A451FD00AFB08882846FFF739FEA8EB30
:104000000008EB681868A8EB000801AB424631468F
:104010002846FFF78DFFA8B94644019BE21A914557
:1040200014D201AB4A4631462846FFF781FF58B902
:104030004E44F2E701AB224631462846FFF778FFAF
:10404000019CB1E7019CAFE7019CADE70AB91C46B2
:10405000AAE701AB31462846FFF76AFF019CA3E7B8
:104060004493010800000000000000000000000070
:104070000901C9B2074A131883F8001300F01F01A1
:10408000400901238B4000F1600142F8213042F8E1
:104090002030704700E100E0AFF30080AFF3008014
:1040A00000F01F03420901219940044B203243F8DC
:1040B00022100344002283F80023704700E100E04F
:1040C00038B504460D460B2807D82D01EDB204F192
:1040D000604000F56D40057638BD024803F010FBE6
:1040E000F3E700BF74930108AFF30080AFF30080E3
:1040F00000F01F024009012393406030014A42F85A
:104100002030704700E100E00000000000000000E7
:1041100008B504F05DFF164803F0B2FD03F0E0FCC3
:10412000144A5369116801F002010B405361BBB19D
:10413000114B9B6913B1104AD0699847202383F330
:10414000118804F07DFF03F09BFC00210B4804F074
:1041500087FE03F0ADFC04F07BFF002383F311889E
:1041600003F0DEFC024803F0B3FD07F039FD08BDA3
:1041700094930108003C0140E8460020F8460020E6
:1041800008B504F025FF164803F07AFD03F0A8FCFB
:10419000144A5369116801F004010B405361BBB12B
:1041A000114B9B6A13B1104AD06A9847202383F3BE
:1041B000118804F045FF03F063FC00210B4804F074
:1041C0004FFE03F075FC04F043FF002383F31188D6
:1041D00003F0A6FC024803F07BFD07F001FD08BDDB
:1041E000A0930108003C0140E84600200847002059
:1041F00008B504F0EDFE164803F042FD03F070FC34
:10420000144A5369116801F008010B405361BBB1B6
:10421000114B9B6B13B1104AD06B9847202383F34B
:10422000118804F00DFF03F02BFC00210B4804F073
:1042300017FE03F03DFC04F00BFF002383F311880D
:1042400003F06EFC024803F043FD07F0C9FC08BD13
:10425000AC930108003C0140E846002018470020CC
:1042600008B504F0B5FE164803F00AFD03F038FC6B
:10427000144A5369116801F010010B405361BBB13E
:10428000114B9B6C13B1104AD06C9847202383F3D9
:10429000118804F0D5FE03F0F3FB00210B4804F075
:1042A000DFFD03F005FC04F0D3FE002383F3118847
:1042B00003F036FC024803F00BFD07F091FC08BD4B
:1042C000B8930108003C0140E84600202847002040
:1042D00010B504F07DFE4F4803F0D2FC03F000FC63
:1042E0004D4B5C691A6802F4787214405C6114F0FA
:1042F000200F17D0494B9B6D13B1484AD06D98479A
:10430000202383F3118804F09BFE03F0B9FB002106
:10431000434804F0A5FD03F0CBFB04F099FE002315
:1043200083F3118814F0400F17D03C4B9B6E13B1F0
:104330003A4AD06E9847202383F3118804F080FE18
:1043400003F09EFB0021374804F08AFD03F0B0FB28
:1043500004F07EFE002383F3118814F0800F17D041
:104360002E4B9B6F13B12D4AD06F9847202383F3B8
:10437000118804F065FE03F083FB00212A4804F055
:104380006FFD03F095FB04F063FE002383F31188B7
:1043900014F4807F19D0214BD3F888301BB11F4A09
:1043A000D2F88C009847202383F3118804F048FE4C
:1043B00003F066FB00211D4804F052FD03F078FB7A
:1043C00004F046FE002383F3118814F4007F19D013
:1043D000124BD3F898301BB1104AD2F89C00984782
:1043E000202383F3118804F02BFE03F049FB002106
:1043F0000F4804F035FD03F05BFB04F029FE0023B9
:1044000083F3118803F08CFB024803F061FC07F092
:10441000E7FB10BDC4930108003C0140E8460020C2
:1044200038470020484700205847002068470020B0
:1044300078470020AFF30080AFF30080AFF3008037
:1044400008B500210620FFF713FE06210720FFF71D
:104450000FFE06210820FFF70BFE06210920FFF7BB
:1044600007FE06210A20FFF703FE06211720FFF7AB
:10447000FFFD01212820FFF7FBFD08BDAFF3008001
:1044800008B50620FFF70CFE0720FFF709FE0820FD
:10449000FFF706FE0920FFF703FE0A20FFF700FEE4
:1044A0001720FFF7FDFD2820FFF7FAFD08BD00BF2C
:1044B000124A136843F480731360114B1B6F03F4AB
:1044C0004073B3F5007F05D00D4B4FF480321A676F
:1044D00000221A670A4B1B6F13F4004F08D1084BD8
:1044E0001A6F42F400721A671A6F42F400421A6798
:1044F000024A536823F40073536070470070004011
:1045000000380240AFF30080AFF30080AFF30080CB
:1045100008B5194B1A696FEAC2526FEAD2521A6192
:104520001A69C2F308021A611A695A694FF0FF301A
:1045300058615A69002159615A691A6A62F08052B9
:104540001A621A6A02F080521A621A6A5A6A586229
:104550005A6A59625A6A1A6C42F080521A641A6E88
:1045600042F080521A661B6EFFF7A2FF00F018FBA4
:10457000FFF766FF08BD00BF00380240AFF30080C0
:104580003B4B4FF080521A643A4A4FF4404111605D
:104590001A6842F001021A60354B1B6813F0020FD3
:1045A000FAD0334A936823F003039360304B9B683F
:1045B00013F00C0FFAD12E4B1A6802F0F9021A60B0
:1045C00000229A601A6842F480321A60284B1B68F5
:1045D00013F4003FFAD0264A536F43F001035367A8
:1045E000234B5B6F13F0020FFAD0214B224A5A6023
:1045F0001A6842F080721A601E4B5B6813F4804F99
:10460000FAD01B4B1B6813F0007FFAD0184B1B4AE3
:104610009A601B4B1A681B4B9A421FD01A4B40F2F0
:1046200005721A60184B1B6803F00F03052BF9D1B4
:104630000F4A936843F0020393600D4B9B6803F0AD
:104640000C03082BF9D10A4B5A6C42F480425A648D
:104650005A6E42F480425A665B6E70470B4B1A6882
:104660000B4B9A42DAD1084B40F205121A60D9E797
:1046700000380240007000400C5440070094883815
:10468000002004E011640020003C024000ED00E046
:1046900041C20F41000000000000000000000000C7
:1046A00008B504F095FC0C4803F0EAFA03F018FA98
:1046B0000A4B196801F03D019960094B5B6813B121
:1046C000074A9068984703F02BFA034803F000FB71
:1046D00007F086FA08BD00BFD093010800600240D1
:1046E00024200020AFF30080AFF30080AFF3008000
:1046F00008B504F06DFC0D4803F0C2FA03F0F0F9C0
:104700000B4B1968890901F03D018A019A60094B38
:10471000DB6813B1074A1069984703F001FA0348B0
:1047200003F0D6FA07F05CFA08BD00BFDC9301087D
:104730000060024024200020AFF30080AFF300802F
:1047400008B504F045FC0D4803F09AFA03F0C8F9E7
:104750000B4B1968090C01F03D010A049A60094BE2
:104760005B6913B1074A9069984703F0D9F9034888
:1047700003F0AEFA07F034FA08BD00BFE893010871
:104780000060024024200020AFF30080AFF30080DF
:1047900008B504F01DFC0D4803F072FA03F0A0F90F
:1047A0000B4B1968890D01F03D018A059A60094B90
:1047B000DB6913B1074A106A984703F0B1F903485F
:1047C00003F086FA07F00CFA08BD00BFF493010865
:1047D0000060024024200020AFF30080AFF300808F
:1047E00008B504F0F5FB0C4803F04AFA03F078F939
:1047F0000A4B596801F03D01D960094B5B6A13B15E
:10480000074A906A984703F08BF9034803F060FA6F
:1048100007F0E6F908BD00BF0094010800600240FF
:1048200024200020AFF30080AFF30080AFF30080BE
:1048300008B504F0CDFB0D4803F022FA03F050F95F
:104840000B4B5968890901F03D018A01DA60094B77
:10485000DB6A13B1074A106B984703F061F903480C
:1048600003F036FA07F0BCF908BD00BF0C9401084C
:104870000060024024200020AFF30080AFF30080EE
:1048800008B504F0A5FB0D4803F0FAF903F028F988
:104890000B4B5968090C01F03D010A04DA60094B21
:1048A0005B6B13B1074A906B984703F039F90348E3
:1048B00003F00EFA07F094F908BD00BF1894010840
:1048C0000060024024200020AFF30080AFF300809E
:1048D00008B504F07DFB0D4803F0D2F903F000F9B0
:1048E0000B4B5968890D01F03D018A05DA60094BCF
:1048F000DB6B13B1074A106C984703F011F90348BA
:1049000003F0E6F907F06CF908BD00BF2494010834
:104910000060024024200020AFF30080AFF300804D
:1049200008B504F055FB0C4803F0AAF903F0D8F8D9
:104930000A4B196801F03D019960094B5B6C13B19A
:10494000074A906C984703F0EBF8034803F0C0F96E
:1049500007F046F908BD00BF30940108006402402A
:1049600024200020AFF30080AFF30080AFF300807D
:1049700008B504F02DFB0D4803F082F903F0B0F800
:104980000B4B1968890901F03D018A019A60094BB6
:10499000DB6C13B1074A106D984703F0C1F8034868
:1049A00003F096F907F01CF908BD00BF3C9401081C
:1049B0000064024024200020AFF30080AFF30080A9
:1049C00008B504F005FB0D4803F05AF903F088F828
:1049D0000B4B1968090C01F03D010A049A60094B60
:1049E0005B6D13B1074A906D984703F099F803483F
:1049F00003F06EF907F0F4F808BD00BF4894010811
:104A00000064024024200020AFF30080AFF3008058
:104A100008B504F0DDFA0D4803F032F903F060F850
:104A20000B4B1968890D01F03D018A059A60094B0D
:104A3000DB6D13B1074A106E984703F071F8034815
:104A400003F046F907F0CCF808BD00BF5494010804
:104A50000064024024200020AFF30080AFF3008008
:104A600008B504F0B5FA0C4803F00AF903F038F879
:104A70000A4B596801F03D01D960094B5B6E13B1D7
:104A8000074A906E984703F04BF8034803F020F96B
:104A900007F0A6F808BD00BF60940108006402405A
:104AA00024200020AFF30080AFF30080AFF300803C
:104AB00008B504F08DFA0D4803F0E2F803F010F8A1
:104AC0000B4B5968890901F03D018A01DA60094BF5
:104AD000DB6E13B1074A106F984703F021F80348C3
:104AE00003F0F6F807F07CF808BD00BF6C940108ED
:104AF0000064024024200020AFF30080AFF3008068
:104B000008B504F065FA0D4803F0BAF802F0E8FFC2
:104B10000B4B5968090C01F03D010A04DA60094B9E
:104B20005B6F13B1074A906F984702F0F9FF034893
:104B300003F0CEF807F054F808BD00BF78940108E0
:104B40000064024024200020AFF30080AFF3008017
:104B500008B504F03DFA0D4803F092F802F0C0FFEA
:104B60000B4B5968890D01F03D018A05DA60094B4C
:104B7000DB6F1BB1074AD2F88000984702F0D0FFE4
:104B8000024803F0A5F807F02BF808BD849401084B
:104B90000064024024200020AFF30080AFF30080C7
:104BA00000230E4A13600DE003EB430291000C4A10
:104BB0000A44D2F8C02000211160084A02EBC30267
:104BC000516001330F2BEFD9064A4FF0FF3393604A
:104BD000D36002F580629360D36070472420002088
:104BE000D093010800600240AFF30080AFF3008073
:104BF000F8B504460E4615461F4602F0B1FF0F2CCD
:104C000005D82346A34207D900242046F8BD3048E2
:104C100002F076FD0024F8E701229A402D49096848
:104C2000114201D00133EDE703EB4304A0002A4C0D
:104C30000444284800EBC30CCCF80450CCF80870AE
:104C40001143016012F0FF0F09D02449086B40F4B2
:104C500000100863086D40F400100865096D12F437
:104C60007F4F09D01D4A116B41F480011163116D12
:104C700041F480011165126D03EB43029100184A63
:104C80000A44D2F8C0100A6822F01F020A600A68BB
:104C900012F0010FFBD1580018448700104A3A4423
:104CA00092F8C970D2F8C4003D22BA4002600022D6
:104CB0000A6021224A61002DA7D003EB43039A002A
:104CC000074B1344314693F8CB00FFF7D1F99CE72B
:104CD00050950108242000209094010800380240DB
:104CE000D0930108AFF30080AFF30080AFF30080F2
:104CF000F8B504460D4616461F46202383F3118857
:104D000004F08EF902F08CFE3B46324629462046DE
:104D1000FFF76EFF044602F09BFE04F089F9094B91
:104D20001A689A4204D09B6999689368994204D39F
:104D3000002383F311882046F8BD034802F0E0FC0D
:104D4000F6E700BFF850002060950108AFF300803F
:104D500010B5044600282DD01A4B1A68A17A0123F9
:104D60008B401A422AD0E07AFFF79AF9A27A0123FF
:104D700003FA02F213490B6823EA02030B6013F0F3
:104D8000FF0F09D1104A116B21F400111163116D4D
:104D900021F400111165126D13F47F4F09D10A4BF4
:104DA0001A6B22F480021A631A6D22F480021A65CB
:104DB0001B6D10BD054802F0A3FCCDE7034802F0CF
:104DC0009FFCD0E724200020003802406C950108A9
:104DD00010B50446202383F3118804F021F902F072
:104DE0001FFE2046FFF7B4FF02F032FE04F020F968
:104DF000084B1A689A4204D09B6999689368994253
:104E000003D3002383F3118810BD034802F078FC1C
:104E1000F7E700BFF850002060950108000000008F
:104E200011F0030F19D011F0010F26D01D4A93681D
:104E30000343936011F0020F25D01A4AD36803434D
:104E4000D36011F0040F24D0164B5A6802435A6005
:104E50001A6822EA000018607047124B1968C243B2
:104E60001140196059681140596099681140996062
:104E7000D9680A40DA60586170470A4A936823EAA1
:104E800000039360D6E7074AD36823EA0003D360A0
:104E9000D7E7044B1A6802431A605A6822EA0000F6
:104EA00058607047003C0140AFF30080AFF30080D2
:104EB00038B50D4600F01F0301249C40162807D882
:104EC00035F0070308D129462046FFF7A9FF38BD72
:104ED000034802F015FCF3E7014802F011FCF2E789
:104EE0007C950108AFF30080AFF30080AFF3008042
:104EF00010B500F01F0301249C40162802D8034B74
:104F00005C6110BD024802F0FBFBF8E7003C014089
:104F10008C95010800000000000000000000000067
:104F2000002208E010010549431843505B6000214E
:104F30009960D96001320F2AF4D97047E846002001
:104F40002DE9F04F02F00309C2F3800CC2F3C10750
:104F5000C2F34116C2F3C3124D46002417E0072CDA
:104F600054D8D0F820A02AEA0E0E4EEA0808C0F85D
:104F70002080D0F800E003EA0E032B4303604908C9
:104F800054D04FEA4C0CBF00B600AD00013411F014
:104F9000010FF4D004F0070E4FEA8E0E02FA0EF85D
:104FA000012303FA04FA04FA03F34FF0030B0BFA9C
:104FB00003FB0F2303FA0EFE436823EA0A0343EAC6
:104FC0000C034360D0F808A06FEA0B030AEA030A57
:104FD0004AEA070AC0F808A0D0F80CA003EA0A0AB7
:104FE0004AEA060AC0F80CA0B9F1020FB7D0D0F80F
:104FF00000A003EA0A032B430360072C0FD8036ABF
:1050000023EA0E0E4EEA08030362B8E7D0F824A0A4
:105010002AEA0E0E4EEA0808C0F82480A9E7436A7F
:1050200023EA0E0E4EEA08034362A8E7BDE8F08FBC
:10503000F8B507460C46164601258D40204B9B6867
:105040002B4203D11E4BDB682B4202D01D4802F0DD
:1050500057FBA20804F00304A4000F2303FA04F191
:10506000C7F383271848023250F8223023EA01039D
:1050700007FA04F41C4340F8224016F0010F14D044
:105080000F4A93682B43936016F0020F13D10C4A1A
:10509000D36823EA0503D360094B1A682A431A60D0
:1050A0005A6822EA05055D60F8BD054A936823EA5F
:1050B00005039360E8E7024AD3682B43D360EBE72C
:1050C000003C01409C95010800380140AFF300808E
:1050D000F8B51B4B9E68DF6801248C4046EA070345
:1050E000234227D00D46890805F003039A00C0F338
:1050F00083208B1C134951F82330D34003F00F0356
:10510000984218D10E4B1968E24311401960596852
:105110001140596016409E603A40DA605C610A496D
:1051200001EB05156FF00101284603F099FE0023FD
:10513000AB60EB60F8BD054802F0E2FAE2E700BFC1
:10514000003C014000380140E8460020B4950108C9
:10515000436B4FF400421A6000221A605A605A6191
:10516000036B1A68136823F01F031360036B1A683C
:10517000126812F0010FF9D1597A5A683D238B4019
:105180001360C36A1A68136823F01F031360C36AAD
:105190001A68126812F0010FF9D1597A5A683D2342
:1051A0008B401360704700BFAFF30080AFF3008007
:1051B000416B43681A780B689BB2022A09D0032A14
:1051C0000DD0012A01D00B60704723F00A039BB277
:1051D000F9E723F008039BB243F00203F3E743F03F
:1051E0000A03F0E7AFF30080AFF30080AFF3008075
:1051F00070B5446BA369656945EA034323F07F43B7
:10520000404A93422FD0B3F1031F18D33E4A934232
:1052100041D00232934249D03C4A934203D1038C9D
:10522000C3F34703236115F00A0F00D0A36915F4F7
:10523000807F03D0636923F48073636170BDB3F131
:10524000011F02D0013A9342EDD1038C1A0A08D013
:1052500002F0060203F00103134343F0F00323615D
:10526000E1E72361DFE7636823F400736360C36AE7
:105270001A68136843F001031360636843F48053B2
:105280006360C36A1B685B68012BCCD8236823F476
:1052900080632360C7E7636823F400736360036B74
:1052A0001A68136843F001031360BCE72369C36AFB
:1052B0001B685B6843B1038C43F0010303842368DC
:1052C00043F4A0632360B9E70646636823F40073E0
:1052D0006360236843F400732360202383F3118801
:1052E00003F0AEFE02F0CCFB002106F11C0003F03F
:1052F00027FD02F0DDFB03F0ABFE002383F31188F2
:1053000091E700BF020003008200070008000300CD
:1053100010B5036B1A68136823F01F031360036B47
:105320001A68126812F0010FF9D15C7A5A683D23AD
:10533000A3401360C36A1A68136823F01F03136045
:10534000C36A1A68126812F0010FF9D15C7A5A68C0
:105350003D23A34013600023836011F4807F06D0B7
:1053600001238360426B536923F48073536111F40A
:10537000007F03D0836843F00203836011F4806FE1
:105380000DD0426B536823F400735360426B136873
:1053900043F400731360836843F00403836011F4E3
:1053A000006F03D0836843F00803836011F4804FDB
:1053B00003D0836843F02003836011F4805F03D03F
:1053C000836843F01003836011F4004F02D18368B7
:1053D0002BB910BD836843F040038360F7E70446B0
:1053E000202383F3118803F02BFE02F049FB6FF0BA
:1053F000010104F11C0003F0A3FC02F059FB03F0CF
:1054000027FE002383F31188E3E700BFAFF300809A
:1054100038B50446456B11F00C0F15D1236B1A6893
:10542000136823F01F031360236B1A68126812F0CD
:10543000010FF9D1597A5A683D238B4013606B688C
:1054400043F400736B6038BD014802F059F9E5E799
:10545000ACA40108AFF30080AFF30080AFF300808D
:1054600038B50446456B11F00C0F30D1E36A1A6869
:10547000136823F01F031360E36A1A68126812F0BE
:10548000010FF9D1597A5A683D238B4013606B683C
:1054900023F480536B602B6823F480632B602B68AC
:1054A00043F400732B60202383F3118803F0C8FDBD
:1054B00002F0E6FA002104F11C0003F041FC02F0C6
:1054C000F7FA03F0C5FD002383F3118838BD0248C5
:1054D00002F016F9CAE700BFACA40108AFF30080E0
:1054E000F8B5456B43685C681E7A20B1002C02DD7C
:1054F000414B9C4202DD414802F002F96B6823F007
:105500003F031B041B0C6B606B6843F02A036B604A
:105510003B4B9C4223DC012E15D16600394AB2FB7D
:10552000F6F306FB132393B9364CB4FBF6F4A4B29E
:10553000032C10D9C4F30B062B232B62B4F5805F28
:1055400053D2EE61F8BD2D4802F0DAF8E5E72B48BA
:1055500002F0D6F8E8E7294802F0D2F8EAE7264B4D
:105560009C4246DCB31EDBB2012B0ED8022E10D0BB
:10557000032E25D040F6FF740027C4F30B063E43EC
:1055800046F400460D232B62D8E71C4802F0B8F819
:10559000ECE704EB44041B4AB2FBF4F304FB1323D3
:1055A00053B9184BB3FBF4F4A4B20027002CE4D198
:1055B000124802F0A5F8E0E7104802F0A1F8F0E781
:1055C00004EB840404EB84060E4AB2FBF6F306FBFC
:1055D000132333B90B4CB4FBF6F4A4B24FF4804759
:1055E000E4E7064802F08CF8F4E7044802F088F893
:1055F000A7E70026A5E700BF801A0600D09501089E
:10560000A086010080DE8002AFF30080AFF300804F
:1056100010B503F0DDFC084C204602F031FB02F02F
:105620005FFA0648FFF7E4FD02F07AFA204602F03E
:105630004FFB06F0D5FA10BDE4950108E8470020BD
:1056400070B50E4D6B6B5C69A4B203F0C1FC0C4EDF
:10565000304602F015FB02F043FA04F45F436A6B34
:10566000DB43536121462846FFF752FE02F058FA09
:10567000304602F02DFB06F0B3FA70BDE84700207B
:10568000F0950108AFF30080AFF30080AFF3008026
:1056900010B5054C2046FCF733FC0023E361034AB8
:1056A0006263E362236310BDE847002000540040BA
:1056B00038B50446456B0378012B1AD005F1100369
:1056C000E26A12689360226B126893604FF40043A1
:1056D0002B6000232B604FF410636B602046FFF7B4
:1056E000FFFE2046FFF764FD2B6843F001032B60AB
:1056F00038BD40F25643836240F216434362224B68
:105700009842DBD1214B1A6A42F400121A621A6ADB
:1057100022F400121A621B6A03461D4A052100206A
:10572000FFF766FAE06230B323461A4A05210620E5
:10573000FFF75EFA206310B3144B1A6C42F40012A8
:105740001A641A6E42F400121A661B6E05211F209D
:10575000FEF78EFC05212020FEF78AFC636A43F0E9
:10576000007343F400336362A36A43F0007343F4AD
:105770000033A362A2E7084801F0C2FFD4E706485D
:1057800001F0BEFFD8E700BFE84700200038024024
:105790006154000811540008FC950108AFF3008023
:1057A0000378012B21D010B50446FFF7D1FC206B04
:1057B000FFF7CEFAE06AFFF7CBFA00232363E36238
:1057C0000A4B9C4200D010BD1F20FEF769FC202030
:1057D000FEF766FC064B1A6C22F400121A641A6E6D
:1057E00022F400121A661B6EEDE77047E8470020AE
:1057F00000380240AFF30080AFF30080AFF30080C9
:10580000F8B5054617461E46446B002383604900E1
:1058100041F00101018402F01BF903F009FC404B47
:105820001A689A4204D09B6999689368994210D388
:10583000002383F31188EB6A1B686A6A1A60EB6ABB
:105840001B68DF60EB6A1B685E604FF080435E6A36
:105850001BE0344801F054FFEAE7EB6A1A6813686A
:1058600023F01F031360EB6A1A68126812F0010F2D
:10587000F9D1597A5A683D238B4013604FF0FF31BC
:105880000846F8BD002383F31188202383F3118891
:1058900003F0C6FB02F0C4F8A36913F0020F03D1B2
:1058A000236813F4007F18D04FF080435B6A9B1B82
:1058B00041F287329342D0D802F0CAF803F0B8FB25
:1058C000174B1A689A42DDD09B6999689368994290
:1058D000D8D2144801F014FFD4E7636843F400738E
:1058E0006360236843F4A0632360DDE9062305F1C8
:1058F0001C0003F005FA01460028C1D0EB6A1A68C3
:10590000136823F01F031360EB6A1A68126812F021
:10591000010FF9D1587A5A683D2383401360AFE7ED
:10592000F85000200C960108AFF30080AFF3008020
:10593000F8B5044617461E46456B002383604900B0
:10594000018402F085F803F073FB574B1A689A4202
:1059500004D09B699968936899421CD3002383F310
:105960001188236B1B68A26A1A60236B1B68DF60B7
:10597000236B1B685E60E36A1B68626A1A60E36AF5
:105980001B68069ADA60E36A1B68079A5A604FF050
:1059900080435E6A2CE0454801F0B2FEDEE7236BEF
:1059A0001A68136823F01F031360236B1A681268C8
:1059B00012F0010FF9D1597A5A683D238B401360D8
:1059C000E36A1A68136823F01F031360E36A1A6816
:1059D000126812F0010FF9D1597A5A683D238B40B1
:1059E00013604FF0FF310846F8BD002383F31188A0
:1059F000202383F3118803F013FB02F011F8AB6945
:105A000013F0020F03D12B6813F4007F18D04FF06E
:105A100080435B6A9B1B41F287329342BFD802F0FE
:105A200017F803F005FB204B1A689A42DDD09B69FA
:105A3000996893689942D8D21C4801F061FED4E776
:105A40006B6843F400736B602B6843F480732B60C6
:105A5000DDE9082304F11C0003F052F90146002897
:105A6000C1D0236B1A68136823F01F031360236BE4
:105A70001A68126812F0010FF9D1587A5A683D235A
:105A800083401360E36A1A68136823F01F031360EE
:105A9000E36A1A68126812F0010FF9D1587A5A684D
:105AA0003D23834013609EE7F85000200C960108C8
:105AB000054B5A68D36843F08003D360D36813F072
:105AC000400FFBD0704700BF20480020AFF300809C
:105AD00010B4C0F30152C0F30344114B03FB04F3B1
:105AE000104C04FB0233C0F302320F4C04FB0232B1
:105AF000C0F303234EF6602404FB0322C0F3021319
