:020000040800F2
:1000000000040020B9020008BB020008BB0200087F
:10001000BB020008BB020008BB020008BB020008CC
:10002000BB020008BB020008BB020008411A00081E
:10003000BB020008BB020008BB020008BB020008AC
:10004000BB020008BB020008BB020008BB0200089C
:10005000BB020008BB020008BB020008BB0200088C
:10006000BB020008BB020008BB020008D14900081F
:100070008149000831490008E1480008A14800080A
:100080005148000801480008BB020008BB020008F4
:10009000BB020008BB020008BB020008BB0200084C
:1000A000BB020008BB020008BB020008BB0200083C
:1000B000E1430008BB020008BB020008BB020008C5
:1000C000BB020008BB020008BB020008BB0200081C
:1000D000BB020008BB020008B1430008BB020008D5
:1000E000BB020008BB020008BB020008BB020008FC
:1000F000BB020008BB020008BB020008B1470008B1
:10010000BB020008E1440008BB020008BB02000873
:10011000BB020008BB020008BB020008BB020008CB
:100120007147000821470008D146000881460008B1
:1001300041460008BB020008BB020008BB020008E1
:10014000BB020008BB020008BB020008BB0200089B
:10015000F1450008A1450008514500088143000809
:10016000BB020008BB020008BB020008BB0200087B
:10017000BB020008BB020008BB020008BB0200086B
:10018000BB020008BB020008BB020008BB0200085B
:10019000BB020008BB020008BB020008BB0200084B
:1001A000BB020008BB020008BB020008BB0200083B
:1001B000BB020008BB020008BB020008BB0200082B
:1001C000BB020008BB020008BB020008BB0200081B
:1001D000BB020008BB020008BB020008BB0200080B
:1001E00072B6274880F30888264880F30988264895
:1001F0004EF60851CEF200010860022080F3148808
:10020000BFF36F8F04F04CFC03F06AFF4FF05530E2
:100210001E491B4A91423CBF41F8040BFAE71C49B6
:10022000184A91423CBF41F8040BFAE719491A4AAF
:100230001A4B9A423EBF51F8040B42F8040BF8E700
:1002400000201749174A91423CBF41F8040BFAE7D6
:1002500004F0DEFB04F01CFC134C144DAC4203DA3A
:1002600054F8041B8847F9E702F09AF9104C114D35
:10027000AC4203DA54F8041B8847F9E704F000BCE9
:1002800000040020000800200000000800000020FA
:1002900000040020605A0008000800200008002028
:1002A00000080020E8580020E0010008E0010008F4
:1002B000E0010008E001000892E700F000F8FEE726
:1002C0002DE9F04FC1F80CD0C3689D46BDE8F08F12
:1002D00001F0F6FB002383F311882846A047002095
:1002E00001F0C6FFFEE701F013FC01F0B9FB01F0DD
:1002F000E7FB00DFFEE70000844641EA000313F05D
:1003000003036DD1403A41D351F8043B40F8043B1C
:1003100051F8043B40F8043B51F8043B40F8043BDF
:1003200051F8043B40F8043B51F8043B40F8043BCF
:1003300051F8043B40F8043B51F8043B40F8043BBF
:1003400051F8043B40F8043B51F8043B40F8043BAF
:1003500051F8043B40F8043B51F8043B40F8043B9F
:1003600051F8043B40F8043B51F8043B40F8043B8F
:1003700051F8043B40F8043B51F8043B40F8043B7F
:1003800051F8043B40F8043B403ABDD2303211D31F
:1003900051F8043B40F8043B51F8043B40F8043B5F
:1003A00051F8043B40F8043B51F8043B40F8043B4F
:1003B000103AEDD20C3205D351F8043B40F8043B1F
:1003C000043AF9D2043208D0D2071CBF11F8013B1D
:1003D00000F8013B01D30B8803806046704700BFE3
:1003E000082A13D38B078DD010F003038AD0C3F1F2
:1003F0000403D21ADB071CBF11F8013B00F8013BD4
:1004000080D331F8023B20F8023B7BE7043AD9D392
:10041000013A11F8013B00F8013BF9D20B78037067
:100420004B7843708B788370604670470000000003
:1004300000000000000000000000000000000000BC
:10044000A2EB0300704700BF02780B78012A28BF97
:100450009A42F5D16DE9044540EA0104CDE902670D
:100460006FF0000C4FEA447212B380EA010414F0FA
:10047000070F6AD100F0070420F0070004F003051D
:1004800021F007014FEAC505F0E8042314F0040F3A
:10049000F1E804670CFA05F462EA040266EA04066D
:1004A0000AD063EA0403624667EA0407664603E08B
:1004B000F0E80423F1E8046782FA4CF582EA0604C6
:1004C000A4FA8CF46CBB83FA4CF583EA0705A5FA11
:1004D0008CF595B950E9022351E9026782FA4CF58F
:1004E00082EA0604A4FA8CF483FA4CF583EA070541
:1004F000A5FA8CF52543DBD09CB92DBAB5FA85F465
:1005000024F0070427FA04F1DDE9026723FA04F373
:1005100003F0FF0001F0FF01FDE80445A0EB01003E
:10052000704724BAB4FA84F424F0070426FA04F1DC
:10053000DDE9026722FA04F202F0FF0001F0FF0198
:10054000FDE80445A0EB0100704714F0030F3CD117
:1005500010F0030428D150F8082B51F8083B82FA18
:100560004CF582EA0305A5FA8CF55DB950F8042C28
:1005700051F8043C82FA4CF582EA0305A5FA8CF5A1
:10058000002DE8D02DBAB5FA85F424F0070423FA3B
:1005900004F122FA04F202F0FF0001F0FF01FDE88D
:1005A0000445A0EB010070474FEAC40420F00300AB
:1005B00050F8082B21F0030151F8083B0CFA04F421
:1005C00062EA040263EA0403C9E710F003041AD0E4
:1005D000A1EB040120F00300E40750F8042B06D03F
:1005E0000FD28B785FFAA2F4E41A06D12BB1CB7844
:1005F0005FFAB2F4E41A00D11BB920465DF8104B43
:10060000704701F1040150F8042BCC0721F00301DD
:1006100051F8043B48D824D222F07F4482FA4CF5AA
:1006200094EA1325A5FA8CF50AD165B951F8043B73
:1006300084EA0204B4EB036F0ED150F8042BEBE70D
:100640004FEA132355E035F07F454DD10878FDE89A
:100650000445C0F1000070474FEA126203F0FF0347
:1006600047E002EA1C4482FA4CF594EA1345A5FAE5
:100670008CF50AD165B951F8043B84EA0204B4EB65
:10068000034F0CD150F8042BEBE74FEA134330E053
:1006900015EA1C4528D10B884FEA124229E04FEA9F
:1006A000124203EA1C4324E002F0FF0482FA4CF5F4
:1006B00094EA1365A5FA8CF50AD165B951F8043BA3
:1006C00084EA0204B4EB032F09D150F8042BEBE7C2
:1006D0004FEA13630DE015F0FF0F05D10B684FEAE9
:1006E000122223F07F4304E04FF00000FDE80445B0
:1006F000704712BA1BBA82FA4CF482EA0304A4FAD5
:100700008CF5B5FA85F402FA04F203FA04F34FEA21
:100710001260FDE80445A0EB136070470000000084
:10072000F0B40346124A43F8042B01220025102797
:1007300000F1740600F10C044360C16400F164032D
:10074000027200F1300100F154024561C0E9034436
:10075000856287630664C0E90822F0BCC0E91133F2
:10076000C0E90C11C06200658261C361C363704758
:10077000385A0008000000000000000000000000DF
:10078000024AD36843F0C003D3607047004400407E
:10079000024AD36843F0C003D3607047001401409D
:1007A000202383F311880D4B5B6813F4006302D19F
:1007B00083F311887047EFF30983203B4FF0807279
:1007C000DA6183F30988064A116892698968926838
:1007D00091428CBF034A044A9A61704700ED00E0E1
:1007E000484B0020E7020008F20200080000000069
:1007F0000E4A0F4B5268D3F88438816830B4D31A4C
:10080000D0E90445C2685B1A01324168C260E4184D
:100810000268836045F100058B4288BF43609342C4
:10082000C0E9044538BF036030BC7047001000E0E9
:10083000484B002000000000000000000000000005
:10084000014B5B6883607047001000E0000000000F
:1008500010B40B4A0B48D36B4FF080441968646A9C
:100860005C60406860F31F2143F8101B02F50461CF
:100870008B4228BF02F1400310BCD363704700BF16
:10088000484B0020001000E00000000000000000C5
:1008900090F820300549406ACA6BDB0043F0010341
:1008A00013708B69C2E90230FFF7D2BF484B0020BA
:1008B000094A138F10B513F0020400D010BD202395
:1008C00083F31188D36B032298601A70FFF7C0FF7F
:1008D00084F3118810BD00BF484B002000000000C9
:1008E000094A138F10B513F0020400D010BD202365
:1008F00083F31188D36B022298601A70FFF7A8FF68
:1009000084F3118810BD00BF484B00200000000098
:1009100008B5044672B6064D2B8F5B0701D5EC6215
:10092000FEE7EB6B042298601A70FFF791FFF6E781
:10093000484B002000000000000000000000000004
:1009400008B5054B1A6B1AB95B6B002B00DD08BDAF
:100950000248FFF7DDFF00BF484B0020DC4C0008D9
:1009600008B5054B1A6B002A03DB5B6B002B00DD1F
:1009700008BD0248FFF7CCFF484B0020E44C0008BC
:10098000F8B50D4604461646FFF7EAFF85B16B1E23
:1009900013EA05070CD10949D1E900236D42181B60
:1009A0002840861BB24206D8B34204D34E60F8BD3D
:1009B0000348FFF7ADFF3846F8BD00BFF0540020F4
:1009C00010550008000000000000000000000000BA
:1009D0000022FFF7D5BF00BF0000000000000000AC
:1009E000F8B50446FFF7BCFF6068430703D1A3686E
:1009F00013F0070502D02048FFF78AFF9842FAD289
:100A00001A1AC72AF7D9E168FF29F4D82669002EF7
:100A1000F1D01A4A43F82C0C4FF0020C0127206841
:100A200043F86C6C666903F8275C03F8267C03F8CE
:100A300028CC43F8382C546943F8686C43E90555D1
:100A400043F8300C43F8401C43F80C1CA3F1480059
:100A5000A3F11C010A4E43F8344CA3F16C07A3F137
:100A6000200543F83C7C43F84C6C2061506143E91D
:100A7000085143F8181CF8BDF8540008484B0020F2
:100A8000D10200080000000000000000000000008B
:100A900010B50446FFF764FFA4B194F820308BB181
:100AA0000F2B0FD00022A168084B84F820201B6870
:100AB0009A688A42FBD85A682046C4E9003214601A
:100AC0005C6010BD0248FFF723FF00BF484B0020C9
:100AD000E4540008000000000000000000000000D6
:100AE00010B50446FFF73CFFA4B194F820308BB159
:100AF0000F2B0FD00022A168084B84F820201B6820
:100B00009A688A42FBD25A682046C4E900321460CF
:100B10005C6010BD0248FFF7FBFE00BF484B0020A1
:100B2000C0540008000000000000000000000000A9
:100B300008B50368984210D01A680260506093F8B4
:100B40002020042A06D100225A621846BDE8084037
:100B5000FFF7C6BF0148FFF7DBFE08BD645400087D
:100B60002DE9F84307460E46FFF7FAFE3C68A74218
:100B70001AD04FF00008E3683343E36016B12369ED
:100B80001E420ED0D4E90159FFF7EAFE0DB36B6B9C
:100B900095F8202049EA03030A2A6B6306D00B2A42
:100BA0000DD02468A742E6D1BDE8F8836A6A1342F3
:100BB000F7D0C5F824802846FFF792FFF1E76A6A6C
:100BC00032EA0303EDD1C5F824802846FFF788FFF9
:100BD000E7E70148FFF79CFE785500080000000099
:100BE00008B5202383F31188064A136B002B01DD1F
:100BF000516B11B10448FFF78BFE013B136381F386
:100C0000118808BD484B0020EC4C00080000000093
:100C100008B5202383F31188064A136B002B01DBF0
:100C2000516B11B10448FFF773FE0133136381F375
:100C3000118808BD484B0020F44C0008000000005B
:100C400008B5064B1A6B002A05DD5A6B002A02DD37
:100C500000225A6308BD0248FFF75AFE484B0020A5
:100C6000FC4C000800000000000000000000000034
:100C700008B5064B1A6B002A01DD5A6B12B1044805
:100C8000FFF746FE01225A6308BD00BF484B002013
:100C9000044D0008000000000000000000000000FB
:100CA00038B50446202383F31188FFF7E1FF94F859
:100CB0002030072B0FD8DFE803F0140E0E1A0A04B9
:100CC0000E0A656AFFF74CFEAB680133AB60D4E9EE
:100CD000003213605A604FF0FF3363622046FFF723
:100CE000FFFEFFF7ADFF002383F3118838BD636A71
:100CF00000221A60EFE700BF0000000000000000C3
:100D0000FEE700BF0000000000000000000000003F
:100D100000207047000000000000000000000000FC
:100D20000379DA1E012A09D9063B012B06D9054AA7
:100D3000054B1069C0F3C02018707047024B18783B
:100D4000704700BF000802409855002000000000D6
:100D50002DE9F047466FD6F80C803368DF0505466D
:100D60009CB275D4202383F31188FFF781FF14F020
:100D70002F0F49D02F1D05F10C0908E0A306D6F866
:100D800004A01ED4336813F02F0F9CB23CD0200770
:100D9000F4D014F0080F0CBF00218021E20748BFF7
:100DA00041F02001A30748BF41F04001600748BF60
:100DB00041F480713846FFF7D3FEA306D6F804A0AD
:100DC000E0D5FFF7CDFD6B6995F878406BB3FFF781
:100DD000C7FDD5E90832934231D06A69591C013206
:100DE00004EA0A0A6A61296283F800A0D5E9073299
:100DF0009A4201D3AB692B624846FFF799FE3368EC
:100E000013F02F0F9CB2C2D1FFF71AFF002383F318
:100E1000118818F0800F01D021062CD418F0400F53
:100E200001D062064BD4BDE8F08704213846FFF7B5
:100E300097FEFFF795FDD5E908329342CDD16A6957
:100E4000002ACAD04FF480613846FFF789FE99E73F
:100E5000202383F31188FFF70BFF281D4FF4007147
:100E6000FFF77EFE6FF480733360FFF7E9FE002327
:100E700083F3118876E7202383F31188FFF7F8FEC8
:100E8000FFF76EFDD5E911239A4228D0AA6B296C91
:100E9000581C0132AA63A86488421F7801D3EB6B07
:100EA000AB6405F13000FFF743FE7760FFF7C8FE43
:100EB000002383F3118818F0400FB4D0B1E720234A
:100EC00083F31188FFF7D4FED5E911239A4213D09A
:100ED000FFF7B6FE002383F31188BDE8F087AA6B05
:100EE000002AD3D00821281DFFF73AFE4FF67F7362
:100EF00008EA0303F360D9E7AB6B002BE8D0281DA9
:100F00001021FFF72DFE4FF6BF7308EA0303F360CD
:100F1000DEE700BF0000000000000000000000004D
:100F200001F001038A0748BF43F002034A0748BFA4
:100F300043F008030A0748BF43F00403CA0648BF4A
:100F400043F010038A0648BF43F020038A05026875
:100F500048BF43F0400313430360704700000000A4
:100F600010B5846C41F49861A260E160616B11F08E
:100F70004502FBD0A26311F03F0209D1216A19603A
:100F8000E1695960A16999606169D960104610BD35
:100F90003430FFF7C5FF012010BD00BF0000000086
:100FA00010B5846C41F48861A260E160616B11F05E
:100FB0004502FBD0A26311F0050203D161691960FB
:100FC000104610BD3430FFF7ABFF012010BD00BF4D
:100FD0002DE9F047D0E911370646D3E9005C587A8D
:100FE0007B6B3D2404FA00F0CCF800002C6824F060
:100FF0001F04884691462C602C6814F00104FBD134
:101000000B4ACCF800001946BA6306F13400FC63C1
:10101000FC62FFF785FFB8F1010F01D8BDE8F0874A
:101020004B46224630460C21BDE8F047FFF7B8BFDB
:10103000FF07C000000000000000000000000000EA
:1010400008B530B129B1012901D0002008BD002A1E
:10105000FBD00148FFF75CFC905600080000000040
:1010600008B560B159B10379052B06D1836A4B608D
:101070004FF400730B60002008BD012008BD01483B
:10108000FFF746FCE85700080000000000000000E1
:1010900020B10079053818BF0120704708B5014814
:1010A000FFF736FCE05700080000000000000000D9
:1010B000914238B516D38B1A1F2B13D801F01F039A
:1010C0005C1C49090123A340B1EB521F03F1FF331C
:1010D0004FEA521502F01F0407D850F825001840B7
:1010E000E04038BD0748FFF713FC50F8212050F8C6
:1010F00025001340C4F1200220FA04F403FA02F0A0
:10110000204338BD04560008000000000000000025
:1011100070B57E227F210546FFF7CAFF58B101282E
:1011200007D1284630224521FFF7C2FF0130800257
:1011300070BD002070BD3E2249212846FFF7B8FF50
:101140002F22044631212846FFF7B2FF50220646DF
:1011500053212846FFF7ACFF02360134B44009386A
:1011600004FA00F070BD00BF0000000000000000A5
:1011700008B54FF08043DA68920701D5586308BD7F
:101180000148FFF7C5FB00BF24560008000000001F
:1011900038B5204D0446FFF7D3FB2B68A869AB4256
:1011A00026D09A68836893421FD3A26800219A428E
:1011B000616215D9FFF76CFC012384F820302B8F76
:1011C000AC61DB0705461AD5EFF30983EA69243BD6
:1011D0009A421CD829462046BDE83840FFF770B82F
:1011E0002046BDE83840FFF77BBC0B48FFF790FB7B
:1011F0008368A26800219A426162DBD8F0E7FFF7BA
:1012000047FBEFF30983EA69243B9A42E2D903489A
:10121000FFF77EFB484B0020685500080C4D000886
:1012200070B5154CA5690646FFF78AFB236885F85B
:1012300020601A6822600121546083F82010228FF8
:10124000A361D3070BD5EFF30983EA69243B9A42E4
:101250000ED8A0692946BDE87040FFF731B828468E
:10126000FFF716FBEFF30983EA69243B9A42F0D9B2
:101270000248FFF74DFB00BF484B00200C4D000813
:1012800008B5104B9C69A36A606204F12805AB4263
:1012900007D01A68A2621846FFF722FCA36AAB4285
:1012A000F7D194F822303BB994F821309B0703D151
:1012B000D4E9043213615A610F20FFF7B1FF0248ED
:1012C000FFF726FB484B002098550008000000005F
:1012D0002DE9F0430C4687B00646FFF731FB631C4F
:1012E0004ED0FFF73DFB002C47D0494F494ABB6920
:1012F0000593B846022C58F81C5F4FF0804338BF66
:1013000002244545596A049269D0B86A091A6418DA
:101310003FD2AB689C425DD39C420DF1040906D9D3
:101320004D452AD02D68E41AAB689C42F8D86B680A
:10133000CDE90153C3F80090C5F804900394AB685D
:101340001C1B4FF0FF33AC607B623046FFF768FF39
:10135000FFF706FB049BBBB1FFF702FBFB694B45A4
:101360001CD0DDE901321360019B43455A600BD06C
:101370009A6803990A449A6006E02748FFF7C8FA7A
:101380003046FFF74DFF224FBB69586A07B0BDE8F2
:10139000F083AA682D68A41AAB68BDE7019BFB61C6
:1013A00000224345C3F8048004922DD09A68039923
:1013B000B86A0A444FF080419A604B6A191A8A420F
:1013C000E2D9C31A1344012B98BF8A1C1044FFF7BB
:1013D000CFFED9E72044FFF7CBFEAB689CE7B962AC
:1013E0000394DA6801950DF1040912F00202C7E9CD
:1013F0000799029505D10C4402215C631A61D960FA
:10140000A3E70648FFF784FA4FF08043DA60BBE7B2
:10141000484B0020A10C0008CC540008F4550008EB
:1014200061B1084A10B4926944680346C2E90034C5
:101430000420226010BC5A60FFF74ABF4FF0FF3013
:10144000704700BF484B0020000000000000000073
:1014500070B50D46B8B1044628601249204603F025
:1014600025FC215C222904EB000612D00D493046F0
:1014700003F000FC98B1421C00232A60037033780B
:1014800023B1304670BD0C68002CE6D100263046F2
:1014900070BD0136304603F085FB0028EBD1286093
:1014A000EDE700BF1C4D0008000000000000000038
:1014B0000EB42DE9F04F86B00FAB53F8044B0293F6
:1014C000254615F8011B002900F03B820746994686
:1014D0004FF000080CE03B683846DB6808F1010873
:1014E0002C469847254615F8011B002900F0BE80C0
:1014F0002529F0D163782D2B04BFA51C01202B7862
:1015000018BF00202B2B03BF6B784FF0010E7544E2
:101510004FF0000E302B05BF1E466B78202601359C
:101520002A2B40F0AC8059F8041B6B78AC1C2E2B96
:1015300000F03081002203F0DF054C2D00F0B28076
:10154000A3F1440CBCF1340F00F29881DFE81CF0E9
:101550005E0196019601960196015E019601960143
:101560009601960196019A01350096019601960121
:101570009601940096019601350096019601960118
:1015800096019601960196019601960196014D01EC
:101590005E0196019601960196015E019601960103
:1015A0009601960196019A013500960196012D014A
:1015B000960194009601960135004FF0100E59F8EF
:1015C000045B0DF1170300E06346AA46B5FBFEF588
:1015D0000EFB15AB0BF13002392AC8BF0BF13702F5
:1015E000D2B2F24503F1FF3C03F8012CECD20DF12D
:1015F0000C0A0DF11705A5EB0C05D6460DF1170CDD
:1016000001E013F8012B0EF8012B6345F9D1491BBA
:10161000013D21EAE17B20B90029CBF1000B00F369
:101620004581002D0FDB6B1C534401941C463A6826
:101630001AF8011BD26838469047A245F7D108F145
:101640000108019CA844BBF1000F3FF44BAF5D467D
:101650003B683146DB6838469847013DF8D125465E
:10166000D84415F8011B00297FF442AF404606B06C
:10167000BDE8F04F03B070474FF00A0E9FE76C1CB7
:10168000002BF3D00021A3F13002D2B2092A01EBE2
:1016900081053FF64CAF14F8013B02EB4501002BEE
:1016A000F1D1E3E714F8013B002BDFD0A3F14405AF
:1016B000342D00F2E3800FF2080C5CF825F000BF37
:1016C0000D1800087D1800087D1800087D18000816
:1016D0007D1800080D1800087D1800087D18000806
:1016E0007D1800087D1800087D180008851800087E
:1016F000BB1500087D1800087D1800087D1800083B
:101700007D180008791600087D1800087D1800086B
:10171000BB1500087D1800087D1800087D1800081A
:101720007D1800087D1800087D1800087D18000845
:101730007D1800087D1800087D180008EB170008C8
:101740000D1800087D1800087D1800087D18000895
:101750007D1800080D1800087D1800087D18000885
:101760007D1800087D1800087D18000885180008FD
:10177000BB1500087D1800087D180008AB1700088D
:101780007D180008791600087D1800087D180008EB
:10179000BB1500082378002B3FF468AF2A2B74D1C7
:1017A000637859F8042B0234C5E659F804ABBAF152
:1017B000000F00F0BC809AF80030002A40F0AA80A8
:1017C000002B00F0AB8047F6FE72554601E0D34295
:1017D00005D415F8016FAAEB0503002EF7D1A5EB90
:1017E0000A05491B2026013D13E759F8043B8DF8F3
:1017F0000C300139202621EAE17B18B90029CBF110
:10180000000B72DC00250DF10C0A0CE759F804CB33
:10181000BCF1000F5FDBBEF1000F00F08E802B23C8
:101820008DF80C300DF10D050DF10C0A05F10B03CF
:1018300001931A46474BA3FB0CE3DB0803EB830B36
:101840009E46ACEB4B033033E346DBB2BBF1090FF2
:1018500002F8013DF446EDDC9E46019BA3EB020C31
:10186000AC44734601E012F8013F05F8013B6545C1
:10187000F9D1A5EB0A05491B013DCAE68DF80C30EC
:101880000139B8E74FF0080E99E601340022A3F1C0
:101890003005EDB2092D02EB820C3FF64CAE14F888
:1018A000013B05EB4C02002BF1D1DFE6CDF804B093
:1018B0009AF800102D2921D03B683146DB68384664
:1018C00098471BF1010BF7D1019B002DA8EB0308F2
:1018D000BFF6A9AE06E62D23CCF1000C8DF80C3036
:1018E0000DF10D050DF10C0AA0E79DF80C10CDF8D7
:1018F00004B02D290DF10C0A0546DDD1302EDBD1C7
:101900003A683846D26890470AF1010A08F101089E
:10191000013DD1E713B1013A7FF557AF21EAE17BF1
:1019200018B90029CBF1000B0DDC20268BE6DFF87F
:1019300028A0002A3FF447AFEDE70DF10C0A554609
:1019400074E7884692E6CDF804B020264FF0FF35C4
:10195000AEE700BFCDCCCCCC204D0008000000008D
:10196000012903D0034A0449FFF7A2BD12680349C5
:10197000FFF79EBD284D0008384D0008444D000873
:1019800000292EDC10B5194A194982B00446FFF728
:101990008FFD184A18492046FFF78AFD174A184953
:1019A0002046FFF785FD174A17492046FFF780FDBF
:1019B000164A17492046FFF77BFD164A164920466E
:1019C000FFF776FD154A16492046FFF771FD154BC6
:1019D0000093154A154B16492046FFF769FD02B0E2
:1019E00010BD144A1449FFF763BD00BF544D0008F1
:1019F0005C4D0008704D0008B04D0008C44D000853
:101A0000D04D0008E44D0008F04D0008044E0008D9
:101A10001C4E0008304E00085C4E0008704E000856
:101A2000844E0008C04E00089C4E0008984E0008E6
:101A3000A84E00084C4D0008384D0008000000007A
:101A4000EFF30983203383F30988002383F311889C
:101A5000704700BF00000000000000000000000010
:101A600038B5134C2368A0691A68226001215460BC
:101A700083F82010A361FFF70BF8238FDB070546DF
:101A80000BD5EFF30983EA69243B9A420DD8A0698C
:101A90002946BDE83840FEF713BCFEF7F9FEEFF328
:101AA0000983EA69243B9A42F1D90248FEF730FFE4
:101AB000484B00200C4D0008000000000000000012
:101AC00008B5054B1A6B22B9596B002901DD5A6321
:101AD00008BD0248FEF71CFF484B0020CC4E000812
:101AE00008B5FFF7EDFF084B1A689A4204D09969D0
:101AF00093688A689A4203D3002383F3118808BD50
:101B00000248FEF705FF00BF484B00201C540008A8
:101B100008B5054BD3E90C120A4302D00348FEF77F
:101B2000F7FE01225A6308BD484B0020D44E00083E
:101B300070B5202304460D46164683F31188FFF73F
:101B4000E7FF324629462046FEF71AFF0446FFF714
:101B5000B7FF084B1A689A4204D0996993688A685B
:101B60009A4204D3002383F31188204670BD0248B3
:101B7000FEF7CEFE484B0020405400080000000055
:101B800000291EDC38B50446202383F31188FFF7B3
:101B9000BFFF4FF080435D6AFFF792FF0C4B19685F
:101BA000994204D09A698B6892689A420DD30023B7
:101BB00083F3118807492A462046BDE83840FFF7DD
:101BC00077BC054A0549FFF773BC0548FEF7A0FE40
:101BD000484B0020E44E0008DC4E0008384D000859
:101BE000A8540008000000000000000000000000F1
:101BF0002DE98048DFF838920768D9F81830416835
:101C00007C4A9A619BB00090019138467A49FFF76F
:101C10004FFC7A493846FFF74BFCD9F8183093F857
:101C200021305A0779D4DFF80CA2DFF8CCB10AAE24
:101C300051463846FFF73CFC009B1C68354623683C
:101C400001229B680DF10F012046984700287BD0A8
:101C50009DF80F10042973D0082912D07F2910D0C5
:101C60000D2921D01F29EAD90DF167039D42E6D243
:101C700023682046DB6898479DF80F3005F8013B44
:101C8000DDE7B542DBD023680821DB6820469847B2
:101C900023682021DB682046984723680821DB68F9
:101CA0002046013D9847CAE7204659464FF00008B4
:101CB000FFF7FEFB85F8008004A93046FFF7C8FB5C
:101CC00004A90446002005ADFFF7C2FB60B1B8F1DE
:101CD000040F2ED045F8040B04A9002008F10108D8
:101CE000FFF7B6FB0028F2D11AAB03EB880242F8EB
:101CF000540C64B142492046FEF7A6FB68BBB8F11C
:101D0000000F3BD03E4A3F493846FFF7D1FBD9F898
:101D1000183093F821305B078AD5202383F311888C
:101D2000FFF7F6FE38480021FEF71AFF0020FFF704
:101D3000A7FA36493846FFF7BBFB00230993E6E7CD
:101D400033492046FFF7B4FB2B493846FFF7B0FB79
:101D500030493846FFF7ACFBDFE72F4D2F4802E054
:101D600055F8080F00B32146FEF76EFB0028F7D1A7
:101D70006C6805AA41463846A047C8E72849264C62
:101D8000284D3846FFF794FB244A29463846FFF78A
:101D90008FFB54F8082F002AF7D1019CE4B959466B
:101DA0003846FFF785FBB2E7019D5DB1286818B999
:101DB00008E055F8080F28B12146FEF745FB00283A
:101DC000F7D1D5E7184922463846FFF771FB174986
:101DD0003846FFF76DFB9AE72268002ADFD0114DE5
:101DE00029463846FFF764FB54F8082F002AF7D13C
:101DF000D5E700BFF44E0008AC500008FC4E0008C8
:101E00003C4F0008384D00089C550020244F000826
:101E1000184F00081C4F0008C0590008EC4E00087D
:101E2000444F0008544F0008584F00085C4F00080A
:101E3000484B0020104F0008000000000000000088
:101E400000290CDC08B5202383F31188FFF760FE1E
:101E500005480021FEF784FE0020FFF711FA034A2F
:101E60000349FFF725BB00BF9C550020EC4E00083E
:101E7000384D0008000000000000000000000000D5
:101E80002DE9F843DFF8C0800546D8F81870202304
:101E900083F31188FFF73CFEBE6B16B1B368BB42FB
:101EA00002D02748FEF734FDAE42FAD1EC68BC639D
:101EB000FEF746FDD5F800904D4538D0FE6B5CB17D
:101EC000FEF73EFD23689C4203D09B689E4238BFCC
:101ED0001E46E468002CF3D1D9F80030D9F8382038
:101EE000BE6048462B605D60C5E90292C9F8385073
:101EF000FEF7F6FDFEF724FDFEF732FDD8F80020D0
:101F0000D8F8183092689B689A4216D8FFF7D8FD27
:101F1000D8F80030434505D0D8F818209B6892685F
:101F20009A4207D3002383F31188BDE8F883002386
:101F3000B360EBE70348FEF7EBFCFFF791FDE5E745
:101F40004855000828540008484B002000000000B5
:101F5000F8B50446202383F31188FFF7D9FD3C4EE2
:101F6000FEF7EEFCA068B569002834D0AA68836843
:101F7000934207D290F820308260062B50D0072B76
:101F800038D06BB3234603E09968AA68914202D324
:101F90001B689C42F8D15A680620C5E900321560DA
:101FA0005D606C62FFF73CF9A3689D4202D029484E
:101FB000FEF7AEFCAB6B9C42F9D1FFF781FD3368B5
:101FC000B34204D0B2699B6892689A4225D3002339
:101FD00083F31188F8BDAB6BC4E90253AC63ECE743
:101FE000D0E90032012180F8201013605A60FEF71A
:101FF00077FDC7E7D0E90031476A0B6059603B467F
:1020000002E09968914202D31B689F42F9D15A6855
:10201000C0E9003210605860B4E70F48FEF778FC62
:10202000D0E90031476A0B6059603B4602E099688D
:10203000914202D31B689F42F9D15A68C0E900322D
:1020400010605860B868AA6883689A4292D899E785
:10205000484B0020D8540008285400080000000015
:10206000002933DCF8B51D4C054604F10C00FFF7E0
:102070006FFF636873B3002422462746D3E900311B
:102080008C4207F101070A4438BF0C46002BF5D1FA
:10209000D600E4001248FFF7F3FE124B1249D3E9D1
:1020A00000322846D21AFFF703FA3A460F4928466B
:1020B000FFF7FEF932460E492846FFF7F9F92246A6
:1020C00028460C49BDE8F840FFF7F2B90A4A0B4927
:1020D000FFF7EEB91C461E461F46DBE7F85400200A
:1020E00004550020F0540020684F0008884F000875
:1020F000A04F0008C04F0008644F0008384D00088A
:1021000010B52023044683F31188FFF701FD214613
:102110000820FFF7DDF8FFF7D3FC084B1A689A4256
:1021200004D0996993688A689A4203D3002383F3A1
:10213000118810BD0248FEF7EBFB00BF484B0020A2
:102140001C54000800000000000000000000000017
:1021500008B5094B094A9B69094C9A614FF400552F
:102160002E46268341F28830FFF7CAFF658341F28D
:102170008830FFF7C5FFF4E7484B0020E04F000828
:102180000008024000000000000000000000000005
:1021900070B5104E82B0044603E0022D16D8FFF74A
:1021A000AFFF01ABA26B0D212046FEF7F9FE0346FF
:1021B0000A2043B9019AC2F343213242A1F1050535
:1021C00004D10429E9D1184602B070BD0123184694
:1021D00002B070BD08E0FFFD00000000000000003C
:1021E00070B5204C2379052B82B013D1236BDB060D
:1021F00005464FF0070248BF45021A4822710E46B5
:1022000048BF4E02FFF7C4FF38B1012005232371F8
:1022100002B070BD1448FEF77BFB12482A4601ABA2
:102220002021FEF7BDFE0028EFD1019B0F4D2B4270
:10223000EBD10C48324601AB2121FEF7B1FE00285C
:10224000E3D1019A2A40E0D1064801AB2621FEF7EE
:10225000A7FE0028D9D1019B2B42D6D10148FFF718
:1022600097FFD3E7F8080020F457000808E0FFFDC7
:1022700008B50446202383F31188FFF749FC204664
:10228000FEF7FEFF0000000000000000000000005C
:1022900070B52023044683F31188FFF739FC94F8C6
:1022A0002230B3B1013B84F82230236A03F0FF13DC
:1022B0000F2B14D0FFF704FC4E4B1A689A4204D03F
:1022C000996993688A689A4206D3002383F3118838
:1022D00070BD4948FEF71CFB4848FEF719FBD4E9DE
:1022E00004231A612269434D5361FFF7E9FB2B6810
:1022F000AB4204D0AA699B6892689A42ECD300234F
:1023000083F3118894F8213003F00303012B23D0C9
:10231000022BDDD1266CE469202383F31188FFF7BB
:10232000F7FBFEF71DFBA6B19CB1B368013B1C4255
:102330000FD1336823603460FFF7C2FB2B68AB42D8
:10234000C3D0AA699B6892689A42BED22C48FEF715
:10235000DFFA2C48FEF7DCFAE469CCB3630737D127
:1023600054E902530733DB0805F10C0644F8043C3A
:1023700004353046FFF7ECFDA4F108012B469942E5
:1023800005D35A68013203EBC202914220D39D4229
:102390001A6801D0994219D90AB1914216D254F85B
:1023A000040C44F8082C1960421C54F8080C01EB8A
:1023B000C205A84216D05868421C03EBC2029142E3
:1023C00009D03046BDE87040FFF75ABD1346D6E746
:1023D0000D48FEF79DFA54E90212013210441960CB
:1023E0005860EEE7D0E900052A4444F8080C44F8A8
:1023F000042CE0E7484B0020885500081C540008D6
:102400004C540008305500083C55000800000000FE
:1024100070B52023044683F31188FFF779FB124E31
:102420002569B5421ED095F82230FF2B17D0013315
:1024300085F82230FFF744FB3368B34204D0B26919
:102440009B6892689A4207D3002383F31188204641
:10245000FFF71EFF284670BD0448FEF759FA0448EE
:10246000FEF756FA0025E5E7484B00209C5400088B
:10247000D855000800000000000000000000000027
:10248000002945DC2DE9F047254986B00746FFF7CE
:102490000FF8202383F31188224DFFF739FB2C69B5
:1024A00094F82230013384F82230FFF709FB2B68BF
:1024B000AB4204D0AA699B6892689A422CD300234D
:1024C00083F31188DFF86C90DFF86C80DFF86CA084
:1024D00094F8201094F8226059F82110A068E3685D
:1024E000D4E90652013E002D08BF4546CDE903154B
:1024F00002900094514601963846FEF7D9FF2046D7
:10250000FFF786FF04460028E2D106B0BDE8F08759
:10251000054A0649FEF7CCBF0548FEF7F9F900BFAA
:10252000F04F0008484B0020E84F0008384D0008E5
:102530009C540008F8590008185100083050000851
:1025400030B5202383B0044683F31188114DFFF783
:10255000DFFA2869019090F82230013380F82230A8
:10256000FFF7AEFA2B680198AB4204D0AA699B68CA
:1025700092689A420BD3002383F3118802E0FFF79D
:1025800047FF10B1C3699C42F9D103B030BD024886
:10259000FEF7BEF9484B00209C54000800000000E4
:1025A000254B26481A696FEAC2526FEAD25280B5AB
:1025B0001A611A69C2F308021A614FF0FF341A69EE
:1025C0005A695C61002259695A615969196A61F056
:1025D00080511962196A01F080511962196A596AA9
:1025E0005C62596A5A62596A196C41F080511964E7
:1025F000196E41F080511966196E016841F48071BD
:102600000160196F01F44071B1F5007F86B003D00D
:102610004FF4803119671A67084C09496368094A01
:10262000094D002023F4007363600F4603460860E1
:1026300002F1C0000CE000BF003802400070004012
:10264000145500200C5800081060024052F80C5C31
:102650002B600C3290424B6001F10801F6D1A94D7C
:10266000DFF80CC3A849A948A94EDFF80883602207
:102670004FF0FF394024CCF808904FF0800ACCF896
:102680000C90C1F80890C1F80C9085F806234FF41F
:102690008071C5F880412C604FF4007485F80723E1
:1026A000C5F880A1C5F800A085F80823C5F88011F9
:1026B000296085F80923C5F880412C604FF48064B7
:1026C00085F80A23C5F880412C604FF4000485F892
:1026D0001723C5F880412C6085F82823C5F884119C
:1026E00069608C498C4CFEF71BF88C4A42678C4918
:1026F0003046FEF715F88B49C8F800108A4A4FF4A7
:102700000031902085F83103C5F884116960116C9F
:102710008648002341F00101C8F834301164116E7D
:10272000C8F82C3041F001011166126E8268C8F8B9
:10273000283042F00102C8F83C30C8F844308260CA
:102740004FF0804242F2CF0191627948C2F82C905A
:10275000012188F80410936164605363D36053606F
:102760005161116085F81CA34FF080527067714968
:102770007148C8F84810C5F8802104F140012A606A
:1027800004F11C022460A360C4E90444C4E90E01FE
:10279000C4E90722C4F82490A362013304EB0312B6
:1027A000802B92F830106FF3020182F83010F4D1D0
:1027B000DFF8C491614B624AC9F8002009F10C02AC
:1027C000C9E9032203F110021A6114229A6103F18C
:1027D00024025A6203F128029A621C221A6303F14E
:1027E0003C02DA6303F140021A6403F144025548E3
:1027F0005A6455491862002204259A605A61DA62C7
:102800009863C3E90033C9E90122C4E90C22CDE988
:102810000122C9F81420C4F884280392DD614B4AD0
:102820005D634B4B0A604B604FF0FF30002200238A
:102830000090CDE904236846FEF702F86846FDF7EC
:10284000D7FF013DF7D1434B009A6069C4F8842853
:10285000DFF828E1C4F858E88022C4F84828C4F812
:102860007C28012103F12C02DFF814C184F861589F
:1028700003F1280EC4F87858C4F87458C4F85048C6
:10288000C4F8540884F862180361C4F85CC8C4E949
:10289000053384F86018C4F868E8C4F86C28C4F8F4
:1028A00070284FF0200C8CF3118862B62A492B4B0C
:1028B000CA68DFF8D0E04FF6FF0002401343284A11
:1028C000CB60D36843F08073D360D4E90C23DEF887
:1028D000000040F00100CEF8000013434FF010005C
:1028E000C87781F822C002D01E48FEF711F885F3A0
:1028F000118862B61C48FFF723FE002844D01B480D
:10290000FEF706F800E100E0006402400008002045
:102910007C08002081070008484B0020004400404C
:10292000910700089059000800380240002004E098
:1029300000140140002C0140F0FF8000D053002023
:10294000311B0008D1090008F0540020E85800208D
:10295000000002208853002000ED00E00003FA058B
:10296000F0ED00E0585000081854002024550008ED
:1029700000600240F8080020F8540020C058000809
:1029800000040020001000E0AD4AD8235521013B8F
:1029900002F8011BFBD1202585F31188FFF7B8F859
:1029A000A848FEF71DF8FEF7F3FBFFF799F8A64BD2
:1029B0001B6085F31188FFF7ABF8337A5A1E012AA2
:1029C00000F2D081012B11D1A04BA14A596C41F0EA
:1029D00020015964596E41F0200159665B6EC02197
:1029E000802382F84713C2F888319360736F994A45
:1029F000934200F0BD81984840F68B0240F2454179
:102A0000834218BF0A469A604021012219615A6127
:102A100042F22C110022D9601A60FF2102221868AC
:102A20005B6886F878103272FFF74AF82368A34291
:102A300005D0A2699B6892689A42C0F096810025F1
:102A400085F31188202383F31188FFF761F898F844
:102A500004305A1E012A32D88049814AC8F82C1005
:102A6000012BC8F840201FD0D8F8483000221A6047
:102A70005A60DA625A62022388F80430FFF720F8BD
:102A80002368A34205D0A2699B6892689A42C0F06D
:102A90007281002383F31188724D2846FFF750FDA1
:102AA00080B17148FDF734FFFDF75AFF3B6813F41E
:102AB000006066D06D48C8F84450FDF729FF6C48A7
:102AC000FDF726FF4FF4A4762B465522013E03F86E
:102AD000012BFBD1202383F31188FFF719F86548F8
:102AE000654BC5F8DC0065496269C5F8FC10022039
:102AF000A5F820010121624885F82211C5F81801C6
:102B0000802103F12400C5E94213C5E94D66C5F8EB
:102B1000E060C5F81421C5F83C11C5F81C51C5F892
:102B20001041106103F14C025033C5E94A23C5F846
:102B300030316061534EDFF86481FEF729FBFEF708
:102B4000CFFFA6F108073046FFF702FABC46DCF8D3
:102B50000030002B00F01281D3F804E003F10F00E5
:102B60000EF1010120F0070003EBC101A0F1080202
:102B70008A4204D20D1AED10B5F58C7F34D89C46EC
:102B8000E5E7324A43F400633B60136BF86543F4B6
:102B900080031363116D3C4B386641F4800111656D
:102BA000126D1A6822F01F021A60196811F00101F3
:102BB000FBD1D8F84800354D244A4FF074662E609A
:102BC00080301960212507215D6198605961536C3F
:102BD0002F49C8F8441043F400635364536E43F420
:102BE00000635366536E3FE7934280F0A28003F187
:102BF0000801511A40F2191CC9106545596009D0E5
:102C00001968C2F8D018A5F58D7500F6C800C2F88D
:102C1000D4581860154640F6C8035360304645F84E
:102C2000089BFFF72DF9812205F6C803CDE9023292
:102C30001849194ACDE90085CDE90412552231E041
:102C400018540020E85800089C5500200038024025
:102C500000E100E00010014000140140B4590008F8
:102C60002054A308A0570020545500081857000806
:102C70005C570008512100087C580020D102000850
:102C80006050000804550020586402400864024067
:102C900084580008F11B0008B8590008F44E0008D9
:102CA00005F8012BAB42FBD1202383F31188FEF7FB
:102CB0002FFF6846FDF794FE012380F8213005467A
:102CC000FEF766FAFEF7FCFE2368A34204D0A26971
:102CD0009B6892689A426AD3002383F31188202369
:102CE00083F31188FEF714FFA369AB4234D095F843
:102CF00022208AB395F820200F2A05D0AA6A1A60EC
:102D00000920AB62FEF78CFAFEF7DAFE2368A342D5
:102D100004D0A2699B6892689A4220D3002383F36F
:102D200011882846FFF7B4FA42F21070FFF7E8F96D
:102D300009E740F21912964534D003F6D8028A1AF0
:102D4000D2101968C3F8D42803F50D60C3F8D01861
:102D50001A46CCF800005DE71648FDF7D9FD164885
:102D6000FDF7D6FD1548FDF7D3FD1548FDF7D0FD5D
:102D700040F68B0247E61348FDF7CAFD3046FFF7E1
:102D80007FF8D9F80030002BE6D00822114640F633
:102D9000C800984705460028DED040F6C80340E941
:102DA000029340E71A68CCF800201A4632E706483A
:102DB000FDF7AEFDA45500081C540008BC560008E1
:102DC0001054000884540008345400080000000027
:102DD0002DE9F041202305460E46904683F31188E5
:102DE000FEF796FEA86CC36B23BB436B294FDB0534
:102DF00034D5696C0C68236813F00103FBD191F89A
:102E000009C04C6824493D2202FA0CF22260816319
:102E1000C362FEF755FE3B68BB4204D0BA699B68AB
:102E200092689A422AD3002080F31188012E28D874
:102E3000BDE8F081EB6B13B11848FDF769FD154F44
:102E40002B46BA6943F83C2F4FF0FF315362032001
:102E5000FEF73EFAA86C436BDB05CAD4FEF730FEE2
:102E60003B68BB4204D0BA699B6892689A4205D31A
:102E7000002383F311880120BDE8F0810848FDF7A5
:102E800047FD434602460C212846BDE8F041FEF7C7
:102E900087B800BF484B0020FF07C000B0550008AE
:102EA0009054000800000000000000000000000036
:102EB000F0B50446406C266C0068D4F830C0C2609F
:102EC0005F021D4646F04006BB0843600660066888
:102ED000A36C46F001060A461CF0100F1949066063
:102EE00083B0996308BF520240F21A3101AE012D3E
:102EF000D9639F62334619D919212046FEF750F84D
:102F000060B9019A104B134043B9A36C9922DA625D
:102F1000294632462046FFF75BFF28B1204632465D
:102F20002946FEF755F8012003B0F0BD18212046D0
:102F3000FEF736F80028F1D1019A034B1340002B1D
:102F4000E3D0EBE7FF07C00008E0FFFD0000000052
:102F50002DE9F04383B008B102B113B92A48FDF757
:102F6000D7FC0D46017905290446F7D1866A691E0A
:102F70001944B14207D9436B43F0800343630120F6
:102F800003B0BDE8F08307210171910719D0C5EBAB
:102F9000C5591E4FDFF878805E1902EB49294FF4BE
:102FA000007209EB45213846FDF7A6F9A36C2046CF
:102FB000C3F82480FFF7ECF8B0B10120052323719A
:102FC000DEE7B3F5004F1BD2816C114E4E62CDE9A6
:102FD0000023FFF7DDF80028EFD1DDE900232946C3
:102FE0002046FFF765FFE9E701233A4629462046D8
:102FF000FFF75EFF0028E0D10135AE42CFD1DDE71B
:103000000448FDF785FC00BFBC570008A055002010
:1030100000366E018C570008000000000000000020
:10302000F0B50446406C266C0068D4F830C0C2602D
:103030005F021D46BB08436006600668A36C46F04D
:1030400001060A461A4906601CF0100F996383B006
:1030500040F22A31D96308BF52029B2101AE012DF3
:103060009F62D962334616D912212046FDF798FF98
:1030700048B9019A0F4B13402BB9324629462046D6
:10308000FFF7A6FE28B1204632462946FDF7A0FFED
:10309000012003B0F0BD11212046FDF781FF00287B
:1030A000F1D1019A034B1340002BE6D0EBE700BFB0
:1030B000FF07C00008E0FFFD000000000000000066
:1030C0002DE9F04782B008B102B113B92C48FDF7E1
:1030D0001FFC0D46017905290446F7D1866A691E51
:1030E0001944B14208D9436B43F08003436301277D
:1030F000384602B0BDE8F08706210171910713D070
:10310000C5EBC55ADFF87C90DFF880805E1902EBD2
:103110004A2AA36C2046C3F82490FFF739F8B8B1C7
:10312000012705232371E3E7B3F5004F24D2816C17
:10313000144E4E62CDE90023FFF72AF80028EFD1A4
:10314000DDE9002329462046FFF76AFF0746E8E746
:103150000123424629462046FFF762FF0746002822
:10316000DED10AEB45204FF4007241460135FDF7F0
:10317000C3F8AE42CDD1D4E70348FDF7C9FB00BF89
:10318000B457000800366E0168570008A0550020AB
:103190002DE9F041856C1F4E6E6282B004460F46E9
:1031A00090461E46FEF7F4FF50BBD4E9103210687B
:1031B000A56CC7604FEA9802426003600368164F2F
:1031C00043F0010303600F2240F22A33314601AE7F
:1031D000AF632046EB63C5F828803346EA62089A5D
:1031E000FDF7DEFE18B9019A0C4B134053B120468F
:1031F00032460121FDF7ECFE012002B0BDE8F0816E
:1032000001AEF4E7324601212046FFF7E1FD002838
:10321000F3D0ECE700366E01FF07C00008E0FFFDC9
:103220002DE9F04385B002AF00283AD00379022B94
:10323000044601D0052B34D1A36C032178222171DF
:103240005A601A680A431A605A6842F480725A60D7
:103250006420FEF755FFA36C00214FF48062996053
:10326000DA605A6B1006FCD580229A6308213B1D58
:103270004FF4D5722046FDF793FEA8B97B68012272
:10328000C3F30323934222633CD0A36C00220221A8
:103290005A6001251A60217128460C37BD46BDE8E9
:1032A000F083B848FDF734FB3B1D00223721204650
:1032B000FDF776FE28B97A68B34B1340002B00F077
:1032C000048102232363DFF8DC82642540F2414657
:1032D000A36CC3F80880DE60596B11F04502FBD087
:1032E0009A634A0708D45A69002A47DB013DCDD0CA
:1032F0006420FEF705FFEBE704F13400FDF710FE54
:10330000A36CC3E702463B1D37212046FDF748FE6C
:103310000028BAD17A689C4B1340002BB5D1266B9C
:1033200006F00F03022BCED0984E994A012B18BFFE
:103330001646DFF8548264253B1D002237212046C3
:10334000FDF72EFE0028A0D17B6813EA080F9CD160
:10335000A36C40F269429E60DA60596B11F045023D
:10336000FBD048079A63C7D45A697A60002A05DB04
:10337000013D8BD06420FEF7C3FEDDE7520003D58C
:10338000236B43F01003236304F10803002202219E
:103390002046FDF7E5FD00287FF477AF024604F1F3
:1033A000380303212046FDF7FBFD00287FF46DAFB5
:1033B00004F11805A26B2B4609212046FDF7D0FD2C
:1033C00000287FF462AFA26B3B4607212046FDF741
:1033D000E7FD064600287FF458AF236B03F00F0388
:1033E000022B7FD0E8467E2290B07F212846FDF751
:1033F0005FFE0DF1080960B10096062340224946A0
:103400002046FFF7C5FE00285CD199F80D309B07D8
:103410004ED4C546A16C236B4A6803F00F0322F01B
:10342000FF02022B4A6072D02846FDF771FEA062AF
:103430003B464FF4007210212046FDF7B1FD0546D2
:1034400000287FF422AF3B684F4E33427FF41DAF1C
:10345000236B13F00E0F03F00F024AD1E36A1B78BF
:103460001BB3012B7FF411AFA16CA26B4B6823F44B
:10347000C05343F400634B6020463B1D3721FDF7EA
:103480008FFD00287FF401AF7B6833427FF4FDAEEF
:103490003B1D022206212046FDF782FD00287FF415
:1034A000F4AE7B6833427FF4F0AE05232371F3E67C
:1034B000384B00934022062349462046FFF768FE1A
:1034C0000028A6D0C546A36CE0E6A26C23634FF4A7
:1034D00080619360D160536B1906FCD580232C4E1C
:1034E000936326E72C4A3B1D06212046FDF758FD35
:1034F00090E7022A7FF4C9AEE36A1B78012B53D010
:10350000022B28D0002BD0D02448FDF701FA7E22D0
:103510007F212846FDF7CCFD012885D900230093A3
:103520004FF40072082304F14C012046FFF730FEEF
:1035300000287FF4AAAE94F8223194F8230194F87D
:10354000201194F821211B0403EB00630B4403EBCF
:103550000223A3626CE7A16C114A4B6823F4C053A9
:1035600043F480534B603B1D06212046FDF718FDB8
:1035700000287FF48AAE7A68034B1340002B94D066
:1035800083E600BF8057000808E0FFFD0080FF5081
:1035900000001080F1FFFF800001B90338570008D8
:1035A0000002B7030080FFC0A16C044A4B6823F4FB
:1035B000C05343F400634B60D5E700BF0001B7037D
:1035C00038B520B30446202383F31188FEF7A0FA10
:1035D0002379022B21D0052B19D104232371FEF767
:1035E0006FFA174B1A689A4204D0996993688A68EF
:1035F0009A420FD3002585F311882046FEF7C8FDB7
:10360000A36C0222C0B958601860227138BD0D4801
:10361000FDF77EF90C48FDF77BF9FEF751FA084BF0
:103620001A689A4204D0996993688A689A42F1D3D9
:10363000002080F3118838BD5D601D60227138BDA7
:10364000484B0020A45700088454000800000000E4
:10365000012940F00D812DE9F04F874C236885B09A
:1036600005465B68204693469847002800F0F9809D
:1036700082492846FDF71CFF2046FFF7D1FD0028B0
:1036800040F08C827E492846FDF712FFD4E90623DC
:103690007C49CDE900322846D4E90832FDF708FF1D
:1036A000D4E902237849CDE900322846D4E904322E
:1036B000FDF7FEFE236B754A754903F003032846A8
:1036C00052F82320FDF7F4FEA26A7249D20A284676
:1036D000FDF7EEFEDBF80060A76A6F493046BF0ACF
:1036E000FCF7B2FE002800F0F3806C493046FCF78E
:1036F000ABFE002800F0EC8069493046FCF7A4FEE0
:10370000002840F03682674E4FF48062AA2130468E
:1037100001F0F8F964492846FDF7CAFE56483246DA
:1037200002233946FFF714FC002840F02A825F4943
:103730002846FDF7BDFE4FF480625521304601F06A
:10374000E1F95B492846FDF7B3FE23684A48D3F800
:103750001480324601233946C047002840F01182C8
:1037600052492846FDF7A4FE06F2FF10731EC6F16B
:103770000901CA1803F8012F9842FAD14A4928468C
:10378000FDF796FE474A3C4802233946FFF7E0FB27
:103790008046002840F0F58144492846FDF788FE20
:1037A00041464FF480623F4801F0ACF94049284659
:1037B000FDF77EFE23683B4AD3F814802E48012390
:1037C0003946C047002840F0DC8138492846FDF7DB
:1037D0006FFEDBF8008037494046FCF735FE30B11C
:1037E0002E494046FCF730FE002840F0CE814FF4D1
:1037F000806200212B4801F085F94FF480622E4849
:10380000002101F07FF92D4ADFF8C0E0C6F1080C75
:10381000542002F580660CEB02018B08AEFB03839B
:103820009B0800FB131302F8013FB242F3D11D4A7B
:10383000114802233946FFF78BFB002840F0B58181
:1038400007F102084146781CFEF7CAFC064600282C
:1038500040F0B0812379052B00F0D2811848FDF7A4
:1038600057F81849284605B0BDE8F04FFDF720BECF
:103870001549FDF71DBE00BFF8080020B050000834
:10388000C0500008D4500008F85000080059000843
:103890001C5100082C5100084051000848510008F4
:1038A00038520008440B0020405200084C520008D7
:1038B0005452000860520008482B0020430B00209F
:1038C000C85700089050000868500008310CC330F9
:1038D000BB492846FDF7ECFD202383F31188FEF752
:1038E00017F94FF08043B74E5B6A0293FEF7E8F892
:1038F0003368B34205D0B2699B6892689A42C0F0BF
:103900004A814FF0000888F31188DFF8C8A2CDF88B
:103910000CB0DDF808B0B946226801235769AA4AFD
:1039200049465046B847002840F02B8108F101086D
:10393000202383F31188FEF7EBF84FF080435F6A92
:10394000FEF7BEF83368B34205D0B2699B6892684F
:103950009A42C0F02081002383F3118842F20F7352
:10396000A7EB0B079F42D7D94FEA48234246974916
:10397000DDF80CB02846FDF79BFD95492846FDF77C
:1039800097FD4F46202383F31188FEF7C1F84FF0CF
:1039900080435B6A0293FEF793F83368B34205D025
:1039A000B2699B6892689A42C0F0F5804FF00008B7
:1039B00088F31188DFF810A2A94622688548556966
:1039C000102352463946A847002840F0D98008F114
:1039D0001008202383F31188FEF79AF84FF08043F4
:1039E0005D6AFEF76DF83368B34205D0B2699B6833
:1039F00092689A42C0F0CF80002383F31188029A24
:103A000042F20F73AD1A9D42D7D94FEA482342467E
:103A10006E494846FDF74CFD6F494846FDF748FDA5
:103A20004D46202383F31188FEF772F84FF0804350
:103A30005B6A0293FEF744F83368B34205D0B2697B
:103A40009B6892689A42C0F0A6804FF0000888F305
:103A50001188DFF8A89122685E48D2F814A00123EB
:103A60004A463946D047002840F08B8008F10108CB
:103A7000202383F31188FEF74BF84FF08043D3F8EF
:103A800024A0FEF71DF83368B34204D0B2699B68E6
:103A900092689A427FD3002383F31188029A42F2FC
:103AA0000F73AAEB020A9A45D5D94FEA482342463A
:103AB00046492846FDF7FCFC48492846FDF7F8FC36
:103AC000202383F31188FEF723F84FF080435B6ACD
:103AD0000293FDF7F5FF3368B34204D0B2699B68E7
:103AE00092689A4257D34FF0000888F31188DFF8A4
:103AF0000C9122683748D2F814A010234A46394660
:103B0000D04700283DD108F11008202383F3118805
:103B1000FDF7FEFF4FF08043D3F824A0FDF7D0FF60
:103B20003368B34204D0B2699B6892689A4232D338
:103B3000002383F31188029A42F20F73AAEB020A60
:103B40009A45D6D921494FEA482342462846FDF7EF
:103B5000AFFCDBF8006022493046FCF775FC00281A
:103B60003FF4D1AD1F493046FCF76EFC00283FF40E
:103B7000CAAD1D493046FCF767FC30B9124E36E637
:103B80004D461A492846FDF793FC124805B0BDE89A
:103B9000F04FFFF715BD1648FCF7BAFE134928464B
:103BA00005B0BDE8F04FFDF783BC12492846FDF78C
:103BB0007FFCEAE710492846FDF77AFCE5E700BFFD
:103BC0004C510008484B0020440B00208051000855
:103BD0009C510008F8080020D05100080452000849
:103BE000385200084851000860520008C8520008C6
:103BF000B45400086852000810530008450B002018
:103C0000202383F31188FDF783FFD4F83490666393
:103C1000FDF756FF324B1968994204D09A698B68B8
:103C200092689A4245D3002383F31188B9F1000FBB
:103C300039D12C4A2C4802233946FFF741FA002893
:103C40003AD1284929484FF4007200F02BFF002890
:103C500037D1274927484FF4007200F023FF00288E
:103C600034D041463846FEF7BBFA002833D11D4A0E
:103C70001D4839460223FFF723FAE8B919491B48C2
:103C80004FF4007200F00EFF40B1194919484FF48B
:103C9000007200F007FF00287FF477AF164928462E
:103CA000FDF706FC71E715494A462846FDF700FC7A
:103CB0006BE71348FCF72CFE12492846FDF7F8FB8A
:103CC00063E711492846FDF7F3FB5EE70F492846F5
:103CD000FDF7EEFB59E70E492846FDF7E9FB54E7EF
:103CE000484B0020482B0020F8080020440B0020FF
:103CF000482D0020440D002024530008885200085D
:103D000084540008B0520008D45200083053000810
:103D10000453000800000000000000000000000044
:103D20002DE9F04F85B0002A6ED004460D46984626
:103D30001646D0F81CA0202787F31188DFF8EC90F6
:103D4000FDF7E6FE019702963746A368D4E9042002
:103D5000BB4234BFA6683E46121AB24257D823D39C
:103D600032462946FCF7C8FAE2686261A268921BF3
:103D7000A2605EBB41462046FDF752FB0028E4D01E
:103D8000029EFDF79DFED9F800304B4505D0D9F8CD
:103D900018209B6892689A4241D3002383F31188CC
:103DA000F01B05B0BDE8F08F2946A6EB020B03928D
:103DB000FCF7A2FA039AE068A9185A46FCF79CFAA5
:103DC000A268E168921B59446161A260BAF1000FD8
:103DD00001D02046D047FDF773FED9F800204A45B0
:103DE00005D0D9F8181092688968914217D300233A
:103DF00083F31188019BBF1B354483F31188FDF7C2
:103E000087FE002FA1D1BBE70648FCF781FD3246B3
:103E10002946FCF771FA626932446261A6E70248FA
:103E2000FCF776FD4C57000878540008484B0020FA
:103E30003030FFF775BF00BF000000000000000039
:103E400030304FF0FF33FFF76BBF00BF00000000C2
:103E5000F8B505460F461646202383F31188FDF773
:103E600057FE05E031462846FDF7DAFA041E24DB4A
:103E7000AB68002BF6D06A69AB68511C013B6961E5
:103E8000AB601770D5E904329A4224BFEB686B61CE
:103E9000EB690BB128469847FDF712FE104B1A68E4
:103EA0009A4204D0996993688A689A4215D300208F
:103EB00080F3118804462046F8BDFDF701FE084B4B
:103EC0001A689A4204D0996993688A689A4204D31E
:103ED000002383F311882046F8BD0248FCF718FD43
:103EE000484B00207854000800000000000000004B
:103EF0003030FFF7ADBF00BF000000000000000041
:103F000030304FF0FF32FFF7A3BF00BF00000000CA
:103F10002DE9F04F85B0002A6ED004460D46984634
:103F20001646D0F81CA0202787F31188DFF8EC9004
:103F3000FDF7EEFD019702963746A368A169226955
:103F4000BB4234BFA6683E46521AB24257D823D36A
:103F500032462846FCF7D0F9E268A261A268921BBB
:103F6000A2605EBB41462046FDF75AFA0028E4D025
:103F7000029EFDF7A5FDD9F800304B4505D0D9F8D4
:103F800018209B6892689A4241D3002383F31188DA
:103F9000F01B05B0BDE8F08F2846A6EB020B03929C
:103FA000FCF7AAF9039AE168A8185A46FCF7A4F9A5
:103FB000A268E168921B5944A161A260BAF1000FA6
:103FC00001D02046D047FDF77BFDD9F800204A45B7
:103FD00005D0D9F8181092688968914217D3002348
:103FE00083F31188019BBF1B354483F31188FDF7D0
:103FF0008FFD002FA1D1BBE70648FCF789FC3246B4
:104000002846FCF779F9A2693244A261A6E7024882
:10401000FCF77EFC2857000878540008484B002025
:104020000C30FFF775BF00BF00000000000000006B
:104030000C304FF0FF33FFF76BBF00BF00000000F4
:1040400070B5202305460E4683F31188FDF760FD09
:1040500005E031462846FDF7E3F9041E13DBAB68A3
:10406000002BF6D0A969AB6828694A1C013B824243
:10407000AB60AA6128BFEB680C7828BFAB61EB6925
:104080000BB128469847FDF71BFD084B1A689A426A
:1040900004D0996993688A689A4204D3002383F311
:1040A0001188204670BD0248FCF732FC484B0020C6
:1040B000785400080000000000000000000000002C
:1040C0000C30FFF7BDBF00BF000000000000000083
:1040D0000C304FF0FF31FFF7B3BF00BF000000000E
:1040E000844ADFF864C21369834840F2FF110B432E
:1040F000F0B513611369814F814C824E824D23F4D8
:10410000FF7323F0010313611369136B0B431363F4
:10411000136D0B4313654FF0FF310023D2F850E0CD
:104120007B60B960C7F80CC04FF6FF6CC7F814C0CD
:10413000DFF818C2C7F820C0DFF814C2C7F824C0DF
:10414000DFF810C2C7F800C0DFF80CC24FF44077A8
:104150006760A160C4F80CC04FF6FE7CC4F814C0C0
:10416000DFF8F8C12362C4F824C0DFF8F4C1C4F852
:1041700000C04FF0010C73604FF6FF74B160C6F8D9
:104180000CC0DFF8E0C17461C6F820C0DFF8D8C108
:10419000C6F824C0DFF8D4C1C6F800C0DFF8D0C12B
:1041A0006B60A960C5F80CC04FF4406C6C61C5F839
:1041B00020C04FF0200C6B62544FC5F800C04FF088
:1041C000553C436006F580568160C0F80CC04461E0
:1041D0000362436203604E487B60B960F8607C61B3
:1041E0003B627B623B604B4F7360B160F7604A4F4C
:1041F000746105F58055336248487762484F3760EF
:10420000484F6B60A6F5D436A960EF606C612B62F5
:104210006B622B6043604FF0805581604FF44041EA
:10422000C0F80CC0446103624362036015643160EE
:10423000136843F00103136013689E07FCD591686F
:104240002C4B21F0030191609A6812F00C02FBD113
:104250001868284900F0F90018609A601A6842F45A
:1042600080321A600B689D03FCD54A6F214B42F0E7
:1042700001024A675A6F9407FCD52B4A5A601A68A4
:104280002A4942F080721A604B685804FCD5194BD9
:104290001A689201FCD52649264A99601268264B75
:1042A0009A421DD0254B40F205721A60234A1368CA
:1042B00003F00F03052BFAD10E4B9A6842F002026D
:1042C0009A609A6802F00C02082AFAD15A6C42F4F9
:1042D00080425A645A6E42F480425A665B6EF0BD68
:1042E000174A184B12689A42DCD1144B40F205125F
:1042F0001A60DBE700380240001002400000024074
:104300000004024000080240000C02400014024079
:10431000555515555555054100B0B00B00200240CC
:1043200000009028505555550C544007007000402F
:1043300000948838002004E011640020003C024012
:1043400000ED00E041C20F4100150820B00B00B0A5
:1043500000AA0A002880A1AA0054400844050CCCF9
:1043600081022AA2B055BB88CCCC0C00A8AAAA0610
:1043700045555555000000000000000000000000F9
:1043800010B5094C2046FCF7ABFAFCF741FC074896
:10439000FCF7DEFCFCF724FC2046FCF789FABDE8BC
:1043A0001040FCF7FDB900BF785600087C080020DB
:1043B00010B5094C2046FCF793FAFCF729FC074896
:1043C000FCF7C6FCFCF70CFC2046FCF771FABDE8D4
:1043D0001040FCF7E5B900BF6C560008000800204B
:1043E0002DE9F84F4FF080453848FCF779FAFCF793
:1043F0000FFC2B69EA681340DAB2D2439B072A61AB
:1044000008D4FCF7EDFB3148FCF752FABDE8F84F51
:10441000FCF7C6B9202383F311882D4EFCF728FC46
:10442000FCF79EFAFCF79CFAF469686AB36AA26822
:10443000A0EB03094A4506F11C0A98BF002725D8BE
:104440004FF0200800E0B36A2168D4F80CB01344A0
:104450005145B362C1F804A0F161E76008BFEF60A5
:10446000A9EB0209FCF7ECFB87F311882069D84718
:1044700088F31188FCF7FCFBF469A2689145E2D24D
:10448000686AB36AA0EB03099145D9D2544513D0A9
:10449000A268B062121A1344022B2CBFC518851CE7
:1044A000A3602846FCF764FE4FF08043B26A5B6A63
:1044B000A81A9B1A834205D8FCF7C2FB002383F39A
:1044C00011889EE70348FCF723FA00BFE85500086F
:1044D000484B002058540008000000000000000075
:1044E00008B51448FCF7FCF9FCF792FB202383F392
:1044F0001188FCF7BDFB104A1049D06B0023CB6339
:1045000038B190F82010032911D1D3634362FCF72E
:10451000E7FAFCF795FB002383F31188FCF760FBB7
:104520000448FCF7C5F9BDE80840FCF739B9044870
:10453000FCF7EEF90C570008F8080020002C0140A9
:10454000C855000800000000000000000000000046
:1045500010B50D48FCF7C4F9FCF75AFB0B4B0C489F
:104560005968C26F890D01F03D018C05DC6012B104
:10457000D0F880009047FCF733FB0348FCF798F92C
:10458000BDE81040FCF70CB9005700080064024079
:104590001455002000000000000000000000000092
:1045A00010B50D48FCF79CF9FCF732FB0B4B0C489F
:1045B0005968426F090C01F03D010C04DC600AB13E
:1045C000806F9047FCF70CFB0348FCF771F9BDE8DE
:1045D0001040FCF7E5B800BFF45600080064024044
:1045E0001455002000000000000000000000000042
:1045F00010B50D48FCF774F9FCF70AFB0B4B0C489F
:104600005968C26E890901F03D018C01DC600AB174
:10461000006F9047FCF7E4FA0348FCF749F9BDE85E
:104620001040FCF7BDB800BFE85600080064024027
:1046300014550020000000000000000000000000F1
:1046400008B50C48FCF74CF9FCF7E2FA0A4B0B48AA
:104650005968426E01F03D01D9600AB1806E904701
:10466000FCF7BEFA0348FCF723F9BDE80840FCF765
:1046700097B800BFDC5600080064024014550020C3
:1046800010B50D48FCF72CF9FCF7C2FA0B4B0C489F
:104690001968C26D890D01F03D018C059C600AB15D
:1046A000006E9047FCF79CFA0348FCF701F9BDE85F
:1046B0001040FCF775B800BFD056000800640240F7
:1046C0001455002000000000000000000000000061
:1046D00010B50D48FCF704F9FCF79AFA0B4B0C489F
:1046E0001968426D090C01F03D010C049C600AB18F
:1046F000806D9047FCF774FA0348FCF7D9F8BDE8E1
:104700001040FCF74DB800BFC456000800640240DA
:104710001455002000000000000000000000000010
:1047200010B50D48FCF7DCF8FCF772FA0B4B0C489F
:104730001968C26C890901F03D018C019C600AB1C5
:10474000006D9047FCF74CFA0348FCF7B1F8BDE860
:104750001040FCF725B800BFB056000800640240C6
:1047600014550020000000000000000000000000C0
:1047700008B50C48FCF7B4F8FCF74AFA0A4B0B48AA
:104780001968426C01F03D0199600AB1806C904754
:10479000FCF726FA0348FCF78BF8BDE80840FBF766
:1047A000FFBF00BFA456000800640240145500205B
:1047B00010B50D48FCF794F8FCF72AFA0B4B0C489F
:1047C0005968C26B890D01F03D018C05DC600AB1AE
:1047D000006C9047FCF704FA0348FCF769F8BDE861
:1047E0001040FBF7DDBF00BF985600080060024094
:1047F0001455002000000000000000000000000030
:1048000010B50D48FCF76CF8FCF702FA0B4B0C489E
:104810005968426B090C01F03D010C04DC600AB1DF
:10482000806B9047FCF7DCF90348FCF741F8BDE8E2
:104830001040FBF7B5BF00BF84560008006002407F
:1048400014550020000000000000000000000000DF
:1048500010B50D48FCF744F8FCF7DAF90B4B0C489F
:104860005968C26A890901F03D018C01DC600AB116
:10487000006B9047FCF7B4F90348FCF719F8BDE862
:104880001040FBF78DBF00BF60560008006002407B
:10489000145500200000000000000000000000008F
:1048A00008B50C48FCF71CF8FCF7B2F90A4B0B48AA
:1048B0005968426A01F03D01D9600AB1806A9047A7
:1048C000FCF78EF90348FBF7F3FFBDE80840FBF760
:1048D00067BF00BF54560008006002401455002016
:1048E00010B50D48FBF7FCFFFCF792F90B4B0C4899
:1048F0001968C269890D01F03D018C059C600AB1FF
:10490000006A9047FCF76CF90348FBF7D1FFBDE85C
:104910001040FBF745BF00BF48560008006002404A
:1049200014550020000000000000000000000000FE
:1049300010B50D48FBF7D4FFFCF76AF90B4B0C4898
:1049400019684269090C01F03D010C049C600AB130
:1049500080699047FCF744F90348FBF7A9FFBDE8DD
:104960001040FBF71DBF00BF3C560008006002402E
:1049700014550020000000000000000000000000AE
:1049800010B50D48FBF7ACFFFCF742F90B4B0C4898
:104990001968C268890901F03D018C019C600AB167
:1049A00000699047FCF71CF90348FBF781FFBDE85D
:1049B0001040FBF7F5BE00BF305600080060024013
:1049C000145500200000000000000000000000005E
:1049D00008B50C48FBF784FFFCF71AF90A4B0B48A3
:1049E0001968426801F03D0199600AB180689047FA
:1049F000FCF7F6F80348FBF75BFFBDE80840FBF760
:104A0000CFBE00BF185600080060024014550020B9
:104A1000F0B4144F144D1548154B164907F1700C9E
:104A20000026984211D904391A4651F8044F42F829
:104A3000044B9042F9D8421ED21A22F003020432EB
:104A400013449D4203D943F8046B9D42FBD867454C
:104A500005D0D7E90413D7E906051037E1E7F0BC24
:104A6000704700BF10590008E8580020E85800209F
:104A7000E8580020605A0008000000000000000014
:104A8000FEE700BF00000000000000000000000082
:104A9000704700BF000000000000000000000000A0
:104AA000704700BF032A70B412D940EA0105AD0770
:104AB00004460B461ED11946204653F8045B54F8B1
:104AC000046BAE4216D1043A032A20461946F2D8A6
:104AD000561EA2B10139441E01E0C3180CD014F8CF
:104AE000015F11F8012F9542A6EB0403F5D0A81A37
:104AF00070BC7047561EEDE7184670BC70471046F4
:104B0000F6E700BFF0B4860746D0541E002A3CD01A
:104B1000CAB2034601E0013C37D303F8012B9D07DD
:104B2000F9D1032C2AD9CDB245EA05250F2C45EA47
:104B3000054534D9A4F1100222F00F0C03F120072F
:104B40001609674403F1100242E9045542E902558F
:104B50001032BA42F8D1721C14F00C0F03EB02129F
:104B600004F00F0613D0331F23F003030433134460
:104B700042F8045B9342FBD106F003042CB1CAB2A5
:104B80001C4403F8012B9C42FBD1F0BC7047344617
:104B90001346002CF3D1F8E714460346C1E71A4642
:104BA0002646E0E711F0FF01034644D0820732D1E8
:104BB00070B4046841EA012646EA064686EA04051E
:104BC000A5F10133A4F1013223EA050322EA04022C
:104BD000134313F0803F0FD150F8044F84EA0605C9
:104BE000A5F10132A4F1013322EA050223EA04030C
:104BF000134313F0803FEFD0037823B936E010F869
:104C0000013F002B32D09942F9D130E08A4211D0D5
:104C10009A071846CCD0184613F8012B002AF5D174
:104C2000104670479907184607D018460133027896
:104C3000002AF7D170478207F7D10268A2F1013349
:104C400023EA020313F0803F08D150F8042FA2F1A9
:104C5000013323EA020313F0803FF6D00378002BE0
:104C6000E8D010F8013F002BFBD17047184670BC0C
:104C7000704700BF30B40478A4B10D780A462B46C3
:104C80001DB90AE012F8013F3BB19C42FAD11378FA
:104C9000002B08BF002030BC704710F8014F002CDB
:104CA000ECD1F4E7204630BC704700BF70B4047804
:104CB0008CB10E7805465EB10A46334602E012F822
:104CC000013F2BB1A342FAD115F8014F002CF2D1CC
:0C4CD000281A70BC70472046FBE700BFAC
:104CDC00535623313100000053562331300000006D
:104CEC0053562339000000005356233800000000AF
:104CFC0053562337000000005356233600000000A3
:104D0C00737461636B206F766572666C6F770000ED
:104D1C0020090000286E756C6C2900006563686FB3
:104D2C0020226D657373616765220000557361679E
:104D3C00653A2025730D0A0025730D0A000000004A
:104D4C00696E666F00000000362E312E31000000B7
:104D5C004B65726E656C3A20202020202020257334
:104D6C000D0A000047434320392E322E31203230B9
:104D7C00313931303235202872656C6561736529A3
:104D8C00205B41524D2F61726D2D392D6272616E17
:104D9C006368207265766973696F6E2032373735B8
:104DAC0039395D00436F6D70696C65723A20202053
:104DBC00202025730D0A000041524D7637452D4DAC
:104DCC0000000000417263686974656374757265F4
:104DDC003A2025730D0A0000436F727465782D4DCF
:104DEC0034000000436F72652056617269616E7405
:104DFC003A2025730D0A0000416476616E63656488
:104E0C00206B65726E656C206D6F64650000000030
:104E1C00506F727420496E666F3A202020202573E3
:104E2C000D0A000053544D33324634303720486954
:104E3C00676820506572666F726D616E636520776E
:104E4C006974682044535020616E642046505500AC
:104E5C00506C6174666F726D3A202020202025738F
:104E6C000D0A00004F6C696D65782053544D333238
:104E7C002D45343037000000426F6172643A2020B7
:104E8C0020202020202025730D0A0000202D20003A
:104E9C004E6F762020332032303230004275696CF0
:104EAC00642074696D653A20202025732573257361
:104EBC000D0A000030393A32313A30370000000028
:104ECC0053562335000000005356233400000000D5
:104EDC0073797374696D6500256C750D0A0000009B
:104EEC0065786974000000007368656C6C000000E4
:104EFC0043686962694F532F5254205368656C6C38
:104F0C000D0A000063683E20000000005E440000B3
:104F1C006C6F676F75740000746F6F206D616E79C4
:104F2C0020617267756D656E74730D0A0000000068
:104F3C0068656C7000000000436F6D6D616E64738A
:104F4C003A2068656C7020002573200025730000E2
:104F5C00203F0D0A000000006D656D00636F7265E7
:104F6C002066726565206D656D6F7279203A20251B
:104F7C00752062797465730D0A00000068656170B4
:104F8C0020667261676D656E74732020203A20254F
:104F9C00750D0A0068656170206672656520746F16
:104FAC0074616C20203A2025752062797465730D2C
:104FBC000A000000686561702066726565206C618E
:104FCC0072676573743A2025752062797465730D68
:104FDC000A000000626C696E6B6572007468726521
:104FEC006164730073746B6C696D6974202020208C
:104FFC00737461636B2020202020616464722072C2
:10500C00656673207072696F202020202073746194
:10501C0074652020202020202020206E616D650DDD
:10502C000A0D0A002530386C78202530386C782031
:10503C002530386C782025346C752025346C75201F
:10504C0025397320253132730D0A00005356233352
:10505C00000000006E6F6E616D6500005573616736
:10506C00653A207364696F7465737420726561644A
:10507C007C77726974657C65726173657C616C6C3C
:10508C000D0A000043617264206E6F7420696E73A8
:10509C0065727465642C2061626F7274696E672E20
:1050AC000D0A0000436F6E6E656374696E672E2E79
:1050BC002E2000004F4B0D0A0D0A436172642049EB
:1050CC006E666F0D0A000000435344202020202000
:1050DC00203A20253038582025385820253038588B
:1050EC002025303858200D0A000000004349442088
:1050FC0020202020203A20253038582025385820D0
:10510C00253038582025303858200D0A0000000072
:10511C004D6F646520202020203A2025730D0A0055
:10512C004361706163697479203A2025444D420DC6
:10513C000A0000007265616400000000616C6C0084
:10514C0053696E676C6520626C6F636B20616C6970
:10515C00676E6564207265616420706572666F723B
:10516C006D616E63653A20202020202020202020B5
:10517C0020000000254420626C6F636B732F532C4E
:10518C002025442062797465732F530D0A000000AA
:10519C0031362073657175656E7469616C20626C53
:1051AC006F636B7320616C69676E656420726561F7
:1051BC006420706572666F726D616E63653A202053
:1051CC002000000053696E676C6520626C6F636B26
:1051DC0020756E616C69676E656420726561642010
:1051EC00706572666F726D616E63653A2020202067
:1051FC002020202020000000313620736571756559
:10520C006E7469616C20626C6F636B7320756E6178
:10521C006C69676E65642072656164207065726686
:10522C006F726D616E63653A20000000777269746D
:10523C006500000057726974696E672E2E2E00008F
:10524C004F4B0D0A0000000052656164696E672EB9
:10525C002E2E000065726173650000007364634557
:10526C007261736528292074657374207772697470
:10527C0065206661696C65640D0A000073646345A2
:10528C00726173652829207969656C646564206591
:10529C0072726F7220666C6167733A2025640D0A16
:1052AC000000000073696E676C652D626C6F636B38
:1052BC002073646345726173652829206661696C8B
:1052CC0065640D0A000000007364634572617365C8
:1052DC002829206E6F6E2D65726173656420626C77
:1052EC006F636B20636F6D70617265206661696CB2
:1052FC0065640D0A000000006D756C74692D626C9C
:10530C006F636B2073646345726173652829206633
:10531C0061696C65640D0A006D756C74692D626C45
:10532C006F636B2073646345726173652829206514
:10533C00726173656420626C6F636B20636F6D7058
:10534C00617265206661696C65640D0A000000007D
:10535C00736463006563686F00000000524541444C
:10536C005900000043555252454E54005754535463
:10537C004152540053555350454E4445440000008F
:10538C005155455545440000575453454D000000B8
:10539C0057544D54580000005754434F4E4400008E
:1053AC00534C454550494E47000000005754455852
:1053BC004954000057544F52455654005754414ECF
:1053CC004445565400000000534E444D5347510081
:1053DC00534E444D5347000057544D534700000063
:1053EC0046494E414C0000005344563131000000F8
:1053FC0053445632300000004D4D430069646C65D7
:10540C00000000006368537973556E6C6F636B001A
:10541C006368537973556E6C6F636B006368537973
:10542C0073556E6C6F636B006368537973556E6C58
:10543C006F636B006368537973556E6C6F636B00AD
:10544C006368537973556E6C6F636B006368565465
:10545C00446F5469636B49006368546864446F44D7
:10546C006571756575654E65787449006368537927
:10547C0073556E6C6F636B006368537973556E6C08
:10548C006F636B006368537973556E6C6F636B005D
:10549C006368537973556E6C6F636B0063685379F3
:1054AC0073556E6C6F636B006368537973556E6CD8
:1054BC006F636B006368536368526561647949007C
:1054CC0063685654446F53657449000063684D74A7
:1054DC00784C6F636B53000063685363685265616B
:1054EC006479416865616449000000006368546830
:1054FC006443726561746553757370656E6465643D
:10550C00490000006368436F7265416C6C6F6346C1
:10551C00726F6D546F7049006368546864437265B0
:10552C00617465006368506F6F6C46726565490005
:10553C0063684865617046726565000063684D7408
:10554C0078556E6C6F636B00636854686443726566
:10555C00617465537461746963000000636853631C
:10556C006857616B65757053000000006368457681
:10557C00745369676E616C4900000000636854687D
:10558C006452656C65617365000000006368546863
:10559C0064457869745300006368546864576169A2
:1055AC0074000000636854686453757370656E64AE
:1055BC0054696D656F75745300000000636854681E
:1055CC0064526573756D654900000000636852652F
:1055DC00674E6578745468726561640056656374CF
:1055EC006F72423000000000737453746172744126
:1055FC006C61726D000000005F6D6D6373645F67BA
:10560C0065745F736C6963650000000056656374B4
:10561C006F723643000000007374536574416C6103
:10562C00726D0000566563746F72373000000000B5
:10563C00566563746F7237340000000056656374EE
:10564C006F72373800000000566563746F72374311
:10565C0000000000566563746F7238300000000063
:10566C00566563746F7244380000000056656374AD
:10567C006F72313543000000566563746F723834B5
:10568C00000000005F63746C0000000056656374DA
:10569C006F72464300000000566563746F723132BE
:1056AC0030000000566563746F72313234000000B4
:1056BC007364537461727400566563746F72313223
:1056CC0038000000566563746F723132430000007D
:1056DC00566563746F723133300000005665637425
:1056EC006F72313530000000566563746F7231355E
:1056FC0034000000566563746F7231353800000059
:10570C00566563746F723130340000007364635FEC
:10571C006C6C645F73746172740000006971526523
:10572C00616454696D656F75740000006D6D635F25
:10573C007365745F6275735F7769647468000000E9
:10574C006F71577269746554696D656F757400007B
:10575C007364635374617274000000007364635F5C
:10576C006C6C645F726561645F616C69676E6564C3
:10577C0000000000736463436F6E6E656374000019
:10578C007364635F6C6C645F77726974655F616C82
:10579C0069676E6564000000736463446973636FCA
:1057AC006E6E65637400000073646352656164001F
:1057BC007364635772697465000000007364634717
:1057CC006574416E64436C6561724572726F72737D
:1057DC000000000073646353796E63007364634765
:1057EC006574496E666F000073646345726173651E
:1057FC000000000010600240086002400000000B36
:10580C0028600240086002400006010C4060024023
:10581C00086002400010020D58600240086002400F
:10582C000016030E706002400C6002400000040F72
:10583C00886002400C60024000060510A060024027
:10584C000C60024000100611B86002400C6002406F
:10585C000016072F1064024008640240000008384C
:10586C002864024008640240000609394064024082
:10587C000864024000100A3A58640240086402406E
:10588C0000160B3B706402400C64024000000C3CA0
:10589C00886402400C64024000060D44A06402407F
:1058AC000C64024000100E45B86402400C640240C7
:1058BC0000160F466D61696E0016413004044408F1
:1058CC000C1014181C202122000000005C5300084E
:1058DC0051360008000000000000000008540008C9
:1058EC0018540020F054002001000000010D0008A5
:1058FC0000000000F4530008FC5300080454000896
:10590C0000000000605A0008E8580020E858002009
:10591C00E8580020605A0008000000200000002019
:10592C0000000020605A000800C0012000C00120C7
:10593C0000C00120605A00080000000000000000B8
:10594C0000000000605A0008000000100000001069
:10595C0000000010605A0008004002400040024065
:10596C0000400240605A00080000000000000000E7
:10597C0000000000605A0008000000000000000059
:10598C000000000000000000210D0008110D0008AF
:10599C0021320008C1350008C1300008512F000821
:1059AC009110000861100008010000007C08002024
:1059BC00D8580008EC4E0008411E00084C4D000859
:1059CC00811900086053000861190008DC4E0008BA
:1059DC00811B0008644F000861200008E84F000894
:1059EC00812400080000000000000000685300083B
:1059FC007053000878530008805300088C5300083B
:105A0C00945300089C530008A4530008AC5300089E
:105A1C00B8530008C0530008C8530008D4530008FA
:105A2C00DC530008E4530008EC53000800000000AD
:105A3C00413E000831400008013F0008D1400008F9
:105A4C00F13E0008C1400008313E0008214000082A
:045A5C0041100008ED
:04000005080002B934
:00000001FF
