:020000040800F2
:1000000000040020B9020008BB020008BB0200087F
:10001000BB020008BB020008BB020008BB020008CC
:10002000BB020008BB020008BB020008E136000862
:10003000BB020008BB020008BB020008BB020008AC
:10004000BB020008BB020008BB020008BB0200089C
:10005000BB020008BB020008BB020008BB0200088C
:10006000BB020008BB020008BB020008BB0200087C
:10007000BB020008BB020008BB020008BB0200086C
:10008000BB020008BB020008BB020008BB0200085C
:10009000BB020008BB020008BB020008BB0200084C
:1000A000BB020008BB020008BB020008BB0200083C
:1000B000BB020008BB020008BB020008BB0200082C
:1000C000BB020008BB020008BB020008BB0200081C
:1000D000BB020008BB02000871890008BB020008CF
:1000E000BB020008BB020008BB020008BB020008FC
:1000F000BB020008BB020008BB020008BB020008EC
:10010000BB020008BB020008118B0008BB020008FC
:10011000BB020008BB020008BB020008BB020008CB
:10012000BB020008BB020008BB020008BB020008BB
:10013000BB020008BB020008BB020008BB020008AB
:10014000BB020008BB020008BB020008BB0200089B
:10015000BB020008BB020008BB020008BB0200088B
:10016000BB020008BB020008BB020008BB0200087B
:10017000BB020008BB020008BB020008BB0200086B
:10018000BB020008BB020008BB020008BB0200085B
:10019000BB020008BB020008BB020008BB0200084B
:1001A000BB020008BB020008BB020008BB0200083B
:1001B000BB020008BB020008BB020008BB0200082B
:1001C000BB020008BB020008BB020008BB0200081B
:1001D000BB020008BB020008BB020008BB0200080B
:1001E00072B6274880F30888264880F30988264895
:1001F0004EF60851CEF200010860022080F3148808
:10020000BFF36F8F08F024FD08F0DAFA4FF0553095
:100210001E491B4A91423CBF41F8040BFAE71C49B6
:10022000184A91423CBF41F8040BFAE719491A4AAF
:100230001A4B9A423EBF51F8040B42F8040BF8E700
:1002400000201749174A91423CBF41F8040BFAE7D6
:1002500008F0B6FC08F0F4FC134C144DAC4203DA81
:1002600054F8041B8847F9E703F05AF8104C114D75
:10027000AC4203DA54F8041B8847F9E708F0D8BC0D
:1002800000040020000800200000000800000020FA
:1002900000040020B4B4000800080020DC0800209E
:1002A000E0080020981B0020E0010008E0010008A1
:1002B000E0010008E001000892E700F000F8FEE726
:1002C0002DE9F04FC1F80CD0C3689D46BDE8F08F12
:1002D000002383F311882846A047002003F010FA7A
:1002E000FEE703F065FA00DFFEE70000844641EA1E
:1002F000000313F003036DD1403A41D351F8043B9E
:1003000040F8043B51F8043B40F8043B51F8043BEF
:1003100040F8043B51F8043B40F8043B51F8043BDF
:1003200040F8043B51F8043B40F8043B51F8043BCF
:1003300040F8043B51F8043B40F8043B51F8043BBF
:1003400040F8043B51F8043B40F8043B51F8043BAF
:1003500040F8043B51F8043B40F8043B51F8043B9F
:1003600040F8043B51F8043B40F8043B51F8043B8F
:1003700040F8043B51F8043B40F8043B403ABDD2FE
:10038000303211D351F8043B40F8043B51F8043BA0
:1003900040F8043B51F8043B40F8043B51F8043B5F
:1003A00040F8043B103AEDD20C3205D351F8043B2F
:1003B00040F8043B043AF9D2043208D0D2071CBFFB
:1003C00011F8013B00F8013B01D30B880380604624
:1003D000704700BF082A13D38B078DD010F003039A
:1003E0008AD0C3F10403D21ADB071CBF11F8013B0A
:1003F00000F8013B80D331F8023B20F8023B7BE759
:10040000043AD9D3013A11F8013B00F8013BF9D283
:100410000B7803704B7843708B788370604670471D
:10042000202383F31188094B9A6822B1002000230E
:1004300083F311887047064A92699A60916BD9607C
:1004400093630120002383F3118870472C08002058
:10045000B0090020000000000000000000000000C3
:10046000202383F31188044B9A690023506B536354
:1004700083F31188704700BFB0090020000000001E
:10048000084B5B6A091A181A884201D2002070478B
:100490000549064A064B074808600120107018708D
:1004A000704700BF000C0040F41300209814002097
:1004B000F8130020388E0008000000000000000043
:1004C00030B4202383F311880B4CD4E90035494222
:1004D000281A0840821A9A4207D3954205D36260CF
:1004E000002383F3118830BC70470020002383F37E
:1004F000118830BC704700BF480B0020000000008E
:10050000024AD36843F0C003D36070470044004000
:100510000B4B0C4AD91D21F00701CB1AC3F178030C
:1005200010B4002002F10C04DB084B60516008603D
:10053000C2E90344106010BC90605061704700BF76
:1005400018140020FC130020000000000000000030
:10055000054B00220421C3E90033C3E90411DA602A
:100560009A619A60704700BF1008002000000000E8
:10057000FFF7EEBF000000000000000000000000D8
:100580000020704700000000000000000000000094
:10059000034B00210422C3E901221960D96070478E
:1005A00074080020000000000000000000000000AF
:1005B00003681A1D02601B68184700BF0000000096
:1005C000016803460A46081D10B4186052F8084B2B
:1005D00048681A60234610BC184700BF000000009E
:1005E000026830B40346111D5068196014689168A0
:1005F00002F10C051D60234630BC184700000000C6
:10060000036870B404461A1DD3E9010122601D6815
:10061000DA6803F1100626602B4670BC184700BF4D
:10062000036870B404461D1DD3E90101DA68256032
:100630001D6803F11406AC461B69266070BC604758
:1006400030B40F4B0F4A1A6002F1080503F1200481
:10065000C3E9022203F13000002203F14001C3E9A3
:1006600008445D60C3E90C0030BCC3E91011C3E964
:1006700006221A611A759A629A639A64704700BFDB
:100680008C0800205C090020000000000000000031
:1006900030B40F4B0F4A1A6002F1100503F1200429
:1006A000C3E9022203F13000002203F14001C3E953
:1006B00008445D60C3E90C0030BCC3E91011C3E914
:1006C00006221A611A759A629A639A64704700BF8B
:1006D0008C0800205C0900200000000000000000E1
:1006E00030B40A4B0A4A1A6002F1100503F11804EB
:1006F000002103F12000C3E906445D60C3E9022242
:1007000030BCC3E908001961197570474C08002016
:10071000300C00200000000000000000000000007D
:10072000FFF7DEBF00000000000000000000000036
:10073000FFF7D6BF0000000000000000000000002E
:10074000024B0022C3E900339A607047600C00201E
:10075000024B0122C3E900339A6070477C0D0020F0
:10076000704700BF00000000000000000000000013
:10077000024B0022C3E900339A6070477C0D0020D1
:10078000044B00224FF4A4700421C3E901011A6054
:10079000DA607047400C00200000000000000000FC
:1007A0000B4B0C4AD91D21F00701CB1AC3F5CC63C2
:1007B00010B4002002F10C04DB084B6051600860AB
:1007C000C2E90344106010BC90605061704700BFE4
:1007D000880D0020B00B0020000000000000000089
:1007E00008B5FFF73DFE024A024B12601B6008BDD0
:1007F000080800200C080020000000000000000095
:10080000FFF72EBE00000000000000000000000006
:10081000FFF7F6BF0000000000000000000000002D
:10082000FFF7EEBF00000000000000000000000025
:10083000FFF7E6BF0000000000000000000000001D
:10084000FFF7DEBF00000000000000000000000015
:100850000649074A074B09600020C2E90022C3E9A4
:100860000033496090609860704700BF0008002026
:100870002C0800203C0800200000000000000000C0
:10088000044A054B12600021C3E9003352609960AD
:10089000704700BF000800202C0800200000000066
:1008A000FFF7EEBF000000000000000000000000A5
:1008B000024B0022C3E900339A6070472C080020E5
:1008C000044A054B12600021C2E90121C3E900334B
:1008D000996070472C0800203C08002000000000B0
:1008E000FFF7E6BF0000000000000000000000006D
:1008F000024B0022C3E900339A607047700D00205C
:10090000FFF7F6BF0000000000000000000000003C
:10091000FFF7EEBF00000000000000000000000034
:10092000FFF7E6BF0000000000000000000000002C
:10093000024B0122C3E900339A607047700D00201A
:10094000014B00221A607047C8140020000000000C
:1009500008B10020704710B4044A054C054B012033
:100960002070107010BC1960704700BFF813002091
:1009700098140020F4130020000000000000000084
:10098000014B03221A6070479C14002000000000F5
:10099000044B054A01211960516A536A9942FCD0FF
:1009A000704700BF9C140020000C004000000000B5
:1009B000074B01221A60202383F3118862B672B6B6
:1009C00083F3118862B6002383F3118862B67047FF
:1009D0009C14002000000000000000000000000047
:1009E0000B4B30B403F114002025002453F8042BE2
:1009F0004AB185F3118892F8211041F0040182F880
:100A0000211084F311888342F0D130BC704700BFBD
:100A1000B4140020000000000000000000000000EE
:100A200010B3F0B585B06C46104F2246A7FB0013FB
:100A3000DB0803EB8301A0EB410106463031C9B26C
:100A4000092E1546184602F8011BEFD8A24209D913
:100A5000074E01E015F8011D30680368DB68984710
:100A6000AC42F7D105B0F0BD704700BFCDCCCCCCC7
:100A7000F013002000000000000000000000000053
:100A800028B9044B186803683021DB681847FFF762
:100A9000C7BF00BFF01300200000000000000000EE
:100AA000202383F31188064A064913688B4202D239
:100AB000591C18701160002383F31188704700BF20
:100AC000B0140020B014002000000000000000005E
:100AD00008B548694130C0B2FFF7E2FF002008BD09
:100AE00008B53020FFF7DCFF45F2AA5008BD00BF73
:100AF00010B50446C0B2FFF7D3FF204610BD00BFBB
:100B000038B50D460446C0B2FFF7CAFFE8B2FFF79A
:100B1000C7FF204638BD00BF0000000000000000F5
:100B200070B50E460446C0B21546FFF7B9FFF0B2E5
:100B3000FFF7B6FFE8B2FFF7B3FF204670BD00BF76
:100B4000F8B50F460446C0B216461D46FFF7A8FF8B
:100B5000F8B2FFF7A5FFF0B2FFF7A2FFE8B2FFF788
:100B60009FFF2046F8BD00BF00000000000000000D
:100B700008B55A20FFF794FF024B01221A704AF67B
:100B8000552008BD6C0B0020000000000000000094
:100B90004320FFF785BF00BF0000000000000000F9
:100BA0004220FFF77DBF00BF0000000000000000F2
:100BB0004120FFF775BF00BF0000000000000000EB
:100BC0000078FFF76DBF00BF0000000000000000CC
:100BD000FFF7F6BF0000000000000000000000006A
:100BE00070B5017889B10A4D044628680368DB684E
:100BF000984714F8011F0029F7D1286805490368B0
:100C0000BDE870405B6802221847014DF5E700BF60
:100C1000F01300204C8E00080000000000000000CF
:100C2000017859B138B5064D044628680368DB6879
:100C3000984714F8011F0029F7D138BD704700BF4D
:100C4000F013002000000000000000000000000081
:100C5000F0B40D4E0D4F35683B4605E013F8014BDF
:100C600010F8012B944206D19D42F7D8007810B9B4
:100C70003760F0BC7047064C064A074B01202070D5
:100C80001070F0BC19607047B0140020A014002050
:100C900098140020F8130020F41300200000000036
:100CA0000F4AF8B501260F4F16600725002425FAD4
:100CB00004F313F0010F06FA04F220460DD057F8A2
:100CC000243025EA020501349847002DEFD1BDE814
:100CD000F84005490548FFF7BBBF0134E7E700BF0F
:100CE0009C14002004AD0008508E0008648E00089B
:100CF00070B5084D4C24286803682D21DB6898479F
:100D0000013CF8D1286804490368BDE870405B687D
:100D100002221847F01300204C8E0008000000004B
:100D2000202383F311880D4B5B6813F4006302D119
:100D300083F311887047EFF30983203B4FF08072F3
:100D4000DA6183F30988064A1168926989689268B2
:100D500091428CBF034A044A9A61704700ED00E05B
:100D6000B0090020E3020008E602000800000000CD
:100D7000084A10B4D2E900344942201A0840984287
:100D800004D3844202D310BC50607047002010BCD2
:100D9000704700BF480B002000000000000000006A
:100DA00008B52022034682F31188006828B1026842
:100DB0001A60002383F3118808BDDA68002AF8D08E
:100DC000D3E901019047002383F3118808BD00BFD8
:100DD0002DE9F0413B4E3C4B3C4C0122326020253A
:100DE0000422002085F3118821681960236080F3B4
:100DF00011886168013A0B44F4D10223DFF8CC80FA
:100E0000334F336004254046FFF7CAFF003818BF50
:100E100001203946FFF79CFD002850D1013DF2D159
:100E200003232A483360FFF7BBFFB0FA80F029495B
:100E30004009FFF78DFD002841D1234B042203F127
:100E40001007326020201A4680F31188216843F889
:100E5000041B226085F31188BB42F4D10523DFF81F
:100E60006C801B4F336004254046FFF799FF003824
:100E700018BF01203946FFF76BFD00BB013DF3D1E0
:100E8000062312483360FFF78BFFB0FA80F0114958
:100E90004009FFF75DFD90B907210F4A0B4831600B
:100EA0000423C4E901332560E260FFF779FFB0FA5B
:100EB00080F0BDE8F04109494009FFF749BDBDE8B0
:100EC000F08100BF9C140020600D002074080020F9
:100ED000688E0008748E000881050008848E000862
:100EE000202383F31188044B9B695A6B104358638A
:100EF000002383F311887047B00900200000000030
:100F0000202383F31188034601E08B4207D01A4661
:100F10001B688342F9D1002383F3118870471B6853
:100F20001360002383F31188704700BF00000000A6
:100F30002DE9F043364CDFF8E880246002228BB0C4
:100F4000C8F80020202787F31188324920688B6970
:100F500005900DF114090120002506934FF0FF3391
:100F6000CDE908530790C4F8009085F3118887F302
:100F70001188886921680091CDE90102CDE9035308
:100F8000C4F800D085F3118887F3118820682249BE
:100F9000001B18BF0120FFF7DBFC20B185F311888F
:100FA0000BB0BDE8F083064680F311880323494661
:100FB0002046C8F80030FFF7A3FF87F311882068A8
:100FC0001549001B18BF0120FFF7C2FC054620B1E0
:100FD00086F311880BB0BDE8F08380F311880423F9
:100FE00069462046C8F80030FFF78AFF87F311886A
:100FF00020680A49001BB0FA80F04009FFF7A8FCFE
:101000000028CBD180F311880BB0BDE8F08300BF7E
:1010100008080020B0090020A08E0008AC8E00084F
:101020009C140020000000000000000000000000F0
:101030000E4A0F4B52685B6F816830B4D31AD0E907
:101040000445C2685B1A01324168C260E418026854
:10105000836045F100058B4288BF43609342C0E93D
:10106000044538BF036030BC704700BF001000E08B
:10107000B009002000000000000000000000000097
:10108000014B5B6883607047001000E000000000C7
:10109000836841681A4AF0B4D0E90475022643F81F
:1010A0002C1C0124002143E91B750568C06803F866
:1010B000271C03F8286C03F8264C43F8382C546995
:1010C00043F8400C43F80C0C43F8305CA3F16C007F
:1010D0000C4D43F83C0C43E90511A3F1480043F8DB
:1010E0004C5CA3F11C01A3F1200543F8344C2061B2
:1010F000506143E9085143F8181CF0BC704700BF29
:10110000B0090020D102000800000000000000002B
:10111000202383F3118890F82030072B0DD8DFE8C7
:1011200003F0270C0C2308040C08426A936801336F
:101130009360D0E9003213605A6010B400224FF07F
:10114000FF3481680C4B446280F820201B689A6849
:101150008A42FBD25A680021C0E900321060586010
:1011600081F3118810BC7047436A00221A60E4E7DB
:10117000002383F311887047B009002000000000AD
:1011800000228168064B80F820201B689A688A42FA
:10119000FBD25A68C0E9003210605860704700BF47
:1011A000B009002000000000000000000000000066
:1011B00003460068834206D002681A60002153602B
:1011C0004162FFF7DDBF7047000000000000000033
:1011D0000F4B1A7DCAB970B5D3E900611A698C1B2F
:1011E000B2EBA40F0ED09D682C1D9C60A14228601C
:1011F00002F10102074898BF9E601A61FFF7D8FF0D
:10120000002070BD4FF0FF3070BD6FF001007047DF
:101210004C0800206C0800200000000000000000C6
:1012200038B50F4B1A7DBAB9D3E9004519692A1BA5
:10123000B1EBA20F0DD0DA68043A944288BF2A1F9E
:10124000DA600131106007481961FFF7B1FF002033
:1012500038BD4FF0FF3038BD6FF0010038BD00BF22
:101260004C0800206C080020000000000000000076
:1012700038B50F4B1A7DBAB9196991B1DA685C6853
:1012800015680432A242DA6001F1FF31056028BF1F
:101290001A68084828BFDA601961FFF789FF002043
:1012A00038BD4FF0FF3038BD6FF0010038BD00BFD2
:1012B0004C0800206408002000000000000000002E
:1012C00038B50446006884420AD06FF0010503680F
:1012D00023605C604562FFF753FF2068A042F6D1AF
:1012E00038BD00BF0000000000000000000000004A
:1012F000054B1868984206D002681A6000215360B6
:101300004162FFF73DBF7047000800200000000069
:10131000426B90F8203011430A2B416309D00B2B0C
:1013200000D07047436A8B43FBD100234362FFF731
:1013300027BF436A1942F8D1704700BF0000000080
:1013400070B50468A0420FD006460D46E3682B43F3
:10135000E36015B123691D4203D0D4E90101FFF711
:10136000D7FF2468A642F1D170BD00BF0000000085
:10137000114B0146006830B49D69CB68AB6388426D
:1013800016D0EC6B4BB11A68934203D0926894422A
:1013900038BF1446DB68002BF5D1826B0368AC6064
:1013A0000B6030BC5960C1E902028163FFF7E8BEFF
:1013B000002330BC83607047B009002000000000AB
:1013C00083680133002B836000DD704703681A686F
:1013D00002600021506018465962FFF7D1BE00BF7D
:1013E00038B50B6A002B0C464B6A2FDB190714D457
:1013F0009A0623D4C269A26000F11401E160D460AE
:10140000C46103F0120343F0010363623030FFF75D
:10141000D7FF236A0133236238BDD4E90025016A6E
:101420002A6000F11403556000220125C4E902314D
:101430008C600462C4E904226562E7E7026AE26044
:1014400000F11401A16094600462DAE703F01A036A
:101450004B6201F11800BDE83840FFF7B1BF00BF93
:1014600030B41C4AD16982B08142019011D0034648
:10147000D0E90010016019681C32002491424860D4
:10148000DC6003D09A688B6813448B6002B030BC78
:10149000704710460B6840F81C3F00248342586098
:1014A000CC6014D08D6899680B4C926A0D449D6095
:1014B000636A991A8D42E9D9D31A2B44012B98BF3C
:1014C0008D1C054B2A445A6302B030BC7047024B56
:1014D000DC60DBE7B0090020000C004000000000E9
:1014E000F0B41E4D1E4E2F46022957F81C4F38BF30
:1014F0000221BC42C0E90323736A22D0AA6A9B1A64
:10150000C91816D2A3688B4203D917E02468C91AF8
:10151000A3688B42FAD36368C0E900431860606037
:101520008160A3684FF0FF32591AA1606A62F0BC73
:101530007047A2682468891AA368EAE70A447263BC
:10154000E7E7AB62CF1800220223C5E90700C0E934
:101550000044816077633261F360E8E7B0090020FE
:10156000000C00400000000000000000000000002F
:10157000EFF30583202383F31188704700000000F8
:10158000C20710B412D52A4B1968994243D00022E1
:101590000968994202F10102FAD14C688C4237D0B5
:1015A00064689C4202F1FF32FAD18ABB830714D5EA
:1015B0001F4B1C4654F81C1FA14232D00022096860
:1015C000A14202F10102FAD11B6A8B4220D05B6872
:1015D000A34202F1FF32FAD1D2B910F0040015D0C3
:1015E000134B1A699A424FF0000004D012699A42D4
:1015F00000F10100FAD15A699A4204D052699A4224
:1016000000F1FF30FAD1003818BF012010BC70473C
:10161000012010BC70475C689C4218BF0022BFD1FB
:10162000C4E71B6AA34218BF0022D0D1D5E700BF90
:10163000B0090020000000000000000000000000D1
:1016400070B5244E01203060202585F31188FFF706
:1016500097FF002383F3118880F001001E49C0B278
:10166000FFF776F900B170BD04460220306085F3C3
:101670001188FFF785FF84F3118880F00100174976
:10168000C0B2FFF765F904460028ECD103233360AC
:1016900085F311880420FFF773FF84F3118880F02D
:1016A00001000F49C0B2FFF753F904460028DAD110
:1016B0000423336085F311880820FFF761FF84F36A
:1016C000118880F00100BDE870400649C0B2FFF704
:1016D0003FB900BF9C140020BC8E0008D48E0008C7
:1016E000F88E0008148F00080000000000000000C1
:1016F000FEE700BF00000000000000000000000046
:101700000020704700000000000000000000000002
:1017100038B54B4B4B4C4C4801251D60FFF780FA08
:101720002846FFF77DF92046FFF75AFA4748FFF7AA
:1017300077FA2846FFF774F92046FFF751FA444834
:10174000FFF76EFA2846FFF76BF92046FFF748FAD5
:101750004048FFF765FA2846FFF762F92046FFF791
:101760003FFA3D48FFF75CFA2846FFF759F9204653
:10177000FFF736FA3948FFF753FA2846FFF750F9D2
:101780002046FFF72DFA3648FFF74AFA2846FFF7BA
:1017900047F92046FFF724FA3248FFF741FA284676
:1017A000FFF73EF92046FFF71BFA2F48FFF738FAFC
:1017B0002846FFF735F92046FFF712FA2B48FFF7C6
:1017C0002FFA0820FFF72CF92046FFF709FA2848DE
:1017D000FFF726FA2846FFF723F92046FFF700FA1D
:1017E0002448FFF71DFA2846FFF71AF92046FFF7AD
:1017F000F7F92148FFF714FA2846FFF711F92046B8
:10180000FFF7EEF91D48FFF70BFA2846FFF708F936
:101810002046FFF7E5F91A48FFF702FA2846FFF7D6
:10182000FFF82046FFF7DCF91648FFF7F9F92846DC
:10183000FFF7F6F82046BDE83840FFF7D1B900BF02
:101840009C140020F09900082C8F0008588F000885
:10185000848F0008B08F0008DC8F00080890000813
:1018600034900008609000088C900008B890000840
:10187000E4900008109100083C910008689100086D
:1018800094910008C09100080000000000000000D2
:1018900038B5194B19481A4C01251D60FFF7A0F9FE
:1018A0001848FFF7BDF92846FFF7BAF82046FFF7BA
:1018B00097F91548FFF7B4F91448FFF791F9144860
:1018C000FFF7AEF92846FFF7ABF82046FFF788F997
:1018D0001048FFF7A5F90220FFF7A2F82046FFF70E
:1018E0007FF90D48FFF79CF90020FFF7C9F8204663
:1018F000BDE83840FFF774B99C140020EC91000853
:10190000F0990008209200084C9200087892000894
:1019100080920008AC920008D892000800000000F5
:1019200070B5334D334C344801232B60FFF778F901
:101930007820FFF775F82046FFF752F902232F4869
:101940002B60FFF76DF94420FFF76AF82046FFF798
:1019500047F903232A482B60FFF762F91420FFF7A9
:101960005FF82046FFF73CF9042626482E60FFF773
:1019700057F90C20FFF754F82046FFF731F90523FB
:1019800021482B60FFF74CF91020FFF749F820465B
:10199000FFF726F906231D482B60FFF741F90820C1
:1019A000FFF73EF82046FFF71BF9072318482B6086
:1019B000FFF736F93046FFF733F82046FFF710F906
:1019C000082314482B60FFF72BF91420FFF728F8A1
:1019D0002046FFF705F909230F482B60FFF720F990
:1019E0002820FFF71DF82046BDE87040FFF7F8B843
:1019F0009C14002014930008049300081C93000812
:101A00002C9300083C9300084C9300085C9300085A
:101A10006C9300087C9300088C9300080000000081
:101A200038B5934B934C944801251D60FFF7F8F8A7
:101A30002020FEF7F5FF2046FFF7D2F88F48FFF78A
:101A4000EFF842F21070FEF7EBFF2046FFF7C8F800
:101A50008B48FFF7E5F82020FEF7E2FF2046FFF76E
:101A6000BFF88848FFF7DCF82020FEF7D9FF2046B2
:101A7000FFF7B6F88448FFF7D3F80220FEF7D0FF4F
:101A80002046FFF7ADF88148FFF7CAF80020FEF7BF
:101A9000F7FF2046FFF7A4F87D48FFF7C1F80020C4
:101AA000FEF7EEFF2046FFF79BF87A48FFF7B8F8FD
:101AB0000020FEF7E5FF2046FFF792F87648FFF793
:101AC000AFF82846FEF7ACFF2046FFF789F87348C9
:101AD000FFF7A6F82846FEF7A3FF2046FFF780F899
:101AE0006F48FFF79DF82846FEF79AFF2046FFF75C
:101AF00077F86C48FFF794F82846FEF791FF2046E8
:101B0000FFF76EF86848FFF78BF82846FEF788FF66
:101B10002046FFF765F86548FFF782F80020FEF7DA
:101B2000AFFF2046FFF75CF86148FFF779F82846D9
:101B3000FEF776FF2046FFF753F85E48FFF770F890
:101B40000020FEF79DFF2046FFF74AF85A48FFF7AE
:101B500067F82846FEF764FF2046FFF741F857482C
:101B6000FFF75EF82846FEF75BFF2046FFF738F8E0
:101B70005348FFF755F82846FEF752FF2046FFF777
:101B80002FF85048FFF74CF82846FEF749FF20464B
:101B9000FFF726F84C48FFF743F82846FEF740FFCA
:101BA0002046FFF71DF84948FFF73AF80020FEF7F6
:101BB00067FF2046FFF714F84548FFF731F828463D
:101BC000FEF72EFF2046FFF70BF84248FFF728F8F4
:101BD0000020FEF755FF2046FFF702F83E48FFF7CA
:101BE0001FF80020FEF74CFF2046FEF7F9FF3B48A8
:101BF000FFF716F80020FEF743FF2046FEF7F0FF40
:101C00003748FFF70DF80020FEF73AFF2046FEF7B1
:101C1000E7FF3448FFF704F8FF20FEF701FF2046F6
:101C2000FEF7DEFF3048FEF7FBFF8020FEF7F8FEF0
:101C30002046FEF7D5FF2D48FEF7F2FF0020FEF705
:101C40001FFF2046FEF7CCFF2948FEF7E9FF0020E2
:101C5000FEF716FF2046FEF7C3FF2648FEF7E0FF1B
:101C60000020FEF70DFF2046BDE83840FEF7B8BF64
:101C70009C140020F09900089C930008C893000869
:101C8000F4930008209400084C940008789400080D
:101C9000A4940008D0940008FC940008289500083B
:101CA0005495000880950008AC950008D895000868
:101CB00004960008309600085C9600088896000894
:101CC000B4960008E09600080C97000838970008C2
:101CD0006497000890970008BC970008E8970008F0
:101CE00014980008409800086C980008989800081C
:101CF000C4980008F09800080000000000000000F0
:101D000038B5194B19481A4C01251D60FEF768FFBC
:101D10001848FEF785FF2846FEF782FE2046FEF7AC
:101D20005FFF1548FEF77CFF1448FEF759FF144883
:101D3000FEF776FF0620FEF773FE2046FEF750FF03
:101D40001048FEF76DFF2846FEF76AFE2046FEF7B4
:101D500047FF0D48FEF764FF2846FEF761FE204668
:101D6000BDE83840FEF73CBF9C1400201C990008D9
:101D7000F0990008209200084C9200085099000841
:101D800080920008AC920008D89200080000000081
:101D90001C4B1D4810B501221A60FEF741FF1B487D
:101DA0001B4CFEF71DFF1B48FEF73AFF1A48FEF7D3
:101DB00017FF1A48FEF734FF1948FEF711FF1948BC
:101DC000FEF72EFF1848FEF70BFF1848FEF728FF16
:101DD0000420FEF725FE2046FEF702FF1448FEF71A
:101DE0001FFF0820FEF71CFE2046FEF7F9FE1148F3
:101DF000FEF716FF0820FEF713FE2046BDE8104050
:101E0000FEF7EEBE9C140020589900088499000843
:101E1000F099000890990008BC990008C89900083A
:101E2000F4990008349A0008609A0008789A00082B
:101E3000A49A0008D09A00080000000000000000EA
:101E4000FFF7A6BF00000000000000000000000037
:101E500070B50C68A14212D00D46064602E0246817
:101E6000A5420CD008223146A01806F073FF0028C6
:101E7000F5D114B1636801336360204670BD00245E
:101E8000204670BD000000000000000000000000BF
:101E9000F8B50C68A1420D460646174603D10DE081
:101EA0002468A5420AD008223146A01806F052FF45
:101EB0000028F5D114B104462046F8BD3846FEF797
:101EC0006FFF04460028F7D008223146104406F080
:101ED0007FFF2B680122C4E9003220462C60F8BD48
:101EE00038B5202383F31188124A106891698368FA
:101EF0008C68A34203D2002383F3118838BD0368A2
:101F000013605A6001259061002280F8205081F80A
:101F1000202000E01B689A689442FBD95A68C1E906
:101F2000003211605960FEF7CBF9002383F311886A
:101F300038BD00BFB0090020000000000000000014
:101F400038B5094D0446FFF7CBFFFFF7C9FFFFF790
:101F5000C7FFFFF7C5FF2368AA690433236092F81F
:101F600021305B07EFD538BDB0090020000000002C
:101F7000154A70B496698568B4684162A5420ED866
:101F80000021134680F820101B689A689542FBD9FF
:101F90005A6870BCC0E90032106058607047002376
:101FA00086F8203013461B6899688C42FBD3596829
:101FB0007160012433600E605E60314680F820401D
:101FC00070BC9061FEF77CB9B009002000000000F1
:101FD000F8B50446202080F311881A4FC4F8E03089
:101FE00004F1DC03C4F8DC20C4F808117A69C4F8F1
:101FF0003C11C4F80C31144D144BC4F8FC500121B1
:1020000004F5807584F82211C4F81831002604F50F
:10201000967304F594710220A4F82001C4E94D667A
:10202000C4E94472C4F81C4128461561C4E94A1346
:10203000C4F8303131467D61FFF79AFF86F311888D
:102040002846F8BDB0090020D1020008FC9A00081B
:1020500008B5202383F31188064B1868984205D0F1
:1020600002681A6053600021FFF782FF002383F3A8
:10207000118808BD000800200000000000000000DA
:102080002DE9F041144F86B0804638460E4615467D
:10209000FEF786FE0446D0B17B68104ACDF800807A
:1020A000034402930190039605950492202383F341
:1020B00011886846FEF7ECFF022380F821300764A0
:1020C00000210446FFF754FF002383F311882046C4
:1020D00006B0BDE8F08100BF400C0020D10B000825
:1020E00008B5202282F3118882680132002A8260BA
:1020F00003DD002383F3118808BD034600680268EE
:102100001A6000215360FFF733FF002383F3118827
:1021100008BD00BF0000000000000000000000003B
:1021200010B5202383F31188FEF7B2FF0021044687
:10213000FFF71EFF002383F31188204610BD00BF68
:10214000084B99691A6810B481F82000106818606B
:102150000124436082F8204010BC9A611046FEF7CB
:10216000AFB800BFB0090020000000000000000070
:102170000C4A10B52023946983F31188606B40B139
:10218000434220EA030262631840002383F311886C
:1021900010BD4FF0FF330A206362FFF7D1FF606B81
:1021A000EEE700BFB00900200000000000000000C2
:1021B0000C4A10B52023946983F31188606B20B119
:1021C0000023636383F3118810BD4FF0FF33636214
:1021D0000A20FFF7B5FF0023606B636383F3118868
:1021E00010BD00BFB009002000000000000000008A
:1021F0000C4A10B52023946983F31188636B03F0B4
:102200000502052A05D0052363620B20FFF798FF1E
:10221000636B23F005036363002383F311880520B8
:1022200010BD00BFB0090020000000000000000049
:10223000074A10B52023946983F311880320FFF720
:102240007FFF636A002BF9D0002383F3118810BD50
:10225000B0090020000000000000000000000000A5
:1022600030B54B1C87B012D00C4D0D4AAB690446FB
:1022700001A8FFF735F92046FFF762FF049B13B171
:1022800001A8FFF7EDF8AB69586A07B030BD034D00
:10229000FFF756FFAB69586A07B030BDB0090020A0
:1022A0001111000800000000000000000000000004
:1022B000202383F31188104B99684A1E002A9A60E4
:1022C00004DB0020002383F31188704780B10B4AA0
:1022D00010B592695C685362C2E90034014622601D
:1022E00005205A60FFF7BCFF002383F3118810BD5F
:1022F00099604FF0FF30E5E7700D0020B009002035
:1023000070B5584D584C0120A2692860202383F3F2
:102310001188536B33B983F311885449FEF718FBC6
:1023200080B170BD584223EA000151631840002378
:1023300083F31188B0FA80F04C494009FEF708FB9E
:102340000028EED1A369202282F311885A6B002A5B
:1023500067D180F3118801204449FEF7F9FA00287B
:10236000DFD1A369202282F311885A6B01325CD03D
:1023700080F3118801203D49FEF7EAFA0028D0D108
:1023800002232B60A669202383F31188756B55B94E
:102390004FF0FF3373624FF4FA710A20FFF760FFCA
:1023A000002852DB756B684225EA000373632840FE
:1023B000002383F31188B0FA80F040092B49FEF71F
:1023C000C7FA0028ADD1A669202383F31188756B65
:1023D0007DB30023736383F31188B5FA85F0400958
:1023E0002249FEF7B5FA054600289AD1A4692023B0
:1023F00083F31188636B013309D04FF0FF336362BD
:102400004FF4FA710B20FFF72BFF002825DB002388
:10241000636383F3118828461449BDE87040FEF7D2
:1024200097BA586380F3118896E7586380F3118850
:10243000A1E74FF0FF3373624FF4FA710A20FFF700
:102440000FFF002805DB756BC3E785F311880120BA
:10245000B4E785F311880120C2E785F311880125CF
:10246000D9E700BF9C140020B0090020049B00089D
:1024700010B52023044683F311888268531E002B75
:10248000836007DBE068C8B10368E360002383F37F
:10249000118810BD0846D9B10E4B9B695C62626819
:1024A0000520C3E9004213606360FFF7D9FE0028EE
:1024B000E8D00020002383F3118810BDA369002B0E
:1024C000F7D0D4E904019847002383F3118810BDA5
:1024D000A260DBE7B009002000000000000000005F
:1024E00008B5084B084801224FF47A711A60FFF7CB
:1024F000BFFFB0FA80F0BDE8084004494009FEF78C
:1025000027BA00BF9C14002010080020748E000819
:1025100061B1084A10B4926944680346C2E90034C4
:102520000420226010BC5A60FFF79ABE4FF0FF30C3
:10253000704700BFB009002000000000000000004C
:102540002DE9F04F85B0CDE90232C7694FF020097F
:1025500089F31188A2B3DDF80CB004460E464FF0A3
:10256000000AA2689345D4E904208CBFA5685D46A3
:10257000A2EB0008A84544D829D2A5EB080342469F
:1025800031460193FDF7B2FE06EB0801DDF8048049
:10259000E0684246FDF7AAFEA268E1684346CB1810
:1025A000521B6361A2600FB12046B8478AF31188BD
:1025B000ABEB050B2E4489F31188BBF1000FD0D192
:1025C0000398002383F3118805B0BDE8F08F2A46F5
:1025D0003146FDF78BFEE2686261A268521BA26081
:1025E000002DE0D102992046FFF792FF0028B8D0D5
:1025F000039BA3EB0B00002383F3118805B0BDE818
:10260000F08F2A463146FDF771FE62692A44626105
:10261000E3E700BF00000000000000000000000031
:102620003030FFF78DBF00BF000000000000000049
:1026300030304FF0FF33FFF783BF00BF00000000D2
:10264000F8B504460F461646202383F3118803E0AD
:10265000FFF75EFF002818DBA56831462046002DF5
:10266000F6D06269A368511C013B6161A3601770D9
:10267000D4E904329A4224BFE3686361E36903B199
:102680009847002080F31188F8BD85F31188F8BDC4
:102690003030FFF7D5BF00BF000000000000000091
:1026A00030304FF0FF32FFF7CBBF00BF000000001B
:1026B0002DE9F04F85B0CDE90232C7694FF020090E
:1026C00089F31188002A34D0DDF80CB004460E4698
:1026D0004FF0000AA268A169934522698CBFA568E2
:1026E0005D46A2EB0108A84544D829D2A5EB080312
:1026F000424630460193FDF7F9FD06EB0800DDF890
:102700000480E1684246FDF7F1FDA268E1684346B6
:10271000CB18521BA361A2600FB12046B8478AF3C1
:102720001188ABEB050B2E4489F31188BBF1000F28
:10273000D0D10398002383F3118805B0BDE8F08F52
:102740002A463046FDF7D2FDE268A261A268521B1C
:10275000A260002DE0D102992046FFF7D9FE0028A3
:10276000B8D0039BA3EB0B00002383F3118805B0C3
:10277000BDE8F08F2A463046FDF7B8FDA2692A442D
:10278000A261E3E70000000000000000000000007C
:102790000C30FFF78DBF00BF0000000000000000FC
:1027A0000C304FF0FF33FFF783BF00BF0000000085
:1027B00070B5202305460E4683F3118803E0FFF72A
:1027C000A7FE00281ADBAC6831462846002CF6D05C
:1027D000A969AB6828694A1C013B8242AB60AA61C7
:1027E00028BFEB680C7828BFAB61EB690BB12846BA
:1027F0009847002383F31188204670BD84F3118825
:1028000070BD00BF000000000000000000000000DC
:102810000C30FFF7CDBF00BF00000000000000003B
:102820000C304FF0FF31FFF7C3BF00BF00000000C6
:1028300008B50146202383F311880820FFF710FD17
:10284000002383F3118808BD000000000000000091
:102850002DE9F04F8046DFF82CB3A94BA948CBF8FF
:10286000003083B0FEF7BCF9D8F80030002B00F040
:10287000FB81A54C2A21DBF800000368DB68984740
:1028800014F8011F0029F6D1D8F80000FEF7A8F9C6
:102890009E489F4CFEF7A4F92A21DBF8000003684C
:1028A000DB68984714F8011F0029F6D199489A4C23
:1028B000FEF796F92A21DBF800000368DB689847E9
:1028C00014F8011F0029F6D19448954CFEF788F9B9
:1028D0002A21DBF800000368DB68984714F8011F21
:1028E0000029F6D18F48904CFEF77AF98748FEF719
:1028F00077F92A21DBF800000368DB68984714F8B1
:10290000011F0029F6D1894B89488A4CC01AFEF76D
:10291000B7F88948FEF764F92A21DBF8000003685C
:10292000DB68984714F8011F0029F6D1834B8448CF
:10293000844CC01AFEF7A4F87F48FEF751F92A210B
:10294000DBF800000368DB68984714F8011F0029D2
:10295000F6D17D4B7D487E4CC01AFEF791F8764843
:10296000FEF73EF92A21DBF800000368DB68984790
:1029700014F8011F0029F6D1764B77480191C01A4F
:10298000FEF77EF86C48FEF72BF95E48FEF728F953
:10299000D8F80430714A1B6801991170002B00F0BF
:1029A000FA808A4689464C24DBF8000003683D2102
:1029B000DB689847013CF7D1DBF800006849036801
:1029C000684C5B68022298473D21DBF800000368F1
:1029D000DB68984714F8011F0029F6D109F10109B5
:1029E0004846614CFEF74CF82021DBF800000368F4
:1029F000DB68984714F8011F0029F6D1D8F8043095
:102A000053F80A301C68217841B1DBF800000368F4
:102A1000DB68984714F8011F0029F6D15348FEF7E8
:102A2000DFF8D8F8042052F80A305B681B68002BE6
:102A300000F0AA804E4D00264E4FFEF759F9B40023
:102A40002D21DBF800000368DB68984717F8011FA9
:102A50000029F6D14846FEF713F8DBF80000424F94
:102A600003682E21DB68013698473046FEF708F8E8
:102A70002021DBF800000368DB68984717F8011F86
:102A80000029F6D1D8F8043053F80A305B681B5996
:102A90001F68397841B1DBF800000368DB689847AC
:102AA00017F8011F0029F6D13048FEF799F84FF4C6
:102AB000FA60FFF7BDFED8F804302F4A53F80A3009
:102AC0002E495B682A601F597B6800220A7003B197
:102AD0009847FB689847BB6803B19847274B1B781A
:102AE000002B74D12648FEF77BF8D8F8042052F862
:102AF0000A305B681C446368002B9DD144E000BF32
:102B0000E0080020F0990008149B0008109C0008C1
:102B10001C9B0008149C0008309B00082C9C00089B
:102B2000449B0008589C0008589B0008E0010008DE
:102B3000388E00086C9B000814930008388E00083B
:102B4000B4B40008809B000800080020DC080020C6
:102B5000949B0008E0080020981B0020F813002038
:102B60004C8E0008A89B0008BC9B0008849C0008B1
:102B7000B0140020C09B0008A0140020981400206E
:102B80008C9C0008F01300200AF1040A52F80A3065
:102B9000002B7FF408AFFEF7ABF8354C3548FEF755
:102BA0001FF84621DBF800000368DB68984714F83B
:102BB000011F0029F6D1304B1B78002B4CD02F4839
:102BC000FEF70EF82C4B187803B0BDE8F08F2C4FB1
:102BD0002D21DBF800000368DB68984717F8011F18
:102BE0000029F6D1274B284F1868FDF749FF20210F
:102BF000DBF800000368DB68984717F8011F00291D
:102C0000F6D12B68214A93420AD9204FDBF8000005
:102C100017F8011B0368DB6898472B689F42F5D3C0
:102C20001B4F5D21DBF800000368DB68984717F84D
:102C3000011F0029F6D1174B1F68397841B1DBF825
:102C400000000368DB68984717F8011F0029F6D1D8
:102C50001148FDF7C5FF48E71048FDF7C1FF064BD7
:102C6000187803B0BDE8F08F0D48FDF7B9FF0FE607
:102C7000F09B0008F0990008F8130020A09C0008C1
:102C8000D09B00089C140020E89B0008A0140020A2
:102C9000EC9B0008F4130020889C0008989C000816
:102CA000009C000800000000000000000000000080
:102CB00008B5094B094A9B69094C9A6120252E46A3
:102CC000668341F28830FFF7B3FD258341F28830F7
:102CD000FFF7AEFDF4E700BFB0090020A89C000894
:102CE00000000240000000000000000000000000A2
:102CF00008B5C0B2FDF7D4FEBDE808406420FFF778
:102D000097BD00BF000000000000000000000000B0
:102D100070B52B4E2B4D012333606C6A6420FFF796
:102D200087FD04F1670104F16400FDF7A9FB00B120
:102D300070BD022333606C6A4FF47A70FFF778FD40
:102D400004F2EB3104F57A70FDF79AFB0028EFD11D
:102D5000032333606C6A4FF47A70FFF769FD04F265
:102D6000EB3104F57A70FDF78BFB0028E0D10423EA
:102D700033606C6A42F21070FFF75AFD04F51C5183
:102D8000084610301331FDF77BFB0028D0D1052316
:102D900033606E6A202306F1640483F31188696A44
:102DA000611A09D1002383F3118806F167012046D7
:102DB000BDE87040FDF764BB0820FFF751FAF1E76A
:102DC0009C140020000C00400000000000000000E7
:102DD00008B50120FFF72CFD202383F31188034A57
:102DE0000023506A83F3118808BD00BF000C004027
:102DF0001F4A2DE9F84F01231360FFF7E9FF002474
:102E00001C4F1D4E1D4DDFF880B08046A2464FF08E
:102E1000200989F3118800233A4630460121FEF744
:102E20005FFB3A46002342F210712846FEF758FB3A
:102E30003046FEF715FB2846FEF712FB8AF3118891
:102E4000DBF8243042F20F72A3EB0803934204F143
:102E50000104DED9064A0A4802231360FDF7E0FEAA
:102E60006000FDF70DFEBDE8F84F0648FDF7B8BE5F
:102E70009C14002061070008CC140020E0140020FE
:102E8000B09C0008C09C0008000C0040000000003E
:102E900010B50B4CA269134653F82C0F984206D07C
:102EA0000168D1620D224B6080F8202010BD0E20F9
:102EB000FFF746F9A269D06A02F12C03F0E700BFE0
:102EC000B009002000000000000000000000000029
:102ED00070B52026002586F31188FFF7D9FF85F30A
:102EE0001188446A86F311882146FFF741F885F37B
:102EF0001188002CEFD170BD000000000000000020
:102F00000E4B10B520229C6982F311886162026B1E
:102F1000626000F12C012160146090F820200463AD
:102F20000E2A07D00C20FFF70BF9606A002383F309
:102F3000118810BDFEF724F9F4E700BFB0090020A6
:102F40002DE9F0410546FFF743FFDFF830800646E4
:102F5000002442F20F7701212846FFF7D1FFD8F86D
:102F600024309B1BBB4204F10104F4D92846002104
:102F7000FFF7C6FF2046BDE8F08100BF000C00400F
:102F800010B541210446FFF7BBFF20464221FFF761
:102F9000B7FF20464321FFF7B3FF20464421BDE899
:102FA0001040FFF7ADBF00BF0000000000000000B0
:102FB0000EB410B585B007AB01AA53F8044B0193CA
:102FC00002A9CDE90242FFF79BFF05B0BDE8104022
:102FD00003B0704700000000000000000000000087
:102FE00070B52E4B044680689D6930B3AA6883682B
:102FF000934207D290F820308260062B35D0072B01
:1030000020D09BB1234603E09968AA68914202D37D
:103010001B689C42F8D15A680620C5E90032156049
:103020005D606C62BDE87040FFF78AB8D0E900329D
:1030300013605A60FEF7A4F8E4E7AB6BC4E90253EF
:10304000AC6370BDD0E90031466A0B60596033460D
:1030500002E099688A4202D81B689E42F9D15A68F8
:10306000C0E9003210605860CCE7D0E90031466A10
:103070000B605960334602E099688A4202D81B68A7
:103080009E42F9D15A68C0E9003210605860B068B9
:10309000AA6883689342ADD3B4E700BFB0090020AB
:1030A00008B5202383F31188FFF79AFF002383F3E9
:1030B000118808BD000000000000000000000000B2
:1030C00010B5074CA269506241680346C2E900018D
:1030D0000A6005205A60FFF733F8A369586A10BDEB
:1030E000B009002000000000000000000000000007
:1030F0002DE9F041202382B0044683F311883A4D34
:10310000D5E90031013B034001EBC30251F8331014
:103110008A4203D11CE009688A4219D04B699C425B
:10312000F9D10B69002BF6D10B6A002B39DD4A6A05
:10313000D1E90204013B22F00102A060C460C1E9B0
:103140000832002383F31188084602B0BDE8F081FD
:10315000264F0026A7F130081AE0296AD1E9020CAF
:103160004A6A0B6ACCF80800013BC0F80CC022F098
:103170000100C1E90830D0061CD586F3118822234E
:103180004B6240462B6C01229847202383F3118821
:10319000AB6B013B002BAB63DFDA3846FFF790FFE8
:1031A000DBE7013B0B6201F118000191FFF788FF9B
:1031B0000199C6E7930704D5D1E900231A600A688C
:1031C0005360D5E90032013B4C611C4002EBC40066
:1031D00052F83430486000250A200B600D614862C7
:1031E000596042F83410ACE76C0900209C090020BB
:1031F00008B5202383F311888368013B002B83608B
:1032000004DB0020002383F3118808BDFFF758FF7B
:10321000002383F3118808BD0000000000000000B7
:103220002DE9F843DFF880801B4C1C4F0123C8F8C0
:103230000030FFF7CDFD0025064642F20F7920460B
:10324000FFF7D6FF2046FEF74BFF2046FFF7D0FFE3
:103250002046FEF745FF2046FFF7CAFF2046FEF74F
:103260003FFF2046FFF7C4FF2046FEF739FF7B6A89
:103270009B1B4B4505F10105E1D902230848C8F81D
:103280000030FDF7CDFCA800FDF7FAFBBDE8F843E0
:103290000448FDF7A5BC00BF7C0D0020000C0040D9
:1032A000B09C0008CC9C00089C140020000000008A
:1032B00038B5084CA36993F821305A0708D4064D55
:1032C0002846FFF795FFA36993F821305B07F7D5F0
:1032D00038BD00BFB00900207C0D002000000000B8
:1032E00010B5044C2046FFF783FF2046BDE8104090
:1032F000FEF7F6BE700D0020000000000000000088
:1033000010B504460348FFF773FF2078BDE810406E
:10331000FDF7C6BB700D002000000000000000009B
:10332000B64BB7491A6962F0870280B51A611A690B
:1033300002F087021A611A691A6A62F080521A62F0
:103340001A6A02F080521A624FF0FF32186A586A05
:103350005A6200205A6A58625A6A1A6C42F08052C5
:103360001A641A6E42F080521A661A6E0A6842F4A3
:1033700080720A601A6F02F44072B2F5007F86B064
:1033800003D04FF480321A6718679D4C9D4A6168DC
:103390009D4D9E4F99486023402621F40071616045
:1033A0004FF0800C82F806334FF48071C2F88061D0
:1033B00016604FF4007682F807332C46C2F880C1BD
:1033C000C2F800C082F80833C2F88011116082F898
:1033D0000933C2F8806116604FF4806682F80A33C0
:1033E000C2F8806116604FF4000682F81733C2F805
:1033F0008061166082F82833C2F88411516044F865
:10340000047B6C6005F15404002105F164034FF066
:10341000010EC5E9084405F10C06AC611024C5E9AC
:10342000036685F808E06961EB61AC63046CEB63EB
:1034300044F008040464046E754FAB6444F008045F
:103440000466006EB868734C6B6440F00800A962B3
:10345000ED622D65B8607048646042F20F77876254
:103460004FF0FF37C76281614163C1604160C0F8BE
:1034700014E0C0F800E005F1740082F832C328645B
:103480006648E8644FF4802C6548664E6867C2F869
:1034900084C1C2F804C005F13002634B2460C5E961
:1034A0000C22624AA160326006F10C02C6E90322D6
:1034B00003F110021A61C6E9011103F124027161DE
:1034C00014269E615A6203F128061C229E621A632A
:1034D00003F13C0603F14002DE631A6403F1440683
:1034E00004F11C025E64C4E907220426504A1A62F1
:1034F0009A63C3E900334F4A99605961D962DE612A
:103500005E634D484D4B6167C0E9002300220023F4
:10351000C4E90444C4E909710097CDE90423CDE965
:10352000011103916846FDF7ABFD6846FDF780FD8C
:10353000013EF7D100996269414B61678021A16327
:10354000E1664048A0640121C4E91042C4E919665B
:1035500084F8516084F8521003F12800136103F1DC
:103560002C02C4E90533C4E9160284F85010E6645D
:103570002266202484F3118862B6334B334AD9681B
:103580004FF6FF00014000F160400A43A0F60F3003
:10359000DA60C2682E4942F08072C2600A68102068
:1035A00042F001020A60D87783F8224086F311883E
:1035B00062B62848FEF7B4FD84F311882B7A012BFC
:1035C00011D10E4B0F4A196C41F400311964196E78
:1035D00041F400311966C02040211B6E82F8260399
:1035E000C2F8841151606A6F1B4B9A4264D01B4829
:1035F00040F2165340F62C2132E000BF0038024062
:103600000070004000E100E0E008002078B400080D
:10361000002004E0B0090020000C00400105000873
:1036200000440040500B0020280A0020C10400087C
:10363000710D0008981B0020480B0020008000201E
:10364000E0090020ECAC000800ED00E00003FA0502
:10365000001000E010AD000800100140001401400F
:10366000824208BF0B4693604024012042F22C1195
:10367000002314615061D160FF201360022114689F
:10368000526885F87800297283F311880C4A0D4836
:103690000D4D0E4C0E4E8021FEF79AFC2B699B04BB
:1036A000204604D4FFF7D4F83046FFF7D1F841F2B2
:1036B0008830FFF7BDF8F1E740F62C23D3E700BFD1
:1036C000B12C0008501A00200008024040B4000845
:1036D0004CAF0008000000000000000000000000E7
:1036E000EFF30983203383F30988002383F31188E0
:1036F000704700BF00000000000000000000000054
:1037000038B52022034682F311880F4A9469A06AD3
:10371000636204F12805A84206D00368A362FDF79E
:103720002FFDA06AA842F8D194F822303BB994F852
:1037300021309B0703D1D4E9043213615A61BDE8FB
:1037400038400F20FEF7FCBCB0090020000000004C
:10375000F8B5104F00253D70202686F31188FFF73D
:1037600097FB044685F31188436AD3E9002090470C
:10377000014686F311882046FEF7FAFB85F311888F
:103780003B78002BE9D0BDE8F84040F6A570FFF784
:10379000B7BF00BF6C0B002000000000000000005D
:1037A000FFF7AEBF000000000000000000000000B6
:1037B0000D4A10689169036830B401245A600025ED
:1037C00080F820408C681360906181F8205000E000
:1037D0001B689A689442FBD35A6830BCC1E9003236
:1037E00011605960FCF76CBDB009002000000000BA
:1037F000044B1A689B6992689B689A4200D870478C
:10380000FFF7D6BFB0090020000000000000000054
:1038100070B5202383F31188856881600135002D00
:103820000CDC04466FF001066068436863601C604E
:10383000FDF7A6FC0135012D4662F5D1FFF7D8FF53
:10384000002383F3118870BD000000000000000019
:103850002DE9F8432A4C2B4F012320463B60FFF70C
:10386000C7FC2026054686F31188A0682649B0FAD1
:1038700080F04009FDF76CF820B1002383F3118834
:10388000BDE8F88380F31188B5FA85F01F49400937
:10389000FDF75EF805460028F2D14FF002092046F8
:1038A000C7F80090FEF71CFC86F31188A068164943
:1038B000A0F10100B0FA80F04009FDF749F8804618
:1038C00018B185F31188BDE8F88380F311880323CC
:1038D000494620463B60FFF79BFF86F31188A068AE
:1038E0000949A0F10200B0FA80F04009FDF730F874
:1038F00010B980F31188C3E788F31188C0E700BFCF
:10390000700D00209C140020DC9C0008F09C000836
:1039100001480021FFF77CBF700D0020000000006F
:1039200038B5202383F31188154CA3685A1C002A4C
:10393000A26019DD002BA36006DBFFF759FF002012
:10394000002383F3118838BD0E4A6368956905200A
:10395000C5E900431D606C626560FEF7F1FB686AB3
:10396000002383F3118838BD2068036823605C60FE
:10397000FDF706FCA36800224262013BDAE700BFC4
:10398000700D0020B00900200000000000000000C1
:1039900038B51E4B1E4D9B691E4A99681E481F4C28
:1039A000012301312B600023FEF712FB1C4A022386
:1039B00010602B60FFF7B4FF20681A49001BB0FAB3
:1039C00080F04009FCF7C4FF00B138BDA06816497B
:1039D000B0FA80F04009FCF7BBFF0028F5D10323C3
:1039E0002B60FFF79DFF20680E49001BB0FA80F0A6
:1039F0004009FCF7ADFF0028E7D1A0680A49B0FAFA
:103A000080F0BDE838404009FCF7A2BFB0090020B3
:103A10009C140020E1320008880D0020700D002069
:103A2000B4140020089D0008189D00080000000044
:103A300038B5202383F311880A4C2368012204F14E
:103A400018000025C4E9023322752561FDF738FC12
:103A500004F12000FDF734FCFFF7CAFE85F311885E
:103A600038BD00BF4C08002000000000000000002E
:103A7000FFF7DEBF000000000000000000000000B3
:103A8000FFF7F6BF0000000000000000000000008B
:103A9000FFF7EEBF00000000000000000000000083
:103AA0002DE9F041202306460D4683F31188174C7B
:103AB00004F118080AE0D4E900272369A7EB020CF7
:103AC000B3EBAC0F0ED1FEF723FD30B9237D2946B1
:103AD0004046002BEFD06FF00100002383F31188E4
:103AE000BDE8F081E1680A4804398A4288BF391F7D
:103AF000E16001330E602361FDF75AFBFFF778FEAA
:103B00000020002383F31188BDE8F0814C080020D9
:103B10006C08002000000000000000000000000011
:103B20002DE9F84FCC4ECD4931610821316006F1C5
:103B300030010120C6E90C110021C94AF062C6E932
:103B4000051106F12400C74BC74C3364C6E90900D0
:103B500006F11407042013467260F46337624032A2
:103B6000B063B060C3E9003308339342FAD1BB4B72
:103B7000BE4903F1F00C0125002200E0034603F1E9
:103B80003C0003F118046045C3E90217C3E9064489
:103B90001D62CB60C3E90422C3E909521946EDD185
:103BA000B34BDFF8ECB2F361DFF8D092DFF8E482D8
:103BB000DFF8A4A20223CBF8003000273846FFF735
:103BC00097FA0446406A4946C0F34000FCF7C0FE3D
:103BD0004146002840F03D81606AC0F3C000FCF718
:103BE000B7FE20230546002840F0338183F3118877
:103BF00021465046FDF7F4FBFFF7FAFD85F31188E7
:103C00000137082FDAD19B499B48FDF721F805467B
:103C1000002840F01E810323984FDFF87092DFF8F0
:103C20003882CBF800302846FFF762FA0446406A33
:103C30003946C0F34000FCF78BFE4946002840F0AF
:103C40000881606AC0F3C000FCF782FE024621468C
:103C50004046002A40F0FD80636AD6F83CA043F05D
:103C600008036362D04780F001008549C0B2FCF7C9
:103C70006FFE3946002840F0EC80606AC0F34000D7
:103C8000FCF766FE7F49002840F0E380606A80F020
:103C90000800C0F3C000FCF75BFE2023824600282A
:103CA00040F0D78083F3118821464046FDF798FB0A
:103CB000FFF79EFD8AF311880135082DB3D16D49B8
:103CC0007148FCF7C5FF0546002840F0C280042378
:103CD0006A4FDFF8B891DFF88081CBF800302846D2
:103CE000FFF706FA0446406A3946C0F34000FCF785
:103CF0002FFE4946002840F0AC80606AC0F3C00047
:103D0000FCF726FE0346012221464046002B40F0E8
:103D1000A080636AD6F83CA043F008036362D047F2
:103D200080F001005649C0B2FCF712FE0346284657
:103D3000002B40F08E80FFF7DBF90446406A3946DD
:103D4000C0F34000FCF704FE4E49002840F081809B
:103D5000606A80F00800C0F3C000FCF7F9FD202382
:103D60008246002875D183F3118821464046FDF72D
:103D700037FBFFF73DFD8AF311880135082DAED1E1
:103D80003C494148FCF764FF002862D10523DFF875
:103D9000EC803C4FDFF8C090CBF800300426304672
:103DA000FFF7A6F90446406A4146C0F34000FCF71D
:103DB000CFFD394600284CD1606A80F00800C0F37E
:103DC000C000FCF7C5FD20230546002841D183F340
:103DD000118821464846FDF703FBFFF709FD85F3EF
:103DE00011880136082EDAD122492348FCF730FF2A
:103DF000044670BB0623DFF88480244FDFF8589018
:103E0000CBF800302046FFF773F90546406A41467B
:103E1000C0F34000FCF79CFD3946D0B9686AC0F396
:103E2000C000FCF795FD2023064690B983F3118866
:103E300029464846FDF7D4FAFFF7DAFC86F31188E5
:103E40000134042CDED1BDE8F84F0A490A48FCF7DA
:103E5000FFBEBDE8F88F00BF6C090020700C002089
:103E6000700B0020D10A0008A13E00088009002044
:103E7000240D0020509D0008F09900082C9D00089A
:103E8000649D0008749D0008809D0008789D0008CE
:103E90009C140020389D0008000000000000000075
:103EA0004B6970B561330C460646D8B21546FCF72F
:103EB000F7FD636A23F0080363620DB9002070BD4B
:103EC000202383F3118821463046FDF789FAFFF756
:103ED0008FFC002383F31188002070BD00000000D8
:103EE00038B5202585F311880B480021FDF728FA05
:103EF0000024FFF77DFC84F311884FF4FA70FEF77D
:103F000097FC85F3118805482146FDF719FAFFF75C
:103F10006FFC84F3118838BD080800200C080020CD
:103F200010B504464FF4FA70FEF782FC202383F3A9
:103F3000118801212046FDF7EBF9FFF759FC00231A
:103F400083F3118810BD00BF0000000000000000D6
:103F500010B540F2DC50FEF76BFC202383F3118890
:103F6000064C2046FFF73CF82046FDF701FAFFF724
:103F70003FFC002383F3118810BD00BF3C080020E4
:103F80002DE9F041614E84B0012301AD4FF00008EE
:103F9000CDE901553360CDF80C80202787F31188D7
:103FA00003985B494045CCBF00200120FCF7D0FCC2
:103FB00020B188F3118804B0BDE8F081044680F395
:103FC00011880223014628463360FFF721FC87F35E
:103FD000118803984E490028CCBF00200120FCF72F
:103FE000B7FC8046002872D180F31188494B4A4AB9
:103FF0009B694A48996803242B4601393460FDF7D0
:10400000E7FF474A01460423284611603360FFF763
:10401000EFF8044687F3118803983D490028CCBF88
:1040200000200120FCF794FC0028C2D180F3118805
:10403000B4FA84F03B494009FCF78AFC0028BAD165
:104040000523336087F31188039B002B44DDFFF7C2
:10405000CFFB4FF0000888F31188202787F31188E1
:10406000039831494045D4BF00200120FCF770FC83
:10407000044600289DD180F3118887F311880398A6
:104080002A49A0F10100B0FA80F04009FCF760FC79
:10409000E8B980F311880623336087F31188039B06
:1040A000002B2FDDFFF7A4FB002585F311882026C8
:1040B00086F3118803981E49A842D4BF002001202E
:1040C000FCF746FC044658B185F3118873E784F386
:1040D000118804B0BDE8F0812846FDF771F9B6E714
:1040E00080F3118886F3118803981049A0F101002C
:1040F000B0FA80F04009FCF72BFC0028E7D180F3F0
:10410000118858E72846FDF75BF9CBE79C1400209F
:104110008C9D0008B009002071410008880D002026
:10412000B4140020989D0008AC9D0008B89D0008BC
:10413000909D00080000000000000000000000004A
:1041400008B54FF4FA70FEF773FB202383F3118850
:104150000448FDF735F9FFF74BFB002383F3118883
:1041600008BD00BF700D002000000000000000002E
:1041700008B5202282F311888368002B05DDFFF744
:1041800037FB002383F3118808BDFDF719F9FFF70A
:104190002FFB002383F3118808BD00BF000000003F
:1041A00010B52023044683F31188094B186820B109
:1041B000002242621A60FCF7E3FFFFF719FB0023BD
:1041C00083F311882078BDE81040FCF769BC00BF7C
:1041D000C8140020000000000000000000000000E3
:1041E0002DE9F04105460C4616464FF02008002701
:1041F00088F31188EB6823602846EC60FDF7E0F84F
:10420000FFF7F6FA87F311882B69013E1C44EFD1C2
:10421000BDE8F08100000000000000000000000088
:104220002DE9F0473248334F3349DFF8D48001237A
:10423000042206463B60FFF7D3FF02233B6035466E
:10424000042400212846FEF713F9003818BF012086
:104250004146FCF77DFB002848D1013CF1D1032306
:10426000214623483B60FEF703F9B0FA80F023496A
:104270004009FCF76DFB002838D11F4DDFF870A016
:10428000042305F110093B604FF020082B4688F30A
:104290001188F26845F8042B5046F360FDF790F85A
:1042A000FFF7A6FA84F311884D45EFD10523104E90
:1042B000134D3B60042400213046FEF7D9F8003846
:1042C00018BF01202946FCF743FB78B9013CF2D125
:1042D0002146062306483B60FEF7CAF8B0FA80F094
:1042E000BDE8F04705494009FCF732BBBDE8F0875F
:1042F000100800209C140020600D0020748E00081F
:10430000688E0008000000000000000000000000AF
:10431000F8B504460E461546202383F31188C718C6
:1043200004E023696BB9FEF7F3F830B9237D294621
:104330003846002BF5D06FF00100002383F311887D
:10434000F8BDE2686168106804328A42E26003F1F5
:10435000FF3328BF2268306028BFE260236104F188
:104360001800FCF725FFFFF743FA0020002383F332
:104370001188F8BD000000000000000000000000EF
:104380002DE9F041114E82B006F11C07B0464FF006
:10439000FF3201A93846FFF7BBFF044610B102B057
:1043A000BDE8F081019D2B68002BF8D06868984724
:1043B000202383F31188F3682B604046F560FCF7F7
:1043C000FFFFFFF715FA84F31188E0E7EC0B0020FC
:1043D0002DE9F041202304460E46154683F311884B
:1043E00000F118080AE0D4E900722369A2EB070C77
:1043F000B3EBAC0F0ED1FEF78BF830B9237D294615
:104400004046002BEFD06FF00100002383F31188AA
:10441000BDE8F081A068011D8A4203F10103A1609B
:10442000066098BFA760236104F12000FCF7C0FE7E
:10443000FFF7DEF90020002383F31188BDE8F08147
:104440002DE9F041434FDFF81481434E012382B040
:104450003B604546422421464FF0FF322846FFF795
:10446000B7FFB0FA80F0314640090134FCF770FA2A
:1044700090B9462CEFD102230122582137483B60E6
:10448000FFF7A6FFA0F1FF30B0FA80F032494009F3
:10449000FCF75EFA044610B102B0BDE8F0812025B9
:1044A00085F311885820FCF793FE84F31188A0F15E
:1044B000FF30B0FA80F028494009FCF749FA00289B
:1044C000EAD101215820FFF7EBFAA0F1FF30B0FA52
:1044D00080F021494009FCF73BFA04460028DBD173
:1044E00085F311885820FCF79BFE84F31188A0F116
:1044F000FF30B0FA80F018494009FCF729FA044669
:104500000028C9D103233B60FFF792FA042301A9D5
:104510000122124888F814403B60FFF7F9FEA0F131
:10452000FF30B0FA80F00C494009FCF711FA04465C
:104530000028B1D185F3118801A8FCF799FE84F316
:104540001188A0F1FF30B0FA80F003494009FCF770
:10455000FFF9A1E79C140020CC9D00084C08002026
:104560002DE9F047AF4F4FF0010882B0C7F8008047
:10457000202686F31188AC4CAC492069D4E900238D
:104580009B1AC0EBA300A0F10400B0FA80F0400930
:10459000FCF7DEF928B1002383F3118802B0BDE8EF
:1045A000F087054680F3118802233B6086F311886B
:1045B0002368206104F11800C4E9023384F81480F0
:1045C000FCF77EFE04F12000FCF77AFE85F31188EB
:1045D00086F31188D4E90023206995499B1AC0EB22
:1045E000A300A0F10400B0FA80F04009FCF7B0F994
:1045F000804688B980F3118886F3118820698D4937
:10460000B0FA80F04009FCF7A3F9054648B188F3F9
:10461000118802B0BDE8F08785F3118802B0BDE8CB
:10462000F08780F3118886F311882068A368824997
:10463000C01AB0FA80F04009FCF78AF980460028D9
:10464000EAD180F3118886F311882068E3687B49FA
:10465000C01AB0FA80F04009FCF77AF90546002844
:10466000D5D180F311880323DFF8D4A120753B60F6
:104670004FF0420986F311884846FCF7A9FD85F3FF
:104680001188B0FA80F040095146FCF761F909F150
:1046900001098046002881D1B9F1450FEAD186F39E
:1046A00011884120FCF7BCFD88F31188B0FA80F036
:1046B00063494009FCF74CF9054600287FF46EAFCA
:1046C0004FF00409C7F8009086F31188D4E900136D
:1046D00022695B1AB2EBA30F5A490CBF01200020DC
:1046E000FCF736F98046002896D180F3118886F3CE
:1046F000118820695449A0F10400B0FA80F0400903
:10470000FCF726F90546002881D180F3118886F34D
:104710001188D4E90230C01AB0FA80F04B49400940
:10472000FCF716F900287FF477AF80F31188052392
:10473000434E3B6005464FF0200888F3118801A8DE
:10474000FCF796FD85F31188B0FA80F040093146F8
:10475000FCF7FEF800287FF421AF9DF80400FCF779
:104760009FF9B9F10109E8D139493A48FCF770FAE3
:1047700000287FF413AF062346212B483B604FF0FF
:10478000FF32FFF725FEB0FA80F02D494009FCF713
:10479000DFF800287FF402AF01A923484FF0FF3271
:1047A000FFF7B6FDB0FA80F025494009FCF7D0F8D4
:1047B00000287FF4F3AE07233B6088F31188D4E927
:1047C00000122369521AC3EBA203191F4842484141
:1047D0001749FCF7BDF808BB89F3118888F31188E5
:1047E00020691449B0FA80F04009FCF7B1F8A8B983
:1047F00089F311882068A3680F49C21A50425041BA
:10480000FCF7A6F800287FF4C9AE2068E3680B49DE
:10481000C31A58425841FCF79BF8BFE689F3118848
:10482000BCE600BF9C1400204C080020E49D00085A
:10483000F09D0008FC9D0008089E00082C9E0008C2
:10484000CC9D0008509E00085C9E0008689E0008F1
:10485000809E0008949E00080000000000000000F8
:104860002DE9F041BB4F012382B03B60202686F347
:104870001188B94CB9492069D4E900239B1AC0EBCF
:10488000A300A0F10400B0FA80F04009FCF760F842
:1048900028B1002383F3118802B0BDE8F0810546FA
:1048A00080F3118802233B60FFF7C2F886F311887A
:1048B000D4E900232069AA499B1AC0EBA300A0F108
:1048C0000400B0FA80F04009FCF742F8804688B94D
:1048D00080F3118886F311882069A249B0FA80F02C
:1048E0004009FCF735F8054648B188F3118802B055
:1048F000BDE8F08185F3118802B0BDE8F08180F356
:10490000118886F311882068A3689749C01AB0FA05
:1049100080F04009FCF71CF880460028EAD180F3BB
:10492000118886F311882068E3689049C01AB0FAAC
:1049300080F04009FCF70CF80028D6D180F31188EC
:10494000032301464FF0FF3220463B60FFF740FD56
:10495000811C14BF002001208549FBF7F9FF0028C6
:104960009AD14FF0FF31FFF79BF8821C14BF002053
:1049700001207F49FBF7ECFF00288DD101A94FF002
:10498000FF322046FFF7C4FC831C14BF0020012027
:104990007749FBF7DDFF00287FF47EAF0423DFF8C3
:1049A000D48120753B604225264629464FF0FF32D0
:1049B0003046FFF70DFDB0FA80F041464009013561
:1049C000FBF7C6FF00287FF467AF452DEDD14FF010
:1049D000FF314120FFF764F8B0FA80F065494009E3
:1049E000FBF7B6FF054600287FF456AF05233B6072
:1049F0004FF0200888F31188D4E9001322695B1A6C
:104A0000B2EBA30F5C490CBF01200020FBF7A0FF15
:104A1000064600287FF46EAF80F3118888F3118872
:104A200020695649A0F1040CDCF1000040EB0C00B9
:104A3000FBF78EFF054610B186F311882CE780F353
:104A4000118888F31188D4E90230C61A7042704187
:104A50004B49FBF77DFF00287FF44CAF80F31188B2
:104A60000623DFF8F480434E3B60042501A94FF094
:104A7000FF324046FFF74CFCB0FA80F03146400967
:104A8000FBF766FF00287FF407AF9DF80400FCF7F2
:104A900007F8013DEAD13B493B48FCF7D9F800282B
:104AA0007FF4FAAE072346212B483B604FF0FF32DC
:104AB000FFF78EFCB0FA80F02E494009FBF748FF63
:104AC00000287FF4E9AE01A923484FF0FF32FFF739
:104AD0001FFCB0FA80F027494009FBF739FF002896
:104AE0007FF4DAAE08233B60202686F31188D4E9F0
:104AF00000122369521AC3EBA203191F484248410E
:104B00001749FBF725FF00287FF4F4AE85F31188E1
:104B100086F3118820691349B0FA80F04009FBF749
:104B200017FF00287FF4E6AE85F311882068A3689C
:104B30000D49C21A50425041FBF70AFF00287FF48A
:104B4000ABAE2068E3680949C31A58425841FBF7E5
:104B5000FFFEA1E69C1400204C080020E49D000804
:104B6000F09D0008FC9D0008089E00082C9E00088F
:104B70009C9E0008CC9D0008509E00085C9E00088A
:104B8000689E0008809E0008949E000800000000B7
:104B900038B5164B01469D69202383F311880068C0
:104BA000CB68AB6388421BD0EC6B4BB11A68934265
:104BB00003D09268944238BF1446DB68002BF5D1CD
:104BC000826B0368AC600B605960C1E902028163CB
:104BD000FCF7D6FAFEF70CFE002383F3118838BDEC
:104BE00000238360002383F3118838BDB0090020BF
:104BF0002DE9F843384E002818BF064606F10C0888
:104C00004046CF1D0D46FEF74BFA7268FF08311D76
:104C10000AB919E01A46D2F804C002F10F0323F0D2
:104C200007030CF10104994602EBC404083BA4EB12
:104C30000900A3424FEAE00E02D2B7EBE00F13D90E
:104C400013681146002BE5D14046FFF7A1FF3368FA
:104C5000BBB30822F80011469847814608B140E9E5
:104C600002654846BDE8F883934218D867452CD0C2
:104C7000013702EBC70000F10803E31ADB101468E8
:104C800042F8374002F10809436008601346404685
:104C9000C3E90065FFF77CFF4846BDE8F88302F1F1
:104CA0000801591AC91077455160F0D27C1CF943AC
:104CB00003EBC40017687144416043F8347010601E
:104CC000E5E799464846BDE8F8839146134659F80A
:104CD000082B0A60DBE700BF500B0020000000003B
:104CE0002DE9F041054686B00F4601461148904631
:104CF0001E46FFF77DFF0446C0B10F4BCDF80C8078
:104D00000544CDE904360295CDE90070202383F3F4
:104D100011886846FCF7BCF9012380F82130002196
:104D20000446FDF725F9002383F31188204606B0D9
:104D3000BDE8F081B00B0020D10B0008000000009E
:104D4000F8B50C68A1420D460646174603D10DE0A2
:104D50002468A5420AD008223146A01803F0FAFFC1
:104D60000028F5D114B104462046F8BD394600208C
:104D7000FFF73EFF04460028F6D0082231461044D3
:104D800004F026F82B680122C4E9003220462C608A
:104D9000F8BD00BF0000000000000000000000009F
:104DA0002DE9F04F334D2C7D83B01CB1002003B0B2
:104DB000BDE8F08F824605F13000FEF771F9DFF8AB
:104DC000BC800194574605F120091DE0FBF78EFADF
:104DD000286808EB06015A46FBF788FA2B68484614
:104DE0005B44AB60FFF7D4FE3F1BA044202383F35A
:104DF0001188E869002118B1019BEB61FDF7B8F853
:104E0000019B83F3118837B34846FEF749F9D5E98A
:104E100000462B69A868341BE41ABC4228BF3C46F4
:104E2000361A2344B4422B611CD332464146A4EBCC
:104E3000060BCBD82246FBF759FA2B68AB604846E5
:104E4000FFF7A6FE002CCFD1202383F3118884F333
:104E50001188AAEB070A0848FFF79AFE504603B0EC
:104E6000BDE8F08F22464146FBF740FAAB68234489
:104E7000AB60E4E78C080020BC0800207CAF000891
:104E80002DE9F04F324C257D83B01DB1002003B0D9
:104E9000BDE8F08F8A46804604F14000FEF700F935
:104EA0005746019504F120091DE0FBF71FFA216820
:104EB00008EB06005A46FBF719FA236848465B449C
:104EC000E360FFF765FE7F1BA844202383F311886E
:104ED000A069002118B1019BA361FDF749F8019B6E
:104EE00083F311882FB34846FEF7DAF8D4E90313A9
:104EF0006668BB421D46A6EB010628BF3D465B1B0C
:104F0000B54223611CD33246A5EB060B4046CCD8F4
:104F10002A46FBF7EBF92368E3604846FFF738FEC3
:104F2000002DD0D1202383F3118885F31188AAEBBB
:104F3000070A0848FFF72CFE504603B0BDE8F08F83
:104F40002A464046FBF7D2F9E3682B44E360E4E7E6
:104F50008C080020CC0800200000000000000000A9
:104F600030B5224D85B00123102168462B60FFF734
:104F700087FFB0FA80F01E494009FBF7E9FC40B911
:104F80001C4C2268E36893421DD01B49FBF7E0FCF0
:104F900008B105B030BD022310202B60FFF700FFE1
:104FA000A0F10800B0FA80F011494009FBF7D0FCED
:104FB0000028EED1D4E9022393420CD00E49FBF72E
:104FC000C7FC05B030BDA2689342DED12069B0FABB
:104FD00080F04009D9E722689342EFD12069A0F11F
:104FE0000800B0FA80F04009E8E700BF9C140020F8
:104FF000E49D00088C080020B09E0008000000001E
:1050000038B505460748FEF74BF8074A0748111F11
:10501000FCF73EFF044600B105610248FFF7B8FD0A
:10502000204638BD280A00203C0A0020C49E000803
:1050300038B5074D2846FEF733F805F1100105484D
:10504000FCF706FF04462846FFF7A2FD204638BDC0
:10505000280A0020C49E0008000000000000000094
:1050600010B50A48FEF71CF809490A488022FFF7E4
:1050700067FE044620B180220021103003F01AFEA2
:105080000248FFF785FD204610BD00BF280A00201A
:105090004C0A0020CC9E0008000000000000000028
:1050A00038B5074D2846FDF7FBFF05F124010548FB
:1050B000FCF7CEFE04462846FFF76AFD204638BDC1
:1050C000280A0020CC9E000800000000000000001C
:1050D00010B50A48FDF7E4FF094A0A48111FFCF71A
:1050E000D7FE044628B100F11003C0E904330022C2
:1050F00082610248FFF74CFD204610BD280A0020BF
:10510000540A0020D49E00080000000000000000A7
:1051100038B5074D2846FDF7C3FF05F128010548BE
:10512000FCF796FE04462846FFF732FD204638BDC0
:10513000280A0020D49E00080000000000000000A3
:1051400038B51148FDF7ACFF104911487822FFF738
:10515000F7FD044698B100F1380304F1280104F189
:105160003002C4E90633C4E90A11C4E90C2200F193
:105170007805002023616561206284F824000248DC
:10518000FFF706FD204638BD280A0020640A0020EB
:10519000DC9E00080000000000000000000000008D
:1051A00038B5074D2846FDF77BFF05F13C01054862
:1051B000FCF74EFE04462846FFF7EAFC204638BDC1
:1051C000280A0020DC9E000800000000000000000B
:1051D00070B51848FDF764FF174918484FF4CA72B4
:1051E000FFF7AEFD044600B3002600F1940510223F
:1051F00004231030C4E908232946C4E90400E66109
:10520000A662A661FEF7ECFF04F1540304F1440129
:1052100004F14C02C4E90D33C4E91111C4E91322AD
:105220002563E66384F84060E3620248FFF7B0FC60
:10523000204670BD280A0020680A0020E49E00086D
:1052400038B5074D2846FDF72BFF05F1400105480D
:10525000FCF7FEFD04462846FFF79AFC204638BDC1
:10526000280A0020E49E0008000000000000000062
:1052700038B51548FDF714FF144915487022FFF79B
:105280005FFD0446D8B100F16002002300F1700513
:10529000C4E90622303004F14001226104F15002D9
:1052A000C4E90A33C4E90C00C4E91011C4E91422AA
:1052B0006561236284F82430A363A364A365024874
:1052C000FFF766FC204638BD280A00206C0A002043
:1052D000EC9E00080000000000000000000000003C
:1052E00038B5074D2846FDF7DBFE05F144010548BA
:1052F000FCF7AEFD04462846FFF74AFC204638BDC1
:10530000280A0020EC9E00080000000000000000B9
:1053100070B51F4C1F4E012584B004F1200035608C
:10532000FDF7BEFE236825750022C4E90233226121
:10533000202383F31188A06928B16FF00103436231
:10534000A261FBF71DFFE06930B16FF0010343621A
:105350000023E361FBF714FFFEF74AFA002585F30B
:1053600011880D48FFF714FC2268E368934206D0C9
:1053700028460A49FBF7ECFA90B104B070BDA26868
:105380009342F5D12569B5FA85F04009F1E700BFF0
:105390008C0800209C140020AC080020B09E00085F
:1053A000022310203360FFF7FBFCB0FA80F0C34902
:1053B0004009FBF7CDFA0028DFD12268E368934269
:1053C00000F08D81BE49FBF7C3FA0028D5D1032335
:1053D000102168463360FFF753FDB0FA80F0B749FB
:1053E0004009FBF7B5FA0028C7D12268E368934269
:1053F00000F08781B249FBF7ABFA0028BDD12268E3
:10540000E368207504219342316000F07181AC495A
:10541000FBF79EFA0028B0D1052310203360FFF778
:10542000BFFCA0F11000B0FA80F0A6494009FBF7DC
:105430008FFA0028A1D12268E368934200F06A81C4
:105440009F49FBF785FA002897D10623102168466B
:105450003360FFF715FDA0F11000B0FA80F0994914
:105460004009FBF775FA002887D12268E368934268
:1054700000F05B819249FBF76BFA00287FF47DAF67
:10548000914B009A9A4200F0598101208F4980F097
:105490000100FBF75DFA00287FF46FAF07230420BB
:1054A0003360FFF77DFCA0F10400B0FA80F085497D
:1054B0004009FBF74DFA00287FF45FAFD4E90223DF
:1054C000934203D02268934200F053817C49FBF75A
:1054D0003FFA00287FF451AF08230C203360FFF718
:1054E0005FFCA0F10C0EDEF1000040EB0E007549F0
:1054F000FBF72EFA00287FF440AF2268E36893425E
:1055000000F03C816E49FBF723FA00287FF435AFA9
:105510000923042168463360FFF7B2FC051F684287
:1055200068416849FBF714FA00287FF426AF236826
:10553000E2689A4203D0A268934200F04581604934
:10554000FBF706FA00287FF418AF00985E4B5F491E
:10555000C21A50425041FBF7FBF900287FF40DAF0F
:105560000A230C2168463360FFF78AFCA0F10C0384
:10557000584258415349FBF7EBF900287FF4FDAE40
:105580002268E368934200F005814D49FBF7E0F99A
:1055900000287FF4F2AE69464D480C2203F05AFB16
:1055A000B0FA80F049494009FBF7D2F900287FF4AE
:1055B000E4AE0B2305203360FFF7F2FBA0F1050EEC
:1055C000DEF1000040EB0E003E49FBF7C1F9002878
:1055D0007FF4D3AED4E90223934203D022689342EE
:1055E00000F0E1803649FBF7B3F900287FF4C5AE3F
:1055F0000C23052168463360FFF742FC451F6842D3
:1056000068413049FBF7A4F900287FF4B6AED4E92D
:105610000223934200F0E8802949FBF799F900281A
:105620007FF4ABAE69462A48052203F013FBB0FABB
:1056300080F026494009FBF78BF900287FF49DAEE6
:105640000D2310203360FFF7ABFBA0F1100148429F
:1056500048411C49FBF77CF900287FF48EAED4E961
:105660000223934200F0B6801549FBF771F9002838
:105670007FF483AE0E23102168463360FFF700FCF1
:10568000A0F11003584258410E49FBF761F9002878
:105690007FF473AED4E90223934200F08C80084972
:1056A000FBF756F900287FF468AE694610220848D7
:1056B00003F0D0FAB0FA80F00CE000BFF49E0008CE
:1056C000B09E0008E49D000830313233009F00088E
:1056D0007CAF000849494009FBF73AF94DE6A2685A
:1056E00093427FF46FAE2069B0FA80F0400969E61A
:1056F000A26893427FF48BAE2069B0FA80F0400933
:1057000085E6A26893427FF475AE2069B0FA80F016
:1057100040096FE6A26893427FF492AE2069A0F13F
:105720001000B0FA80F040098AE6A26893427FF444
:10573000A1AE2069B0FA80F040099BE6019A03F11E
:1057400004339A427FF4A1AE03F13063029A03F569
:10575000302303F204439A427FF497AE03F180634F
:10576000039A03F5812303F20B339A427FF48DAE43
:105770008CE62069031F58425841A7E6A26893426D
:105780007FF4C0AE2069A0F1100CDCF1000040EB0A
:105790000C00B7E6A26893427FF4F7AE2069B0FA36
:1057A00080F04009F1E62069A0F1050CDCF1000071
:1057B00040EB0C0016E7226893423FF470AF20697B
:1057C000B0FA80F040096AE72069A0F10C01484274
:1057D0004841B4E6226893423FF446AF2069A0F105
:1057E0001002504250413FE7226893423FF414AF09
:1057F0002069B0FA80F040090EE700BF009F000862
:105800002DE9F843DFF880801B4C1C4F0123C8F8BA
:105810000030FDF7DDFA0025064642F20F792046FA
:10582000FDF73EFC2046FFF7B3F92046FDF738FCB4
:105830002046FFF7ADF92046FDF732FC2046FFF782
:10584000A7F92046FDF72CFC2046FFF7A1F97B6A5B
:105850009B1B4B4505F10105E1D902230848C8F817
:105860000030FBF7DDF9A800FBF70AF9BDE8F843C3
:105870000448FBF7B5B900BF600C0020000C0040E5
:10588000B09C0008149F00089C1400200000000039
:10589000F8B504461B48FDF703FC1B48FDF700FC68
:1058A000202383F31188194DAB699E6B3046FBF7BB
:1058B0005FFD174BAA691946536203E09F68906821
:1058C000874202D31B688B42F8D159680720C2E98E
:1058D00000310A605A60FCF733FCAB695B6A013344
:1058E00002D03046FDF77CFB002383F3118820783B
:1058F000FBF7D6F80448FFF74BF9BDE8F84001483C
:10590000FFF746B93C0800202C080020B009002011
:10591000000800200000000000000000000000005F
:1059200070B505461648FDF7BBFB202383F31188AD
:10593000144B9C69A66B3046FBF71AFD124A626253
:10594000134603E09868A168884202D31B6893421B
:10595000F8D15A680720C4E9003214605C60FCF793
:10596000EFFB3046FDF73CFB002383F311882878DA
:10597000FBF796F8BDE870400148FFF709B900BF92
:105980002C080020B00900200008002000000000C2
:1059900038B5064D04462846FDF782FB2078FBF714
:1059A0007FF82846BDE83840FFF7F2B83C080020F1
:1059B0002DE9F8434F4D504CAA69022396682360A5
:1059C000FAF72EFD4D49FAF7C3FF08B1BDE8F88399
:1059D00003232360FAF724FD80F001004849C0B298
:1059E000FAF7B6FF0028F1D1464F0423384623606A
:1059F000FFF7CEF8B8684449B0FA80F04009FAF7EA
:105A0000A7FF0028E2D138684049C01BB0FA80F0F7
:105A10004009FAF79DFF0028D8D1AB693C49986846
:105A2000801BB0FA80F0052340092360FAF790FF4D
:105A30000028CBD106232360FAF7F2FC2F49FAF7AE
:105A400087FF0028C2D1FAF7EBFC80F001002C4957
:105A5000C0B2FAF77DFF0028B8D1202383F3118864
:105A6000D5F81890D9F83830DBB180461A68D96873
:105A7000C9F838109342104637D0D2F838C01168B0
:105A800019604B60C3E9022C9363FBF779FBD9F8EB
:105A90003830002BEAD1D9F83C30C9F80830FDF78E
:105AA000A7FE002383F31188B8681749B0FA80F085
:105AB0004009FAF74DFF002888D138681349C01B08
:105AC000B0FA80F04009FAF743FF00287FF47EAF78
:105AD000AB690F499868801B0723B0FA80F02360F8
