:020000040800F2
:1000000000040020390200083B0200083B020008FF
:100010003B0200083B0200083B0200083B020008CC
:100020003B0200083B0200083B020008119C00084C
:100030003B0200083B0200083B0200083B020008AC
:100040003B0200083B0200083B0200083B0200089C
:100050003B0200083B0200083B0200083B0200088C
:100060003B0200083B0200083B02000891BF000869
:1000700071BF000851BF000831BF000811BF000860
:10008000F1BE0008D1BE00083B0200083B02000898
:100090003B0200083B0200083B0200083B0200084C
:1000A0003B0200083B0200083B0200083B0200083C
:1000B00001BE00083B0200083B0200083B020008AA
:1000C0003B0200083B0200083B0200083B0200081C
:1000D0003B0200083B02000861BC00083B0200082C
:1000E0003B0200083B0200083B0200083B020008FC
:1000F0003B0200083B0200083B0200083B020008EC
:100100003B0200083B0200083B0200083B020008DB
:100110003B0200083B0200083B0200083B020008CB
:100120003B0200083B0200083B0200083B020008BB
:100130003B0200083B0200083B0200083B020008AB
:100140003B0200083B0200083B0200083B0200089B
:100150003B0200083B0200083B0200083B0200088B
:1001600072B6274880F30888264880F30988264815
:100170004EF60851CEF200010860022080F3148888
:10018000BFF36F8F0BF0F4FF0BF02AFD4FF05530EB
:100190001E491B4A91423CBF41F8040BFAE71C4937
:1001A000184A91423CBF41F8040BFAE719491A4A30
:1001B0001A4B9A423EBF51F8040B42F8040BF8E781
:1001C00000201749174A91423CBF41F8040BFAE757
:1001D0000BF086FF0BF0C4FF134C144DAC4203DA56
:1001E00054F8041B8847F9E708F082FA104C114DC7
:1001F000AC4203DA54F8041B8847F9E70BF0A8BFB8
:10020000000400200008002000000008000000207A
:100210000004002074F600080008002010090020E7
:10022000100900200424002060010008600100087B
:10023000600100086001000892E700F000F8FEE7A6
:100240002DE9F04FC1F80CD0C3689D46BDE8F08F92
:10025000002383F311882846A04700200AF0C0FD40
:10026000FEE709F05DFE00DFFEE70000844641EA9C
:10027000000313F0030349D1403A23D30B68036012
:100280004B6843608B688360CB68C3600B69036114
:100290004B6943618B698361CB69C3610B6A0362FC
:1002A0004B6A43628B6A8362CB6AC3620B6B0363E4
:1002B0004B6B43638B6B8363CB6BC36340304031C9
:1002C000403ADBD230320BD30B6803604B6843609B
:1002D0008B688360CB68C36010301031103AF3D262
:1002E0000C3205D351F8043B40F8043B043AF9D2F0
:1002F000043208D0D2071CBF11F8013B00F8013BC3
:1003000001D30B8803806046704700BF082A13D3CF
:100310008B07B1D010F00303AED0C3F10403D21A9F
:10032000DB071CBF11F8013B00F8013BA4D331F8F7
:10033000023B20F8023B9FE7043AD9D3013A11F877
:10034000013B00F8013BF9D20B7803704B78437006
:100350008B7883706046704780EA010C1CF0030FB5
:1003600037D110F0030C20F0030021F0030150F806
:10037000042B08BF51F8043B0ED08CF0030C6FF037
:100380007F434FEACC0C23FA0CFC51F8043B42EAC1
:100390000C0243EA0C0300BFA2F1013C9A4201BFE8
:1003A0002CEA020C1CF0803F50F8042B51F8043B5F
:1003B000F2D04FEA02604FEA1222012828BFB0EBC8
:1003C000036F08BF1B0AF4D003F0FF03000EC01A2E
:1003D000704710F0030F0AD010F8012B11F8013B01
:1003E000012A28BF9A42F4D0A2EB030070474DF8CF
:1003F000045D50F8042B01F0030521F0030151F8CE
:10040000043B022D26D04DD822F07F45B5EB132FAB
:10041000A2F1013C2CEA020C0DD11CF0803C08BF7B
:1004200051F8043B0AD185EA0205B5EB036F0CD104
:1004300050F8042BE8E74FEA13235BE03CF07F4CD5
:1004400054D10B784FEA126554E04FEA126503F07D
:10045000FF034FE04FEA0245A2F1013C4FEA154588
:100460002CEA020CB5EB134F18D11CF0803C08BFEE
:1004700051F8043B07D185EA0205B5EB034F09D1DA
:1004800050F8042BE6E75FEA0C4C2FD10B884FEABB
:1004900012452FE04FEA03434FEA12454FEA134358
:1004A00028E000BF02F0FF05B5EB136FA2F1013C9D
:1004B0002CEA020C0DD11CF0803C08BF51F8043B23
:1004C0000AD185EA0205B5EB032F0AD150F8042BB7
:1004D000E8E74FEA13630DE012F0FF0F06D051F882
:1004E000043B4FEA122523F07F4303E04FF0000066
:1004F00020BC704705F0FF0203F0FF00012828BF71
:10050000904204BF2D0A1B0AF4D0A2EB000020BCCD
:10051000704700BF00000000000000000000000065
:10052000202383F31188094B9A6822B1002000230D
:1005300083F311887047064A01209269916B936397
:10054000C3E90221002383F3118870475408002077
:10055000880C0020000000000000000000000000E7
:1005600070B4202383F311884FF0FF340023064D2D
:100570000668AD690E600160C1E90152C1E903344A
:1005800083F3118870BC7047880C002000000000C5
:10059000202383F311880023034A9269506B53632D
:1005A00083F31188704700BF880C00200000000012
:1005B0004FF080435B6A091A1B1A89B29BB28B42C7
:1005C00001D200207047012010B40449044C054BAF
:1005D000054A2070087010BC1A607047501C00203B
:1005E000F01C00204C1C0020A4C5000800000000E6
:1005F00000200B4B0B4AD91D21F00701CB1AC3F188
:10060000780310B4DB0802F10C044B605160086001
:10061000C2E90344106010BC90605061704700BF95
:10062000701C0020541C002000000000000000008E
:1006300000220421044BC3E90033C3E90411DA604A
:100640009A619A60704700BF100800200000000007
:10065000FFF7EEBF000000000000000000000000F7
:1006600000207047000000000000000000000000B3
:1006700000210422024BC3E901221960D9607047AE
:10068000A80800200000000000000000000000009A
:10069000002230B40E4B0F4903F1200401F108058C
:1006A000C3E9021103F13000196003F14001C3E90D
:1006B00008445D60C3E90C0030BCC3E91011C3E914
:1006C00006221A611A759A629A639A64704700BF8B
:1006D000C0080020340C00200000000000000000D2
:1006E000002230B40E4B0F4903F1200401F1100534
:1006F000C3E9021103F13000196003F14001C3E9BD
:1007000008445D60C3E90C0030BCC3E91011C3E9C3
:1007100006221A611A759A629A639A64704700BF3A
:10072000C0080020340C0020000000000000000081
:10073000002130B4094B0A4A03F1180402F11005F4
:1007400003F12000C3E906445D60C3E9022230BC26
:10075000C3E908001A601961197570477408002010
:1007600078140020000000000000000000000000DD
:10077000FFF7DEBF000000000000000000000000E6
:10078000FFF7D6BF000000000000000000000000DE
:100790000022024BC3E900339A607047A81400207E
:1007A0000122024BC3E900339A607047C81500204C
:1007B000704700BF000000000000000000000000C3
:1007C0000022024BC3E900339A607047C81500202D
:1007D00000224FF4A4700421024BC3E901011A6006
:1007E000DA6070478814002000000000000000005C
:1007F00000200B4B0B4AD91D21F00701CB1AC3F582
:10080000CC6310B4DB0802F10C044B60516008604B
:10081000C2E90344106010BC90605061704700BF93
:10082000E0150020F413002000000000000000008C
:1008300008B5FFF7ADFE024A024B12601B6008BD0F
:10084000080800200C080020000000000000000044
:10085000FFF79EBE00000000000000000000000046
:10086000FFF7F6BF000000000000000000000000DD
:10087000FFF7EEBF000000000000000000000000D5
:10088000FFF7E6BF000000000000000000000000CD
:10089000FFF7DEBF000000000000000000000000C5
:1008A0000020064A064B0749C2E90022C3E900338B
:1008B000C1E9001190609860704700BF54080020A3
:1008C0006408002000080020000000000000000074
:1008D0000021044B044AC3E90033C2E900229960B5
:1008E000704700BF540800200008002000000000EE
:1008F000FFF7EEBF00000000000000000000000055
:100900000022024BC3E900339A607047540800206C
:100910000021044A044BC2E90022C3E9003391607C
:10092000996070475408002064080020000000000F
:10093000FFF7E6BF0000000000000000000000001C
:10094000202383F31188104B99684A1E002A9A606D
:1009500004DB0020002383F31188704780B10B4A29
:1009600010B592695C685362C2E9003401462260A6
:1009700005205A600AF0D4FA002383F3118810BDD1
:100980004FF0FF309960E5E7BC150020880C00208F
:1009900038B5114B9D69202383F311886C6B6CB9BA
:1009A00010B980F3118838BD4FF0FF3301466B62F8
:1009B0000A200AF0B5FA002809DB6C6B604224EAD1
:1009C00000036B632040002383F3118838BD84F358
:1009D0001188204638BD00BF880C002000000000B0
:1009E0000022024BC3E900339A607047BC15002017
:1009F000FFF7F6BF0000000000000000000000004C
:100A0000FFF7EEBF00000000000000000000000043
:100A1000FFF7E6BF0000000000000000000000003B
:100A20000122024BC3E900339A607047BC150020D5
:100A30000022014B1A607047341D002000000000A6
:100A400008B100207047012010B4044A044C054B43
:100A50002070107010BC1960704700BF501C00203F
:100A6000F01C00204C1C00200000000000000000D2
:100A70000322014B1A607047F41C002000000000A4
:100A80004FF0804301201946044A10605A6A92B21E
:100A90004B6A9BB29A42FBD0704700BFF41C002007
:100AA0000121074A2023116083F3118862B672B6D0
:100AB00083F3118862B6002383F3118862B670470E
:100AC000F41C0020000000000000000000000000F6
:100AD00030B4202500240A4B03F1140053F8042BF2
:100AE0004AB185F3118892F8211041F0040182F88F
:100AF000211084F311888342F0D130BC704700BFCD
:100B00000C1D00200000000000000000000000009C
:100B100018B3F0B585B06D462A46104F0646A7FBC0
:100B20000013DB0803EB8301A0EB410000F130016F
:100B3000C9B2092E1446184602F8011BEED8AA4283
:100B400009D9074E01E014F8011D30680368DB681D
:100B50009847A542F7D105B0F0BD7047CDCCCCCCBD
:100B6000481C002000000000000000000000000001
:100B700028B9044B302118680368DB681847FFF771
:100B8000C7BF00BF481C002000000000000000009C
:100B9000202383F31188064A064913688B4202D248
:100BA000591C18701160002383F31188704700BF2F
:100BB000081D0020081D00200000000000000000AB
:100BC00008B548694130C0B2FFF7E2FF002008BD18
:100BD00008B53020FFF7DCFF45F2AA5008BD00BF82
:100BE00010B50446C0B2FFF7D3FF204610BD00BFCA
:100BF00038B50D460446C0B2FFF7CAFFE8B2FFF7AA
:100C0000C7FF204638BD00BF000000000000000004
:100C100070B50E4615460446C0B2FFF7B9FFF0B2F4
:100C2000FFF7B6FFE8B2FFF7B3FF204670BD00BF85
:100C3000F8B50F4616461D460446C0B2FFF7A8FF9A
:100C4000F8B2FFF7A5FFF0B2FFF7A2FFE8B2FFF797
:100C50009FFF2046F8BD00BF00000000000000001C
:100C600008B55A20FFF794FF0122024B4AF655209F
:100C70001A7008BD880E002000000000000000006F
:100C80004320FFF785BF00BF000000000000000008
:100C90004220FFF77DBF00BF000000000000000001
:100CA0004120FFF775BF00BF0000000000000000FA
:100CB0000078FFF76DBF00BF0000000000000000DB
:100CC000FFF7F6BF00000000000000000000000079
:100CD00070B5017889B10446094D28680368DB685E
:100CE000984714F8011F0029F7D128680222BDE8AF
:100CF0007040036803495B681847014DF5E700BF82
:100D0000481C0020E8E2000800000000000000008D
:100D1000017859B138B50446054D28680368DB6889
:100D2000984714F8011F0029F7D138BD704700BF5C
:100D3000481C00200000000000000000000000002F
:100D4000F0B40D4E0D4F35683B4605E013F8014BEE
:100D500010F8012B944206D19D42F7D8007810B9C3
:100D60003760F0BC70470120054C064A064B2070E6
:100D700010701960F0BC7047081D0020F81C00209E
:100D8000F01C0020501C00204C1C00200000000023
:100D900070B54C24074D28682D210368DB689847FF
:100DA000013CF8D128680222BDE87040036802497E
:100DB0005B681847481C0020E8E2000800000000BB
:100DC0000023C72210B4094903E0802B0BD031F86F
:100DD000022F82429CB203F10103F6D104F180009C
:100DE00080B210BC7047002010BC70477CDF000848
:100DF000294AB0F5805F41F67D51284B34BF61210F
:100E00001346F0B486B2043381B18E420ED333F868
:100E1000022C1F46D4B26518A8424FEA122207DB03
:100E2000043372B133F8041C0029EED1F0BC7047D2
:100E3000082AFBD8DFE802F02C26221E1A16120E12
:100E40000A0037F8141007EB4403DCE7A6F5E3507B
:100E500080B2EBE7A6F1500080B2E7E706F10800A8
:100E600080B2E3E7A6F11A0080B2DFE7A6F1300016
:100E700080B2DBE7A6F1200080B2D7E7A6F1100030
:100E800080B2D3E7731A03F00103F01A80B2CDE702
:100E9000411A33F81100C9E750DE00085CDC000895
:100EA0002DE9F00B90F83520C48E002542EA04228B
:100EB000002490F8343083B043EA02238B6090F82A
:100EC000383090F83B80CDE90034C36B90F83A603D
:100ED00048EA03281B0C90F839B046EA08261B02A2
:100EE000009C43EA16634BEA06221B0243EA1263A4
:100EF00044EA0222C1E9042390F82130CD6103F0D5
:100F00000203CB7103B0BDE8F00B70470000000096
:100F1000016861B10A4601E03A2B05D012F8013BA5
:100F20001F2BF9D8002070478B1C9A4202D04FF03B
:100F3000FF3070470B78302BF9D1026000207047EA
:100F40007F2838B50D46144605D883B26BB19CB1E5
:100F50002B70012038BDB0F5803F06D2FFF730FF7F
:100F6000FF280346F2D9012C01D8002038BD030A1E
:100F700068702B70022038BD204638BD000000008C
:100F8000054A064B10799B68053818BF01205B069F
:100F900058BF40F0040070471809002000100140BD
:100FA00008B503480AF014FB0022024B1A7008BD72
:100FB00018090020B013002000000000000000000D
:100FC00038B50446006884420AD06FF00105036812
:100FD00023605C60456209F0DBF82068A042F6D12E
:100FE00038BD00BF0000000000000000000000004D
:100FF000054B1868984206D00021026853601A60B9
:10100000416209F0C5B870470008002000000000E8
:10101000F8B50446202080F311880225002601201F
:10102000C4E9372304F1DC03154FC4F80C31154B28
:10103000154AC4F8FC307B69A4F8205104F580758A
:10104000C4E94473C4F80811C4F83C1184F82201BF
:10105000C4F81821C4E94D66C4F81C4104F5947223
:101060001D6104F5967328463146C4E94A23C4F845
:1010700030317D6108F09CFF86F311882846F8BD69
:10108000880C002051020008B8C5000800000000CC
:1010900008B5202383F31188064B1868984205D0C1
:1010A0000268002153601A6008F082FF002383F376
:1010B000118808BD000800200000000000000000AA
:1010C000202370B583F31188856881600135002D78
:1010D0000CDC04466FF0010660680135436863600C
:1010E0001C6009F055F8012D4662F5D108F038FF73
:1010F000002383F3118870BD000000000000000091
:1011000000210148FFF7DCBFBC15002000000000F3
:1011100038B5202383F3118801220025094C236868
:1011200004F11800C4E9023322752561FFF748FF76
:1011300004F12000FFF744FF08F012FF85F3118847
:1011400038BD00BF7408002000000000000000004F
:10115000FFF7DEBF000000000000000000000000FC
:10116000FFF7F6BF000000000000000000000000D4
:10117000FFF7EEBF000000000000000000000000CC
:1011800038B5202383F31188154CA3685A1C002A14
:10119000A26019DD002BA36006DB08F0E1FE002051
:1011A000002383F3118838BD0E4A636895690520D2
:1011B000C5E900431D606C62656008F081FF686AE4
:1011C000002383F3118838BD206803685C602360C6
:1011D00008F0DEFF0022A3684262013BDAE700BFAD
:1011E000BC150020880C002000000000000000005A
:1011F00038B501241D4B1E4D9A691E489168002385
:1012000021441D4A2C60FFF703FF02231B4A1C4C9C
:1012100010602B60FFF7B4FF20681A49001BB0FA7A
:1012200080F04009FFF70CFC00B138BDA0681649FA
:10123000B0FA80F04009FFF703FC0028F5D1032342
:101240002B60FFF79DFF20680E49001BB0FA80F06D
:101250004009FFF7F5FB0028E7D1A0680A49B0FA7A
:1012600080F0BDE838404009FFF7EABB880C002059
:10127000F41C0020E0150020415300080C1D002044
:10128000BC150020C0C50008D0C500080000000043
:101290000C4A10B52023946983F31188606B40B128
:1012A000434220EA030262631840002383F311885B
:1012B00010BD4FF0FF330A20636208F001FF606B3E
:1012C000EEE700BF880C00200000000000000000D6
:1012D0000C4A10B52023946983F31188606B20B108
:1012E0000023636383F3118810BD4FF0FF330A209E
:1012F000636208F0E5FE0023606B636383F311888B
:1013000010BD00BF880C002000000000000000009D
:101310000C4A10B52023946983F31188636B03F0A2
:101320000502052A05D005230B20636208F0C8FEDC
:10133000636B23F005036363002383F311880520A7
:1013400010BD00BF880C002000000000000000005D
:10135000074A10B52023946983F31188032008F00D
:10136000AFFE636A002BF9D0002383F3118810BD10
:10137000880C0020000000000000000000000000B9
:1013800038B50446054D284609F03AF82078FFF7AD
:10139000FFFB2846BDE8384008F0A2BF64080020E3
:1013A00002222DE9F8434D4D4D4CAB6922609E68F9
:1013B000FFF7B6F84B49FFF743FB08B1BDE8F883E8
:1013C00003232360FFF7ACF880F001004649C0B268
:1013D000FFF736FB0028F1D10423444F2360384641
:1013E00008F07EFFB8684249B0FA80F04009FFF784
:1013F00027FB0028E2D138683E49C01BB0FA80F0D4
:101400004009FFF71DFB0028D8D1AB690522986879
:101410003949801BB0FA80F040092260FFF710FBC9
:101420000028CBD106232360FFF77AF82D49FFF778
:1014300007FB0028C2D1FFF773F880F001002A49AA
:10144000C0B2FFF7FDFA0028B8D1202383F311883A
:10145000D5F81890D9F83830CBB180461868DA68DA
:101460008342C9F8382035D0816B02681A60536016
:10147000C3E90201836308F08BFED9F83830002BF2
:10148000ECD1D9F83C30C9F8083008F069FD0023E8
:1014900083F31188B8681649B0FA80F04009FFF765
:1014A000CFFA00288AD138681249C01BB0FA80F000
:1014B0004009FFF7C5FA002880D1AA690723906880
:1014C0002360801BB0FA80F0BDE8F8430A49400968
:1014D000FFF7B6BAC3F808801346D0E7880C00209F
:1014E000F41C0020E4C50008F4C5000854080020DE
:1014F00000C60008C0C500080CC6000800000000B7
:1015000038B50446054D284608F07AFF2078FFF7E5
:101510003FFB2846BDE8384008F0E2BE54080020F2
:1015200001212DE9F041042220250020384E394BBD
:10153000394C316085F3118821682360196080F38C
:1015400011886168013A0B44F4D102230425DFF8C5
:10155000C880324F3360404608F0BAFB003818BFED
:1015600001203946FFF76CFA00284FD1013DF2D136
:1015700003232948336008F0ABFBB0FA80F0284918
:101580004009FFF75DFA002840D104222027214BB3
:10159000326003F1100087F311882268236043F85A
:1015A000042B85F311888342F5D105230425DFF848
:1015B00068801A4F3360404608F08AFB003818BF35
:1015C00001203946FFF73CFA00BB013DF3D1062369
:1015D0001148336008F07CFBB0FA80F010494009F4
:1015E000FFF72EFA90B9072104230E4A0A4831600A
:1015F000C4E901332560E26008F06AFBBDE8F04110
:10160000B0FA80F008494009FFF71ABABDE8F08146
:10161000F41C0020A8150020A808002024C60008FB
:1016200030C600086106000840C60008000000003F
:101630002DE9F041DFF85880074686B040460E4657
:10164000154608F045FB0446D8B1D8F804300F4AD7
:10165000034402930097019003960595049220237A
:1016600083F31188684608F01BFC0223002180F8F0
:101670002130C0F84080044608F09AFC002383F330
:101680001188204606B0BDE8F08100BFC10C0008FB
:10169000881400200000000000000000000000008E
:1016A00038B501254A4B4B4C4B481D60FFF730FBCA
:1016B0002846FFF72DFA2046FFF70AFB4748FFF7B9
:1016C00027FB2846FFF724FA2046FFF701FB444892
:1016D000FFF71EFB2846FFF71BFA2046FFF7F8FA34
:1016E0004048FFF715FB2846FFF712FA2046FFF7A0
:1016F000EFFA3D48FFF70CFB2846FFF709FA2046B2
:10170000FFF7E6FA3948FFF703FB2846FFF700FA30
:101710002046FFF7DDFA3648FFF7FAFA2846FFF7CA
:10172000F7F92046FFF7D4FA3248FFF7F1FA2846D6
:10173000FFF7EEF92046FFF7CBFA2F48FFF7E8FA5C
:101740002846FFF7E5F92046FFF7C2FA2B48FFF7D6
:10175000DFFA0820FFF7DCF92046FFF7B9FA28483E
:10176000FFF7D6FA2846FFF7D3F92046FFF7B0FA7D
:101770002448FFF7CDFA2846FFF7CAF92046FFF7BD
:10178000A7FA2148FFF7C4FA2846FFF7C1F9204617
:10179000FFF79EFA1D48FFF7BBFA2846FFF7B8F996
:1017A0002046FFF795FA1A48FFF7B2FA2846FFF7E6
:1017B000AFF92046FFF78CFA1648FFF7A9FA28463A
:1017C000FFF7A6F92046BDE83840FFF781BA00BF11
:1017D000F41C00203CE300085CC6000888C6000832
:1017E000B4C60008E0C600080CC7000838C70008E7
:1017F00064C7000890C70008BCC70008E8C7000815
:1018000014C8000840C800086CC8000898C8000840
:10181000C4C80008F0C80008000000000000000074
:1018200038B50125184B19481D60194CFFF750FABF
:101830001848FFF76DFA2846FFF76AF92046FFF7C8
:1018400047FA1548FFF764FA1448FFF741FA1448BD
:10185000FFF75EFA2846FFF75BF92046FFF738FAF4
:101860001048FFF755FA0220FFF752F92046FFF71C
:101870002FFA0D48FFF74CFA0020FFF779F92046C0
:10188000BDE83840FFF724BAF41C00201CC900084A
:101890003CE3000850C900087CC90008A8C900083A
:1018A000B0C90008DCC9000808CA00080000000030
:1018B000012370B5324D334C33482B60FFF728FAC3
:1018C0007820FFF725F92046FFF702FA02232F4878
:1018D0002B60FFF71DFA4420FFF71AF92046FFF7A7
:1018E000F7F9032304262A482B60FFF711FA142086
:1018F000FFF70EF92046FFF7EBF926482E60FFF7B9
:1019000007FA0C20FFF704F92046FFF7E1F9052359
:1019100021482B60FFF7FCF91020FFF7F9F820466B
:10192000FFF7D6F906231D482B60FFF7F1F90820D1
:10193000FFF7EEF82046FFF7CBF9072318482B6096
:10194000FFF7E6F93046FFF7E3F82046FFF7C0F966
:10195000082314482B60FFF7DBF91420FFF7D8F8B1
:101960002046FFF7B5F909230F482B60FFF7D0F9A0
:101970002820FFF7CDF82046BDE87040FFF7A8B952
:10198000F41C002044CA000834CA00084CCA0008ED
:101990005CCA00086CCA00087CCA00088CCA00082F
:1019A0009CCA0008ACCA0008BCCA000800000000BD
:1019B00070B50124404D00202C60FEF7E9FFB0FA1D
:1019C00080F03E494009FFF73BF800B170BD3C4E46
:1019D0002022B36982F311885A6B002A50D180F318
:1019E000118820463549FFF72BF80028EED1202238
:1019F000B36982F311885A6B013245D080F31188A4
:101A000001202E49FFF71CF80028DFD102236420B3
:101A10002B60FEF7BDFFB0FA80F028494009FFF7C0
:101A20000FF80028D2D12023B56983F311886C6B9D
:101A300074B300236B6383F31188B4FA84F0400914
:101A40001E49FEF7FDFF04460028BFD12023B569DB
:101A500083F311886B6B013308D04FF0FF3364219F
:101A60000B206B6209F05CFA002820DB00236B631B
:101A700083F311882046BDE870401049FEF7E0BFAF
:101A8000586380F31188ADE7586380F31188B8E795
:101A90004FF0FF3364210A206B6209F041FA0028FD
:101AA00001DB6C6BC5E784F311880120C8E784F380
:101AB00011880124DEE700BFF41C0020CCCA000816
:101AC000880C002000000000000000000000000062
:101AD00038B50125924B934C93481D60FFF718F9D8
:101AE0001020FFF715F82046FFF7F2F88F48FFF7B0
:101AF0000FF94FF4FA60FFF70BF82046FFF7E8F80C
:101B00008B48FFF705F92020FFF702F82046FFF782
:101B1000DFF88848FFF7FCF82020FEF7F9FF2046A1
:101B2000FFF7D6F88448FFF7F3F80220FEF7F0FF3E
:101B30002046FFF7CDF88148FFF7EAF80020FFF7CD
:101B400017F82046FFF7C4F87D48FFF7E1F80020BA
:101B5000FFF70EF82046FFF7BBF87A48FFF7D8F8F2
:101B60000020FFF705F82046FFF7B2F87648FFF7A8
:101B7000CFF82846FEF7CCFF2046FFF7A9F87348B8
:101B8000FFF7C6F82846FEF7C3FF2046FFF7A0F888
:101B90006F48FFF7BDF82846FEF7BAFF2046FFF76B
:101BA00097F86C48FFF7B4F82846FEF7B1FF2046D7
:101BB000FFF78EF86848FFF7ABF82846FEF7A8FF56
:101BC0002046FFF785F86548FFF7A2F80020FEF7EA
:101BD000CFFF2046FFF77CF86148FFF799F82846C9
:101BE000FEF796FF2046FFF773F85E48FFF790F880
:101BF0000020FEF7BDFF2046FFF76AF85A48FFF7BE
:101C000087F82846FEF784FF2046FFF761F857481B
:101C1000FFF77EF82846FEF77BFF2046FFF758F8CF
:101C20005348FFF775F82846FEF772FF2046FFF786
:101C30004FF85048FFF76CF82846FEF769FF20463A
:101C4000FFF746F84C48FFF763F82846FEF760FFB9
:101C50002046FFF73DF84948FFF75AF80020FEF705
:101C600087FF2046FFF734F84548FFF751F828462C
:101C7000FEF74EFF2046FFF72BF84248FFF748F8E3
:101C80000020FEF775FF2046FFF722F83E48FFF7D9
:101C90003FF80020FEF76CFF2046FFF719F83B489D
:101CA000FFF736F80020FEF763FF2046FFF710F835
:101CB0003748FFF72DF80020FEF75AFF2046FFF7C0
:101CC00007F83448FFF724F8FF20FEF721FF2046ED
:101CD000FEF7FEFF3048FFF71BF88020FEF718FFE5
:101CE0002046FEF7F5FF2D48FFF712F80020FEF71B
:101CF0003FFF2046FEF7ECFF2948FFF709F80020D8
:101D0000FEF736FF2046FEF7E3FF2648FFF700F810
:101D10000020FEF72DFF2046BDE83840FEF7D8BF73
:101D2000F41C00203CE30008DCCA000808CB0008D3
:101D300034CB000860CB00088CCB0008B8CB00087F
:101D4000E4CB000810CC00083CCC000868CC0008AC
:101D500094CC0008C0CC0008ECCC000818CD0008DA
:101D600044CD000870CD00089CCD0008C8CD000807
:101D7000F4CD000820CE00084CCE000878CE000834
:101D8000A4CE0008D0CE0008FCCE000828CF000862
:101D900054CF000880CF0008ACCF0008D8CF00088F
:101DA00004D0000830D0000800000000000000004F
:101DB00038B50125184B19481D60194CFEF788FFEE
:101DC0001848FEF7A5FF2846FEF7A2FE2046FEF7BC
:101DD0007FFF1548FEF79CFF1448FEF779FF144873
:101DE000FEF796FF0620FEF793FE2046FEF770FFF3
:101DF0001048FEF78DFF2846FEF78AFE2046FEF7C4
:101E000067FF0D48FEF784FF2846FEF781FE204657
:101E1000BDE83840FEF75CBFF41C00205CD0000831
:101E20003CE3000850C900087CC9000890D00008B5
:101E3000B0C90008DCC9000808CA0008000000009A
:101E400001221C4B10B51C481A60FEF761FF1B48AD
:101E5000FEF73EFF1A48FEF75BFF1A48FEF738FF11
:101E60001948FEF755FF1948FEF732FF1848FEF7EC
:101E70004FFF1848184CFEF72BFF1848FEF748FF95
:101E80000420FEF745FE2046FEF722FF1448FEF729
:101E90003FFF0820FEF73CFE2046FEF719FF1148E1
:101EA000FEF736FF0820FEF733FE2046BDE810405F
:101EB000FEF70EBFF41C002098D00008C4D0000824
:101EC000CCD00008F8D0000804D1000830D10008B8
:101ED00070D100089CD100083CE30008B4D1000890
:101EE000E0D100080CD20008000000000000000053
:101EF000FFF7A6BF00000000000000000000000087
:101F00002DE9F04F384D83B02B7D1BB1002003B07D
:101F1000BDE8F08F814605F130009A464E4608F044
:101F20006FFA324F05F12008CDF8049020E05A46B0
:101F30003946FEF79BF94A46286807EB0B01FEF786
:101F400095F92A68404602EB0903AB6008F0C8F92E
:101F50002023361B274483F31188E86920B1002130
:101F6000C5F81CA008F024F88AF31188002E37D099
:101F7000404608F045FAD5E900422B69141BE41AE3
:101F8000B44228BF3446A8682344A2EB000B5C454A
:101F90002B611DD3A4EB0B09C9D822463946FEF7A5
:101FA00065F92B68AB60404608F09AF9002CCFD158
:101FB000DDF80490202383F3118884F31188A9EBC2
:101FC00006090B4808F08CF9484603B0BDE8F08FCD
:101FD00022463946FEF74AF9AB682344AB60E2E794
:101FE000DDF80490EDE700BFC008002060DF0008C6
:101FF000F0080020000000000000000000000000C9
:102000002DE9F04F364C83B0237D1BB1002003B087
:10201000BDE8F08F8946074604F140009A464E46D7
:1020200008F0EEF904F12008CDF804901FE05A46BC
:102030003846FEF71BF94A46216807EB0B00FEF70E
:1020400015F92268404602EB0903E36008F048F9FD
:102050002023761B2F4483F31188A06920B100212F
:10206000C4F818A007F0A4FF8AF31188AEB3404665
:1020700008F0C6F9D4E90313B3421D4628BF35461C
:1020800062685B1BA2EB010B5D4523611DD3A5EBD1
:102090000B09CCD82A463846FEF7E8F82368E360F7
:1020A000404608F01DF9002DD2D1DDF80490202320
:1020B00083F3118885F31188A9EB0609094808F014
:1020C0000FF9484603B0BDE8F08F2A463846FEF7C0
:1020D000CDF8E3682B44E360E2E7DDF80490EDE738
:1020E000C0080020000900200000000000000000DF
:1020F000012330B5214D85B0102168462B60FFF7D4
:102100007FFFB0FA80F01E494009FEF799FC40B904
:102110001C4C2268E36893421DD01B49FEF790FCDB
:1021200008B105B030BD022310202B60FFF7E8FE98
:10213000A0F10800B0FA80F011494009FEF780FCD8
:102140000028EED1D4E9022393420CD00E49FEF7C9
:1021500077FC05B030BDA2689342DED12069B0FAA9
:1021600080F04009D9E722689342EFD12069A0F1BD
:102170000800B0FA80F04009E8E700BFF41C002036
:1021800038D20008C008002044D200080000000037
:102190002DE9F8432023054683F311883D4ED6E907
:1021A0000032013B034052F8334002EBC302A2422B
:1021B00003D11BE02468A24218D063699D42F9D183
:1021C0002369002BF6D1236A002B38DDD4E90210F5
:1021D000626A013B22F001028160C860C4E90832F2
:1021E000002383F311882046BDE8F883DFF8A88038
:1021F0000027A8F1300919E0346A626A236AD4E939
:102200000210013B8160C86022F00101C4E908317D
:10221000D10620D587F311882223214663624846E0
:10222000336C01229847202383F31188B36B013B61
:10223000002BB363E0DA404607F07AFFDCE7013BAE
:10224000236204F1180007F073FF002383F3118861
:102250002046BDE8F883930704D5D4E900231A602B
:10226000226853600027D6E900320A20013B2B4048
:1022700052F83310656102EBC305C4E9001527610C
:1022800060624C6042F83340002383F3118820469B
:10229000BDE8F883440C0020740C0020000000000E
:1022A00038B50546074808F0ABF8074A0748111F3C
:1022B00007F026FD044600B10561024808F010F859
:1022C000204638BD000D0020140D002058D2000813
:1022D00010B50A4808F094F8094A0A48111F07F097
:1022E0000FFD044628B1002200F11003C0E90433B9
:1022F0008261024807F0F4FF204610BD000D002067
:102300002C0D002060D2000800000000000000003A
:1023100038B5074D284608F073F805F11001054857
:1023200007F086FC0446284607F0DAFF204638BD51
:10233000000D002058D2000800000000000000003E
:1023400038B5074D284608F05BF805F1240105482B
:1023500007F06EFC0446284607F0C2FF204638BD51
:10236000000D002068D200080000000000000000FE
:1023700038B5074D284608F043F805F1280105480F
:1023800007F056FC0446284607F0AAFF204638BD51
:10239000000D002060D200080000000000000000D6
:1023A00038B5074D284608F02BF805F13C010548E3
:1023B00007F03EFC0446284607F092FF204638BD51
:1023C000000D002070D20008000000000000000096
:1023D00038B5074D284608F013F805F140010548C7
:1023E00007F026FC0446284607F07AFF204638BD51
:1023F000000D002078D2000800000000000000005E
:1024000038B5074D284607F0FBFF05F144010548A4
:1024100007F00EFC0446284607F062FF204638BD50
:10242000000D002080D20008000000000000000025
:1024300038B5114807F0E4FF78221049104807F03A
:1024400017FC044698B1002004F1380304F1280178
:1024500004F13002C4E90633C4E90A11C4E90C22CC
:1024600004F17805206284F8240023616561024844
:1024700007F036FF204638BD000D00203C0D00203F
:1024800070D2000800000000000000000000000002
:1024900038B5154807F0B4FF70221449144807F006
:1024A000E7FB0446D8B1002300F1600200F170059B
:1024B000C4E90A33303004F14001236284F8243047
:1024C000A363A364A36504F15003C4E90622C4E92D
:1024D0000C00C4E91011C4E914332261656102489B
:1024E00007F0FEFE204638BD000D0020440D002000
:1024F00080D2000800000000000000000000000082
:1025000010B50A4807F07CFF80220949094807F006
:10251000AFFB044620B180220021103009F058FEA4
:10252000024807F0DDFE204610BD00BF000D002070
:10253000240D002068D20008000000000000000008
:1025400070B5184807F05CFF4FF4CA721649174877
:1025500007F08EFB044600B310220026042300F18E
:1025600094051044C4E908232946C4E90400E6613F
:10257000A662A66108F034FA04F1540304F14401A0
:1025800004F14C02C4E90D33C4E91111C4E913226A
:102590002563E66384F84060E362024807F0A0FE2A
:1025A000204670BD000D0020400D002078D20008AC
:1025B000012208B5054B072105481A6007F0C8FB42
:1025C000BDE8084003490448FEF7BABBF41C0020EC
:1025D0000CDF000888D200089CD200080000000030
:1025E00008B50B4B0B4A9B690B4D0C4C9A61E36889
:1025F00083F48053E3602B7823B14FF4C87008F064
:102600009FFFF4E74FF47A7008F09AFFEFE700BFFE
:10261000880C0020A0D20008B01300200010014058
:1026200008B5C0B2FEF7B4FABDE80840142008F0BF
:1026300087BF00BF00000000000000000000000095
:102640002DE9F8430227404D404EAA69404B94685B
:10265000404804F1010841463F4A3760FEF7D8FC84
:1026600084463E4F04F1020949463D4B3D4A3E48EF
:10267000C7F800C0FEF7CCFC032302463B4833609A
:102680007A6007F0BDFEAB6939499868001BB0FA63
:1026900080F04009FEF7D4F908B1BDE8F8830423BF
:1026A000C820336008F04CFFAB6931499868A0EB53
:1026B0000800B0FA80F04009FEF7C2F90028ECD11A
:1026C00005232C48336007F09BFEAB6928499868C6
:1026D000A0EB0800B0FA80F04009FEF7B1F900283D
:1026E000DBD10623C820336008F02AFFAB692049FC
:1026F0009868A0EB0900B0FA80F04009FEF7A0F955
:102700000028CAD107231B48336007F0E9FDAB69F5
:1027100017499868A0EB0800B0FA80F04009FEF76E
:102720008FF90028B9D108231048336007F0D8FD8D
:10273000AB690F499868001BB0FA80F0BDE8F84318
:102740004009FEF77DB900BF880C0020F41C002072
:10275000A8D20008E0150020812700080C1D0020E9
:10276000ACD20008D15B00082817002054080020D4
:102770000CC60008640800200000000000000000F3
:1027800010B5064C642008F0DBFE204607F038FE4A
:102790002046BDE8104007F0A3BD00BF540800204C
:1027A000012370B54FF08045304E642033606C6A71
:1027B00008F0C6FEA4B204F1670104F1640089B216
:1027C00080B2FDF7F5FE00B170BD022333606C6A84
:1027D000C820A4B208F0B4FE04F1CB0104F1C80093
:1027E00089B280B2FDF7E4FE0028EDD10323336007
:1027F0006C6AC820A4B208F0A3FE04F1CB0104F176
:10280000C80089B280B2FDF7D3FE0028DCD10423D2
:1028100033606C6A4FF4FA60A4B208F091FE04F2DF
:10282000D37104F5FA6089B280B2FDF7C1FE0028C9
:10283000CAD1052333606C6A2023A4B204F1640674
:10284000B6B283F31188696A711A89B251B900234B
:1028500083F3118804F167013046BDE8704089B206
:10286000FDF7A6BE082008F05BFBF0E7F41C002093
:1028700008B5012008F064FE202383F311884FF08F
:1028800080420023506A83F3118880B208BD00BFE4
:1028900001232DE9F041DFF87C800025C8F80030E5
:1028A000FFF7E6FF4FF080470646174C204607F03B
:1028B000A7FD204607F014FD204607F0A1FD2046A5
:1028C00007F00EFD204607F09BFD204607F008FDAF
:1028D000204607F095FD204607F002FD7B6A013592
:1028E0009B1B9BB2B3F5FA6FE0D302230748C8F8ED
:1028F0000030FEF70DFAA800FEF73AF9BDE8F04106
:102900000348FEF7E5B900BFA8140020B0D20008C4
:10291000C0D20008F41C00200000000000000000ED
:1029200038B5202585F3118800210B4807F098FC65
:10293000002407F015FB84F31188642008F000FEE2
:1029400085F311880548214607F08AFC07F008FB4B
:1029500084F3118838BD00BF080800200C0800204F
:1029600038B52022044682F31188164D2B68B3B186
:1029700003685B689847F0B1296801392960E9B1BB
:102980001148C3680BB108F033FA234614210F4AEB
:102990000D4808F075FA002383F3118838BD0368E9
:1029A0005B6898470028EBD10A23014608482B6052
:1029B00007F056FCE4E70A232B60E1E7054807F03F
:1029C0004FFCDDE7280E0020201D002061290008B3
:1029D000B8150020101400200000000000000000C6
:1029E0002DE9F84F0123DFF888A00024CAF8003051
:1029F000FFF73EFFA14607464FF02008DFF874B00E
:102A0000174E184D88F3118800235A46304601218D
:102A100008F036FA5A46002342F21071284608F0B0
:102A20002FFA304608F0E4F9284608F0E1F989F376
:102A300011884FF080435B6A0134DB1B9BB2B3F516
:102A4000FA6FDFD302230848CAF80030FEF760F9B6
:102A50006000FEF78DF8BDE8F84F0448FEF738B97E
:102A6000381D00204C1D0020B0D20008D0D2000834
:102A7000F41C0020B1070008000000000000000066
:102A800010B5064C206890F820300F2B00D010BDF8
:102A900007F0EEFE0023236010BD00BFD815002014
:102AA00001222DE9F843174BDFF868809B69C8F8CD
:102AB00000209E68FFF7DCFE00240546DFF85890F2
:102AC000114F013E00234A4631463846FEF7A0FA30
:102AD00007F0CEFE4FF080435B6A01345B1B9BB274
:102AE000B3F5FA6FEED302230848C8F80030FEF7BA
:102AF0000FF92046FEF73CF8BDE8F8430448FEF71E
:102B0000E7B800BF880C0020E0150020B0D2000814
:102B1000DCD20008F41C0020119100080000000025
:102B200070B50026064C04F1140554F8040B18B1D6
:102B300007F09EFE44F8046CAC42F6D170BD00BFB5
:102B40000C1D00200000000000000000000000003C
:102B5000012200232DE9F0412F4FDFF8D48082B00D
:102B6000C8F800200193FFF783FEBB692B4E2C4D64
:102B70009968324601AB28460139FEF749FA844686
:102B8000BB69284C9968324601AB013905F5A47040
:102B9000C4F800C0FEF73CFA8446BA6901AB9168FC
:102BA00005F5247032460139C4F804C0FEF730FA46
:102BB0008446BA6901AB916805F5767032460139F1
:102BC000C4F808C0FEF724FA8446BA6901AB9168DC
:102BD00005F5A46001393246C4F80CC0FEF718FAB6
:102BE000022302464FF4FA602261C8F8003008F070
:102BF000A7FCFDF76DFFFFF793FF03230A48C8F812
:102C00000030FEF785F80198FDF7B2FF0748FEF7A0
:102C10005FF802B0BDE8F081880C00204154000844
:102C2000E01500200C1D0020B0D20008E8D20008FA
:102C3000F41C002000000000000000000000000064
:102C40002DE9F0410124344D344FAA6900239168E5
:102C50003348344A05313C60FEF7DAF90646AB6981
:102C6000314C99682F4A0023043130482660FEF722
:102C7000CFF90646AA69002391682D48294A0331F5
:102C80006660FEF7C5F90646AA69002391682948DF
:102C9000244A0231A660FEF7BBF90646AA69002362
:102CA000916825481F4A0131E660FEF7B1F9022319
:102CB00020613B60FFF7DCFD002405464FF08048B3
:102CC0001E4E00213046FEF7FBF9D8F824300134BF
:102CD0005B1B9BB2B3F5FA6FF3D303233B60FDF7A5
:102CE000F7FE00211548FEF7EBF9FFF719FF042363
:102CF00013483B60FEF70CF82046FDF739FF04EB64
:102D000044041048FEF704F86000FDF731FFBDE809
:102D1000F0410D48FDF7DCBF880C0020F41C0020BA
:102D2000E0150020515100080C1D0020281700203C
:102D300070180020B8190020001B0020C8150020C2
:102D4000B0D20008F4D20008E8D200080000000069
:102D50002DE9F04701242A4BDFF8BCA09A692948E5
:102D6000916800232144284ACAF80040FEF750F930
:102D70000222264B04460025CAF800201860FFF7FF
:102D800077FD2F4606464FF020084FF0804988F324
:102D900011880021204607F00BF92046002107F09A
:102DA00007F92046002107F003F92046002107F02B
:102DB000FFF887F31188D9F8243004359B1B9BB2A8
:102DC000B3F5FA6FE3D30323CAF8003088F3118810
:102DD0004FF0FF31204607F0EBF887F31188FFF73B
:102DE0009FFE04230A48CAF80030FDF791FF6800EF
:102DF000FDF7BEFEBDE8F0470648FDF769BF00BF1E
:102E0000880C0020E0150020511300080C1D002044
:102E1000B0D20008E8D20008F41C00200000000036
:102E20000120F8B5202700263D4D3E4B3E4A3F4944
:102E3000286003F10C0487F31188086810600A60A9
:102E400086F311889C4202D053F8042BF3E7032346
:102E50003749384A896938488E682B60711EFEF7F9
:102E6000E7FB0346354CB11E354A36482360FEF772
:102E7000DFFB0346F11E344A34486360FEF7D8FB9B
:102E80000346311F324A3348A360FEF7D1FB0346A5
:102E9000314A711F3148E360FEF7CAFB042206463F
:102EA000206826612A6038B1606828B1A06818B12E
:102EB000E068003818BF01202949FDF7C1FD00B1C5
:102EC000F8BDB6FA86F027494009FDF7B9FD00289C
:102ED000F6D105232B60FFF723FE23492348FDF796
:102EE0002FFF0028ECD106230424104F204E2B6026
:102EF000384606F0EDFE003818BF01203146FDF7D8
:102F00009FFD0028DCD1013CF2D1084806F0E0FE2C
:102F1000BDE8F840B0FA80F016494009FDF790BDD1
:102F2000F41C0020A8E00008E01500208814002010
:102F3000880C0020A8D2000808D300080C1D00202F
:102F4000ACD2000810D3000818D300081CD3000826
:102F500000ED000824D3000898D300082CD3000803
:102F600034D300084CD3000888D2000868D3000886
:102F700070D3000880D300080000000000000000AB
:102F8000F8B502251D4B1E4E9B691E4C9F683046AE
:102F9000791C1D4B1D4A2560FEF73AF802464FF09A
:102FA000030C1B4DB91C2A601A4B1B4A06F5A47072
:102FB000C4F800C0FEF72CF84FF0040C8646F91C4C
:102FC000164A174B06F52470C5F804E0C4F800C093
:102FD000FEF71EF80523A8602360FEF759F80623C4
:102FE0002360FEF755F807232360FFF799FDBDE83E
:102FF000F8400C490C48FDF7A3BE00BF880C002028
:10300000E0150020F41C0020A8D20008015C000894
:103010000C1D002018D30008915C000881130008E3
:10302000ACD2000888D200089CD200080000000042
:10303000F8B50124274B284E9A6928489568284BF3
:103040002919284A3460FDF7E3FF0746264CA91CDE
:10305000264B244A26482760FDF7DAFF0746E91C7D
:10306000244B204A24486760FDF7D2FF0746291DFC
:10307000224B1C4A2248A760FDF7CAFF0746214B96
:10308000184A691D2048E760FDF7C2FF022320614E
:103090003360202383F311881C4C2368A3420BD098
:1030A0006FF001051A6818465460226007F070F846
:1030B00023684562A342F5D106F052FF002383F353
:1030C0001188FFF72DFDBDE8F84011491148FDF7C3
:1030D00037BE00BF880C0020F41C0020E015002043
:1030E00098D30008915C00080C1D002000ED00083A
:1030F0002817002018D3000870180020ACD2000850
:10310000B8190020A8D20008001B002000080020E9
:1031100088D2000894D300080000000000000000DE
:103120002DE9F04101242B4B2B4E9B692B4D9F68C1
:10313000DFF8CC80391932462846294BC8F80040C0
:10314000FDF766FF8446274C3246B91C264B05F531
:10315000A470C4F800C0FDF75BFF84463246F91C3A
:10316000224B05F52470C4F804C0FDF751FF8446D6
:103170003246391D1E4B05F57670C4F808C0FDF7C0
:1031800047FF844632461B4B791D05F5A460C4F801
:103190000CC0FDF73DFF02232061C8F8003020235A
:1031A00083F31188FDF724FFFDF722FFFDF720FFD1
:1031B000FDF71EFFFDF71CFF06F0D2FE002383F390
:1031C0001188FFF7ADFCBDE8F0410B490B48FDF756
:1031D000B7BD00BF880C0020915C0008E0150020FE
:1031E00098D300080C1D002000ED000818D300083B
:1031F000ACD20008A8D2000888D2000894D30008F6
:10320000F41C00200000000000000000000000008E
:10321000FFF786BC00000000000000000000000076
:10322000FFF77EBC0000000000000000000000006E
:10323000F8B502230325274F274EBA69274894681B
:10324000336007F0DDF8264B264A611C26483560BE
:10325000FDF7DEFE8446254D254B224AA11C25485C
:10326000C5F800C0FDF7D4FE8446234B1D4AE11C7F
:103270002248C5F804C0FDF7CBFE8446204B194A0E
:10328000211D2048C5F808C0FDF7C2FE8446611D17
:103290001D4B144A1D48C5F80CC0FDF7B9FE0423A8
:1032A00002460E4833602A6107F01AF8FFF738FC2F
:1032B000BB6917499868001BB0FA80F04009FDF718
:1032C000BFFB00B1F8BD13491348BDE8F840FDF756
:1032D00037BD00BF880C0020F41C002054080020DB
:1032E00098D3000801150008E01500200C1D0020EF
:1032F00000ED00082817002018D3000870180020DF
:10330000ACD20008B8190020A8D20008001B002089
:103310000CC6000888D2000894D300080000000002
:10332000FFF7FEBB000000000000000000000000EE
:1033300070B50125224B234C9A6923489168234B91
:103340002944234A2560FDF763FE0225214B2560B1
:103350001860202383F3118800261F4C02E0012D02
:103360000ED00125A3680133002BA360F7DC206891
:1033700003685C60236006F00BFF012D4662F0D10C
:1033800006F0EEFD002585F31188FFF7C9FB202329
:1033900083F31188A0681149A0F10100B0FA80F010
:1033A0004009FDF74DFB10B185F3118870BD80F326
:1033B00011880B490548BDE87040FDF7C1BC00BF4E
:1033C000880C0020F41C0020E0150020A8D2000882
:1033D000615300080C1D0020BC1500209CD3000880
:1033E00088D200080000000000000000000000007B
:1033F00001202DE9F8434C4D2023286083F31188E8
:103400004A4CA368013B5CBFA3600020002383F308
:1034100011884749FDF714FB08B1BDE8F88320681F
:103420004449001BB0FA80F04009FDF709FB002871
:10343000F3D1A0684049B0FA80F04009FDF700FBE5
:103440000028EAD102263D4A034691693C48896832
:103450003C4A01392E60FDF7DBFD02463A4B4FF442
:103460007A701A60FDF76CFA0646FFF759FBB6FA58
:1034700086F02F494009FDF7E3FA0028CDD12068F6
:103480002C49001BB0FA80F04009FDF7D9FA00285A
:10349000C3D1A0682849B0FA80F04009FDF7D0FAFE
:1034A0000028BAD103232B60FFF7E2F941258146BA
:1034B0001F4E204FDFF880802846FDF769FB64200F
:1034C000FDF73EFAA0F1FF30B0FA80F03146400936
:1034D000FDF7B6FA0028A0D120683946001BB0FAE3
:1034E00080F04009FDF7ACFA002896D1A06841466B
:1034F000B0FA80F04009FDF7A3FA0135EDB20028DB
:103500008BD1462DD8D111491148FDF719FC00285F
:1035100083D109F5FC7109F5FA7089B280B2BDE872
:10352000F843FDF745B800BFF41C0020BC1500208F
:10353000ACD30008C0C50008D0C50008880C002026
:10354000E0150020B14200080C1D002088D20008C0
:1035500094D30008000000000000000000000000FC
:10356000F8B501242D4B2E4F9A692E4891682E4BA9
:103570002E4A01393C60FDF74BFD2D4B202618608B
:1035800086F311882B4D4FF0FF31284607F030FFAE
:103590000023044683F3118828682749B0FA80F095
:1035A0004009FDF74DFA00B1F8BDB4FA84F02349A3
:1035B0004009FDF745FA04460028F5D1FFF7B0FAB7
:1035C00002233B6086F311884FF0804328464FF476
:1035D000FA615E6A07F00CFFB6B2074684F3118801
:1035E00006F2D37106F5FA6689B2B0B2FCF7E0FFD5
:1035F0000028D9D128681049B0FA80F04009FDF7B9
:103600001FFA0028D0D1A7F1FF30B0FA80F0BDE852
:10361000F8400A494009FDF713BA00BF880C0020A2
:10362000F41C0020E0150020A8D20008914F0008EB
:103630000C1D0020341D0020C4D30008D0D3000886
:10364000F8B50124594D5A4EAA695A4B91685A4807
:103650005A4A05393460FDF7DBFC0746AB69584C24
:103660009968564A574B043957482760FDF7D0FCF4
:103670000746AA69554B91685548504A0339676017
:10368000FDF7C6FC0746AA69524B916852484B4A5F
:103690000239A760FDF7BCFC0746AA694F4B916849
:1036A0004F480139454AE760FDF7B2FC2061FFF75A
:1036B00037FA4C494C48FDF743FB00B1F8BD0227EF
:1036C000AA69464B916846483C4A01393760FDF784
:1036D0009FFC0746AA693F4B91683F48374A023929
:1036E0002761FDF795FC0746AA69384B9168384871
:1036F000324A0339E760FDF78BFC0746AA69314B74
:10370000916831482D4A0439A760FDF781FC0746CE
:10371000AA69284B916828480539284A6760FDF74F
:1037200077FC2060FFF7FCF92E492F48FDF708FBD6
:103730000028C3D10320AA6930609168214B1F4A39
:1037400004392148FDF764FC0646AA69194B9168C3
:1037500019481A4A05396660FDF75AFC0646AA69F7
:103760001E4B91681E48154A01392660FDF750FC32
:103770000646AA69174B91681748104A0239266114
:10378000FDF746FC0646AA69104B916810480339BC
:103790000A4AE660FDF73CFCA060FFF7C1F9BDE80E
:1037A000F84010491048FDF7CBBA00BF880C002044
:1037B000F41C002098D30008E0150020B10C00088C
:1037C0000C1D002000ED00082817002018D3000869
:1037D00070180020ACD20008B8190020A8D2000848
:1037E000001B002088D2000894D3000800000000CD
:1037F000F8B50125424C2560FEF702FEB0FA80F0D4
:1038000040494009FDF71CF900B1F8BD02232360CF
:10381000FEF73EFE0646003818BF01203A49FDF784
:103820000FF90028F1D103232360FEF731FEB0FA2F
:1038300080F036494009FDF703F90028E5D104235B
:103840002360FEF7DDFD0746003818BF0120304930
:10385000FDF7F6F80028D8D1F01BB0FA80F02D491A
:103860004009FDF7EDF80028CFD178682949A0F18B
:103870000200B0FA80F04009FDF7E2F80028C4D158
:103880007B6828462B4423497B60FDF7D9F8002844
:10389000BBD178681F49A0F10300B0FA80F040095D
:1038A000FDF7CEF80028B0D1384606F0E1FE786882
:1038B0001949A0F10200B0FA80F04009FDF7C0F804
:1038C0000028A2D1384606F0D3FE70681249401B8A
:1038D000B0FA80F04009FDF7B3F8002895D1052330
:1038E0003046236006F0C4FE06232360FEF788FD01
:1038F000BDE8F840B0FA80F002494009FDF7A0B8F1
:10390000F41C002008D40008E8D30008F8D300080D
:1039100004D4000810D400082CD4000800000000D3
:1039200010B5FEF76DFD40B1436804462BB120464B
:1039300006F09EFE6368002BF9D110BD0000000068
:10394000F8B50125424C2560FEF742FDB0FA80F043
:1039500040494009FDF774F800B1F8BD0223236027
:10396000FEF7EEFD0646003818BF01203A49FDF784
:1039700067F80028F1D103232360FEF7E1FDB0FAD8
:1039800080F036494009FDF75BF80028E5D10423B3
:103990002360FEF71DFD0746003818BF012030499F
:1039A000FDF74EF80028D8D1F01BB0FA80F02D4971
:1039B0004009FDF745F80028CFD178682949A0F1E2
:1039C0000200B0FA80F04009FDF73AF80028C4D1AF
:1039D0007B6828462B4423497B60FDF731F800289B
:1039E000BBD178681F49A0F10300B0FA80F040090C
:1039F000FDF726F80028B0D1384606F051FE786869
:103A00001949A0F10200B0FA80F04009FDF718F85A
:103A10000028A2D1384606F043FE70681249401BC8
:103A2000B0FA80F04009FDF70BF8002895D1052386
:103A30003046236006F034FE06232360FEF7C8FC00
:103A4000BDE8F840B0FA80F002494009FCF7F8BF41
:103A5000F41C002008D40008E8D30008F8D30008BC
:103A600004D4000810D400082CD400080000000082
:103A700010B5FEF7ADFC40B1436804462BB12046BB
:103A800006F00EFE6368002BF9D110BD00000000A7
:103A9000F8B50125424C2560FEF782FCB0FA80F0B3
:103AA00040494009FCF7CCFF00B1F8BD0223236078
:103AB000FEF7BEFC0646003818BF01203A49FCF765
:103AC000BFFF0028F1D103232360FEF7B1FCB0FA59
:103AD00080F036494009FCF7B3FF0028E5D1042304
:103AE0002360FEF75DFC0746003818BF012030490F
:103AF000FCF7A6FF0028D8D1F01BB0FA80F02D49C2
:103B00004009FCF79DFF0028CFD178682949A0F132
:103B10000200B0FA80F04009FCF792FF0028C4D1FF
:103B20007B6828462B4423497B60FCF789FF0028EB
:103B3000BBD178681F49A0F10300B0FA80F04009BA
:103B4000FCF77EFF0028B0D1384606F0C1FD78684A
:103B50001949A0F10200B0FA80F04009FCF770FFAB
:103B60000028A2D1384606F0B3FD70681249401B08
:103B7000B0FA80F04009FCF763FF002895D10523D7
:103B80003046236006F0A4FD06232360FEF708FC00
:103B9000BDE8F840B0FA80F002494009FCF750BF98
:103BA000F41C002008D40008E8D30008F8D300086B
:103BB00004D4000810D400082CD400080000000031
:103BC00010B5FEF7EDFB40B1436804462BB120462B
:103BD00006F07EFD6368002BF9D110BD00000000E7
:103BE000F8B50125424C2560FEF7C2FBB0FA80F023
:103BF00040494009FCF724FF00B1F8BD02232360CF
:103C0000FEF766FB0646003818BF01203A49FCF76C
:103C100017FF0028F1D103232360FEF759FBB0FA08
:103C200080F036494009FCF70BFF0028E5D104235A
:103C30002360FEF79DFB0746003818BF012030497E
:103C4000FCF7FEFE0028D8D1F01BB0FA80F02D4919
:103C50004009FCF7F5FE0028CFD178682949A0F18A
:103C60000200B0FA80F04009FCF7EAFE0028C4D157
:103C70007B6828462B4423497B60FCF7E1FE002843
:103C8000BBD178681F49A0F10300B0FA80F0400969
:103C9000FCF7D6FE0028B0D1384606F0C1FB7868A4
:103CA0001949A0F10200B0FA80F04009FCF7C8FE03
:103CB0000028A2D1384606F0B3FB70681249401BB9
:103CC000B0FA80F04009FCF7BBFE002895D105232F
:103CD0003046236006F0A4FB06232360FEF748FB72
:103CE000BDE8F840B0FA80F002494009FCF7A8BEF0
:103CF000F41C002008D40008E8D30008F8D300081A
:103D000004D4000810D400082CD4000800000000DF
:103D100010B5FEF72DFB40B1436804462BB1204699
:103D200006F07EFB6368002BF9D110BD0000000097
:103D3000F8B50125424C2560FEF702FBB0FA80F091
:103D400040494009FCF77CFE00B1F8BD0223236026
:103D5000FEF7D6FB0646003818BF01203A49FCF7AB
:103D60006FFE0028F1D103232360FEF7C9FBB0FAF0
:103D700080F036494009FCF763FE0028E5D10423B2
:103D80002360FEF7DDFA0746003818BF01203049EE
:103D9000FCF756FE0028D8D1F01BB0FA80F02D4970
:103DA0004009FCF74DFE0028CFD178682949A0F1E1
:103DB0000200B0FA80F04009FCF742FE0028C4D1AE
:103DC0007B6828462B4423497B60FCF739FE00289A
:103DD000BBD178681F49A0F10300B0FA80F0400918
:103DE000FCF72EFE0028B0D1384606F089FC786832
:103DF0001949A0F10200B0FA80F04009FCF720FE5A
:103E00000028A2D1384606F07BFC70681249401B9E
:103E1000B0FA80F04009FCF713FE002895D1052385
:103E20003046236006F06CFC06232360FEF788FA18
:103E3000BDE8F840B0FA80F002494009FCF700BE46
:103E4000F41C002008D40008E8D30008F8D30008C8
:103E500004D4000810D400082CD40008000000008E
:103E600010B5FEF76DFA40B1436804462BB1204609
:103E700006F046FC6368002BF9D110BD000000007D
:103E80002DE9F0410125504C2560FEF741FAB0FACA
:103E900080F04E494009FCF7D3FD08B1BDE8F08140
:103EA00002234B482360FEF7FBF90646003818BF93
:103EB00001204849FCF7C4FD0028EFD10323464800
:103EC0002360FEF7EDF9B0FA80F044494009FCF7B1
:103ED000B7FD0028E2D104232360FEF719FA074654
:103EE000003818BF01203E49FCF7AAFD0028D5D1B3
:103EF00045F2AA583B693B491868A0EB0800B0FAA4
:103F000080F04009FCF79CFD0028C7D1F01BB0FAF7
:103F100080F035494009FCF793FD0028BED1786850
:103F20003149A0F10200B0FA80F04009FCF788FDA9
:103F30000028B3D17B6828462B442B497B60FCF7D3
:103F40007FFD0028AAD13B6926491868A0EB08002C
:103F5000B0FA80F04009FCF773FD00289ED1786824
:103F60002149A0F10300B0FA80F04009FCF768FD98
:103F7000002893D1384606F083FA78681B49821EE0
:103F800050425041FCF75CFD002887D1384606F0CE
:103F900077FA70681549431B58425841FCF750FDA9
:103FA00000287FF47BAF05233046236006F068FAD3
:103FB00006232360FEF7ACF9BDE8F041B0FA80F0CB
:103FC00002494009FCF73CBDF41C002008D400085D
:103FD000B808002040D40008BC08002050D40008D5
:103FE00004D4000860D4000810D400082CD40008C1
:103FF00010B5FEF78DF940B1436804462BB1204659
:1040000006F03EFA6368002BF9D110BD00000000F5
:1040100002232DE9F041484A86B09469474D05A92D
:10402000474804AAA6682B6006F05AFA0446A0F195
:104030000100B0FA80F043494009FCF701FD10B1DE
:1040400006B0BDE8F08103273F4BDFF834814FF421
:10405000A471CDE900833D4A731E39482F6005F0F5
:10406000D7FF03463A4F003818BF012039493B605B
:10407000FCF7E6FC0028E3D14FF0040C364B4FF47C
:10408000A471CDE90083354AB31E2D48C5F800C0A0
:1040900005F0BEFF0346003818BF01202D497B60A4
:1040A000FCF7CEFC0028CBD14FF0050C2C4A4FF08A
:1040B0000041F31E019222482A4ACDF80080C5F83B
:1040C00000C005F0A5FF0346B0FA80F0264940097C
:1040D000BB60FCF7B5FC0028B2D106232B60FEF7CD
:1040E0001FFD22492248FCF72BFE0028A8D10723F8
:1040F00003A9134802AA2B6006F0F2F9201AB0FABD
:1041000080F01C494009FCF79BFC002898D10598D9
:10411000039B1949C01AB0FA80F04009FCF790FCE3
:1041200000288DD10498029B1449C01AB0FA80F07F
:104130004009FCF785FC83E7880C0020F41C002074
:10414000F413002070D40008A8D2000808D3000897
:104150000C1D002034D30008ACD2000810D3000896
:1041600018D300081CD300084CD3000888D20008DC
:1041700080D4000884D400089CD40008B8D4000877
:10418000C10C00080000000000000000000000005A
:10419000012208B5064BC82106481A6006F0E8FE61
:1041A000BDE80840B0FA80F003494009FCF748BC7C
:1041B000F41C00201008002030C600080000000099
:1041C000334801232DE9F0470646324F0422324995
:1041D0003B6006F005FC0223B04604242F4D3B60F3
:1041E0000021404606F0C4FE003818BF01202946D1
:1041F000FCF726FC002848D1013CF1D103232146DD
:1042000023483B6006F0B4FEB0FA80F02449400930
:10421000FCF716FC002838D104234FF020091E4D6E
:10422000DFF86CA03B6005F110082B4689F311887C
:10423000F268504645F8042BF36006F081FB05F068
:104240008FFE84F311884545EFD105230424104ED9
:10425000124D3B600021304606F08AFE003818BF40
:1042600001202946FCF7ECFB78B9013CF2D106238A
:10427000214607483B6006F07BFEBDE8F047B0FAF8
:1042800080F007494009FCF7DBBBBDE8F08700BFC1
:1042900010080020F41C0020A815002024C60008E7
:1042A00030C6000800000000000000000000000010
:1042B00008B5642007F044F9202383F311880448EB
:1042C00006F03EFB05F04CFE002383F3118808BD89
:1042D000BC150020000000000000000000000000ED
:1042E000202208B582F311888368002B05DD05F0D4
:1042F00037FE002383F3118808BD06F021FB05F08B
:104300002FFE002383F3118808BD00BF00000000CA
:104310002DE9F84F0824CA4A00210127134604203A
:10432000C84EC94D3460C94C7260F46306F1240470
:10433000C6E9094406F13004C54AC6E90C44C6E999
:104340000511F76206F114073264356103F140028A
:104350003762B063B060C3E9003308339342FAD1E7
:10436000B94B01250022BB4903F1F00C00E00346E4
:1043700003F13C0003F118046045C3E90217C3E9E7
:1043800006441D62CB601946C3E90422C3E9095201
:10439000EDD102220027DFF8DCB2AF4BDFF8C48298
:1043A000DFF8D492DFF89CA2CBF80020F361384606
:1043B000FDF7EEFE0446406A4146C0F34000FCF7BC
:1043C0003FFB002840F03A81606A4946C0F3C000D4
:1043D000FCF736FB0546002840F03081202383F3AC
:1043E00011882146504606F0BBFA05F0B9FD85F369
:1043F00011880137082FDAD198499948FCF7A0FCB9
:104400000546002840F01A810323964FDFF86C928E
:10441000DFF83082CBF800302846FDF7B9FE0446BD
:10442000406A3946C0F34000FCF70AFB002840F020
:104430000581606A4946C0F3C000FCF701FB0246F3
:10444000002840F0FB80636A214643F00803636262
:104450004046F36B984780F001008349C0B2FCF7F7
:10446000EFFA002840F0EA80606A3946C0F3400065
:10447000FCF7E6FA7D49002840F0E080606A80F0B1
:104480000800C0F3C000FCF7DBFA8246002840F0C9
:10449000D580202383F311882146404606F060FA38
:1044A00005F05EFD8AF311880135082DB4D16B4902
:1044B0006F48FCF745FC0546002840F0BF80042308
:1044C000684FDFF8B891DFF87C81CBF800302846E0
:1044D000FDF75EFE0446406A3946C0F34000FCF733
:1044E000AFFA002840F0AA80606A4946C0F3C000D5
:1044F000FCF7A6FA002840F0A180636A214643F049
:104500000803636201224046F36B984780F0010084
:104510005549C0B2FCF794FA002840F08F80284635
:10452000FDF736FE0446406A3946C0F34000FCF70A
:1045300087FA4E49002840F08180606A80F00800C8
:10454000C0F3C000FCF77CFA8246002876D1202315
:1045500083F311882146404606F002FA05F000FD7B
:104560008AF311880135082DB1D13C494048FCF748
:10457000E7FB002862D1052304263A4FDFF8EC80E0
:10458000DFF8C090CBF800303046FDF701FE04465E
:10459000406A3946C0F34000FCF752FA00284DD17A
:1045A000606A414680F00800C0F3C000FCF748FA9A
:1045B0000546002842D1202383F31188214648462E
:1045C00006F0CEF905F0CCFC85F311880136082EF3
:1045D000DAD122492248FCF7B3FB044670BB06231C
:1045E000204FDFF89890DFF85C80CBF80030204651
:1045F000FDF7CEFD0546406A3946C0F34000FCF7A2
:104600001FFAD8B9686A4946C0F3C000FCF718FA27
:10461000064698B9202383F311882946404606F0C0
:104620009FF905F09DFC86F311880134042CDED13E
:10463000BDE8F84F09490A48FCF782BBBDE8F88F8E
:10464000B4130020440C0020B81400208146000858
:10465000C10B0008580C00206C150020FCD4000889
:104660003CE30008D8D4000810D5000820D5000885
:104670002CD50008F41C0020E4D4000824D5000840
:1046800070B50C4615464B6906466133D8B2FCF747
:104690007FFA636A23F0080363620DB9002070BDDE
:1046A000202383F311882146304606F059F905F09E
:1046B00057FC002383F31188002070BD0000000028
:1046C00070B5012600254C4A8AB092694B4B92681E
:1046D0004B4932444B4C07924B4A059304A803F5CF
:1046E000E4730693099504910892266005F0D8FCBE
:1046F00002234649464A2360054605F081FD45F2FE
:10470000AA53C01AB0FA80F042494009FCF798F960
:1047100008B10AB070BD4049412328463F4A05F020
:104720006FFDA0F14100B0FA80F03A494009FCF772
:1047300087F90028EDD143223949009242232846C7
:10474000384A05F05DFDA0F14200B0FA80F0314931
:104750004009FCF775F90028DBD145234622324990
:10476000CDE9003228464423304A05F049FDA0F146
:104770004400B0FA80F027494009FCF761F90028AD
:10478000C7D1482149224A2328468DE80E002849EE
:104790004723284A05F034FDA0F14700B0FA80F025
:1047A0001C494009FCF74CF90028B2D117492846AA
:1047B000214A05F025FD4AF65523C01AB0FA80F0CB
:1047C00014494009FCF73CF90028A2D11B491C48B8
:1047D000FCF7B6FA00289CD103232846236006F094
:1047E00047F840F6A573C01AB0FA80F015494009A1
:1047F000FCF726F98DE700BF880C0020F020002090
:1048000038D50008F41C0020C1900008419200082F
:10481000D10B000844D5000821920008E10B0008E4
:1048200001920008F10B0008E1910008110C00084A
:10483000C1910008310C0008610C0008FCD400088C
:104840005CD500086CD500080000000000000000E6
:1048500070B52026002586F3118805F049FC85F304
:104860001188446A86F31188214605F0A1FB85F37F
:104870001188002CEFD170BD000000000000000086
:10488000F8B50124154B164D9B69164A99681648D0
:1048900021442C60FCF7BCFB0222042420270026C4
:1048A000124B2A60186087F3118805F021FC86F30B
:1048B0001188456A87F31188294605F079FB86F34C
:1048C0001188E8B2FCF764F9013CECD1FEF728F955
:1048D000BDE8F84006490748FCF732BA880C0020CA
:1048E000F41C002021570008E01500200C1D0020BA
:1048F00088D2000868D30008000000000000000013
:104900002DE9F0470422002508260123444CDFF856
:1049100040818CB0C4E90356204642496261A561DA
:10492000A560C4E90044C8F8003006F059F8022038
:104930003D4F3E4BBA693E499268C4E90933E36191
:104940001033013A236201F5E473DFF808C1394EF0
:104950000992089304F1340204F13C03C4E90D22E6
:10496000C4E90F33E56284F83050C8F8000006A8A7
:104970000B950791CDF818C00A9605F091FBBB691D
:104980002D4A9B682D49023B0595814602F5E47549
:104990006846CDE9012503930496009105F080FB5C
:1049A000032382466125264FC8F8003004F11C0617
:1049B0004FF0FF31204606F0DBFA0022C0E9007517
:1049C00001460135304606F05BFB692DF0D104232A
:1049D0004FF0FF311248C8F80030002406F0C8FA42
:1049E00022460146C0E90044164806F049FB4FF054
:1049F000FF310B4806F0BCFA22460146C0E90044EC
:104A0000104806F03DFB484605F032FF504605F0E1
:104A10002FFF0D490D48FCF793F90CB0BDE8F08766
:104A20003414002014140020880C00209814002056
:104A3000601D0020614A0008281F00208CD5000856
:104A40002126000850140020FCD400082CD50008B2
:104A5000F41C002080D500080000000000000000C9
:104A60002DE9F041114E82B0B04606F11C074FF01F
:104A7000FF32384601A906F0CBFA044610B102B065
:104A8000BDE8F081019D2B68002BF8D0686898473D
:104A9000202383F31188F36840462B60F56005F00E
:104AA0004FFF05F05DFA84F31188E0E7341400202D
:104AB000F0B5012600251B4C1B4F85B004F12000EA
:104AC0003E6005F09DFC23682675C4E9023325612C
:104AD000202383F311886FF0010104F1180005F021
:104AE0009FFF6FF0010104F11C0005F099FF05F034
:104AF00037FA85F3118804F1200005F0F1FB2268F4
:104B0000E368934206D028460849FBF799FF78B13D
:104B100005B0F0BDA2689342F5D12569B5FA85F0DC
:104B20004009F1E7C0080020F41C002044D200082E
:104B3000022310203B60FDF7E3F9B0FA80F0C24990
:104B40004009FBF77DFF0028E2D12268E368934229
:104B500000F08B81BD49FBF773FF0028D8D10323F8
:104B6000102168463B60FDF74BFAB0FA80F0B64979
:104B70004009FBF765FF0028CAD12268E368934229
:104B800000F08581B149FBF75BFF0028C0D104210B
:104B90002268E36820759342396000F06F81AB4969
:104BA000FBF74EFF0028B3D1052310203B60FDF733
:104BB000A7F9A0F11000B0FA80F0A5494009FBF771
:104BC0003FFF0028A4D12268E368934200F0688187
:104BD0009E49FBF735FF00289AD10623102168462D
:104BE0003B60FDF70DFAA0F11000B0FA80F0984993
:104BF0004009FBF725FF00288AD12268E368934229
:104C000000F059819149FBF71BFF002880D1914B9F
:104C1000009A9A4200F0588101208F4980F00100EB
:104C2000FBF70EFF00287FF473AF072304203B60DF
:104C3000FDF766F9A0F10400B0FA80F0844940095C
:104C4000FBF7FEFE00287FF463AFD4E90223934212
:104C500003D02268934200F052817C49FBF7F0FEBA
:104C600000287FF455AF08230C203B60FDF748F97E
:104C7000A0F10C0CDCF1000040EB0C007449FBF7D8
:104C8000DFFE00287FF444AF2268E368934200F01F
:104C90003E816E49FBF7D4FE00287FF439AF09232B
:104CA000042168463B60FDF7ABF9051F6842684187
:104CB0006749FBF7C5FE00287FF42AAF2368E26846
:104CC0009A4203D0A268934200F045815F49FBF706
:104CD000B7FE00287FF41CAF00985E4B5E49C21AF5
:104CE00050425041FBF7ACFE00287FF411AF0A237D
:104CF0000C2168463B60FDF783F9A0F10C03584294
:104D000058415349FBF79CFE00287FF401AF22680D
:104D1000E368934200F005814C49FBF791FE0028BF
:104D20007FF4F6AE69460C224C4807F023FAB0FA3D
:104D300080F049494009FBF783FE00287FF4E8AE84
:104D40000B2305203B60FDF7DBF8A0F1050EDEF13B
:104D5000000040EB0E003E49FBF772FE00287FF496
:104D6000D7AED4E90223934203D02268934200F0E5
:104D7000E1803649FBF764FE00287FF4C9AE0C23BE
:104D8000052168463B60FDF73BF9461F70427041C4
:104D90002F49FBF755FE00287FF4BAAED4E9022371
:104DA000934200F0E8802949FBF74AFE00287FF48F
:104DB000AFAE69460522294807F0DCF9B0FA80F069
:104DC00025494009FBF73CFE00287FF4A1AE0D23E6
:104DD00010203B60FDF794F8A0F11005684268418F
:104DE0001B49FBF72DFE00287FF492AED4E9022385
:104DF000934200F0B6801549FBF722FE00287FF4AD
:104E000087AE0E23102168463B60FDF7F9F8A0F14C
:104E10001003584258410E49FBF712FE00287FF458
:104E200077AED4E90223934200F08C800749FBF768
:104E300007FE00287FF46CAE69461022074807F091
:104E400099F9B0FA80F00BE098D5000844D2000838
:104E500038D2000830313233A4D5000860DF0008B2
:104E600049494009FBF7ECFD52E6A26893427FF402
:104E700071AE2069B0FA80F040096BE6A2689342F7
:104E80007FF48DAE2069B0FA80F0400987E6A26811
:104E900093427FF477AE2069B0FA80F0400971E662
:104EA000A26893427FF494AE2069A0F11000B0FA9A
:104EB00080F040098CE6A26893427FF4A3AE20699B
:104EC000B0FA80F040099DE6019A03F104339A425A
:104ED0007FF4A2AE03F13063029A03F5302303F2AC
:104EE00004439A427FF498AE03F18063039A03F57A
:104EF000812303F20B339A427FF48EAE8DE6206954
:104F0000A0F1040EDEF1000040EB0E00A5E6A26861
:104F100093427FF4BEAE2069A0F11006704270414A
:104F2000B7E6A26893427FF4F7AE2069B0FA80F04A
:104F30004009F1E62069A0F1050CDCF1000040EB2E
:104F40000C0016E7226893423FF470AF2069B0FA74
:104F500080F040096AE72069A0F10C01484248410D
:104F6000B4E6226893423FF446AF2069A0F11002F4
:104F7000504250413FE7226893423FF414AF20690A
:104F8000B0FA80F040090EE7A4D500080000000048
:104F900010B52023044683F311880021064805F04C
:104FA0003FFD04F0DDFF002383F311882078BDE886
:104FB0001040FBF7EDBD00BF341D002000000000D5
:104FC0002DE9F04101252E4F2E4EBB692E4C9968DC
:104FD000DFF8DC80324620462C4B0531C8F8005003
:104FE000FCF716F88446BB69294D99683246294B6F
:104FF000013104F5A470C5F800C0FCF709F8844637
:10500000BB693246996804F52470234B0331C5F817
:1050100004C0FBF7FDFF8446BB693246996804F57E
:1050200076701E4B0431C5F808C0FBF7F1FF8446CB
:10503000BB693246996804F5A4600231184BC5F883
:105040000CC0FBF7E5FF0223164C28612046C8F888
:10505000003005F005F8204605F002F8204604F07F
:10506000FFFF204604F0FCFF204604F0F9FFFDF7A7
:1050700057FDBDE8F0410C490C48FBF761BE00BF8D
:10508000880C002061530008E0150020A8D2000819
:105090000C1D0020ACD2000818D3000800ED000859
:1050A00098D30008BC15002088D2000894D30008CB
:1050B000F41C0020000000000000000000000000C0
:1050C00001232DE9F041DFF87C800025C8F800308D
:1050D000FDF7CEFB4FF080470646174C204605F003
:1050E0003FF8204604F0BCFF204605F039F8204682
:1050F00004F0B6FF204605F033F8204604F0B0FF78
:10510000204605F02DF8204604F0AAFF7B6A013501
:105110009B1B9BB2B3F5FA6FE0D302230748C8F894
:105120000030FBF7F5FDA800FBF722FDBDE8F041DC
:105130000348FBF7CDBD00BFC8150020B0D2000862
:10514000B8D50008F41C002000000000000000009A
:1051500038B5084CA36993F821305A0708D4064D96
:10516000284604F0FDFFA36993F821305B07F7D5CB
:1051700038BD00BF880C0020C815002000000000CA
:105180002DE9F04101234FF0000884B05F4E01ADDE
:105190002027CDE901553360CDF80C8087F31188C5
:1051A00003985B494045CCBF00200120FBF748FC39
:1051B00020B188F3118804B0BDE8F081044680F383
:1051C00011880223014628463360FBF779FF87F3F5
:1051D000118803984E490028CCBF00200120FBF71E
:1051E0002FFC8046002872D180F311880324494A9D
:1051F0002B46916948488968484A01393460FBF771
:1052000007FF04230146464A28461160336004F034
:10521000A7FF044687F3118803983D490028CCBFB7
:1052200000200120FBF70CFC0028C2D180F311887C
:10523000B4FA84F03B494009FBF702FC0028BAD1DC
:105240000523336087F31188039B002B44DD04F0B2
:1052500087FE4FF0000888F31188202787F3118814
:10526000039831494045D4BF00200120FBF7E8FBFB
:10527000044600289DD180F3118887F31188039894
:105280002A49A0F10100B0FA80F04009FBF7D8FBF1
:10529000E8B980F311880623336087F31188039BF4
:1052A000002B2FDD04F05CFE002585F311882026FD
:1052B00086F3118803981E49A842D4BF002001201C
:1052C000FBF7BEFB044658B185F3118873E784F3FE
:1052D000118804B0BDE8F081284605F031FBB6E73F
:1052E00080F3118886F3118803981049A0F101001A
:1052F000B0FA80F04009FBF7A3FB0028E7D180F368
:10530000118858E7284605F01BFBCBE7F41C00206A
:10531000C8D50008880C0020E0150020E1420008F4
:105320000C1D0020D4D50008E8D50008F4D50008ED
:10533000CCD50008000000000000000000000000C4
:1053400010B5044C204604F00BFF2046BDE8104089
:1053500004F086BEBC150020000000000000000024
:1053600010B50446034804F0FBFE2078BDE8104069
:10537000FBF70EBCBC150020000000000000000080
:105380002DE9F84301232A4C2A4F20463B6004F0C4
:10539000E7FE2026054686F31188A0682649B0FA64
:1053A00080F04009FBF74CFB20B1002383F3118808
:1053B000BDE8F88380F31188B5FA85F01F494009EC
:1053C000FBF73EFB05460028F2D14FF002092046CC
:1053D000C7F8009004F044FE86F31188A0681649CF
:1053E000A0F10100B0FA80F04009FBF729FB8046EC
:1053F00018B185F31188BDE8F88380F31188032381
:10540000494620463B60FBF75BFE86F31188A068A7
:105410000949A0F10200B0FA80F04009FBF710FB47
:1054200010B980F31188C3E788F31188C0E700BF83
:10543000BC150020F41C002008D60008D0D30008BA
:1054400038B50446084D04F0FBFC04F0F9FC04F008
:10545000F7FC04F0F5FC2368AA690433236092F892
:1054600021305B07EFD538BD880C0020000000001C
:1054700001222DE9F843174BDFF868809B69C8F8D3
:1054800000209E6800241644FDF7F2F90546DFF877
:105490005890114F00234A4631463846FBF7B8FD75
:1054A00005F046F94FF080435B6A01345B1B9BB209
:1054B000B3F5FA6FEED302230848C8F80030FBF7C3
:1054C00027FC2046FBF754FBBDE8F8430448FBF7F4
:1054D000FFBB00BF880C0020E0150020B0D2000800
:1054E000DCD20008F41C002011910008000000002C
:1054F000F8B50546FDF7BCF9002406464FF0804795
:105500000121284604F05CFE7B6A01349B1B9BB2A0
:10551000B3F5FA6FF4D32846002104F051FE20467B
:10552000F8BD00BF00000000000000000000000007
:105530002DE9F04101242F4E2F4DB3692F4F99686B
:105540002846214400232E4A3C60FBF761FD0346B8
:105550004FF0020CB2692B4CDFF8B880916805F56A
:10556000A4704246236002390023C7F800C0FBF74D
:105570004FFD8446B3694246996805F524700023BF
:105580000339C4F804C0FBF743FD8446B3694246BF
:10559000996805F5767000230439C4F808C0FBF754
:1055A00037FD8446B3694246996805F5A46005391C
:1055B0000023C4F80CC0FBF72BFD03230246206830
:1055C00022613B60FFF794FF0446FDF7A9FA04232C
:1055D0000D483B60FBF79CFB2046FBF7C9FA0B48E4
:1055E000FBF796FB6000FBF7C3FABDE8F041084803
:1055F000FBF76EBB880C0020E0150020F41C002097
:10560000514800080C1D0020B0D200081CD600082C
:10561000E8D200081191000800000000000000001E
:1056200038B50124134B144D9A691448916800232E
:105630002144134A2C60FBF7EBFC0222114B2A6039
:105640001860FFF755FF0446FDF76AFA03230E487A
:105650002B60FBF75DFB2046FBF78AFA0B48FBF754
:1056600057FB6000FBF784FABDE838400848FBF7B9
:105670002FBB00BF880C0020F41C0020E015002088
:10568000514800080C1D0020B0D200081CD60008AC
:10569000E8D2000800000000000000000000000048
:1056A00038B50124134B144D9A69144891680023AE
:1056B0000139134A2C60FBF7ABFC0222114B2A6024
:1056C0001860FFF715FF0446FDF72AFA03230E487A
:1056D0002B60FBF71DFB2046FBF74AFA0B48FBF754
:1056E00017FB6000FBF744FABDE838400848FBF7B9
:1056F000EFBA00BF880C0020F41C0020E015002049
:10570000514800080C1D0020B0D200081CD600082B
:10571000E8D20008000000000000000000000000C7
:1057200010B50446412104F04BFD2046422104F00F
:1057300047FD2046432104F043FD2046BDE81040CC
:10574000442104F03DBD00BF000000000000000047
:10575000F0B52B4E8BB02B4F3046012205A9FAF73E
:10576000FFFE694604223846FAF7FAFE0223264D68
:105770002B60FDF77DF8254A04469169244B896822
:10578000244A01392448FBF743FC0322234B2A60B7
:105790001860FBF7BDFD04F1680104F1640089B2F3
:1057A00080B2FAF705FF08B10BB0F0BDFAF7F0FED2
:1057B000B0FA80F01A494009FBF742F90028F3D10A
:1057C000FDF7AEF90423304605A92B6004F0F0FA8A
:1057D0006946384604F0ECFA30681249801BB0FA8A
:1057E00080F04009FBF72CF90028DDD138680D491D
:1057F000C01BB0FA80F04009FBF722F9D4E700BFE4
:10580000080800200C080020F41C0020880C002050
:10581000A8D2000821290008E01500200C1D002056
:1058200028D6000834D60008000000000000000060
:105830002DE9F0410225294C8AB0294F204605A9BF
:1058400001223D602460FAF78BFE2A466946FAF78A
:1058500087FE202686F3118820682249001B18BF86
:105860000120FBF7EDF828B1002383F311880AB07B
:10587000BDE8F081054680F311880323204605A981
:105880003B6004F095FA86F3118820681549001BE7
:1058900018BF0120FBF7D4F8804620B185F31188AA
:1058A0000AB0BDE8F08180F31188042369462046E0
:1058B0003B6004F07DFA86F3118820680A49001BDA
:1058C000B0FA80F04009FBF7BBF820B980F31188EB
:1058D0000AB0BDE8F08188F31188C8E70808002005
:1058E000F41C002044D6000834D600080000000054
:1058F00038B501232B4C0520236004F049FA02231C
:105900002360FBF705FDA0F10500B0FA80F0264901
:105910004009FBF795F800B138BDFAF739FEB0FA47
:1059200080F022494009FBF78BF80028F4D10323CB
:105930000420236004F02CFA04232360FCF798FF72
:105940001B4B05469B691B4A99681B480139FBF7AD
:105950005FFB0522194B22601860FBF7D9FC05F1AB
:105960006801044605F1640089B280B2FAF720FEAE
:105970000028D1D1A4F10500B0FA80F01049400907
:10598000FBF75EF80028C7D1FAF702FEB0FA80F004
:1059900006494009FBF754F80028BDD1BDE838405E
:1059A000FDF7BEB8F41C002050D6000828D6000829
:1059B000880C0020A15B0008E01500200C1D0020D1
:1059C00068D6000800000000000000000000000091
:1059D00038B50123294C0520236004F0D9F90223AE
:1059E0002360FBF775FCA0F10500B0FA80F02449B4
:1059F0004009FBF725F800B138BDFAF7C9FDB0FA48
:105A000080F020494009FBF71BF80028F4D103235C
:105A10002360FCF72DFF1C4B05469B691B4A9968C8
:105A20001B480139FBF7F4FA04221A4B2260186074
:105A3000FBF74EFC05F16801044605F1640089B2EC
:105A400080B2FAF7B5FD0028D6D1A4F10100B0FA72
:105A500080F011494009FAF7F3FF0028CCD1FAF79A
:105A600097FDB0FA80F007494009FAF7E9FF0028EE
:105A7000C2D1BDE83840FDF753B800BFF41C002088
:105A800050D6000828D60008880C0020A15B00082A
:105A9000E01500200C1D00207CD60008000000004E
:105AA00038B50123354C0720236004F071F9022337
:105AB0002360FBF7EDFBA0F10100B0FA80F0304964
:105AC0004009FAF7BDFF00B138BDFBF7E1FBA0F1DB
:105AD0000200B0FA80F02A494009FAF7B1FF002825
