:020000040800F2
:1000000000040020790200087B0200087B0200083F
:100010007B0200087B0200087B0200087B020008CC
:100020007B0200087B0200087B020008410B0008ED
:100030007B0200087B0200087B0200087B020008AC
:100040007B0200087B0200087B0200087B0200089C
:100050007B0200087B0200087B0200087B0200088C
:100060007B0200087B0200087B020008D11F000809
:10007000A11F0008711F0008411F0008111F000880
:10008000E11E0008B11E00087B0200087B02000888
:100090007B0200087B0200087B0200087B0200084C
:1000A0007B0200087B0200087B0200087B0200083C
:1000B000C11C00087B0200087B0200087B020008CC
:1000C0007B0200087B0200087B0200087B0200081C
:1000D0007B0200087B0200087B0200087B0200080C
:1000E0007B0200087B0200087B0200087B020008FC
:1000F0007B0200087B0200087B0200087B020008EC
:100100007B0200087B0200087B0200087B020008DB
:100110007B0200087B0200087B0200087B020008CB
:10012000811E0008511E0008211E0008F11D000854
:10013000C11D00087B0200087B0200087B0200084A
:100140007B0200087B0200087B0200087B0200089B
:100150007B0200087B0200087B0200087B0200088B
:100160007B0200087B0200087B0200087B0200087B
:100170007B0200087B0200087B0200087B0200086B
:100180007B0200087B0200087B0200087B0200085B
:100190007B0200087B0200087B0200087B0200084B
:1001A00072B6274880F30888264880F309882648D5
:1001B0004EF60851CEF200010860022080F3148848
:1001C000BFF36F8F01F064FF01F082FC4FF05530F8
:1001D0001E491B4A91423CBF41F8040BFAE71C49F7
:1001E000184A91423CBF41F8040BFAE719491A4AF0
:1001F0001A4B9A423EBF51F8040B42F8040BF8E741
:1002000000201749174A91423CBF41F8040BFAE716
:1002100001F0F6FE01F034FF134C144DAC4203DA4A
:1002200054F8041B8847F9E701F0B2F9104C114D5E
:10023000AC4203DA54F8041B8847F9E701F018BF11
:10024000000400200008002000000008000000203A
:1002500000040020F024000800080020000800200E
:1002600000080020A01B0020A0010008A001000839
:10027000A0010008A001000892E700F000F8FEE7E6
:100280002DE9F04FC1F80CD0C3689D46BDE8F08F52
:1002900000F096FC002383F311882846A047002035
:1002A00001F0E6FBFEE700F0B3FC00F059FC00F0C3
:1002B00087FC00DFFEE700000000000000000000F7
:1002C0002DE9F04F0325234CAB46002202264FF0C8
:1002D000050A4FF00F0910E0216A21EA030343EAFF
:1002E0000C03236223680EEA030E4EEA0603236022
:1002F00040082CD0AD00B6000132012302FA03F110
:1003000003FA02F702F007039B000BFA01F110F069
:10031000010F0AFA03FC6FEA010E09FA03F3E7D0B2
:10032000D4F8048028EA07076760A76827EA01076E
:100330002F43A760E768072A27EA0101E160CBD9CC
:10034000616A21EA030343EA0C036362CAE7BDE87A
:10035000F08F00BF00040048000000000000000013
:10036000202383F311880D4B5B6813F4006302D1E3
:1003700083F311887047EFF30983203B4FF08072BD
:10038000DA6183F30988064A11689269896892687C
:1003900091428CBF034A044A9A61704700ED00E025
:1003A000D8090020A7020008B202000800000000DF
:1003B0000E4A0F4B5268D3F88438816830B4D31A90
:1003C000D0E90445C2685B1A01324168C260E41892
:1003D0000268836045F100058B4288BF4360934209
:1003E000C0E9044538BF036030BC7047001000E02E
:1003F000D8090020000000000000000000000000FC
:10040000014B5B6883607047001000E00000000053
:1004100010B40B4A0B48D36B4FF080441968646AE0
:100420005C60406860F31F2143F8101B02F5046113
:100430008B4228BF02F1400310BCD363704700BF5A
:10044000D8090020001000E00000000000000000BB
:1004500090F820300549406ACA6BDB0043F0010385
:1004600013708B69C2E90230FFF7D2BFD8090020B0
:10047000094A138F10B513F0020400D010BD2023D9
:1004800083F31188D36B032298601A70FFF7C0FFC3
:1004900084F3118810BD00BFD809002000000000BF
:1004A000094A138F10B513F0020400D010BD2023A9
:1004B00083F31188D36B022298601A70FFF7A8FFAC
:1004C00084F3118810BD00BFD8090020000000008F
:1004D00008B5044672B6064D2B8F5B0701D5EC625A
:1004E000FEE7EB6B042298601A70FFF791FFF6E7C6
:1004F000D8090020000000000000000000000000FB
:100500000A0700D4704708B50148FFF7E1FF00BFB4
:10051000942000080000000000000000000000001F
:1005200008B5054B1A6B1AB95B6B002B00DD08BDD3
:100530000248FFF7CDFF00BFD8090020A020000827
:1005400008B5054B1A6B002A03DB5B6B002B00DD43
:1005500008BD0248FFF7BCFFD8090020A82000080A
:100560002DE9F04104460D46FFF7EAFF2B49012231
:100570000B68A2401A4218BF002001D0BDE8F081EC
:10058000601C134301EBC0060B60254B41F8305053
:1005900024487060550603EB04104FEA041405D09C
:1005A000214D6E6946F001066E616D6912F4786F37
:1005B00005D01D4D6E6946F002066E616D694D688D
:1005C0001E19B7683D420FD01E191F597368767BFC
:1005D0001C682A434A600E2224F00F04B240002116
:1005E0001C607A601960C9E7F77B7E09B60007F1E5
:1005F000604E06F1604606F561460EF5614E07F065
:100600001F074FF0010C0CFA07F74FF0A0088EF807
:100610000083C6F880713760D6E700BFA4130020BE
:100620007023000830080020001002400000000085
:10063000F8B50D4604461646FFF782FF85B16B1EDE
:1006400013EA05070CD10949D1E900236D42181BB3
:100650002840861BB24206D8B34204D34E60F8BD90
:100660000348FFF735FF3846F8BD00BF8013002070
:10067000BC21000800000000000000000000000095
:100680000022FFF7D5BF00BF0000000000000000FF
:1006900010B50446FFF754FFA4B194F820308BB195
:1006A0000F2B0FD00022A168084B84F820201B6874
:1006B0009A688A42FBD85A682046C4E9003214601E
:1006C0005C6010BD0248FFF703FF00BFD80900209F
:1006D000A821000800000000000000000000000049
:1006E00010B50446FFF72CFFA4B194F820308BB16D
:1006F0000F2B0FD00022A168084B84F820201B6824
:100700009A688A42FBD25A682046C4E900321460D3
:100710005C6010BD0248FFF7DBFE00BFD809002077
:10072000842100080000000000000000000000001C
:1007300008B5202383F31188064A136B002B01DDD3
:10074000516B11B10448FFF7C3FE013B136381F302
:10075000118808BDD8090020B02000080000000062
:1007600008B5202383F31188064A136B002B01DBA5
:10077000516B11B10448FFF7ABFE0133136381F3F2
:10078000118808BDD8090020B8200008000000002A
:1007900008B5064B1A6B002A05DD5A6B002A02DDEC
:1007A00000225A6308BD0248FFF792FED8090020D4
:1007B000C020000800000000000000000000000051
:1007C00008B5064B1A6B002A01DD5A6B12B10448BA
:1007D000FFF77EFE01225A6308BD00BFD809002042
:1007E000C820000800000000000000000000000019
:1007F00038B50446202383F31188FFF7E1FF94F80E
:100800002030072B0FD8DFE803F0140E0E1A0A046D
:100810000E0A656AFFF794FEAB680133AB60D4E95A
:10082000003213605A604FF0FF3363622046FFF7D7
:1008300057FFFFF7ADFF002383F3118838BD636ACC
:1008400000221A60EFE700BF000000000000000077
:10085000FEE700BF000000000000000000000000F4
:10086000F8B50C0750D443681A780446002A34D1EE
:10087000D0E908214E685D6833680F6823F00F03E4
:100880003360497B56680E2303FA01F179603168C1
:10089000176821F00F013160527B93407B60002D7F
:1008A00038D004230370A8472378042B32D02023A8
:1008B00083F31188FFF784FFA06840B190F82030DF
:1008C000032B24D10023A3604362FFF709FFFFF746
:1008D0005FFF002383F31188F8BD4A070D4603D557
:1008E0005B68002BF8D09847AB07F5D563685B6869
:1008F000002BF1D004222270204698472378042B45
:10090000EAD103232370F8BD0448FFF7E1FD044852
:10091000FFF7DEFD02232370C9E700BF9420000823
:100920005822000800000000000000000000000045
:1009300030B40268437B11684468D940246801F0F0
:100940000E010C420ED0807B074C013001FA03F3FC
:1009500054F8305053602DB104EBC0002B46406872
:1009600030BC184730BC7047A413002000000000C2
:1009700008B54FF08043DA68920701D5586308BD87
:100980000148FFF7A5FD00BFAC22000800000000F1
:1009900070B52E4C2378012B39D0E2696568698ADD
:1009A00001F47063B3F5E06FD4E90A0323F47063D4
:1009B0001CD82E78E36220F470600EB340F024005F
:1009C00043F02403C4E90A031468288A41F48053DD
:1009D00043F0070340F0040124F040041460116068
:1009E0005360136843F04003136070BD2E7843F4E6
:1009F000A06320F47060E36240F4A060002EDDD1BB
:100A000020F0240023F02403C4E90A03DCE71049A2
:100A10000320FFF7A5FD2062A0B10E490420FFF7D7
:100A20009FFD606270B10C4B256AD969E26940682C
:100A30006D6841F48041D96102F10C01DB69A96064
:100A40008160ABE70548FFF743FD00BF3008002099
:100A5000610800080105000800100240DC220008BF
:100A600038B51B4D0446FFF75BFD2B68A869AB4208
:100A700026D09A68836893421FD3A26800219A42C5
:100A8000616215D9FFF704FE012384F820302B8F13
:100A9000AC61DB07054615D5EFF30983EA69243B12
:100AA0009A4212D829462046BDE83840FFF7E8BBF5
:100AB0002046BDE83840FFF713BE0648FFF708FDA3
:100AC0008368DAE7FFF7C4FCE6E70348FFF700FDB9
:100AD000D809002014220008D020000800000000DF
:100AE00070B5154CA5690646FFF71AFD236885F811
:100AF00020601A6822600121546083F82010228F40
:100B0000A361D3070BD5EFF30983EA69243B9A422B
:100B10000ED8A0692946BDE87040FFF7B1BB284652
:100B2000FFF796FCEFF30983EA69243B9A42F0D978
:100B30000248FFF7CDFC00BFD8090020D0200008F4
:100B4000EFF30983203383F30988002383F31188AB
:100B5000704700BF0000000000000000000000001F
:100B600038B5134C2368A0691A68226001215460CB
:100B700083F82010A361FFF78BFD238FDB07054669
:100B80000BD5EFF30983EA69243B9A420DD8A0699B
:100B90002946BDE83840FFF773BBFFF759FCEFF378
:100BA0000983EA69243B9A42F1D90248FFF790FC95
:100BB000D8090020D020000800000000000000003C
:100BC00008B5054B1A6B22B9596B002901DD5A6330
:100BD00008BD0248FFF77CFCD8090020E02000088F
:100BE00008B5FFF7EDFF084B1A689A4204D09969DF
:100BF00093688A689A4203D3002383F3118808BD5F
:100C00000248FFF765FC00BFD80900203C2100081E
:100C100008B5054BD3E90C120A4302D00348FFF78D
:100C200057FC01225A6308BDD8090020E8200008BB
:100C300008B5202383F31188FFF7EAFF0F4B1A78DA
:100C4000022A15D15A68D2E9022101238B409BB2B6
:100C50005383FFF7B5FF0A4B1A689A4204D099698B
:100C600093688A689A4206D3002383F3118808BDEB
:100C70000448FFF72DFC0448FFF72AFC3008002049
:100C8000D8090020C422000830210008000000001C
:100C900008B5202383F31188FFF7BAFF0F4B1A78AA
:100CA000022A15D15A68D2E9022101238B409BB256
:100CB0001383FFF785FF0A4B1A689A4204D099699B
:100CC00093688A689A4206D3002383F3118808BD8B
:100CD0000448FFF7FDFB0448FFF7FAFB300800204B
:100CE000D8090020EC220008302100080000000094
:100CF00070B5202383F31188FFF78AFF224B1A78FF
:100D0000022A22D1D3E90812D3E90A5449681F48BC
:100D10005268C86045F080054FF4007003264860B3
:100D20001E7044F080040D60194DD5605060146051
:100D30000C68986844F001040C60116841F00101EE
:100D4000116028B11348FFF7C3FB1348FFF7C0FB3E
:100D5000124CA26943F8082F5362FFF7E1FB3046BB
:100D6000FFF7BEFEFFF72CFF2368A34204D0A26961
:100D70009B6892689A4203D3002383F3118870BD65
:100D80000748FFF7A5FB00BF300800200C14002027
:100D9000A01900204022000864230008D809002080
:100DA00030210008000000000000000000000000EA
:100DB0002DE9F041202386B083F31188504E374649
:100DC000FFF726FFFFF7ACFBFFF7BAFBB36957F855
:100DD0001C5F05934FF080434A4A5C6A0492BD420F
:100DE00073D0B06A41F28833241AE41842D2AB6857
:100DF0009C4265D39C420DF1040806D945453ED07E
:100E00002D68E41AAB689C42F8D86B68CDE90153B1
:100E1000C3F80080C5F804800394AB681C1B4FF036
:100E2000FF33AC6073620820FFF75AFEFFF788FBC0
:100E3000049B7BB1FFF784FBF369434522D0DDE9D6
:100E400001321360019BBB425A6003D09A68039938
:100E50000A449A60FFF7B4FE3368B34204D0B26923
:100E60009B6892689A4228D3002383F3118806B0C6
:100E7000BDE8F081AA682D68A41AAB68BAE72248D9
:100E8000FFF726FB019BF3610022BB425F600492E7
:100E900032D09A680399B06A0A444FF080419A6050
:100EA0004B6A191A8A42D5D9C31A1344012B98BF29
:100EB0008A1C1044FFF75CFDCCE71448FFF708FBE1
:100EC0002044FFF755FDAB6894E741F28831039168
:100ED000DA68B4620DF1040812F00202CDE901559E
:100EE000C6E9078805D10C4402215C631A61D96008
:100EF00099E70748FFF7ECFA4FF08043DA60A9E77B
:100F0000D8090020F1070008902100083C210008C2
:100F10008422000800000000000000000000000023
:100F200008B5074B074A9B69074C9A6101252E4675
:100F30002683FFF73DFF6583FFF73AFFF8E700BF21
:100F4000D8090020F0200008000800480000000038
:100F500070B5202304460D46164683F31188FFF72B
:100F600057FE324629462046FFF762FB0446FFF74C
:100F700027FE084B1A689A4204D0996993688A68D8
:100F80009A4204D3002383F31188204670BD02489F
:100F9000FFF79EFAD8090020542100080000000045
:100FA0002DE9F843DFF8C0800546D8F818702023F3
:100FB00083F31188FFF72CFEBE6B16B1B368BB42FA
:100FC00002D02748FFF784FAAE42FAD1EC68BC633E
:100FD000FFF7A6FAD5F800904D4538D0FE6B5CB10E
:100FE000FFF79EFA23689C4203D09B689E4238BF5D
:100FF0001E46E468002CF3D1D9F80030D9F8382027
:10100000BE6048462B605D60C5E90292C9F8385061
:10101000FFF766FBFFF784FAFFF792FAD8F8002093
:10102000D8F8183092689B689A4216D8FFF7C8FD26
:10103000D8F80030434505D0D8F818209B6892684E
:101040009A4207D3002383F31188BDE8F883002375
:10105000B360EBE70348FFF73BFAFFF781FDE5E7F5
:10106000F421000848210008D809002000000000F1
:10107000F8B50446202383F31188FFF7C9FD3C4EE1
:10108000FFF74EFAA068B569002834D0AA688368D3
:10109000934207D290F820308260062B50D0072B65
:1010A00038D06BB3234603E09968AA68914202D313
:1010B0001B689C42F8D15A680620C5E900321560C9
:1010C0005D606C62FFF70CFDA3689D4202D0294869
:1010D000FFF7FEF9AB6B9C42F9D1FFF771FD336866
:1010E000B34204D0B2699B6892689A4225D3002328
:1010F00083F31188F8BDAB6BC4E90253AC63ECE732
:10110000D0E90032012180F8201013605A60FFF707
:10111000E7FAC7E7D0E90031476A0B6059603B4600
:1011200002E09968914202D31B689F42F9D15A6844
:10113000C0E9003210605860B4E70F48FFF7C8F903
:10114000D0E90031476A0B6059603B4602E099687C
:10115000914202D31B689F42F9D15A68C0E900321C
:1011600010605860B868AA6883689A4292D899E774
:10117000D80900209C210008482100080000000038
:101180001E4D1F4CAB691F4ADFF8888080B51E4F8B
:101190009A6104F10C0630464FF00209FFF768FF30
:1011A000A8F81A90202383F31188FFF731FD2378E4
:1011B000013B012B1BD86760FFF7EAFB84F8009026
:1011C000FFF7FEFC2B68AB4204D0AA699B689268CB
:1011D0009A420FD3002383F31188FFF729FDFFF70D
:1011E00087FDFFF755FD3046FFF7DAFED3E70748E6
:1011F000FFF76EF90648FFF76BF900BFD80900202A
:1012000030080020F8200008482400089422000834
:101210003021000800080048000000000000000025
:101220001E4D1F4CAB691F4ADFF8888080B51E4FEA
:101230009A6104F10C0630464FF00209FFF718FFDF
:10124000A8F81890202383F31188FFF7E1FC237896
:10125000013B012B1BD86760FFF79AFB84F80090D5
:10126000FFF7AEFC2B68AB4204D0AA699B6892687A
:101270009A420FD3002383F31188FFF7D9FCFFF7BD
:1012800037FDFFF705FD3046FFF78AFED3E7074835
:10129000FFF71EF90648FFF71BF900BFD809002029
:1012A00030080020082100085C240008942200086F
:1012B0003021000800080048000000000000000085
:1012C0002DE9F84F0746202383F311887B4CFFF765
:1012D0009FFC256995F82230013385F82230FFF70D
:1012E0006FFC2368A34204D0A2699B6892689A426B
:1012F00042D34FF0000888F311884FF02009EB69C2
:101300009F4200F0858089F31188FFF781FC2E69E8
:10131000A6424CD096F82230FF2B45D0013386F8F8
:101320002230FFF74DFC2368A34204D0A2699B68DA
:1013300092689A4220D388F3118889F31188FFF7C5
:1013400067FC95F82230D3B1013B85F822302B6A37
:1013500003F0FF130F2B15D0FFF732FC2368A342D5
:1013600004D0A2699B6892689A421AD388F31188C4
:10137000002E4ED03546C2E75148FFF7A9F8514834
:10138000FFF7A6F8D5E904231A612A695361FFF72C
:1013900017FC2368A3420CD0A2699B6892689A420A
:1013A00007D24948FFF794F84848FFF791F800261C
:1013B000B7E788F3118895F8213003F00303012B78
:1013C0002AD0022BD4D1D5F840A0ED6989F3118839
:1013D000FFF71EFCFFF7B4F8BAF1000F5BD0002D49
:1013E00059D0DAF80830013B1D4254D1DAF8003008
:1013F0002B60CAF80050FFF7E3FB2368A342B5D087
:10140000A2699B6892689A42B0D23148FFF760F8AF
:101410002E463046BDE8F88FED69CDB36B0737D166
:1014200055E902230733DB0802F10C0B45F8043CB5
:1014300002F1040A5846FFF71BFEA5F108015346C6
:10144000994205D35A68013203EBC20291421FD37D
:101450009A451A6801D0994218D90AB1914215D219
:1014600055F8040C45F8082C196055F8082C013083
:1014700001EBC00C624518D05868421C03EBC20255
:1014800091420BD05846FFF78BFD71E71346D7E723
:101490001048FFF71DF81048FFF71AF855E9021237
:1014A0000132024419605A60ECE7D2E9002C604432
:1014B00045F8082C45F8040CDEE700BFD8090020E9
:1014C00078210008242200083C2100086822000836
:1014D00060210008E8210008DC210008000000006D
:1014E0002DE9F047440706D180460C4691469A46BE
:1014F000FFF7E6FE10B12148FEF7EAFF08EB04060D
:10150000B04505D24546552705F8017BAE42FBD1D3
:10151000202383F31188483C4444FFF779FB184BA0
:101520002361A4F1240217495869E26044F8041CBD
:10153000022515492584012284F82220A161002278
:1015400004F12C0104F12805606144F8202CC4E961
:101550000D2244F824ACC4F80890C4F81C80C4F8E8
:101560003C9004612046C4E90A5121635C61FFF7A5
:1015700077FAFFF735FB2046BDE8F0870022000828
:10158000D80900209102000818210008000000007E
:10159000214B22489A6A62F4FC0280B59A629A6AE8
:1015A00002F4FC029A624FF0FF319A6A1A691961DB
:1015B00000221C691A611C69DC68D960D968DA608C
:1015C000D968D96941F08051D961D969016841F47C
:1015D00080710160196A01F44071B1F5007F86B035
:1015E00003D04FF4803119621A620B4B1A6A12044D
:1015F00007D41A6A42F400721A621A6A42F400426C
:101600001A6207490748084C0023C1E900330A461B
:1016100001F160050BE000BF0010024000700040C7
:10162000A4130020702300080800024044682360CF
:1016300042F8083F954200F11000F7D1B14DB24F8A
:10164000B24ADFF820936B604FF0FF3CC7F804C04C
:1016500060214FF480744FF040084FF0800E4FF43B
:101660000077C9F804C082F80613C2F88081C2F876
:10167000008082F80713C2F880E1C2F800E082F827
:101680000813C2F88041146082F80913C2F880710F
:1016900017604FF4806782F80A139D4EC2F880717C
:1016A00017604FF4000782F81713C2F880711760B3
:1016B00082F82813C2F884415460B4699548964969
:1016C000AB6044F001040127B461DFF89C82D6F8D6
:1016D00018906B6105F10C04C5E903442F70C5F83F
:1016E0001C8007700F70F469DFF880922B623C4316
:1016F000F461F469D9F808806B624FF0804648EADB
:101700000708C0E90133C0E90833C1E90133C1E981
:10171000083343614B61C9F80880DFF854927F4C6D
:1017200041F61F48C6F82880C0F81C90DFF84482B4
:10173000C1F81C8000F10C09C0E9039901F10C0803
:1017400041F20A09C1E90388C5F8289041F2180856
:10175000C0F82890C1F82890DFF81C92C5F82C80BA
:10176000C0F82C80C1F82C804FF0805004F11C018F
:1017700004F14005C6F82CC0B361C4F824C07363FB
:101780006460F360A36073602461776164613760B3
:10179000A36282F81CE30023C4E90E95C2F880011D
:1017A000E161106021622460013304EB0312802B9D
:1017B00092F830106FF3020182F83010F4D15849DA
:1017C000584B594A0A6001F10C02C1E9032203F1A6
:1017D00010021A6114229A6103F124025A6203F181
:1017E00028029A621C221A6303F13C02DA6303F1B5
:1017F00040021A6403F144025A644C484C4E1E6283
:1018000000220425C1E901224A619A605A61DA6224
:10181000C3E90033C4E90C22CDE90122C4F88428CD
:101820000392DD61434A5D639E63434B0260436004
:101830004FF0FF31002200230091CDE904236846D8
:10184000FEF7DEFD6846FEF7B3FD013DF7D10099D6
:101850003A4B6269C4F884188021C4F84818C4F867
:101860007C18374EC4F854280121C4F8586835480C
:1018700084F86158C4F87858C4F87458C4F85048CB
:1018800084F8621803F12806136103F12C02C4F8EE
:101890005C08C4E9053384F86018C4F86868C4F8C3
:1018A0006C28C4F87028202080F3118862B6264B7B
:1018B000264AD968264F4FF6FF0631400A4325498C
:1018C000DA60CA6842F08072CA603A68D4E90C6192
:1018D00042F001023A601022DA7783F8220056EAD9
:1018E00001030BD185F3118862B61B4D2846FFF723
:1018F000E7FC002842D01948FEF7EAFD1848FEF739
:10190000E7FD00BF000800200000024000E100E009
:10191000001002403008002060080020D809002094
:101920008813002060120020510F0008801300204F
:1019300081060008A01B0020008000201812002053
:10194000302400080004002000ED00E00003FA0548
:10195000001000E0F0ED00E0A8120020D021000807
:10196000202100080004024000300140002004E073
:1019700000380040003C0040F0FF8000D8262B4695
:101980005522013E03F8012BFBD1202383F311885C
:10199000FFF73EF9FEF7D4FD294A2A4BEA662A48AA
:1019A0006169C5F88C000222A5F8B0202748C5F867
:1019B000A800012203F12400C5E92623C5F8CC20A4
:1019C00085F8B22003F14C025033C5F8A410C5E9E4
:1019D0003166C5F8AC502E67C5F8A0400861C5E96E
:1019E0002E23C5F8C0306061FFF73AF8FFF7F8F82A
:1019F0004FF48040FEF764FC4FF40040FEF760FCBB
:101A0000134B03F8016B0136B6F5007FF9D1114B8A
:101A1000114881224FF4E471FFF762FD0F4B10482B
:101A200081224FF4E471FFF75BFD0E4B0E487F22DD
:101A30004FF4A471FFF754FDFFF7BAF9FCE700BFBC
:101A40005108000814130020910200082821000802
:101A5000A019002081110008101600202112000892
:101A6000D8170020210F0008900800200000000077
:101A700008B50546202383F31188FFF7C9F8104BFA
:101A80009C69A06A656204F12805A84206D0036833
:101A9000A362FEF725FEA06AA842F8D194F822308E
:101AA0003BB994F821309B0703D1D4E90432136188
:101AB0005A610F20FFF714F80248FEF709FD00BF36
:101AC000D8090020342200080000000000000000B7
:101AD000614B62489A6A624942F4FC02F0B49A622D
:101AE0009A6A604F604C22F4FC029A629A6A5D69BD
:101AF00045F4FC055D614FF090425E695B4E4FF42A
:101B0000C065556097604FF67F75D6604FF4A006AC
:101B100055611662564D574E55621660C0254FF2FC
:101B2000C0364560544A86604FF6FF754FF08846D0
:101B3000C2604561002206624AF28F064262066078
:101B40000F2048604D4888604D4E4E48C8604D613A
:101B50000A624E624C4E0E604C4E6260A6604C4E65
:101B6000E6604FF2FF7666614A4E26624A484B4E67
:101B70006262266004244460494C846004F18C4411
:101B8000A4F53F04A4F6AB34C46041F6FF7444618D
:101B9000444C02624262046000F1566000F5142079
:101BA000414CC1F8042C00F5CC60C1F8084CC1F8D8
:101BB0000C0CC1F8145CC1F8202CC1F8242CC1F81D
:101BC000002C1A6842F001021A601A689407FCD5CA
:101BD0005968214A21F003015960536813F00C033E
:101BE000FBD110681C4900F0F900106053601368C5
:101BF00043F4803313600B689803FCD54A6A164B94
:101C000042F001024A625A6A9207FCD5274A5A609A
:101C100000213022D9621A631A6801F1804142F032
:101C2000807201F504311A600B689B01FCD5204BD2
:101C300012221A601A6802F00702022AFAD1064B31
:101C40005A6842F002025A605A6802F00C02082AEE
:101C5000FAD1F0BC704700BF0010024000040048F9
:101C60000008004800CCFCFC000C00484011002497
:101C700040E40E000C40A8AA10045555FF0CF0F3E8
:101C800000660600005145045504A002FF3FC00055
:101C90000040155577707707001000489A2A4000D9
:101CA000F0300F0010C00F003F033C0000641DA87F
:101CB00000200240000000000000000000000000C2
:101CC0002DE9F84F4FF080453848FEF7E9FBFEF765
:101CD00047FD2B69EA681340DAB2D2439B072A61B9
:101CE00008D4FEF725FD3148FEF7C2FBBDE8F84FEA
:101CF000FEF736BB202383F311882D4EFEF760FDDF
:101D0000FEF71EFCFEF71CFCF469686AB36AA26861
:101D1000A0EB03094A4506F11C0A98BF002725D805
:101D20004FF0200800E0B36A2168D4F80CB01344E7
:101D30005145B362C1F804A0F161E76008BFEF60EC
:101D4000A9EB0209FEF724FD87F311882069D84723
:101D500088F31188FEF734FDF469A2689145E2D258
:101D6000686AB36AA0EB03099145D9D2544513D0F0
:101D7000A268B062121A1344022B2CBFC518851C2E
:101D8000A3602846FEF7F4FD4FF08043B26A5B6A19
:101D9000A81A9B1A834205D8FEF7FAFC002383F3A6
:101DA00011889EE70348FEF793FB00BF78220008E6
:101DB000D80900206C21000800000000000000008D
:101DC00010B5094C2046FEF76BFBFEF7C9FC07482F
:101DD000FEF7AEFDFEF7ACFC2046FEF749FBBDE882
:101DE0001040FEF7BDBA00BF5823000820240008A9
:101DF00010B5094C2046FEF753FBFEF7B1FC07482F
:101E0000FEF796FDFEF794FC2046FEF731FBBDE899
:101E10001040FEF7A5BA00BF4C23000810240008AC
:101E200010B5094C2046FEF73BFBFEF799FC07482E
:101E3000FEF77EFDFEF77CFC2046FEF719FBBDE8B1
:101E40001040FEF78DBA00BF4023000800240008B0
:101E500010B5094C2046FEF723FBFEF781FC07482E
:101E6000FEF766FDFEF764FC2046FEF701FBBDE8C9
:101E70001040FEF775BA00BF34230008F0230008B5
:101E800010B5094C2046FEF70BFBFEF769FC07482E
:101E9000FEF74EFDFEF74CFC2046FEF7E9FABDE8E2
:101EA0001040FEF75DBA00BF28230008E0230008B9
:101EB00010B5094C2046FEF7F3FAFEF751FC07482F
:101EC000FEF736FDFEF734FC2046FEF7D1FABDE8FA
:101ED0001040FEF745BA00BF1C230008D0230008BD
:101EE00010B5094C2046FEF7DBFAFEF739FC07482F
:101EF000FEF71EFDFEF71CFC2046FEF7B9FABDE812
:101F00001040FEF72DBA00BF10230008C0230008C0
:101F100010B5094C2046FEF7C3FAFEF721FC07482E
:101F2000FEF706FDFEF704FC2046FEF7A1FABDE829
:101F30001040FEF715BA00BF04230008B0230008C4
:101F400010B5094C2046FEF7ABFAFEF709FC07482E
:101F5000FEF7EEFCFEF7ECFB2046FEF789FABDE843
:101F60001040FEF7FDB900BFF8220008A0230008CA
:101F700010B5094C2046FEF793FAFEF7F1FB07482F
:101F8000FEF7D6FCFEF7D4FB2046FEF771FABDE85B
:101F90001040FEF7E5B900BFD022000890230008EA
:101FA00010B5094C2046FEF77BFAFEF7D9FB07482F
:101FB000FEF7BEFCFEF7BCFB2046FEF759FABDE873
:101FC0001040FEF7CDB900BFB822000880230008FA
:101FD00010B5094C2046FEF763FAFEF7C1FB07482F
:101FE000FEF7A6FCFEF7A4FB2046FEF741FABDE88B
:101FF0001040FEF7B5B900BFA0220008702300080A
:10200000F0B4144F144D1548154B164907F1700CD8
:102010000026984211D904391A4651F8044F42F863
:10202000044B9042F9D8421ED21A22F00302043225
:1020300013449D4203D943F8046B9D42FBD8674586
:1020400005D0D7E90413D7E906051037E1E7F0BC5E
:10205000704700BF70240008A01B0020A01B0020B8
:10206000A01B0020F0240008000000000000000079
:10207000FEE700BF000000000000000000000000BC
:10208000704700BF000000000000000000000000DA
:04209000704700BFD6
:10209400444D41206661696C757265005356233165
:1020A40031000000535623313000000053562339C9
:1020B4000000000053562338000000005356233715
:1020C400000000005356233600000000737461635F
:1020D4006B206F766572666C6F77000053562335FC
:1020E400000000005356233400000000626C696E47
:1020F4006B657200535049207468726561642031C5
:1021040000000000535049207468726561642032F5
:10211400000000006E6F6E616D650000535623333E
:102124000000000069646C65000000006368537976
:1021340073556E6C6F636B006368537973556E6C83
:102144006F636B006368537973556E6C6F636B00D8
:102154006368537973556E6C6F636B00636853796E
:1021640073556E6C6F636B0063685654446F5469A7
:10217400636B49006368537973556E6C6F636B00CE
:1021840063685363685265616479490063685654AF
:10219400446F53657449000063684D74784C6F63F1
:1021A4006B530000636853636852656164794168E6
:1021B40065616449000000006368436F7265416CA7
:1021C4006C6F6346726F6D546F7049006368546836
:1021D40064437265617465006368506F6F6C467226
:1021E400656549006368486561704672656500000D
:1021F40063684D7478556E6C6F636B0063685468E4
:1022040064437265617465537461746963000000AA
:10221400636853636857616B657570530000000011
:10222400636854686452656C6561736500000000FE
:10223400636854686445786974530000636854683B
:102244006453757370656E6454696D656F7574530A
:10225400000000006368546864526573756D6549D5
:102264000000000063685265674E657874546872B4
:1022740065616400566563746F724230000000004B
:1022840073745374617274416C61726D0000000068
:10229400737069537461727400000000566563744E
:1022A4006F723643000000007374536574416C61AF
:1022B400726D0000566563746F7237300000000061
:1022C40073706953656C65637400000056656374CC
:1022D4006F723734000000007370695F6C6C645F68
:1022E4007374617274000000737069556E73656C69
:1022F40065637400566563746F72373800000000BC
:10230400566563746F72374300000000566563744A
:102314006F72383000000000566563746F72383491
:1023240000000000566563746F72313230000000A3
:10233400566563746F7231323400000056656374FD
:102344006F72313238000000566563746F72313237
:1023540043000000566563746F723133300000002F
:1023640073706945786368616E67650000000240B8
:1023740008000240010000000000000B00000240C1
:102384001C000240020000000004010C0000024096
:1023940030000240040000000008020D000002406A
:1023A4004400024008000000000C030E000002403C
:1023B40058000240100000000010040F000002400A
:1023C4006C000240200000000014051000000240D0
:1023D4008000024040000000001806110004024082
:1023E4000804024080000000000007380004024096
:1023F4001C040240000100000004083900040240EB
:1024040030040240000200000008093A00040240BF
:102414004404024000040000000C0A3B0004024093
:10242400580402400008000000100B3C6D61696E06
:1024340000164130040444080C1014181C202122F6
:10244400000000000000000000000000000400483C
:102454000A00000000000007000000000000000067
:10246400000400480A00000030000007F0240008BF
:10247400A01B0020A01B0020A01B0020F0240008AB
:10248400000000000000000000000000F02400082C
:10249400000000000000000000000000F02400081C
:1024A400000000000000000000000000F02400080C
:1024B400000000000000000000000000F0240008FC
:1024C400000000000000000000000000F0240008EC
:1024D400000000000000000000000000F0240008DC
:0C24E400000000000000000000000000EC
:040000050800027974
:00000001FF
