:020000040800F2
:1000000000040020C9020008CB020008CB0200084F
:10001000CB020008CB020008CB020008CB0200088C
:10002000CB020008CB020008CB020008B138000860
:10003000CB020008CB020008CB020008CB0200086C
:10004000CB020008CB020008CB020008CB0200085C
:10005000CB020008CB020008CB020008CB0200084C
:10006000CB020008CB020008CB020008CB0200083C
:10007000CB020008CB020008CB020008CB0200082C
:10008000CB020008CB020008CB020008CB0200081C
:10009000CB020008CB020008CB020008CB0200080C
:1000A000CB020008CB020008CB020008CB020008FC
:1000B000F1940008CB02000881940008CB020008EC
:1000C000CB020008CB020008CB020008CB020008DC
:1000D000CB020008CB020008E1920008CB02000826
:1000E000CB020008CB020008CB020008CB020008BC
:1000F000CB020008CB020008CB020008CB020008AC
:10010000CB020008CB020008CB020008CB0200089B
:10011000CB020008CB020008CB020008CB0200088B
:10012000CB020008CB020008CB020008CB0200087B
:10013000CB020008CB020008CB020008CB0200086B
:10014000CB020008CB020008CB020008CB0200085B
:10015000CB020008CB020008CB020008CB0200084B
:10016000CB020008CB020008CB020008CB0200083B
:10017000CB020008CB020008CB020008CB0200082B
:10018000CB020008CB020008CB020008CB0200081B
:10019000CB020008CB020008CB020008CB0200080B
:1001A000CB020008CB020008CB020008CB020008FB
:1001B000CB020008CB020008CB020008CB020008EB
:1001C000CB020008CB020008CB020008CB020008DB
:1001D000CB020008CB020008CB020008CB020008CB
:0401E000D13700080B
:1001F00072B6274880F30888264880F30988264885
:100200004EF60851CEF200010860022080F31488F7
:10021000BFF36F8F09F014FA08F02AFF4FF0553042
:100220001E491B4A91423CBF41F8040BFAE71C49A6
:10023000184A91423CBF41F8040BFAE719491A4A9F
:100240001A4B9A423EBF51F8040B42F8040BF8E7F0
:1002500000201749174A91423CBF41F8040BFAE7C6
:1002600009F0A6F909F0E4F9134C144DAC4203DA95
:1002700054F8041B8847F9E706F002FE104C114DB4
:10028000AC4203DA54F8041B8847F9E709F0C8B90F
:1002900000040020000800200000000800000020EA
:1002A00000040020A4BF000800080020DC08002093
:1002B000E0080020D0240020E0010008E40100084C
:1002C000E4010008E401000892E700F000F8FEE70E
:1002D0002DE9F04FC1F80CD0C3689D46BDE8F08F02
:1002E000002383F311882846A047002003F0F0FA8A
:1002F000FEE703F065FB00DFFEE70000844641EA0D
:10030000000313F003036DD1403A41D351F8043B8D
:1003100040F8043B51F8043B40F8043B51F8043BDF
:1003200040F8043B51F8043B40F8043B51F8043BCF
:1003300040F8043B51F8043B40F8043B51F8043BBF
:1003400040F8043B51F8043B40F8043B51F8043BAF
:1003500040F8043B51F8043B40F8043B51F8043B9F
:1003600040F8043B51F8043B40F8043B51F8043B8F
:1003700040F8043B51F8043B40F8043B51F8043B7F
:1003800040F8043B51F8043B40F8043B403ABDD2EE
:10039000303211D351F8043B40F8043B51F8043B90
:1003A00040F8043B51F8043B40F8043B51F8043B4F
:1003B00040F8043B103AEDD20C3205D351F8043B1F
:1003C00040F8043B043AF9D2043208D0D2071CBFEB
:1003D00011F8013B00F8013B01D30B880380604614
:1003E000704700BF082A13D38B078DD010F003038A
:1003F0008AD0C3F10403D21ADB071CBF11F8013BFA
:1004000000F8013B80D331F8023B20F8023B7BE748
:10041000043AD9D3013A11F8013B00F8013BF9D273
:100420000B7803704B7843708B788370604670470D
:1004300053B94AB9002908BF00281CBF4FF0FF314B
:100440004FF0FF3000F06CB9ADF1080C6DE904CE4F
:1004500000F006F8DDF804E0DDE9022304B070479F
:100460002DE9F047089E0D4604468E46002B40F0CD
:1004700082808A42174646D9B2FA82F24AB1C2F164
:10048000200105FA02F320FA01F1974041EA030E38
:1004900094404FEA1748230CBEFBF8FCB9B208FBA6
:1004A0001CEE43EA0E430CFB01F098420AD9FB18FC
:1004B0000CF1FF3580F01681984240F21381ACF1C7
:1004C000020C3B441B1AA4B2B3FBF8F008FB103338
:1004D00044EA034400FB01F1A14209D93C1900F1AF
:1004E000FF3380F00181A14240F2FE8002383C449B
:1004F000641A40EA0C4000211EB1D4400023C6E932
:100500000043BDE8F08702B9FFDEB2FA82F2002AAA
:100510004FD1CB1B4FEA174E1FFA87F80121B3FBCF
:10052000FEFC250C0EFB1C3345EA034508FB0CF3CF
:10053000AB4207D97D190CF1FF3002D2AB4200F279
:10054000E7808446ED1AA3B2B5FBFEF00EFB105512
:1005500043EA054408FB00F8A04507D93C1900F11F
:10056000FF3302D2A04500F2D7801846A4EB08045E
:1005700040EA0C40C0E78B4208D9002E00F0AF8063
:100580000021C6E900050846BDE8F087B3FA83F10B
:1005900000294BD1AB4202D3824200F2B780841AC9
:1005A00065EB030301209E46002EAAD0C6E9004E4B
:1005B000A7E7C2F1200C01FA02F3974020FA0CF0F1
:1005C0004FEA174E21FA0CFC1843BCFBFEF1050C58
:1005D0000EFB11CC1FFA87F845EA0C4501FB08F326
:1005E000AB4204FA02F409D97D1901F1FF3C80F015
:1005F0008B80AB4240F2888002393D44EB1A85B2D1
:10060000B3FBFEF00EFB103345EA034500FB08F395
:10061000AB4207D97D1900F1FF3C71D2AB426FD9D3
:1006200002383D44EB1A40EA014178E7C1F1200C61
:100630008B4022FA0CF71F4320FA0CF405FA01F361
:100640004FEA174E25FA0CF51C43230CB5FBFEF9B7
:100650001FFA87F80EFB195543EA054509FB08FA0E
:10066000AA4502FA01F200FA01F308D97D1909F14D
:10067000FF3047D2AA4545D9A9F102093D44A5EB6F
:100680000A05A4B2B5FBFEF00EFB105544EA054482
:1006900000FB08F8A04507D93C1900F1FF352DD221
:1006A000A0452BD902383C4440EA0940A4EB080499
:1006B000A0FB02894C45C6464D4619D316D05EB103
:1006C000B3EB0E0264EB050404FA0CFCCA404CEADE
:1006D0000202CC40C6E900240021BDE8F087314683
:1006E00030460EE7AC46EDE6184601E74345E6D254
:1006F000B8EB020E69EB07050138E0E72846D3E7BF
:1007000060468FE78146BAE7614677E708464BE7E0
:10071000ACF1020C3D4415E702383C4426E700BF2B
:10072000704700BF00000000000000000000000053
:100730002DE9F04F0022214C02254FF007084FF021
:100740000F0E4FF0010C03270FE0216A21EA03038B
:1007500043EA0903236223680AEA030A4AEA050313
:100760002360400828D0AD000132510002F0070399
:100770009B0007FA01F110F0010F08FA03F90CFAD7
:1007800002F60EFA03F36FEA010AEAD0D4F804B0D5
:100790002BEA06066660A66826EA0106A660E668F9
:1007A000072A26EA0101E160CFD9616A21EA030341
:1007B00043EA09036362CEE7BDE8F08F0000024020
:1007C000202383F31188094B9A6822B1002000236B
:1007D00083F311887047064A92699A60916BD960D9
:1007E00093630120002383F3118870472C080020B5
:1007F0002C14002000000000000000000000000099
:10080000202383F31188044B9A690023506B5363B0
:1008100083F31188704700BF2C14002000000000F3
:100820004FF08043091A5B6A181A884201D20020EF
:1008300070470449044A054B0548086001201070C0
:1008400018707047741E0020181F0020781E0020AA
:1008500028980008000000000000000000000000D0
:1008600003681B68184700BF00000000000000007C
:1008700030B4202383F311880B4CD4E9003549426E
:10088000281A0840821A9A4207D3954205D362601B
:10089000002383F3118830BC70470020002383F3CA
:1008A000118830BC704700BFC81500200000000050
:1008B000024AD36843F0C003D3607047004400404D
:1008C0000B4B0C4AD91D21F00701CB1AC3F1780359
:1008D00010B4002002F10C04DB084B60516008608A
:1008E000C2E90344106010BC90605061704700BFC3
:1008F000981E00207C1E0020000000000000000068
:10090000054B00220421C3E90033C3E90411DA6076
:100910009A619A60704700BF100800200000000034
:10092000FFF7EEBF00000000000000000000000024
:1009300000207047000000000000000000000000E0
:10094000034B00210422C3E901221960D9607047DA
:1009500074080020000000000000000000000000FB
:1009600003681A1D02601B68184700BF00000000E2
:10097000016803460A46081D10B4186052F8084B77
:1009800048681A60234610BC184700BF00000000EA
:10099000026830B40346111D5068196014689168EC
:1009A00002F10C051D60234630BC18470000000012
:1009B000036870B404461A1DD3E9010122601D6862
:1009C000DA6803F1100626602B4670BC184700BF9A
:1009D000036870B404461D1DD3E90101DA6825607F
:1009E0001D6803F11406AC461B69266070BC6047A5
:1009F00030B40F4B0F4A1A6002F1080503F12004CE
:100A0000C3E9022203F13000002203F14001C3E9EF
:100A100008445D60C3E90C0030BCC3E91011C3E9B0
:100A200006221A611A759A629A639A64704700BF27
:100A30008C080020D81300200000000000000000F7
:100A400030B40F4B0F4A1A6002F1100503F1200475
:100A5000C3E9022203F13000002203F14001C3E99F
:100A600008445D60C3E90C0030BCC3E91011C3E960
:100A700006221A611A759A629A639A64704700BFD7
:100A80008C080020D81300200000000000000000A7
:100A900030B40A4B0A4A1A6002F1100503F1180437
:100AA000002103F12000C3E906445D60C3E902228E
:100AB00030BCC3E908001961197570474C08002063
:100AC000B016002000000000000000000000000040
:100AD000FFF7DEBF00000000000000000000000083
:100AE000FFF7D6BF0000000000000000000000007B
:100AF000024B0022C3E900339A607047E0160020E1
:100B0000024B0122C3E900339A607047FC170020B2
:100B1000704700BF0000000000000000000000005F
:100B2000024B0022C3E900339A607047FC17002093
:100B3000044B00224FF4A4700421C3E901011A60A0
:100B4000DA607047C01600200000000000000000BE
:100B50000B4B0C4AD91D21F00701CB1AC3F5CC630E
:100B600010B4002002F10C04DB084B6051600860F7
:100B7000C2E90344106010BC90605061704700BF30
:100B800008180020301600200000000000000000BF
:100B900008B5FFF735FE024A024B12601B6008BD24
:100BA000080800200C0800200000000000000000E1
:100BB000FFF726BE0000000000000000000000005B
:100BC000FFF7F6BF0000000000000000000000007A
:100BD000FFF7EEBF00000000000000000000000072
:100BE000FFF7E6BF0000000000000000000000006A
:100BF000FFF7DEBF00000000000000000000000062
:100C00000649074A074B09600020C2E90022C3E9F0
:100C10000033496090609860704700BF0008002072
:100C20002C0800203C08002000000000000000000C
:100C3000044A054B12600021C3E9003352609960F9
:100C4000704700BF000800202C08002000000000B2
:100C5000FFF7EEBF000000000000000000000000F1
:100C6000024B0022C3E900339A6070472C08002031
:100C7000044A054B12600021C2E90121C3E9003397
:100C8000996070472C0800203C08002000000000FC
:100C9000FFF7E6BF000000000000000000000000B9
:100CA000024B0022C3E900339A607047F01700201E
:100CB000FFF7F6BF00000000000000000000000089
:100CC000FFF7EEBF00000000000000000000000081
:100CD000FFF7E6BF00000000000000000000000079
:100CE000024B0122C3E900339A607047F0170020DD
:100CF000014B00221A607047481F002000000000CE
:100D000008B10020704710B4044A054C054B01207F
:100D10002070107010BC1960704700BF781E002052
:100D2000181F0020741E00200000000000000000BA
:100D3000014B03221A6070471C1F002000000000B6
:100D4000044B01214FF080421960516A536A994265
:100D5000FCD070471C1F00200000000000000000B5
:100D6000074B01221A60202383F3118862B672B602
:100D700083F3118862B6002383F3118862B670474B
:100D80001C1F002000000000000000000000000008
:100D90000B4B30B403F114002025002453F8042B2E
:100DA0004AB185F3118892F8211041F0040182F8CC
:100DB000211084F311888342F0D130BC704700BF0A
:100DC000341F0020000000000000000000000000B0
:100DD00010B3F0B585B06C46104F2246A7FB001348
:100DE000DB0803EB8301A0EB410106463031C9B2B9
:100DF000092E1546184602F8011BEFD8A24209D960
:100E0000074E01E015F8011D30680368DB6898475C
:100E1000AC42F7D105B0F0BD704700BFCDCCCCCC13
:100E2000701E002000000000000000000000000014
:100E300028B9044B186803683021DB681847FFF7AE
:100E4000C7BF00BF701E00200000000000000000AF
:100E5000202383F31188064A064913688B4202D285
:100E6000591C18701160002383F31188704700BF6C
:100E7000301F0020301F0020000000000000000094
:100E800008B548694130C0B2FFF7E2FF002008BD55
:100E900008B53020FFF7DCFF45F2AA5008BD00BFBF
:100EA00010B50446C0B2FFF7D3FF204610BD00BF07
:100EB00038B50D460446C0B2FFF7CAFFE8B2FFF7E7
:100EC000C7FF204638BD00BF000000000000000042
:100ED00070B50E460446C0B21546FFF7B9FFF0B232
:100EE000FFF7B6FFE8B2FFF7B3FF204670BD00BFC3
:100EF000F8B50F460446C0B216461D46FFF7A8FFD8
:100F0000F8B2FFF7A5FFF0B2FFF7A2FFE8B2FFF7D4
:100F10009FFF2046F8BD00BF000000000000000059
:100F200008B55A20FFF794FF024B01221A704AF6C7
:100F3000552008BDEC150020000000000000000056
:100F40004320FFF785BF00BF000000000000000045
:100F50004220FFF77DBF00BF00000000000000003E
:100F60004120FFF775BF00BF000000000000000037
:100F70000078FFF76DBF00BF000000000000000018
:100F8000FFF7F6BF000000000000000000000000B6
:100F900070B5017889B10A4D044628680368DB689A
:100FA000984714F8011F0029F7D1286805490368FC
:100FB000BDE870405B6802221847014DF5E700BFAD
:100FC000701E00203C980008000000000000000097
:100FD000017859B138B5064D044628680368DB68C6
:100FE000984714F8011F0029F7D138BD704700BF9A
:100FF000701E002000000000000000000000000043
:10100000F0B40D4E0D4F35683B4605E013F8014B2B
:1010100010F8012B944206D19D42F7D8007810B900
:101020003760F0BC7047064C064A074B0120207021
:101030001070F0BC19607047301F0020201F002086
:10104000181F0020781E0020741E002000000000E1
:101050000F4AF8B501260F4F16600725002425FA20
:1010600004F313F0010F06FA04F220460DD057F8EE
:10107000243025EA020501349847002DEFD1BDE860
:10108000F84005490548FFF7BBBF0134E7E700BF5B
:101090001C1F0020ECB70008409800085498000876
:1010A00070B5084D4C24286803682D21DB689847EB
:1010B000013CF8D1286804490368BDE870405B68CA
:1010C00002221847701E00203C9800080000000013
:1010D000202383F311880D4B5B6813F4006302D166
:1010E00083F311887047EFF30983203B4FF0807240
:1010F000DA6183F30988064A1168926989689268FF
:1011000091428CBF034A044A9A61704700ED00E0A7
:101110002C140020F3020008F60200080000000072
:10112000084A10B4D2E900344942201A08409842D3
:1011300004D3844202D310BC50607047002010BC1E
:10114000704700BFC815002000000000000000002C
:1011500008B52022034682F31188006828B102688E
:101160001A60002383F3118808BDDA68002AF8D0DA
:10117000D3E901019047002383F3118808BD00BF24
:101180002DE9F0413B4E3C4B3C4C01223260202586
:101190000422002085F3118821681960236080F300
:1011A00011886168013A0B44F4D10223DFF8CC8046
:1011B000334F336004254046FFF7CAFF003818BF9D
:1011C00001203946FFF79CFD002850D1013DF2D1A6
:1011D00003232A483360FFF7BBFFB0FA80F02949A8
:1011E0004009FFF78DFD002841D1234B042203F174
:1011F0001007326020201A4680F31188216843F8D6
:10120000041B226085F31188BB42F4D10523DFF86B
:101210006C801B4F336004254046FFF799FF003870
:1012200018BF01203946FFF76BFD00BB013DF3D12C
:10123000062312483360FFF78BFFB0FA80F01149A4
:101240004009FFF75DFD90B907210F4A0B48316057
:101250000423C4E901332560E260FFF779FFB0FAA7
:1012600080F0BDE8F04109494009FFF749BDBDE8FC
:10127000F08100BF1C1F0020E01700207408002030
:10128000589800086498000831090008749800080C
:10129000202383F31188044B9B695A6B10435863D6
:1012A000002383F3118870472C14002000000000F5
:1012B000202383F31188034601E08B4207D01A46AE
:1012C0001B688342F9D1002383F3118870471B68A0
:1012D0001360002383F31188704700BF00000000F3
:1012E0002DE9F043364CDFF8E880246002228BB011
:1012F000C8F80020202787F31188324920688B69BD
:1013000005900DF114090120002506934FF0FF33DD
:10131000CDE908530790C4F8009085F3118887F34E
:101320001188886921680091CDE90102CDE9035354
:10133000C4F800D085F3118887F31188206822490A
:10134000001B18BF0120FFF7DBFC20B185F31188DB
:101350000BB0BDE8F083064680F3118803234946AD
:101360002046C8F80030FFF7A3FF87F311882068F4
:101370001549001B18BF0120FFF7C2FC054620B12C
:1013800086F311880BB0BDE8F08380F31188042345
:1013900069462046C8F80030FFF78AFF87F31188B6
:1013A00020680A49001BB0FA80F04009FFF7A8FC4A
:1013B0000028CBD180F311880BB0BDE8F08300BFCB
:1013C000080800202C140020909800089C98000821
:1013D0001C1F0020000000000000000000000000B2
:1013E0000E4A0F4B52685B6F816830B4D31AD0E954
:1013F0000445C2685B1A01324168C260E4180268A1
:10140000836045F100058B4288BF43609342C0E989
:10141000044538BF036030BC704700BF001000E0D7
:101420002C1400200000000000000000000000005C
:10143000014B5B6883607047001000E00000000013
:10144000836841681A4AF0B4D0E90475022643F86B
:101450002C1C0124002143E91B750568C06803F8B2
:10146000271C03F8286C03F8264C43F8382C5469E1
:1014700043F8400C43F80C0C43F8305CA3F16C00CB
:101480000C4D43F83C0C43E90511A3F1480043F827
:101490004C5CA3F11C01A3F1200543F8344C2061FE
:1014A000506143E9085143F8181CF0BC704700BF75
:1014B0002C140020E10200080000000000000000E1
:1014C000202383F3118890F82030072B0DD8DFE814
:1014D00003F0270C0C2308040C08426A93680133BC
:1014E0009360D0E9003213605A6010B400224FF0CC
:1014F000FF3481680C4B446280F820201B689A6896
:101500008A42FBD25A680021C0E90032106058605C
:1015100081F3118810BC7047436A00221A60E4E727
:10152000002383F3118870472C1400200000000072
:1015300000228168064B80F820201B689A688A4246
:10154000FBD25A68C0E9003210605860704700BF93
:101550002C1400200000000000000000000000002B
:1015600003460068834206D002681A600021536077
:101570004162FFF7DDBF704700000000000000007F
:101580000F4B1A7DCAB970B5D3E900611A698C1B7B
:10159000B2EBA40F0ED09D682C1D9C60A142286068
:1015A00002F10102074898BF9E601A61FFF7D8FF59
:1015B000002070BD4FF0FF3070BD6FF0010070472C
:1015C0004C0800206C080020000000000000000013
:1015D00038B50F4B1A7DBAB9D3E9004519692A1BF2
:1015E000B1EBA20F0DD0DA68043A944288BF2A1FEB
:1015F000DA600131106007481961FFF7B1FF002080
:1016000038BD4FF0FF3038BD6FF0010038BD00BF6E
:101610004C0800206C0800200000000000000000C2
:1016200038B50F4B1A7DBAB9196991B1DA685C689F
:1016300015680432A242DA6001F1FF31056028BF6B
:101640001A68084828BFDA601961FFF789FF00208F
:1016500038BD4FF0FF3038BD6FF0010038BD00BF1E
:101660004C0800206408002000000000000000007A
:1016700038B50446006884420AD06FF0010503685B
:1016800023605C604562FFF753FF2068A042F6D1FB
:1016900038BD00BF00000000000000000000000096
:1016A000054B1868984206D002681A600021536002
:1016B0004162FFF73DBF70470008002000000000B6
:1016C000426B90F8203011430A2B416309D00B2B59
:1016D00000D07047436A8B43FBD100234362FFF77E
:1016E00027BF436A1942F8D1704700BF00000000CD
:1016F00070B50468A0420FD006460D46E3682B4340
:10170000E36015B123691D4203D0D4E90101FFF75D
:10171000D7FF2468A642F1D170BD00BF00000000D1
:10172000114B0146006830B49D69CB68AB638842B9
:1017300016D0EC6B4BB11A68934203D09268944276
:1017400038BF1446DB68002BF5D1826B0368AC60B0
:101750000B6030BC5960C1E902028163FFF7E8BE4B
:10176000002330BC836070472C1400200000000070
:1017700083680133002B836000DD704703681A68BB
:1017800002600021506018465962FFF7D1BE00BFC9
:1017900038B50B6A002B0C464B6A2FDB190714D4A3
:1017A0009A0623D4C269A26000F11401E160D460FA
:1017B000C46103F0120343F0010363623030FFF7AA
:1017C000D7FF236A0133236238BDD4E90025016ABB
:1017D0002A6000F11403556000220125C4E902319A
:1017E0008C600462C4E904226562E7E7026AE26091
:1017F00000F11401A16094600462DAE703F01A03B7
:101800004B6201F11800BDE83840FFF7B1BF00BFDF
:1018100010B41E4AD16983B08142019011D00346B1
:10182000D0E90010016019681C3200249142486020
:10183000DC6003D09A688B6813448B6003B010BCE3
:10184000704710460B6840F81C3F002483425860E4
:10185000CC6016D08C689968926A0C444FF0804135
:101860009C604B6A991A8C42E8D9D31A2344012B05
:1018700098BF8C1C4FF0804322445A6303B010BCC5
:1018800070474FF08043DC60D8E700BF2C14002085
:10189000F0B41F4D2F46022957F81C4F4FF08046D9
:1018A00038BF0221BC42C0E90323736A22D0AA6A6E
:1018B0009B1AC91816D2A3688B4203D917E0246873
:1018C000C91AA3688B42FAD36368C0E90043186061
:1018D00060608160A3684FF0FF32591AA1606A62AC
:1018E000F0BC7047A2682468891AA368EAE70A4432
:1018F0007263E7E7AB62CF1800220223C5E9070055
:10190000C0E90044816077633261F360E8E700BFBB
:101910002C14002000000000000000000000000067
:10192000EFF30583202383F3118870470000000044
:10193000C20710B412D52A4B1968994243D000222D
:101940000968994202F10102FAD14C688C4237D001
:1019500064689C4202F1FF32FAD18ABB830714D536
:101960001F4B1C4654F81C1FA14232D000220968AC
:10197000A14202F10102FAD11B6A8B4220D05B68BE
:10198000A34202F1FF32FAD1D2B910F0040015D00F
:10199000134B1A699A424FF0000004D012699A4220
:1019A00000F10100FAD15A699A4204D052699A4270
:1019B00000F1FF30FAD1003818BF012010BC704789
:1019C000012010BC70475C689C4218BF0022BFD148
:1019D000C4E71B6AA34218BF0022D0D1D5E700BFDD
:1019E0002C14002000000000000000000000000097
:1019F00070B5244E01203060202585F31188FFF753
:101A000097FF002383F3118880F001001E49C0B2C4
:101A1000FFF776F900B170BD04460220306085F30F
:101A20001188FFF785FF84F3118880F001001749C2
:101A3000C0B2FFF765F904460028ECD103233360F8
:101A400085F311880420FFF773FF84F3118880F079
:101A500001000F49C0B2FFF753F904460028DAD15C
:101A60000423336085F311880820FFF761FF84F3B6
:101A7000118880F00100BDE870400649C0B2FFF750
:101A80003FB900BF1C1F0020AC980008C498000894
:101A9000E898000804990008000000000000000019
:101AA000FEE700BF00000000000000000000000092
:101AB000002070470000000000000000000000004F
:101AC00038B54B4B4B4C4C4801251D60FFF780FA55
:101AD0002846FFF77DF92046FFF75AFA4748FFF7F7
:101AE00077FA2846FFF774F92046FFF751FA444881
:101AF000FFF76EFA2846FFF76BF92046FFF748FA22
:101B00004048FFF765FA2846FFF762F92046FFF7DD
:101B10003FFA3D48FFF75CFA2846FFF759F920469F
:101B2000FFF736FA3948FFF753FA2846FFF750F91E
:101B30002046FFF72DFA3648FFF74AFA2846FFF706
:101B400047F92046FFF724FA3248FFF741FA2846C2
:101B5000FFF73EF92046FFF71BFA2F48FFF738FA48
:101B60002846FFF735F92046FFF712FA2B48FFF712
:101B70002FFA0820FFF72CF92046FFF709FA28482A
:101B8000FFF726FA2846FFF723F92046FFF700FA69
:101B90002448FFF71DFA2846FFF71AF92046FFF7F9
:101BA000F7F92148FFF714FA2846FFF711F9204604
:101BB000FFF7EEF91D48FFF70BFA2846FFF708F983
:101BC0002046FFF7E5F91A48FFF702FA2846FFF723
:101BD000FFF82046FFF7DCF91648FFF7F9F9284629
:101BE000FFF7F6F82046BDE83840FFF7D1B900BF4F
:101BF0001C1F0020E0A300081C9900084899000859
:101C000074990008A0990008CC990008F899000878
:101C1000249A0008509A00087C9A0008A89A0008A4
:101C2000D49A0008009B00082C9B0008589B0008D1
:101C3000849B0008B09B000800000000000000002A
:101C400038B5194B19481A4C01251D60FFF7A0F94A
:101C50001848FFF7BDF92846FFF7BAF82046FFF706
:101C600097F91548FFF7B4F91448FFF791F91448AC
:101C7000FFF7AEF92846FFF7ABF82046FFF788F9E3
:101C80001048FFF7A5F90220FFF7A2F82046FFF75A
:101C90007FF90D48FFF79CF90020FFF7C9F82046AF
:101CA000BDE83840FFF774B91C1F0020DC9B00081A
:101CB000E0A30008109C00083C9C0008689C0008F9
:101CC000709C00089C9C0008C89C00080000000054
:101CD00070B5334D334C344801232B60FFF778F94E
:101CE0007820FFF775F82046FFF752F902232F48B6
:101CF0002B60FFF76DF94420FFF76AF82046FFF7E5
:101D000047F903232A482B60FFF762F91420FFF7F5
:101D10005FF82046FFF73CF9042626482E60FFF7BF
:101D200057F90C20FFF754F82046FFF731F9052347
:101D300021482B60FFF74CF91020FFF749F82046A7
:101D4000FFF726F906231D482B60FFF741F908200D
:101D5000FFF73EF82046FFF71BF9072318482B60D2
:101D6000FFF736F93046FFF733F82046FFF710F952
:101D7000082314482B60FFF72BF91420FFF728F8ED
:101D80002046FFF705F909230F482B60FFF720F9DC
:101D90002820FFF71DF82046BDE87040FFF7F8B88F
:101DA0001C1F0020049D0008F49C00080C9D0008E6
:101DB0001C9D00082C9D00083C9D00084C9D0008BF
:101DC0005C9D00086C9D00087C9D000800000000E0
:101DD00038B5934B934C944801251D60FFF7F8F8F4
:101DE0002020FEF7F5FF2046FFF7D2F88F48FFF7D7
:101DF000EFF842F21070FEF7EBFF2046FFF7C8F84D
:101E00008B48FFF7E5F82020FEF7E2FF2046FFF7BA
:101E1000BFF88848FFF7DCF82020FEF7D9FF2046FE
:101E2000FFF7B6F88448FFF7D3F80220FEF7D0FF9B
:101E30002046FFF7ADF88148FFF7CAF80020FEF70B
:101E4000F7FF2046FFF7A4F87D48FFF7C1F8002010
:101E5000FEF7EEFF2046FFF79BF87A48FFF7B8F849
:101E60000020FEF7E5FF2046FFF792F87648FFF7DF
:101E7000AFF82846FEF7ACFF2046FFF789F8734815
:101E8000FFF7A6F82846FEF7A3FF2046FFF780F8E5
:101E90006F48FFF79DF82846FEF79AFF2046FFF7A8
:101EA00077F86C48FFF794F82846FEF791FF204634
:101EB000FFF76EF86848FFF78BF82846FEF788FFB3
:101EC0002046FFF765F86548FFF782F80020FEF727
:101ED000AFFF2046FFF75CF86148FFF779F8284626
:101EE000FEF776FF2046FFF753F85E48FFF770F8DD
:101EF0000020FEF79DFF2046FFF74AF85A48FFF7FB
:101F000067F82846FEF764FF2046FFF741F8574878
:101F1000FFF75EF82846FEF75BFF2046FFF738F82C
:101F20005348FFF755F82846FEF752FF2046FFF7C3
:101F30002FF85048FFF74CF82846FEF749FF204697
:101F4000FFF726F84C48FFF743F82846FEF740FF16
:101F50002046FFF71DF84948FFF73AF80020FEF742
:101F600067FF2046FFF714F84548FFF731F8284689
:101F7000FEF72EFF2046FFF70BF84248FFF728F840
:101F80000020FEF755FF2046FFF702F83E48FFF716
:101F90001FF80020FEF74CFF2046FEF7F9FF3B48F4
:101FA000FFF716F80020FEF743FF2046FEF7F0FF8C
:101FB0003748FFF70DF80020FEF73AFF2046FEF7FE
:101FC000E7FF3448FFF704F8FF20FEF701FF204643
:101FD000FEF7DEFF3048FEF7FBFF8020FEF7F8FE3D
:101FE0002046FEF7D5FF2D48FEF7F2FF0020FEF752
:101FF0001FFF2046FEF7CCFF2948FEF7E9FF00202F
:10200000FEF716FF2046FEF7C3FF2648FEF7E0FF67
:102010000020FEF70DFF2046BDE83840FEF7B8BFB0
:102020001C1F0020E0A300088C9D0008B89D00083C
:10203000E49D0008109E00083C9E0008689E000871
:10204000949E0008C09E0008EC9E0008189F00089F
:10205000449F0008709F00089C9F0008C89F0008CC
:10206000F49F000820A000084CA0000878A00008F9
:10207000A4A00008D0A00008FCA0000828A1000827
:1020800054A1000880A10008ACA10008D8A1000854
:1020900004A2000830A200085CA2000888A2000880
:1020A000B4A20008E0A20008000000000000000048
:1020B00038B5194B19481A4C01251D60FEF768FF09
:1020C0001848FEF785FF2846FEF782FE2046FEF7F9
:1020D0005FFF1548FEF77CFF1448FEF759FF1448D0
:1020E000FEF776FF0620FEF773FE2046FEF750FF50
:1020F0001048FEF76DFF2846FEF76AFE2046FEF701
:1021000047FF0D48FEF764FF2846FEF761FE2046B4
:10211000BDE83840FEF73CBF1C1F00200CA30008A0
:10212000E0A30008109C00083C9C000840A30008A5
:10213000709C00089C9C0008C89C000800000000DF
:102140001C4B1D4810B501221A60FEF741FF1B48C9
:102150001B4CFEF71DFF1B48FEF73AFF1A48FEF71F
:1021600017FF1A48FEF734FF1948FEF711FF194808
:10217000FEF72EFF1848FEF70BFF1848FEF728FF62
:102180000420FEF725FE2046FEF702FF1448FEF766
:102190001FFF0820FEF71CFE2046FEF7F9FE11483F
:1021A000FEF716FF0820FEF713FE2046BDE810409C
:1021B000FEF7EEBE1C1F002048A3000874A3000811
:1021C000E0A3000880A30008ACA30008B8A300089F
:1021D000E4A3000824A4000850A4000868A4000890
:1021E00094A40008C0A40008000000000000000043
:1021F000FFF7A6BF00000000000000000000000084
:1022000070B50C68A14212D00D46064602E0246863
:10221000A5420CD008223146A01807F093FA0028F6
:10222000F5D114B1636801336360204670BD0024AA
:10223000204670BD0000000000000000000000000B
:10224000F8B50C68A1420D460646174603D10DE0CD
:102250002468A5420AD008223146A01807F072FA75
:102260000028F5D114B104462046F8BD3846FEF7E3
:102270006FFF04460028F7D008223146104407F0CB
:102280009FFA2B680122C4E9003220462C60F8BD79
:1022900038B5202383F31188124A10689169836846
:1022A0008C68A34203D2002383F3118838BD0368EE
:1022B00013605A6001259061002280F8205081F857
:1022C000202000E01B689A689442FBD95A68C1E953
:1022D000003211605960FDF7FBFF002383F3118882
:1022E00038BD00BF2C1400200000000000000000DA
:1022F00038B5094D0446FFF7CBFFFFF7C9FFFFF7DD
:10230000C7FFFFF7C5FF2368AA690433236092F86B
:1023100021305B07EFD538BD2C14002000000000F1
:10232000154A70B496698568B4684162A5420ED8B2
:102330000021134680F820101B689A689542FBD94B
:102340005A6870BCC0E900321060586070470023C2
:1023500086F8203013461B6899688C42FBD3596875
:102360007160012433600E605E60314680F8204069
:1023700070BC9061FDF7ACBF2C1400200000000081
:1023800008B5202383F31188064B1868984205D0BE
:1023900002681A6053600021FFF7C2FF002383F335
:1023A000118808BD000800200000000000000000A7
:1023B0002DE9F041144F86B0804638460E4615464A
:1023C000FEF7C6FE0446D0B17B68104ACDF8008007
:1023D000034402930190039605950492202383F30E
:1023E00011886846FFF72CF8022380F82130076433
:1023F00000210446FFF794FF002383F31188204651
:1024000006B0BDE8F08100BFC0160020810F0008B3
:1024100008B5202282F3118882680132002A826086
:1024200003DD002383F3118808BD034600680268BA
:102430001A6000215360FFF773FF002383F31188B4
:1024400008BD00BF00000000000000000000000008
:10245000F8B5069D202484F3118848394418164E97
:102460002661E061A4F12400716944F8243C44F839
:10247000205CE06002251148A2600123E26325840C
:1024800084F8223004F1280204F12C0300250C4FBB
:1024900044F8047CC4E90510C4E90D5520460C61DC
:1024A000C4E90A23236329467461FFF739FF85F3E2
:1024B00011882046F8BD00BF2C140020ECA40008B1
:1024C000E102000800000000000000000000000021
:1024D00000B583B00A460090044B4FF4A471083055
:1024E000FFF7B6FF03B05DF804FB00BF610800080A
:1024F00000B583B00A460090044B4FF4E4710830F5
:10250000FFF7A6FF03B05DF804FB00BF61080008F9
:1025100010B5202383F31188FEF792FF00210446B3
:10252000FFF7FEFE002383F31188204610BD00BF95
:10253000084B99691A6810B481F820001068186077
:102540000124436082F8204010BC9A611046FDF7D8
:10255000BFBE00BF2C1400200000000000000000DF
:102560000C4A10B52023946983F31188606B40B145
:10257000434220EA030262631840002383F3118878
:1025800010BD4FF0FF330A206362FFF7D1FF606B8D
:10259000EEE700BF2C140020000000000000000047
:1025A0000C4A10B52023946983F31188606B20B125
:1025B0000023636383F3118810BD4FF0FF33636220
:1025C0000A20FFF7B5FF0023606B636383F3118874
:1025D00010BD00BF2C14002000000000000000000F
:1025E0000C4A10B52023946983F31188636B03F0C0
:1025F0000502052A05D0052363620B20FFF798FF2B
:10260000636B23F005036363002383F311880520C4
:1026100010BD00BF2C1400200000000000000000CE
:10262000074A10B52023946983F311880320FFF72C
:102630007FFF636A002BF9D0002383F3118810BD5C
:102640002C1400200000000000000000000000002A
:1026500030B54B1C87B012D00C4D0D4AAB69044607
:1026600001A8FFF715F92046FFF762FF049B13B19D
:1026700001A8FFF7CDF8AB69586A07B030BD034D2C
:10268000FFF756FFAB69586A07B030BD2C14002025
:10269000C11400080000000000000000000000005D
:1026A000202383F31188104B99684A1E002A9A60F0
:1026B00004DB0020002383F31188704780B10B4AAC
:1026C00010B592695C685362C2E900340146226029
:1026D00005205A60FFF7BCFF002383F3118810BD6B
:1026E00099604FF0FF30E5E7F01700202C14002030
:1026F00070B5584D584C0120A2692860202383F3FF
:102700001188536B33B983F311885449FEF7F8FAF3
:1027100080B170BD584223EA000151631840002384
:1027200083F31188B0FA80F04C494009FEF7E8FACB
:102730000028EED1A369202282F311885A6B002A67
:1027400067D180F3118801204449FEF7D9FA0028A7
:10275000DFD1A369202282F311885A6B01325CD049
:1027600080F3118801203D49FEF7CAFA0028D0D134
:1027700002232B60A669202383F31188756B55B95A
:102780004FF0FF3373624FF4FA710A20FFF760FFD6
:10279000002852DB756B684225EA0003736328400A
:1027A000002383F31188B0FA80F040092B49FEF72B
:1027B000A7FA0028ADD1A669202383F31188756B91
:1027C0007DB30023736383F31188B5FA85F0400964
:1027D0002249FEF795FA054600289AD1A4692023DC
:1027E00083F31188636B013309D04FF0FF336362C9
:1027F0004FF4FA710B20FFF72BFF002825DB002395
:10280000636383F3118828461449BDE87040FEF7DE
:1028100077BA586380F3118896E7586380F311887C
:10282000A1E74FF0FF3373624FF4FA710A20FFF70C
:102830000FFF002805DB756BC3E785F311880120C6
:10284000B4E785F311880120C2E785F311880125DB
:10285000D9E700BF1C1F00202C140020F4A400089E
:1028600010B52023044683F311888268531E002B81
:10287000836007DBE068C8B10368E360002383F38B
:10288000118810BD0846D9B10E4B9B695C62626825
:102890000520C3E9004213606360FFF7D9FE0028FA
:1028A000E8D00020002383F3118810BDA369002B1A
:1028B000F7D0D4E904019847002383F3118810BDB1
:1028C000A260DBE72C1400200000000000000000E4
:1028D00008B5084B084801224FF47A711A60FFF7D7
:1028E000BFFFB0FA80F0BDE8084004494009FEF798
:1028F00007BA00BF1C1F00201008002064980008C1
:1029000061B1084A10B4926944680346C2E90034D0
:102910000420226010BC5A60FFF79ABE4FF0FF30CF
:10292000704700BF2C1400200000000000000000D1
:102930002DE9F04F85B0CDE90232C7694FF020098B
:1029400089F31188A2B3DDF80CB004460E464FF0AF
:10295000000AA2689345D4E904208CBFA5685D46AF
:10296000A2EB0008A84544D829D2A5EB08034246AB
:1029700031460193FDF7C2FC06EB0801DDF8048047
:10298000E0684246FDF7BAFCA268E1684346CB180E
:10299000521B6361A2600FB12046B8478AF31188C9
:1029A000ABEB050B2E4489F31188BBF1000FD0D19E
:1029B0000398002383F3118805B0BDE8F08F2A4601
:1029C0003146FDF79BFCE2686261A268521BA2607F
:1029D000002DE0D102992046FFF792FF0028B8D0E1
:1029E000039BA3EB0B00002383F3118805B0BDE824
:1029F000F08F2A463146FDF781FC62692A44626104
:102A0000E3E700BF0000000000000000000000003D
:102A10003030FFF78DBF00BF000000000000000055
:102A200030304FF0FF33FFF783BF00BF00000000DE
:102A3000F8B504460F461646202383F3118803E0B9
:102A4000FFF75EFF002818DBA56831462046002D01
:102A5000F6D06269A368511C013B6161A3601770E5
:102A6000D4E904329A4224BFE3686361E36903B1A5
:102A70009847002080F31188F8BD85F31188F8BDD0
:102A80003030FFF7D5BF00BF00000000000000009D
:102A900030304FF0FF32FFF7CBBF00BF0000000027
:102AA0002DE9F04F85B0CDE90232C7694FF020091A
:102AB00089F31188002A34D0DDF80CB004460E46A4
:102AC0004FF0000AA268A169934522698CBFA568EE
:102AD0005D46A2EB0108A84544D829D2A5EB08031E
:102AE000424630460193FDF709FC06EB0800DDF88D
:102AF0000480E1684246FDF701FCA268E1684346B4
:102B0000CB18521BA361A2600FB12046B8478AF3CD
:102B10001188ABEB050B2E4489F31188BBF1000F34
:102B2000D0D10398002383F3118805B0BDE8F08F5E
:102B30002A463046FDF7E2FBE268A261A268521B1A
:102B4000A260002DE0D102992046FFF7D9FE0028AF
:102B5000B8D0039BA3EB0B00002383F3118805B0CF
:102B6000BDE8F08F2A463046FDF7C8FBA2692A442B
:102B7000A261E3E700000000000000000000000088
:102B80000C30FFF78DBF00BF000000000000000008
:102B90000C304FF0FF33FFF783BF00BF0000000091
:102BA00070B5202305460E4683F3118803E0FFF736
:102BB000A7FE00281ADBAC6831462846002CF6D068
:102BC000A969AB6828694A1C013B8242AB60AA61D3
:102BD00028BFEB680C7828BFAB61EB690BB12846C6
:102BE0009847002383F31188204670BD84F3118831
:102BF00070BD00BF000000000000000000000000E9
:102C00000C30FFF7CDBF00BF000000000000000047
:102C10000C304FF0FF31FFF7C3BF00BF00000000D2
:102C200008B50146202383F311880820FFF710FD23
:102C3000002383F3118808BD00000000000000009D
:102C40002DE9F04F8046DFF82CB3A94BA948CBF80B
:102C5000003083B0FEF79CF9D8F80030002B00F06C
:102C6000F781A54C2A21DBF800000368DB68984750
:102C700014F8011F0029F6D1D8F80000FEF788F9F2
:102C80009E489F4CFEF784F92A21DBF80000036878
:102C9000DB68984714F8011F0029F6D199489A4C2F
:102CA000FEF776F92A21DBF800000368DB68984715
:102CB00014F8011F0029F6D19448954CFEF768F9E5
:102CC0002A21DBF800000368DB68984714F8011F2D
:102CD0000029F6D18F48904CFEF75AF98748FEF745
:102CE00057F92A21DBF800000368DB68984714F8DD
:102CF000011F0029F6D1894B89488A4CC01AFEF77A
:102D000097F88948FEF744F92A21DBF800000368A8
:102D1000DB68984714F8011F0029F6D1834B8448DB
:102D2000844CC01AFEF784F87F48FEF731F92A2157
:102D3000DBF800000368DB68984714F8011F0029DE
:102D4000F6D17D4B7D487E4CC01AFEF771F876486F
:102D5000FEF71EF92A21DBF800000368DB689847BC
:102D600014F8011F0029F6D1764B77480191C01A5B
:102D7000FEF75EF86C48FEF70BF95E48FEF708F9BF
:102D8000D8F80430714A1B6801991170002B00F0CB
:102D9000FA808A4689464C24DBF8000003683D210E
:102DA000DB689847013CF7D1DBF80000684903680D
:102DB000684C5B68022298473D21DBF800000368FD
:102DC000DB68984714F8011F0029F6D109F10109C1
:102DD0004846614CFEF72CF82021DBF80000036820
:102DE000DB68984714F8011F0029F6D1D8F80430A1
:102DF00053F80A301C68217841B1DBF80000036801
:102E0000DB68984714F8011F0029F6D15348FEF7F4
:102E1000BFF8D8F8042052F80A305B681B68002B12
:102E200000F0AA804E4D00264E4FFEF739F9B4004F
:102E30002D21DBF800000368DB68984717F8011FB5
:102E40000029F6D14846FDF7F3FFDBF80000424FBA
:102E500003682E21DB68013698473046FDF7E8FF0E
:102E60002021DBF800000368DB68984717F8011F92
:102E70000029F6D1D8F8043053F80A305B681B59A2
:102E80001F68397841B1DBF800000368DB689847B8
:102E900017F8011F0029F6D13048FEF779F84FF4F2
:102EA000FA60FFF7BDFED8F804302F4A53F80A3015
:102EB0002E495B682A601F597B6800220A7003B1A3
:102EC0009847FB689847BB6803B19847274B1B7826
:102ED000002B74D12648FEF75BF8D8F8042052F88E
:102EE0000A305B681C446368002B9DD144E000BF3E
:102EF000FC080020E0A3000804A5000800A60008C4
:102F00000CA5000804A6000820A500081CA60008BF
:102F100034A5000848A6000848A50008F0010008EC
:102F2000289800085CA50008049D0008289800085F
:102F30009CBF000870A5000800080020DC080020E5
:102F400084A50008E0080020D0240020781E00207E
:102F50003C98000898A50008ACA5000870A60008D9
:102F6000301F0020B0A50008201F0020181F0020DF
:102F700078A60008701E00200AF1040A52F80A30F0
:102F8000002B7FF408AFFEF78BF8334C3348FDF786
:102F9000FFFF4621DBF800000368DB68984714F860
:102FA000011F0029F6D12E4B1B78002B4CD02D4849
:102FB000FDF7EEFF2A4B187803B0BDE8F08F2A4FDB
:102FC0002D21DBF800000368DB68984717F8011F24
:102FD0000029F6D1254B264F1868FDF729FF20213F
:102FE000DBF800000368DB68984717F8011F002929
:102FF000F6D12B681F4A93420AD91E4FDBF8000016
:1030000017F8011B0368DB6898472B689F42F5D3CC
:10301000194F5D21DBF800000368DB68984717F85B
:10302000011F0029F6D1154B1F68397841B1DBF833
:1030300000000368DB68984717F8011F0029F6D1E4
:103040000F48FDF7A5FF48E70E48FDF7A1FFB1E7E0
:103050000D48FDF79DFF13E6E0A50008E0A300087A
:10306000781E00208CA60008C0A500081C1F0020A8
:10307000D8A50008201F0020DCA50008741E002031
:1030800074A6000884A60008F0A50008000000004F
:1030900008B5C0B2FDF7DCFEBDE808406420FFF7CC
:1030A000BFBD00BF000000000000000000000000E5
:1030B00070B52C4E01234FF0804533606C6A64205C
:1030C000FFF7AEFD04F1670104F16400FDF7A8FB12
:1030D00000B170BD022333606C6A4FF47A70FFF761
:1030E0009FFD04F2EB3104F57A70FDF799FB00289F
:1030F000EFD1032333606C6A4FF47A70FFF790FDD1
:1031000004F2EB3104F57A70FDF78AFB0028E0D178
:10311000042333606C6A42F21070FFF781FD04F5FE
:103120001C51084610301331FDF77AFB0028D0D12E
:10313000052333606E6A202306F1640483F311884B
:10314000696A611A09D1002383F3118806F16701C6
:103150002046BDE87040FDF763BB0820FFF778FA12
:10316000F1E700BF1C1F002000000000000000006D
:1031700008B50120FFF754FD202383F311884FF099
:1031800080420023506A83F3118808BD00000000CC
:103190002DE9F84FDFF890B01E4F1F4E1F4D012351
:1031A000CBF80030FFF7E4FF00248046A2464FF042
:1031B000200989F3118800233A4630460121FEF7A1
:1031C00067FB3A46002342F210712846FEF760FB87
:1031D0003046FEF71DFB2846FEF71AFB8AF31188DE
:1031E0004FF0804342F20F725B6AA3EB08039342F5
:1031F00004F10104DDD902230948CBF80030FDF7C2
:10320000E7FE6000FDF714FEBDE8F84F0548FDF746
:10321000BFBE00BF110B00084C1F0020601F002024
:1032200094A60008A4A600081C1F002000000000AF
:1032300010B50B4CA269134653F82C0F984206D0D8
:103240000168D1620D224B6080F8202010BD0E2055
:10325000FFF76EF9A269D06A02F12C03F0E700BF14
:103260002C140020000000000000000000000000FE
:10327000144B154A9B6980B54FF020089A610025D0
:1032800040F2E736002788F31188FFF7D1FF0446A4
:1032900085F31188426A42F2107330463946E3FBE7
:1032A00002014FF47A720023FDF7C2F8FFF7B8FC71
:1032B00088F3118800212046FFF732F885F3118842
:1032C000E1E700BF2C140020B0A6000800000000B9
:1032D00070B52026002586F31188FFF7A9FF85F336
:1032E0001188446A86F311882146FFF719F885F39F
:1032F0001188002CEFD170BD00000000000000001C
:103300000E4B10B520229C6982F311886162026B1A
:10331000626000F12C012160146090F820200463A9
:103320000E2A07D00C20FFF703F9606A002383F30D
:10333000118810BDFEF7FCF8F4E700BF2C14002044
:10334000284B294A9B692DE9F0419A61DFF89C805E
:10335000D0F854310446012540F2E73600271A78A8
:10336000052A0BD8DFE802F0243522180E0359682D
:10337000D8F80000FFF7C4FFD4F854310833C4F87C
:103380005431ECE7596801F00F0205FA02F221F01E
:103390000F0192B20A83F1E7596801F00F0205FAB2
:1033A00002F221F00F0192B24A83E7E7BDE8F08113
:1033B0005A68304642F210733946E3FB020100239B
:1033C0004FF47A72FDF734F8FFF72AFCD4F8543141
:1033D000D4E75A68D4F8503103EBC203C4F854312F
:1033E000BDE700BF2C140020B8A60008480B002041
:1033F0002DE9F0410546FFF7BBFE002406464FF0DD
:10340000804842F20F7701212846FFF779FFD8F86C
:1034100024309B1BBB4204F10104F4D9284600214F
:10342000FFF76EFF2046BDE8F08100BF00000000FE
:1034300010B541210446FFF763FF20464221FFF704
:103440005FFF20464321FFF75BFF20464421BDE894
:103450001040FFF755BF00BF000000000000000053
:103460000EB410B585B007AB01AA53F8044B019315
:1034700002A9CDE90242FFF743FF05B0BDE81040C5
:1034800003B07047000000000000000000000000D2
:1034900070B52E4B044680689D6930B3AA68836876
:1034A000934207D290F820308260062B35D0072B4C
:1034B00020D09BB1234603E09968AA68914202D3C9
:1034C0001B689C42F8D15A680620C5E90032156095
:1034D0005D606C62BDE87040FFF72AB8D0E9003249
:1034E00013605A60FEF724F8E4E7AB6BC4E90253BB
:1034F000AC6370BDD0E90031466A0B605960334659
:1035000002E099688A4202D81B689E42F9D15A6843
:10351000C0E9003210605860CCE7D0E90031466A5B
:103520000B605960334602E099688A4202D81B68F2
:103530009E42F9D15A68C0E9003210605860B06804
:10354000AA6883689342ADD3B4E700BF2C1400206F
:1035500008B5202383F31188FFF79AFF002383F334
:10356000118808BD000000000000000000000000FD
:1035700010B5074CA269506241680346C2E90001D8
:103580000A6005205A60FEF7D3FFA369586A10BD90
:103590002C140020000000000000000000000000CB
:1035A0002DE9F041202382B0044683F311883A4D7F
:1035B000D5E90031013B034001EBC30251F8331060
:1035C0008A4203D11CE009688A4219D04B699C42A7
:1035D000F9D10B69002BF6D10B6A002B39DD4A6A51
:1035E000D1E90204013B22F00102A060C460C1E9FC
:1035F0000832002383F31188084602B0BDE8F08149
:10360000264F0026A7F130081AE0296AD1E9020CFA
:103610004A6A0B6ACCF80800013BC0F80CC022F0E3
:103620000100C1E90830D0061CD586F31188222399
:103630004B6240462B6C01229847202383F311886C
:10364000AB6B013B002BAB63DFDA3846FFF790FF33
:10365000DBE7013B0B6201F118000191FFF788FFE6
:103660000199C6E7930704D5D1E900231A600A68D7
:103670005360D5E90032013B4C611C4002EBC400B1
:1036800052F83430486000250A200B600D61486212
:10369000596042F83410ACE7E813002018140020F9
:1036A00008B5202383F311888368013B002B8360D6
:1036B00004DB0020002383F3118808BDFFF758FFC7
:1036C000002383F3118808BD000000000000000003
:1036D0002DE9F843DFF880801C4C0123C8F8003046
:1036E000FFF746FD002506464FF0804942F20F776E
:1036F0002046FFF7D5FF2046FEF78AFE2046FFF75B
:10370000CFFF2046FEF784FE2046FFF7C9FF204684
:10371000FEF77EFE2046FFF7C3FF2046FEF778FE49
:10372000D9F824309B1BBB4205F10105E0D90223E7
:103730000748C8F80030FDF74BFCA800FDF778FB00
:10374000BDE8F8430348FDF723BC00BFFC17002089
:1037500094A60008C4A600081C1F0020000000005A
:1037600038B5084CA36993F821305A0708D4064DA0
:103770002846FFF795FFA36993F821305B07F7D53B
:1037800038BD00BF2C140020FC17002000000000F2
:1037900010B5044C2046FFF783FF2046BDE81040DB
:1037A000FEF736BEF0170020000000000000000009
:1037B00010B504460348FFF773FF2078BDE81040BA
:1037C000FDF746BBF01700200000000000000000DD
:1037D000264B2DE9F0414FF4E87618463246002199
:1037E00005F060FF224C234F234901604FF4A87578
:1037F00032462046002105F055FF204E204B236025
:1038000038462A46002105F04DFF1E4B1E4CDFF8BE
:1038100094803C602A4630460021C7E9543305F0C5
:1038200041FF1A4B1A4F34602A4600214046C6E930
:10383000543305F037FF174B174EC8F800402A469F
:1038400000213846C8E9543305F02CFF134B3C6087
:103850002A4630460021C7E9543305F023FF104BB8
:103860003460C6E95433BDE8F08100BF500B00203E
:1038700078090020780E0020ACB70008D00F002097
:10388000CCB7000804B70008BCB700082CB7000884
:103890008012002054B70008200D00207CB70008DB
:1038A000ECB6000828110020000000000000000015
:1038B000EFF30983203383F30988002383F311880E
:1038C000704700BF00000000000000000000000082
:1038D00038B52022034682F311880F4A9469A06A02
:1038E000636204F12805A84206D00368A362FDF7CD
:1038F0001FFEA06AA842F8D194F822303BB994F890
:1039000021309B0703D1D4E9043213615A61BDE829
:1039100038400F20FEF70CBE2C14002000000000E1
:1039200008B5084B084A9B6908489A61FFF788F96F
:103930000748FFF785F9074B1878BDE80840FFF7FF
:10394000C7BF00BF2C140020D4A6000828BF000861
:1039500034BA0008781E00200000000000000000BB
:10396000F8B5104F00253D70202686F31188FFF72B
:103970005FFC044685F31188436AD3E90020904731
:10398000014686F311882046FEF7CAFC85F31188AC
:103990003B78002BE9D0BDE8F84040F6A570FFF772
:1039A00097BF00BFEC1500200000000000000000E1
:1039B000FFF78EBF000000000000000000000000C4
:1039C0000D4A10689169036830B401245A600025DB
:1039D00080F820408C681360906181F8205000E0EE
:1039E0001B689A689442FBD35A6830BCC1E9003224
:1039F00011605960FCF76CBC2C1400200000000022
:103A0000044B1A689B6992689B689A4200D8704779
:103A1000FFF7D6BF2C1400200000000000000000BB
:103A200070B5202383F31188856881600135002DEE
:103A30000CDC04466FF001066068436863601C603C
:103A4000FDF776FD0135012D4662F5D1FFF7D8FF70
:103A5000002383F3118870BD000000000000000007
:103A60002DE9F8432A4C2B4F012320463B60FFF7FA
:103A700017FE2026054686F31188A0682649B0FA6D
:103A800080F04009FDF73CF920B1002383F3118851
:103A9000BDE8F88380F31188B5FA85F01F49400925
:103AA000FDF72EF905460028F2D14FF00209204615
:103AB000C7F80090FEF7ACFC86F31188A0681649A1
:103AC000A0F10100B0FA80F04009FDF719F9804635
:103AD00018B185F31188BDE8F88380F311880323BA
:103AE000494620463B60FFF79BFF86F31188A0689C
:103AF0000949A0F10200B0FA80F04009FDF700F991
:103B000010B980F31188C3E788F31188C0E700BFBC
:103B1000F01700201C1F0020DCA60008F0A60008FB
:103B200001480021FFF77CBFF017002000000000D3
:103B300038B5202383F31188154CA3685A1C002A3A
:103B4000A26019DD002BA36006DBFFF759FF002000
:103B5000002383F3118838BD0E4A636895690520F8
:103B6000C5E900431D606C626560FEF7E1FC686AB0
:103B7000002383F3118838BD2068036823605C60EC
:103B8000FDF7D6FCA36800224262013BDAE700BFE2
:103B9000F01700202C14002000000000000000009E
:103BA00030B5214B214D9A6921489268214B224C16
:103BB00083B0012129600021013200914FF4A471EA
:103BC000FEF746FC1D4A022310602B60FFF7B0FF92
:103BD00020681B49001BB0FA80F04009FDF790F8FF
:103BE00008B103B030BDA0681649B0FA80F04009B2
:103BF000FDF786F80028F4D103232B60FFF798FF28
:103C000020680F49001BB0FA80F04009FDF778F8F2
:103C10000028E6D1A0680B49B0FA80F0400903B053
:103C2000BDE83040FDF76CB82C1400201C1F0020AC
:103C30000818002091370008F0170020341F0020DA
:103C400008A7000818A700080000000000000000F6
:103C500038B5202383F311880A4C2368012204F12C
:103C600018000025C4E9023322752561FDF700FD27
:103C700004F12000FDF7FCFCFFF7C2FE85F311887C
:103C800038BD00BF4C08002000000000000000000C
:103C9000FFF7DEBF00000000000000000000000091
:103CA000FFF7F6BF00000000000000000000000069
:103CB000FFF7EEBF00000000000000000000000061
:103CC0002DE9F041202306460D4683F31188174C59
:103CD00004F118080AE0D4E900272369A7EB020CD5
:103CE000B3EBAC0F0ED1FEF70BFE30B9237D2946A6
:103CF0004046002BEFD06FF00100002383F31188C2
:103D0000BDE8F081E1680A4804398A4288BF391F5A
:103D1000E16001330E602361FDF722FCFFF770FEC6
:103D20000020002383F31188BDE8F0814C080020B7
:103D30006C080020000000000000000000000000EF
:103D40002DE9F84FCC4ECD4931610821316006F1A3
:103D500030010120C6E90C110021C94AF062C6E910
:103D6000051106F12400C74BC74C3364C6E90900AE
:103D700006F11407042013467260F4633762403280
:103D8000B063B060C3E9003308339342FAD1BB4B50
:103D9000BE4903F1F00C0125002200E0034603F1C7
:103DA0003C0003F118046045C3E90217C3E9064467
:103DB0001D62CB60C3E90422C3E909521946EDD163
:103DC000B34BDFF8ECB2F361DFF8D092DFF8E482B6
:103DD000DFF8A4A20223CBF8003000273846FFF713
:103DE000DFFB0446406A4946C0F34000FCF788FF09
:103DF0004146002840F03D81606AC0F3C000FCF7F6
:103E00007FFF20230546002840F0338183F311888B
:103E100021465046FDF7BCFCFFF7F2FD85F3118803
:103E20000137082FDAD19B499B48FDF7E9F8054691
:103E3000002840F01E810323984FDFF87092DFF8CE
:103E40003882CBF800302846FFF7AAFB0446406AC8
:103E50003946C0F34000FCF753FF4946002840F0C4
:103E60000881606AC0F3C000FCF74AFF02462146A1
:103E70004046002A40F0FD80636AD6F83CA043F03B
:103E800008036362D04780F001008549C0B2FCF7A7
:103E900037FF3946002840F0EC80606AC0F34000EC
:103EA000FCF72EFF7F49002840F0E380606A80F035
:103EB0000800C0F3C000FCF723FF2023824600283F
:103EC00040F0D78083F3118821464046FDF760FC1F
:103ED000FFF796FD8AF311880135082DB3D16D499E
:103EE0007148FDF78DF80546002840F0C280042394
:103EF0006A4FDFF8B891DFF88081CBF800302846B0
:103F0000FFF74EFB0446406A3946C0F34000FCF719
:103F1000F7FE4946002840F0AC80606AC0F3C0005C
:103F2000FCF7EEFE0346012221464046002B40F0FE
:103F3000A080636AD6F83CA043F008036362D047D0
:103F400080F001005649C0B2FCF7DAFE034628466D
:103F5000002B40F08E80FFF723FB0446406A394671
:103F6000C0F34000FCF7CCFE4E49002840F08180B1
:103F7000606A80F00800C0F3C000FCF7C1FE202397
:103F80008246002875D183F3118821464046FDF70B
:103F9000FFFBFFF735FD8AF311880135082DAED1FF
:103FA0003C494148FDF72CF8002862D10523DFF891
:103FB000EC803C4FDFF8C090CBF800300426304650
:103FC000FFF7EEFA0446406A4146C0F34000FCF7B2
:103FD00097FE394600284CD1606A80F00800C0F393
:103FE000C000FCF78DFE20230546002841D183F355
:103FF000118821464846FDF7CBFBFFF701FD85F30D
:1040000011880136082EDAD122492348FCF7F8FF3F
:10401000044670BB0623DFF88480244FDFF85890F5
:10402000CBF800302046FFF7BBFA0546406A414610
:10403000C0F34000FCF764FE3946D0B9686AC0F3AB
:10404000C000FCF75DFE2023064690B983F311887B
:1040500029464846FDF79CFBFFF7D2FC86F3118802
:104060000134042CDED1BDE8F84F0A490A48FCF7B8
:10407000C7BFBDE8F88F00BFE8130020F01600208E
:10408000F0150020810E0008C1400008FC1300203C
:10409000A417002050A70008E0A300082CA70008E0
:1040A00064A7000874A7000880A7000878A7000884
:1040B0001C1F002038A700080000000000000000BE
:1040C0004B6970B561330C460646D8B21546FCF70D
:1040D000BFFE636A23F0080363620DB9002070BD60
:1040E000202383F3118821463046FDF751FBFFF76B
:1040F00087FC002383F31188002070BD00000000BE
:1041000038B5202585F311880B480021FDF7F0FA1A
:104110000024FFF775FC84F311884FF4FA70FEF762
:104120007FFD85F3118805482146FDF7E1FAFFF789
:1041300067FC84F3118838BD080800200C080020B3
:1041400010B504464FF4FA70FEF76AFD202383F39E
:10415000118801212046FDF7B3FAFFF751FC002337
:1041600083F3118810BD00BF0000000000000000B4
:1041700010B540F2DC50FEF753FD202383F3118885
:10418000064C2046FFF784F92046FDF7C9FAFFF7F1
:1041900037FC002383F3118810BD00BF3C080020CA
:1041A0002DE9F041624E86B0012303AD4FF00008C7
:1041B000CDE903553360CDF81480202787F31188AB
:1041C00005985C494045CCBF00200120FCF798FDD4
:1041D00020B188F3118806B0BDE8F081044680F371
:1041E00011880223014628463360FFF719FC87F344
:1041F000118805984F490028CCBF00200120FCF70A
:104200007FFD8046002874D180F311884A4A4B4BC9
:1042100092694B489268009503243460013A4FF448
:10422000A471FEF715F9474A014604232846116098
:104230003360FFF735FA044687F3118805983D4946
:104240000028CCBF00200120FCF75AFD0028C0D177
:1042500080F31188B4FA84F03B494009FCF750FD23
:104260000028B8D10523336087F31188059B002B04
:1042700044DDFFF7C5FB4FF0000888F311882027C5
:1042800087F31188059831494045D4BF00200120AB
:10429000FCF736FD044600289BD180F3118887F394
:1042A000118805982A49A0F10100B0FA80F0400970
:1042B000FCF726FDE8B980F311880623336087F305
:1042C0001188059B002B2FDDFFF79AFB002585F356
:1042D0001188202686F3118805981E49A842D4BF6C
:1042E00000200120FCF70CFD044658B185F311882D
:1042F00071E784F3118806B0BDE8F0812846FDF728
:1043000037FAB6E780F3118886F3118805981049CB
:10431000A0F10100B0FA80F04009FCF7F1FC0028A0
:10432000E7D180F3118856E72846FDF721FACBE75D
:104330001C1F00208CA700082C14002091430008AB
:1043400008180020341F002098A70008ACA7000818
:10435000B8A7000890A700080000000000000000B7
:1043600008B54FF4FA70FEF75BFC202383F3118845
:104370000448FDF7FDF9FFF743FB002383F31188A1
:1043800008BD00BFF0170020000000000000000082
:1043900008B5202282F311888368002B05DDFFF722
:1043A0002FFB002383F3118808BDFDF7E1F9FFF728
:1043B00027FB002383F3118808BD00BF0000000025
:1043C00010B52023044683F31188094B186820B1E7
:1043D000002242621A60FDF7ABF8FFF711FB0023E1
:1043E00083F311882078BDE81040FCF731BD00BF91
:1043F000481F002000000000000000000000000036
:104400002DE9F04105460C4616464FF020080027DE
:1044100088F31188EB6823602846EC60FDF7A8F963
:10442000FFF7EEFA87F311882B69013E1C44EFD1A8
:10443000BDE8F08100000000000000000000000066
:104440002DE9F0473248334F3349DFF8D480012358
:10445000042206463B60FFF7D3FF02233B6035464C
:10446000042400212846FEF7FBF9003818BF01207C
:104470004146FCF745FC002848D1013CF1D103231B
:10448000214623483B60FEF7EBF9B0FA80F0234960
:104490004009FCF735FC002838D11F4DDFF870A02B
:1044A000042305F110093B604FF020082B4688F3E8
:1044B0001188F26845F8042B5046F360FDF758F96F
:1044C000FFF79EFA84F311884D45EFD10523104E76
:1044D000134D3B60042400213046FEF7C1F900383B
:1044E00018BF01202946FCF70BFC78B9013CF2D13A
:1044F0002146062306483B60FEF7B2F9B0FA80F089
:10450000BDE8F04705494009FCF7FABBBDE8F08774
:10451000100800201C1F0020E017002064980008ED
:104520005898000800000000000000000000000093
:10453000F8B504460E461546202383F31188C718A4
:1045400004E023696BB9FEF7DBF930B9237D294616
:104550003846002BF5D06FF00100002383F311885B
:10456000F8BDE2686168106804328A42E26003F1D3
:10457000FF3328BF2268306028BFE260236104F166
:104580001800FCF7EDFFFFF73BFA0020002383F350
:104590001188F8BD000000000000000000000000CD
:1045A0002DE9F041114E82B006F11C07B0464FF0E4
:1045B000FF3201A93846FFF7BBFF044610B102B035
:1045C000BDE8F081019D2B68002BF8D06868984702
:1045D000202383F31188F3682B604046F560FDF7D4
:1045E000C7F8FFF70DFA84F31188E0E76C16002096
:1045F0002DE9F041202304460E46154683F3118829
:1046000000F118080AE0D4E900722369A2EB070C54
:10461000B3EBAC0F0ED1FEF773F930B9237D294609
:104620004046002BEFD06FF00100002383F3118888
:10463000BDE8F081A068011D8A4203F10103A16079
:10464000066098BFA760236104F12000FCF788FF93
:10465000FFF7D6F90020002383F31188BDE8F0812D
:104660002DE9F041434FDFF81481434E012382B01E
:104670003B604546422421464FF0FF322846FFF773
:10468000B7FFB0FA80F0314640090134FCF738FB3F
:1046900090B9462CEFD102230122582137483B60C4
:1046A000FFF7A6FFA0F1FF30B0FA80F032494009D1
:1046B000FCF726FB044610B102B0BDE8F0812025CE
:1046C00085F311885820FCF75BFF84F31188A0F173
:1046D000FF30B0FA80F028494009FCF711FB0028B0
:1046E000EAD101215820FFF7EBFAA0F1FF30B0FA30
:1046F00080F021494009FCF703FB04460028DBD188
:1047000085F311885820FCF763FF84F31188A0F12A
:10471000FF30B0FA80F018494009FCF7F1FA04467E
:104720000028C9D103233B60FFF792FA042301A9B3
:104730000122124888F814403B60FFF7F9FEA0F10F
:10474000FF30B0FA80F00C494009FCF7D9FA044672
:104750000028B1D185F3118801A8FCF761FF84F32B
:104760001188A0F1FF30B0FA80F003494009FCF74E
:10477000C7FAA1E71C1F0020CCA700084C080020A6
:104780002DE9F047AF4F4FF0010882B0C7F8008025
:10479000202686F31188AC4CAC492069D4E900236B
:1047A0009B1AC0EBA300A0F10400B0FA80F040090E
:1047B000FCF7A6FA28B1002383F3118802B0BDE804
:1047C000F087054680F3118802233B6086F3118849
:1047D0002368206104F11800C4E9023384F81480CE
:1047E000FCF746FF04F12000FCF742FF85F3118837
:1047F00086F31188D4E90023206995499B1AC0EB00
:10480000A300A0F10400B0FA80F04009FCF778FAA8
:10481000804688B980F3118886F3118820698D4914
:10482000B0FA80F04009FCF76BFA054648B188F30E
:10483000118802B0BDE8F08785F3118802B0BDE8A9
:10484000F08780F3118886F311882068A368824975
:10485000C01AB0FA80F04009FCF752FA80460028EE
:10486000EAD180F3118886F311882068E3687B49D8
:10487000C01AB0FA80F04009FCF742FA0546002859
:10488000D5D180F311880323DFF8D4A120753B60D4
:104890004FF0420986F311884846FCF771FE85F314
:1048A0001188B0FA80F040095146FCF729FA09F165
:1048B00001098046002881D1B9F1450FEAD186F37C
:1048C00011884120FCF784FE88F31188B0FA80F04B
:1048D00063494009FCF714FA054600287FF46EAFDF
:1048E0004FF00409C7F8009086F31188D4E900134B
:1048F00022695B1AB2EBA30F5A490CBF01200020BA
:10490000FCF7FEF98046002896D180F3118886F3E3
:10491000118820695449A0F10400B0FA80F04009E0
:10492000FCF7EEF90546002881D180F3118886F363
:104930001188D4E90230C01AB0FA80F04B4940091E
:10494000FCF7DEF900287FF477AF80F311880523A8
:10495000434E3B6005464FF0200888F3118801A8BC
:10496000FCF75EFE85F31188B0FA80F0400931460D
:10497000FCF7C6F900287FF421AF9DF80400FCF78E
:1049800067FAB9F10109E8D139493A48FCF738FB2F
:1049900000287FF413AF062346212B483B604FF0DD
:1049A000FF32FFF725FEB0FA80F02D494009FCF7F1
:1049B000A7F900287FF402AF01A923484FF0FF3286
:1049C000FFF7B6FDB0FA80F025494009FCF798F9E9
:1049D00000287FF4F3AE07233B6088F31188D4E905
:1049E00000122369521AC3EBA203191F484248411F
:1049F0001749FCF785F908BB89F3118888F31188FA
:104A000020691449B0FA80F04009FCF779F9A8B997
:104A100089F311882068A3680F49C21A5042504197
:104A2000FCF76EF900287FF4C9AE2068E3680B49F3
:104A3000C31A58425841FCF763F9BFE689F311885D
:104A4000BCE600BF1C1F00204C080020E4A70008A3
:104A5000F0A70008FCA7000808A800082CA8000878
:104A6000CCA7000850A800085CA8000868A80008A7
:104A700080A8000894A800080000000000000000C2
:104A80002DE9F041BB4F012382B03B60202686F325
:104A90001188B94CB9492069D4E900239B1AC0EBAD
:104AA000A300A0F10400B0FA80F04009FCF728F957
:104AB00028B1002383F3118802B0BDE8F0810546D8
:104AC00080F3118802233B60FFF7C2F886F3118858
:104AD000D4E900232069AA499B1AC0EBA300A0F1E6
:104AE0000400B0FA80F04009FCF70AF9804688B962
:104AF00080F3118886F311882069A249B0FA80F00A
:104B00004009FCF7FDF8054648B188F3118802B06A
:104B1000BDE8F08185F3118802B0BDE8F08180F333
:104B2000118886F311882068A3689749C01AB0FAE3
:104B300080F04009FCF7E4F880460028EAD180F3D1
:104B4000118886F311882068E3689049C01AB0FA8A
:104B500080F04009FCF7D4F80028D6D180F3118802
:104B6000032301464FF0FF3220463B60FFF740FD34
:104B7000811C14BF002001208549FCF7C1F80028E2
:104B80009AD14FF0FF31FFF79BF8821C14BF002031
:104B900001207F49FCF7B4F800288DD101A94FF01E
:104BA000FF322046FFF7C4FC831C14BF0020012005
:104BB0007749FCF7A5F800287FF47EAF0423DFF8DF
:104BC000D48120753B604225264629464FF0FF32AE
:104BD0003046FFF70DFDB0FA80F04146400901353F
:104BE000FCF78EF800287FF467AF452DEDD14FF02C
:104BF000FF314120FFF764F8B0FA80F065494009C1
:104C0000FCF77EF8054600287FF456AF05233B608D
:104C10004FF0200888F31188D4E9001322695B1A49
:104C2000B2EBA30F5C490CBF01200020FCF768F831
:104C3000064600287FF46EAF80F3118888F3118850
:104C400020695649A0F1040CDCF1000040EB0C0097
:104C5000FCF756F8054610B186F311882CE780F36F
:104C6000118888F31188D4E90230C61A7042704165
:104C70004B49FCF745F800287FF44CAF80F31188CE
:104C80000623DFF8F480434E3B60042501A94FF072
:104C9000FF324046FFF74CFCB0FA80F03146400945
:104CA000FCF72EF800287FF407AF9DF80400FCF70E
:104CB000CFF8013DEAD13B493B48FCF7A1F9002878
:104CC0007FF4FAAE072346212B483B604FF0FF32BA
:104CD000FFF78EFCB0FA80F02E494009FCF710F87F
:104CE00000287FF4E9AE01A923484FF0FF32FFF717
:104CF0001FFCB0FA80F027494009FCF701F80028B2
:104D00007FF4DAAE08233B60202686F31188D4E9CD
:104D100000122369521AC3EBA203191F48424841EB
:104D20001749FBF7EDFF00287FF4F4AE85F31188F7
:104D300086F3118820691349B0FA80F04009FBF727
:104D4000DFFF00287FF4E6AE85F311882068A368B2
:104D50000D49C21A50425041FBF7D2FF00287FF4A0
:104D6000ABAE2068E3680949C31A58425841FBF7C3
:104D7000C7FFA1E61C1F00204C080020E4A7000884
:104D8000F0A70008FCA7000808A800082CA8000845
:104D90009CA80008CCA7000850A800085CA8000840
:104DA00068A8000880A8000894A800080000000077
:104DB00038B5164B01469D69202383F3118800689E
:104DC000CB68AB6388421BD0EC6B4BB11A68934243
:104DD00003D09268944238BF1446DB68002BF5D1AB
:104DE000826B0368AC600B605960C1E902028163A9
:104DF000FCF79EFBFEF704FE002383F3118838BD09
:104E000000238360002383F3118838BD2C14002015
:104E10002DE9F843384E002818BF064606F10C0865
:104E20004046CF1D0D46FEF793FB7268FF08311D0B
:104E30000AB919E01A46D2F804C002F10F0323F0B0
:104E400007030CF10104994602EBC404083BA4EBF0
:104E50000900A3424FEAE00E02D2B7EBE00F13D9EC
:104E600013681146002BE5D14046FFF7A1FF3368D8
:104E7000BBB30822F80011469847814608B140E9C3
:104E800002654846BDE8F883934218D867452CD0A0
:104E9000013702EBC70000F10803E31ADB101468C6
:104EA00042F8374002F10809436008601346404663
:104EB000C3E90065FFF77CFF4846BDE8F88302F1CF
:104EC0000801591AC91077455160F0D27C1CF9438A
:104ED00003EBC40017687144416043F834701060FC
:104EE000E5E799464846BDE8F8839146134659F8E8
:104EF000082B0A60DBE700BFD0150020000000008F
:104F00002DE9F041054686B00F460146114890460E
:104F10001E46FFF77DFF0446C0B10F4BCDF80C8055
:104F20000544CDE904360295CDE90070202383F3D2
:104F300011886846FCF784FA012380F821300021AB
:104F40000446FDF7EDF9002383F31188204606B0EF
:104F5000BDE8F08130160020810F0008000000003D
:104F6000F8B50C68A1420D460646174603D10DE080
:104F70002468A5420AD008223146A01804F0E2FBBA
:104F80000028F5D114B104462046F8BD394600206A
:104F9000FFF73EFF04460028F6D0082231461044B1
:104FA00004F00EFC2B680122C4E9003220462C607C
:104FB000F8BD00BF0000000000000000000000007D
:104FC0002DE9F04F334D2C7D83B01CB1002003B090
:104FD000BDE8F08F824605F13000FEF7B9FADFF840
:104FE000BC800194574605F120091DE0FBF786F9C6
:104FF000286808EB06015A46FBF780F92B684846FB
:105000005B44AB60FFF7D4FE3F1BA044202383F337
:105010001188E869002118B1019BEB61FDF780F967
:10502000019B83F3118837B34846FEF791FAD5E91F
:1050300000462B69A868341BE41ABC4228BF3C46D2
:10504000361A2344B4422B611CD332464146A4EBAA
:10505000060BCBD82246FBF751F92B68AB604846CC
:10506000FFF7A6FE002CCFD1202383F3118884F311
:105070001188AAEB070A0848FFF79AFE504603B0CA
:10508000BDE8F08F22464146FBF738F9AB68234470
:10509000AB60E4E78C080020BC08002064BA00087C
:1050A0002DE9F04F324C257D83B01DB1002003B0B7
:1050B000BDE8F08F8A46804604F14000FEF748FACA
:1050C0005746019504F120091DE0FBF717F9216807
:1050D00008EB06005A46FBF711F9236848465B4483
:1050E000E360FFF765FE7F1BA844202383F311884C
:1050F000A069002118B1019BA361FDF711F9019B83
:1051000083F311882FB34846FEF722FAD4E903133C
:105110006668BB421D46A6EB010628BF3D465B1BE9
:10512000B54223611CD33246A5EB060B4046CCD8D2
:105130002A46FBF7E3F82368E3604846FFF738FEAA
:10514000002DD0D1202383F3118885F31188AAEB99
:10515000070A0848FFF72CFE504603B0BDE8F08F61
:105160002A464046FBF7CAF8E3682B44E360E4E7CD
:105170008C080020CC080020000000000000000087
:1051800030B5224D85B00123102168462B60FFF712
:1051900087FFB0FA80F01E494009FBF7B1FD40B926
:1051A0001C4C2268E36893421DD01B49FBF7A8FD05
:1051B00008B105B030BD022310202B60FFF700FFBF
:1051C000A0F10800B0FA80F011494009FBF798FD02
:1051D0000028EED1D4E9022393420CD00E49FBF70C
:1051E0008FFD05B030BDA2689342DED12069B0FAD0
:1051F00080F04009D9E722689342EFD12069A0F1FD
:105200000800B0FA80F04009E8E700BF1C1F00204A
:10521000E4A700088C080020B0A8000800000000E7
:1052200038B505460748FEF793F9074A0748111FA6
:10523000FDF706F8044600B105610248FFF7B8FD26
:10524000204638BDA4140020B8140020C4A80008CB
:1052500038B5074D2846FEF77BF905F110010548E2
:10526000FCF7CEFF04462846FFF7A2FD204638BDD6
:10527000A4140020C4A800080000000000000000E2
:1052800010B50A48FEF764F909490A488022FFF779
:1052900067FE044620B180220021103004F002FA9B
:1052A0000248FFF785FD204610BD00BFA414002072
:1052B000C8140020CCA80008000000000000000076
:1052C00038B5074D2846FEF743F905F12401054896
:1052D000FCF796FF04462846FFF76AFD204638BDD6
:1052E000A4140020CCA8000800000000000000006A
:1052F00010B50A48FEF72CF9094A0A48111FFCF7B5
:105300009FFF044628B100F11003C0E904330022D6
:1053100082610248FFF74CFD204610BDA414002016
:10532000D0140020D4A800080000000000000000F5
:1053300038B5074D2846FEF70BF905F12801054859
:10534000FCF75EFF04462846FFF732FD204638BDD5
:10535000A4140020D4A800080000000000000000F1
:1053600038B51148FEF7F4F8104911487822FFF7D4
:10537000F7FD044698B100F1380304F1280104F167
:105380003002C4E90633C4E90A11C4E90C2200F171
:105390007805002023616561206284F824000248BA
:1053A000FFF706FD204638BDA4140020E0140020BD
:1053B000DCA8000800000000000000000000000061
:1053C00038B5074D2846FEF7C3F805F13C010548FE
:1053D000FCF716FF04462846FFF7EAFC204638BDD6
:1053E000A4140020DCA80008000000000000000059
:1053F00070B51848FEF7ACF8174918484FF4CA7250
:10540000FFF7AEFD044600B3002600F1940510221C
:1054100004231030C4E908232946C4E90400E661E6
:10542000A662A661FEF7ECFF04F1540304F1440107
:1054300004F14C02C4E90D33C4E91111C4E913228B
:105440002563E66384F84060E3620248FFF7B0FC3E
:10545000204670BDA4140020E4140020E4A8000835
:1054600038B5074D2846FEF773F805F140010548A9
:10547000FCF7C6FE04462846FFF79AFC204638BDD6
:10548000A4140020E4A800080000000000000000B0
:1054900038B51548FEF75CF8144915487022FFF737
:1054A0005FFD0446D8B100F16002002300F17005F1
:1054B000C4E90622303004F14001226104F15002B7
:1054C000C4E90A33C4E90C00C4E91011C4E9142288
:1054D0006561236284F82430A363A364A365024852
:1054E000FFF766FC204638BDA4140020E814002015
:1054F000ECA8000800000000000000000000000010
:1055000038B5074D2846FEF723F805F14401054854
:10551000FCF776FE04462846FFF74AFC204638BDD5
:10552000A4140020ECA80008000000000000000007
:1055300070B51F4C1F4E012584B004F1200035606A
:10554000FEF706F8236825750022C4E902332261BC
:10555000202383F31188A06928B16FF0010343620F
:10556000A261FBF7E5FFE06930B16FF00103436230
:105570000023E361FBF7DCFFFEF742FA002585F329
:1055800011880D48FFF714FC2268E368934206D0A7
:1055900028460A49FBF7B4FB90B104B070BDA2687D
:1055A0009342F5D12569B5FA85F04009F1E700BFCE
:1055B0008C0800201C1F0020AC080020B0A80008A8
:1055C000022310203360FFF7FBFCB0FA80F0C349E0
:1055D0004009FBF795FB0028DFD12268E36893427E
:1055E00000F08D81BE49FBF78BFB0028D5D103234A
:1055F000102168463360FFF753FDB0FA80F0B749D9
:105600004009FBF77DFB0028C7D12268E36893427D
:1056100000F08781B249FBF773FB0028BDD12268F7
:10562000E368207504219342316000F07181AC4938
:10563000FBF766FB0028B0D1052310203360FFF78D
:10564000BFFCA0F11000B0FA80F0A6494009FBF7BA
:1056500057FB0028A1D12268E368934200F06A81D9
:105660009F49FBF74DFB002897D106231021684680
:105670003360FFF715FDA0F11000B0FA80F09949F2
:105680004009FBF73DFB002887D12268E36893427D
:1056900000F05B819249FBF733FB00287FF47DAF7C
:1056A000914B009A9A4200F0598101208F4980F075
:1056B0000100FBF725FB00287FF46FAF07230420D0
:1056C0003360FFF77DFCA0F10400B0FA80F085495B
:1056D0004009FBF715FB00287FF45FAFD4E90223F4
:1056E000934203D02268934200F053817C49FBF738
:1056F00007FB00287FF451AF08230C203360FFF72D
:105700005FFCA0F10C0EDEF1000040EB0E007549CD
:10571000FBF7F6FA00287FF440AF2268E368934273
:1057200000F03C816E49FBF7EBFA00287FF435AFBF
:105730000923042168463360FFF7B2FC051F684265
:1057400068416849FBF7DCFA00287FF426AF23683C
:10575000E2689A4203D0A268934200F04581604912
:10576000FBF7CEFA00287FF418AF00985E4B5F4934
:10577000C21A50425041FBF7C3FA00287FF40DAF24
:105780000A230C2168463360FFF78AFCA0F10C0362
:10579000584258415349FBF7B3FA00287FF4FDAE55
:1057A0002268E368934200F005814D49FBF7A8FAAF
:1057B00000287FF4F2AE69464D480C2203F042FF08
:1057C000B0FA80F049494009FBF79AFA00287FF4C3
:1057D000E4AE0B2305203360FFF7F2FBA0F1050ECA
:1057E000DEF1000040EB0E003E49FBF789FA00288D
:1057F0007FF4D3AED4E90223934203D022689342CC
:1058000000F0E1803649FBF77BFA00287FF4C5AE53
:105810000C23052168463360FFF742FC451F6842B0
:1058200068413049FBF76CFA00287FF4B6AED4E942
:105830000223934200F0E8802949FBF761FA00282F
:105840007FF4ABAE69462A48052203F0FBFEB0FAAE
:1058500080F026494009FBF753FA00287FF49DAEFB
:105860000D2310203360FFF7ABFBA0F1100148427D
:1058700048411C49FBF744FA00287FF48EAED4E976
:105880000223934200F0B6801549FBF739FA00284D
:105890007FF483AE0E23102168463360FFF700FCCF
:1058A000A0F11003584258410E49FBF729FA00288D
:1058B0007FF473AED4E90223934200F08C80084950
:1058C000FBF71EFA00287FF468AE694610220848EC
:1058D00003F0B8FEB0FA80F00CE000BFF4A80008B6
:1058E000B0A80008E4A700083031323300A900084E
:1058F00064BA000849494009FBF702FA4DE6A2687C
:1059000093427FF46FAE2069B0FA80F0400969E6F7
:10591000A26893427FF48BAE2069B0FA80F0400910
:1059200085E6A26893427FF475AE2069B0FA80F0F4
:1059300040096FE6A26893427FF492AE2069A0F11D
:105940001000B0FA80F040098AE6A26893427FF422
:10595000A1AE2069B0FA80F040099BE6019A03F1FC
:1059600004339A427FF4A1AE03F13063029A03F547
:10597000302303F204439A427FF497AE03F180632D
:10598000039A03F5812303F20B339A427FF48DAE21
:105990008CE62069031F58425841A7E6A26893424B
:1059A0007FF4C0AE2069A0F1100CDCF1000040EBE8
:1059B0000C00B7E6A26893427FF4F7AE2069B0FA14
:1059C00080F04009F1E62069A0F1050CDCF100004F
:1059D00040EB0C0016E7226893423FF470AF206959
:1059E000B0FA80F040096AE72069A0F10C01484252
:1059F0004841B4E6226893423FF446AF2069A0F1E3
:105A00001002504250413FE7226893423FF414AFE6
:105A10002069B0FA80F040090EE700BF00A9000835
:105A20002DE9F843DFF880801C4C0123C8F80030D2
:105A3000FDF79EFB002506464FF0804942F20F77A6
:105A40002046FDF785FD2046FFF7B2F92046FDF719
:105A50007FFD2046FFF7ACF92046FDF779FD204693
:105A6000FFF7A6F92046FDF773FD2046FFF7A0F9E2
:105A7000D9F824309B1BBB4205F10105E0D9022374
:105A80000748C8F80030FBF7A3FAA800FBF7D0F9E5
:105A9000BDE8F8430348FBF77BBA00BFE0160020DF
:105AA00094A6000814A900081C1F00200000000094
:105AB000F8B504461B48FDF74BFD1B48FDF748FDB4
:105AC000202383F31188194DAB699E6B3046FBF799
:105AD00027FE174BAA691946536203E09F68906836
