:020000040800F2
:1000000000040020B9020008BB020008BB0200087F
:10001000BB020008BB020008BB020008BB020008CC
:10002000BB020008BB020008BB02000891140008D4
:10003000BB020008BB020008BB020008BB020008AC
:10004000BB020008BB020008BB020008BB0200089C
:10005000BB020008BB020008BB020008BB0200088C
:10006000BB020008BB020008BB020008BB0200087C
:10007000BB020008BB020008BB020008BB0200086C
:10008000BB020008BB020008BB020008BB0200085C
:10009000BB020008BB020008BB020008BB0200084C
:1000A000BB020008BB020008BB020008BB0200083C
:1000B00061190008BB020008BB020008BB0200086F
:1000C000BB020008BB020008BB020008BB0200081C
:1000D000BB020008BB020008BB020008BB0200080C
:1000E000BB020008BB020008BB020008BB020008FC
:1000F000BB020008BB020008BB020008BB020008EC
:10010000BB020008BB020008BB020008BB020008DB
:10011000B1170008BB020008BB020008BB020008C0
:10012000BB020008BB020008BB020008BB020008BB
:10013000BB020008BB020008BB020008BB020008AB
:10014000BB020008BB020008BB020008BB0200089B
:10015000BB020008BB020008BB020008BB0200088B
:10016000BB020008BB020008BB020008BB0200087B
:10017000BB020008BB020008BB020008BB0200086B
:10018000BB020008BB020008BB020008BB0200085B
:10019000BB020008BB020008BB020008BB0200084B
:1001A000BB020008BB020008BB020008BB0200083B
:1001B000BB020008BB020008BB020008BB0200082B
:1001C000BB020008BB020008BB020008BB0200081B
:1001D000BB020008BB020008BB020008BB0200080B
:1001E00072B6274880F30888264880F30988264895
:1001F0004EF60851CEF200010860022080F3148808
:10020000BFF36F8F01F054FC01F09AF94FF05530B5
:100210001E491B4A91423CBF41F8040BFAE71C49B6
:10022000184A91423CBF41F8040BFAE719491A4AAF
:100230001A4B9A423EBF51F8040B42F8040BF8E700
:1002400000201749174A91423CBF41F8040BFAE7D6
:1002500001F0E6FB01F024FC134C144DAC4203DA30
:1002600054F8041B8847F9E700F0C2FE104C114D0A
:10027000AC4203DA54F8041B8847F9E701F008BCE4
:1002800000040020000800200000000800000020FA
:1002900000040020981B000800080020000800202F
:1002A00000080020400A0020E0010008E0010008EA
:1002B000E0010008E001000892E700F000F8FEE726
:1002C0002DE9F04FC1F80CD0C3689D46BDE8F08F12
:1002D000002383F311882846A047002001F0E8F8A6
:1002E000FEE701F00DF900DFFEE70000844641EA79
:1002F000000313F003036DD1403A41D351F8043B9E
:1003000040F8043B51F8043B40F8043B51F8043BEF
:1003100040F8043B51F8043B40F8043B51F8043BDF
:1003200040F8043B51F8043B40F8043B51F8043BCF
:1003300040F8043B51F8043B40F8043B51F8043BBF
:1003400040F8043B51F8043B40F8043B51F8043BAF
:1003500040F8043B51F8043B40F8043B51F8043B9F
:1003600040F8043B51F8043B40F8043B51F8043B8F
:1003700040F8043B51F8043B40F8043B403ABDD2FE
:10038000303211D351F8043B40F8043B51F8043BA0
:1003900040F8043B51F8043B40F8043B51F8043B5F
:1003A00040F8043B103AEDD20C3205D351F8043B2F
:1003B00040F8043B043AF9D2043208D0D2071CBFFB
:1003C00011F8013B00F8013B01D30B880380604624
:1003D000704700BF082A13D38B078DD010F003039A
:1003E0008AD0C3F10403D21ADB071CBF11F8013B0A
:1003F00000F8013B80D331F8023B20F8023B7BE759
:10040000043AD9D3013A11F8013B00F8013BF9D283
:100410000B7803704B7843708B788370604670471D
:100420001A4B0128596814BF012200224FF0010025
:1004300000FA02F021EA000130B4596098684FEAEE
:1004400042014FF0030404FA01F120EA0100986030
:10045000D86820EA0100D860186A4FEA82024FF09B
:100460000F0505FA02F54FF0080420EA050004FA2A
:1004700002F242EA00021A621A6814BF2046022001
:1004800022EA0102024330BC1A60704700000240B9
:1004900030B4202383F311880B4CD4E90035494252
:1004A000281A0840821A9A4207D3954205D36260FF
:1004B000002383F3118830BC70470020002383F3AE
:1004C000118830BC704700BF180A002000000000EF
:1004D000024AD36843F0C003D3607047004C004029
:1004E000202383F311880D4B5B6813F4006302D162
:1004F00083F311887047EFF30983203B4FF080723C
:10050000DA6183F30988064A1168926989689268FA
:1005100091428CBF034A044A9A61704700ED00E0A3
:100520007C080020E3020008E6020008000000004A
:10053000084A10B4D2E900344942201A08409842CF
:1005400004D3844202D310BC50607047002010BC1A
:10055000704700BF180A00200000000000000000E3
:100560000E4A0F4B52685B6F816830B4D31AD0E9E2
:100570000445C2685B1A01324168C260E41802682F
:10058000836045F100058B4288BF43609342C0E918
:10059000044538BF036030BC704700BF001000E066
:1005A0007C080020000000000000000000000000A7
:1005B000014B5B6883607047001000E000000000A2
:1005C000202383F3118890F82030072B0DD8DFE823
:1005D00003F0270C0C2308040C08426A93680133CB
:1005E0009360D0E9003213605A6010B400224FF0DB
:1005F000FF3481680C4B446280F820201B689A68A5
:100600008A42FBD25A680021C0E90032106058606B
:1006100081F3118810BC7047436A00221A60E4E736
:10062000002383F3118870477C080020000000003D
:1006300000228168064B80F820201B689A688A4255
:10064000FBD25A68C0E9003210605860704700BFA2
:100650007C080020000000000000000000000000F6
:10066000F8B5164F57F8044FBC4220D00546002677
:1006700004E00B2A1CD02468BC4218D0E3682B434A
:10068000E36015B123691D42F5D0D4E90103416B44
:1006900090F820200B430A2A4363EAD1426A1342AE
:1006A000E9D04662FFF7C4FF2468BC42E6D1F8BD3A
:1006B000426A32EA0303DED1F3E700BF00080020FC
:1006C000FEE700BF00000000000000000000000086
:1006D0000020704700000000000000000000000043
:1006E000084B99691A6810B481F8200010681860E6
:1006F0000124436082F8204010BC9A611046FFF745
:10070000DFBD00BF7C0800200000000000000000EA
:10071000F0B54B1C87B049D03F4C404FA3690593BF
:100720002646022956F81C3F05464FF0804038BF48
:100730000221B342426A04975BD0A76AD21B891890
:100740002ED398681B689A68091A914204D91B68CD
:10075000891A9A688A42FAD35A68029201AF0193C1
:1007600017605F6003919A68511A4FF0FF329960E9
:1007700062622846FFF7B4FF049B6BB1E369BB429A
:100780001BD0DDE901321360019BB3425A6003D0F4
:100790009A6803990A449A60A369586A07B0F0BD41
:1007A0009A689142D1D20F444763CEE71A4CFFF7C3
:1007B00097FFA369586A07B0F0BD019BE36100226F
:1007C000B3425E60049222D09A680398A16A024400
:1007D0004FF080409A60436A581A8242DCD9CB1AA3
:1007E0001344012B98BF821C4FF080430A445A6384
:1007F000D2E78B1801AFA262CDE90166C4E90777A1
:1008000003910022436302230261C360B1E74FF00A
:100810008043DA60C0E700BF7C080020C105000803
:1008200061B1084A10B4926944680346C2E90034D1
:100830000420226010BC5A60FFF76ABF4FF0FF30FF
:10084000704700BF7C08002000000000000000008E
:10085000F8B504460F461646202383F3118803E0BB
:10086000FFF7DEFF002818DBA56831462046002D83
:10087000F6D06269A368511C013B6161A3601770E7
:10088000D4E904329A4224BFE3686361E36903B1A7
:100890009847002080F31188F8BD85F31188F8BDD2
:1008A0003030FFF7D5BF00BF00000000000000009F
:1008B00030304FF0FF32FFF7CBBF00BF0000000029
:1008C00070B5202305460E4683F3118803E0FFF739
:1008D000A7FF00281ADBAC6831462846002CF6D06A
:1008E000A969AB6828694A1C013B8242AB60AA61D6
:1008F00028BFEB680C7828BFAB61EB690BB12846C9
:100900009847002383F31188204670BD84F3118833
:1009100070BD00BF000000000000000000000000EB
:100920000C30FFF7CDBF00BF00000000000000004A
:100930000C304FF0FF31FFF7C3BF00BF00000000D5
:100940000EB42DE9F04F86B00FAB53F8044B029371
:10095000254615F8011B002900F03B820746994601
:100960004FF000080CE03B683846DB6808F10108EE
:100970002C469847254615F8011B002900F0BE803B
:100980002529F0D163782D2B04BFA51C01202B78DD
:1009900018BF00202B2B03BF6B784FF0010E75445E
:1009A0004FF0000E302B05BF1E466B782026013518
:1009B0002A2B40F0AC8059F8041B6B78AC1C2E2B12
:1009C00000F03081002203F0DF054C2D00F0B280F2
:1009D000A3F1440CBCF1340F00F29881DFE81CF065
:1009E0005E0196019601960196015E0196019601BF
:1009F0009601960196019A0135009601960196019D
:100A00009601940096019601350096019601960193
:100A100096019601960196019601960196014D0167
:100A20005E0196019601960196015E01960196017E
:100A30009601960196019A013500960196012D01C5
:100A4000960194009601960135004FF0100E59F86A
:100A5000045B0DF1170300E06346AA46B5FBFEF503
:100A60000EFB15AB0BF13002392AC8BF0BF1370270
:100A7000D2B2F24503F1FF3C03F8012CECD20DF1A8
:100A80000C0A0DF11705A5EB0C05D6460DF1170C58
:100A900001E013F8012B0EF8012B6345F9D1491B36
:100AA000013D21EAE17B20B90029CBF1000B00F3E5
:100AB0004581002D0FDB6B1C534401941C463A68A2
:100AC0001AF8011BD26838469047A245F7D108F1C1
:100AD0000108019CA844BBF1000F3FF44BAF5D46F9
:100AE0003B683146DB6838469847013DF8D12546DA
:100AF000D84415F8011B00297FF442AF404606B0E8
:100B0000BDE8F04F03B070474FF00A0E9FE76C1C32
:100B1000002BF3D00021A3F13002D2B2092A01EB5D
:100B200081053FF64CAF14F8013B02EB4501002B69
:100B3000F1D1E3E714F8013B002BDFD0A3F144052A
:100B4000342D00F2E3800FF2080C5CF825F000BFB2
:100B50009D0C00080D0D00080D0D00080D0D00087E
:100B60000D0D00089D0C00080D0D00080D0D00086E
:100B70000D0D00080D0D00080D0D0008150D0008E5
:100B80004B0A00080D0D00080D0D00080D0D0008A2
:100B90000D0D0008090B00080D0D00080D0D0008D3
:100BA0004B0A00080D0D00080D0D00080D0D000882
:100BB0000D0D00080D0D00080D0D00080D0D0008AD
:100BC0000D0D00080D0D00080D0D00087B0C000830
:100BD0009D0C00080D0D00080D0D00080D0D0008FE
:100BE0000D0D00089D0C00080D0D00080D0D0008EE
:100BF0000D0D00080D0D00080D0D0008150D000865
:100C00004B0A00080D0D00080D0D00083B0C0008F4
:100C10000D0D0008090B00080D0D00080D0D000852
:100C20004B0A00082378002B3FF468AF2A2B74D1BD
:100C3000637859F8042B0234C5E659F804ABBAF1CD
:100C4000000F00F0BC809AF80030002A40F0AA8023
:100C5000002B00F0AB8047F6FE72554601E0D34210
:100C600005D415F8016FAAEB0503002EF7D1A5EB0B
:100C70000A05491B2026013D13E759F8043B8DF86E
:100C80000C300139202621EAE17B18B90029CBF18B
:100C9000000B72DC00250DF10C0A0CE759F804CBAF
:100CA000BCF1000F5FDBBEF1000F00F08E802B2344
:100CB0008DF80C300DF10D050DF10C0A05F10B034B
:100CC00001931A46474BA3FB0CE3DB0803EB830BB2
:100CD0009E46ACEB4B033033E346DBB2BBF1090F6E
:100CE00002F8013DF446EDDC9E46019BA3EB020CAD
:100CF000AC44734601E012F8013F05F8013B65453D
:100D0000F9D1A5EB0A05491B013DCAE68DF80C3067
:100D10000139B8E74FF0080E99E601340022A3F13B
:100D20003005EDB2092D02EB820C3FF64CAE14F803
:100D3000013B05EB4C02002BF1D1DFE6CDF804B00E
:100D40009AF800102D2921D03B683146DB683846DF
:100D500098471BF1010BF7D1019B002DA8EB03086D
:100D6000BFF6A9AE06E62D23CCF1000C8DF80C30B1
:100D70000DF10D050DF10C0AA0E79DF80C10CDF852
:100D800004B02D290DF10C0A0546DDD1302EDBD142
:100D90003A683846D26890470AF1010A08F101081A
:100DA000013DD1E713B1013A7FF557AF21EAE17B6D
:100DB00018B90029CBF1000B0DDC20268BE6DFF8FB
:100DC00028A0002A3FF447AFEDE70DF10C0A554685
:100DD00074E7884692E6CDF804B020264FF0FF3540
:100DE000AEE700BFCDCCCCCCB41A000800000000A8
:100DF0002DE9F04F85B0CDE90232C7694FF02009E7
:100E000089F31188A2B3DDF80CB004460E464FF00A
:100E1000000AA2689345D4E904208CBFA5685D460A
:100E2000A2EB0008A84544D829D2A5EB0803424606
:100E300031460193FFF75AFA06EB0801DDF804800A
:100E4000E0684246FFF752FAA268E1684346CB18D1
:100E5000521B6361A2600FB12046B8478AF3118824
:100E6000ABEB050B2E4489F31188BBF1000FD0D1F9
:100E70000398002383F3118805B0BDE8F08F2A465C
:100E80003146FFF733FAE2686261A268521BA26042
:100E9000002DE0D102992046FFF7C2FC0028B8D00F
:100EA000039BA3EB0B00002383F3118805B0BDE87F
:100EB000F08F2A463146FFF719FA62692A446261C7
:100EC000E3E700BF00000000000000000000000099
:100ED0003030FFF78DBF00BF0000000000000000B1
:100EE00030304FF0FF33FFF783BF00BF000000003A
:100EF0002DE9F04F85B0CDE90232C7694FF02009E6
:100F000089F31188002A34D0DDF80CB004460E466F
:100F10004FF0000AA268A169934522698CBFA568B9
:100F20005D46A2EB0108A84544D829D2A5EB0803E9
:100F3000424630460193FFF7D9F906EB0800DDF889
:100F40000480E1684246FFF7D1F9A268E1684346B0
:100F5000CB18521BA361A2600FB12046B8478AF399
:100F60001188ABEB050B2E4489F31188BBF1000F00
:100F7000D0D10398002383F3118805B0BDE8F08F2A
:100F80002A463046FFF7B2F9E268A261A268521B16
:100F9000A260002DE0D102992046FFF741FC002815
:100FA000B8D0039BA3EB0B00002383F3118805B09B
:100FB000BDE8F08F2A463046FFF798F9A2692A4427
:100FC000A261E3E700000000000000000000000054
:100FD0000C30FFF78DBF00BF0000000000000000D4
:100FE0000C304FF0FF33FFF783BF00BF000000005D
:100FF000BD4BBE481A696FEAC2526FEAD25280B541
:101000001A611A69C2F308021A614FF0FF341A69B3
:101010005A695C61002259695A615969196A61F01B
:1010200080511962196A01F080511962196A596A6E
:101030005C62596A5A62596A196C41F080511964AC
:10104000196E41F080511966196E016841F4807182
:101050000160196F01F44071B1F5007F86B003D0D3
:101060004FF4803119671A67A04CA14A6168A14DFD
:10107000A14F9D486023402621F4007161604FF02C
:10108000800C82F806334FF48071C2F880611660DC
:101090004FF4007682F807332C46C2F880C1C2F8BC
:1010A00000C082F80833C2F88011116082F8093359
:1010B000C2F8806116604FF4806682F80A33C2F885
:1010C000806116604FF4000682F81733C2F8806121
:1010D000166082F82833C2F88411516044F8047B0A
:1010E0006C6005F1540400214FF0010E05F164031A
:1010F000C5E9084405F10C06AC611024C5E9036696
:1011000085F808E06961EB61AC63046CEB6344EA69
:101110000E040464046E794FAB6444EA0E04046662
:10112000006EB8686B6440EA0E00A962ED622D653E
:10113000B8604FF08040724C724E734B42F2CF0752
:1011400087624FF0FF37C762646081614163C160AD
:101150004160C0F814E0C0F800E005F1740082F8C6
:101160001CC328646948E8644FF0805C684868677D
:10117000C2F880C1C2F800C005F13002C5E90C22F6
:10118000644A2460A160326006F10C02C6E90322C1
:1011900003F110021A61C6E9011103F12402716121
:1011A00014269E615A6203F128061C229E621A636D
:1011B00003F13C0603F14002DE631A6403F14406C6
:1011C00004F11C025E64C4E907220426524A1A6232
:1011D0009A63C3E90033514A99605961D962DE616B
:1011E0005E634F484F4B6167C0E900230022002334
:1011F000C4E90444C4E909710097CDE90423CDE9A9
:10120000011103916846FFF7D3F96846FFF7A8F983
:10121000013EF7D1444A6769009B63678020012142
:1012200002F12C03DFF814E1A06302F1280CE06660
:10123000C4E91966C4E9104784F8516084F8521073
:10124000C4F848E020203A61C4E90522C4E916C385
:1012500084F85010E664236680F3118862B6334B3D
:10126000334FD3F80CC04FF6FF0E0CEA0E0C0EF104
:10127000604E4CEA0707AEF60F3EDF60DEF80C70FA
:10128000DFF8BCC047F08077CEF80C70DCF8007057
:101290004FF0100E0F43CCF8007083F81FE083F876
:1012A000220086F3118862B680F31188214B6069B1
:1012B000C3F89810C3E9326183F8B2101E4FDFF80B
:1012C00084E0DFF884C0DF6603F16C01C3F89C1092
:1012D00003F190070221A3F8B010C3F8A400C3F8EB
:1012E000C460C3F88CE031E0003802400070004078
:1012F00000E100E000080020701B0008002004E06E
:101300007C080020200A0020F4080020D1040008F6
:10131000004C00409104000831050008400A0020FC
:10132000180A002000000220AC08002000ED00E0B8
:101330000003FA0540090020C1060008D81A000879
:10134000001000E0D1020008D01A0008C3F8A8C0BD
:101350001E67C3F8A040C3F8AC300761A169C3F8A9
:10136000B460D1F808C0676103F1BC0003F1B80EA6
:10137000C3E92EE0C3F8C000BCF1000F60D083F8D1
:10138000B060303A126891680029FBD1C3F8902010
:101390005168C3F894100F605760002383F31188DD
:1013A000202383F311882B7A012B12D1304B314A41
:1013B000196C41F400211964196E41F40021196679
:1013C000C0204FF480111B6E82F83403C2F88411E0
:1013D00051606B6F284A934246D0284940F2D92287
:1013E0008B4218BF4FF4B6729A604024012042F23B
:1013F0002C1100221C6158610224D9601A60FF215F
:101400001E685B6885F878102C7282F31188FFF7EC
:1014100007F820461A4C1B4EFFF702F81A492160C4
:1014200020253046FFF78CFA85F3118842F21071BF
:101430000820FFF76DF9002383F311882168F0E796
:1014400081F82060303A126890680028FBD150681B
:10145000C1E900200160516001220C4883F8B020EE
:10146000A761FEF72DFF98E740F2D922BCE700BF45
:101470000038024000E100E000100140001401408B
:101480003C0A002000080020BC1A0008D0090020F7
:10149000EFF30983203383F30988002383F3118852
:1014A000704700BF000000000000000000000000C6
:1014B00038B52022034682F311880F4A9469A06A46
:1014C000636204F12805A84206D00368A362FFF70F
:1014D000AFF8A06AA842F8D194F822303BB994F84A
:1014E00021309B0703D1D4E9043213615A61BDE86E
:1014F00038400F20FFF7F4B87C08002000000000FF
:101500000D4A10689169036830B401245A600025BF
:1015100080F820408C681360906181F8205000E0D2
:101520001B689A689442FBD35A6830BCC1E9003208
:1015300011605960FEF7C4BE7C0800200000000066
:101540007E4A7F481369DFF84CC240F2FF110B431B
:101550002DE9F041136113697A4EDFF83CE27A4FCE
:101560007A4D7B4C23F4FF7323F00103136113695D
:10157000136B0B431363136D0B4313656FF4A84197
:101580000023D2F85080436081604FF6FF71C0F8AD
:101590000CE0DFF808824161DFF804E207624FF4F3
:1015A0001077C0F82480C0F800E077604FF0FF307B
:1015B000DFF8F0E1B0604FF08067C6F80CE07161D1
:1015C0004FF0400E3762634FC6F824E0376006F1F3
:1015D000A25606F5443606F5AA766B60A860EE6062
:1015E0004FF0C04669612E625B4E6E625B4E2E60AC
:1015F0005B4D6360A060E56040F6FF756561594F23
:10160000594E5A4D236263622560CCF80430584D20
:10161000CCF8080004F5A054CCF80C30CCF8141029
:10162000CCF82030CCF82430CCF800E0ACF5D03C3D
:101630007B60B860FB6079613B627B623B6073609A
:101640004FF08057B060F360716133627362336052
:101650004FF440466B60A860EB6069612B626B627F
:101660002B606360A060E36061612362636223605A
:101670001764CCF80060136843F00103136013682B
:101680009E07FCD591682D4B21F0030191609A686B
:1016900012F00C02FBD11868284900F0F90018601C
:1016A0009A601A6842F480321A600B689D03FCD578
:1016B0004A6F224B42F001024A675A6F9407FCD5E9
:1016C0002C4A5A601A682C4942F080721A604B68A2
:1016D0005804FCD5194B1A689201FCD52749284AB1
:1016E00099601268274B9A421ED0274B40F2057230
:1016F0001A60254A136803F00F03052BFAD10F4B2C
:101700009A6842F002029A609A6802F00C02082A73
:10171000FAD15A6C42F480425A645A6E42F48042C2
:101720005A665B6EBDE8F081184A194B12689A42FE
:10173000DBD1154B40F205121A60DAE7003802409F
:10174000000002400004024000005655000802401C
:10175000000C0240802008000006060001802002E4
:101760005550550000140240001802400001005579
:10177000001C024008544007007000400094883864
:10178000002004E011640020003C024000ED00E075
:1017900041C20F41001002405400014000AA0A005B
:1017A00000AAA02A154551550000000000000000C5
:1017B0002DE9F047664C666FF7683368DA059DB22D
:1017C0007BD4202383F3118815F02F0F4DD0DFF841
:1017D00088814FF0000908E0AD06D6F804A01DD4BA
:1017E000336813F02F0F9DB23FD02B07F4D015F0C4
:1017F000080F0CBF00208020E90748BF40F0200000
:10180000AA0748BF40F040006B0748BF40F4807013
:10181000FEF726FFAD06D6F804A0E1D5636994F87B
:101820007850002B3AD0D4E9083293423DD0626917
:10183000591C013205EA0A05626121621D70D4E972
:1018400007329A4201D3A3692362E0684045C7D0BA
:101850000368E360C3F80480C0F82490FEF7E8FE54
:10186000336813F02F0F9DB2BFD1002383F311888B
:10187000380601D529062ED47A060BD56B0609D574
:10188000202383F31188D4E911239A4249D00023FD
:1018900083F31188BDE8F047FEF722BE0420FEF76F
:1018A000DFFED4E908329342C1D16269002ABED07A
:1018B0004FF48060FEF7D4FE92E7202383F3118873
:1018C0004FF40070FEF7CCFE6FF48073336000239A
:1018D00083F3118875E7202383F31188D4E911235A
:1018E0009A4229D0A26B216C581C0132A263A064D9
:1018F000884293F8008001D3E36BA364206B154BFF
:10190000984206D002682263002153604162FEF7CC
:101910008FFEC6F80480002383F311887A06B9D5B8
:10192000ACE7A36B002BB2D01020FEF799FE4FF668
:10193000BF731F40F760AAE7A26B002AD2D008202D
:10194000FEF78EFE4FF67F733B40F360E3E700BF88
:1019500000080020300800200C08002000000000D3
:101960004FF080402DE9F8430369C2681340DAB2B2
:10197000D2439B07026103D4BDE8F843FEF7B0BD34
:10198000202383F31188234D476AEB69AA6A99687B
:10199000BE1AB14288BF05F11C0925D8044605F1DD
:1019A0001C094FF00008202700E0AA6A18680A44C2
:1019B0004845AA62A6EB0106DA68C0F80490E8611F
:1019C000C3F80C8008BFC4F80C8088F3118818692C
:1019D000904787F31188EB6999688E42E5D2676A70
:1019E000AA6ABE1A8E42DED24B450BD09968AF620E
:1019F000C91B0A444FF08041022A2CBFBF1802378E
:101A00009A604F63002383F31188BDE8F843FEF723
:101A100067BD00BF7C08002000000000000000003F
:101A2000F0B4144F144D1548154B164907F1700CBE
:101A30000026984211D904391A4651F8044F42F849
:101A4000044B9042F9D8421ED21A22F0030204320B
:101A500013449D4203D943F8046B9D42FBD867456C
:101A600005D0D7E90413D7E906051037E1E7F0BC44
:101A7000704700BFF01A0008400A0020400A00200A
:101A8000400A0020981B0008000000000000000031
:101A9000FEE700BF000000000000000000000000A2
:101AA000704700BF000000000000000000000000C0
:041AB000704700BFBC
:101AB400286E756C6C290000414C4C4148207361C0
:101AC4007665206D65210D0A0000000069646C656F
:101AD400000000006D61696E001641300404440882
:101AE4000C1014181C20212200000000981B000870
:101AF400400A0020400A0020400A0020981B0008E9
:101B0400000000200000002000000020981B0008B6
:101B140000C0012000C0012000C00120981B000863
:101B2400000000000000000000000000981B0008F6
:101B3400000000100000001000000010981B0008B6
:101B4400004002400040024000400240981B000850
:101B5400000000000000000000000000981B0008C6
:101B64000000000000000000000000000000000071
:101B7400E10E0008E10F0008B1080008310900086F
:101B8400A108000821090008D10E0008D10F00089F
:041B9400D10600086E
:04000005080002B934
:00000001FF
